{
	"mapping_example.sol": {
		"mapping_example": {
			"abi": [
				{
					"inputs": [
						{
							"internalType": "uint256",
							"name": "",
							"type": "uint256"
						}
					],
					"name": "array",
					"outputs": [
						{
							"internalType": "uint256",
							"name": "",
							"type": "uint256"
						}
					],
					"stateMutability": "view",
					"type": "function"
				},
				{
					"inputs": [
						{
							"internalType": "string",
							"name": "_name",
							"type": "string"
						},
						{
							"internalType": "string",
							"name": "_subject",
							"type": "string"
						},
						{
							"internalType": "uint8",
							"name": "_marks",
							"type": "uint8"
						}
					],
					"name": "set",
					"outputs": [],
					"stateMutability": "nonpayable",
					"type": "function"
				},
				{
					"inputs": [],
					"name": "std1",
					"outputs": [
						{
							"internalType": "string",
							"name": "name",
							"type": "string"
						},
						{
							"internalType": "string",
							"name": "subject",
							"type": "string"
						},
						{
							"internalType": "uint8",
							"name": "marks",
							"type": "uint8"
						}
					],
					"stateMutability": "view",
					"type": "function"
				},
				{
					"inputs": [],
					"name": "structure",
					"outputs": [
						{
							"internalType": "string",
							"name": "",
							"type": "string"
						},
						{
							"internalType": "string",
							"name": "",
							"type": "string"
						},
						{
							"internalType": "uint256",
							"name": "",
							"type": "uint256"
						}
					],
					"stateMutability": "nonpayable",
					"type": "function"
				}
			],
			"devdoc": {
				"kind": "dev",
				"methods": {},
				"version": 1
			},
			"evm": {
				"assembly": "    /* \"mapping_example.sol\":61:783  contract mapping_example... */\n  mstore(0x40, 0x80)\n    /* \"mapping_example.sol\":94:134  uint[5] public array = [uint(1),2,3,4,5] */\n  mload(0x40)\n  dup1\n  0xa0\n  add\n  0x40\n  mstore\n  dup1\n    /* \"mapping_example.sol\":123:124  1 */\n  0x01\n    /* \"mapping_example.sol\":94:134  uint[5] public array = [uint(1),2,3,4,5] */\n  dup2\n  mstore\n  0x20\n  add\n    /* \"mapping_example.sol\":126:127  2 */\n  0x02\n    /* \"mapping_example.sol\":94:134  uint[5] public array = [uint(1),2,3,4,5] */\n  dup2\n  mstore\n  0x20\n  add\n    /* \"mapping_example.sol\":128:129  3 */\n  0x03\n    /* \"mapping_example.sol\":94:134  uint[5] public array = [uint(1),2,3,4,5] */\n  dup2\n  mstore\n  0x20\n  add\n    /* \"mapping_example.sol\":130:131  4 */\n  0x04\n    /* \"mapping_example.sol\":94:134  uint[5] public array = [uint(1),2,3,4,5] */\n  dup2\n  mstore\n  0x20\n  add\n    /* \"mapping_example.sol\":132:133  5 */\n  0x05\n    /* \"mapping_example.sol\":94:134  uint[5] public array = [uint(1),2,3,4,5] */\n  dup2\n  mstore\n  pop\n  0x00\n  swap1\n  0x05\n  tag_1\n  swap3\n  swap2\n  swap1\n  tag_2\n  jump\t// in\ntag_1:\n  pop\n    /* \"mapping_example.sol\":61:783  contract mapping_example... */\n  callvalue\n  dup1\n  iszero\n  tag_3\n  jumpi\n  0x00\n  dup1\n  revert\ntag_3:\n  pop\n  jump(tag_4)\ntag_2:\n  dup3\n  0x05\n  dup2\n  add\n  swap3\n  dup3\n  iszero\n  tag_5\n  jumpi\n  swap2\n  0x20\n  mul\n  dup3\n  add\ntag_6:\n  dup3\n  dup2\n  gt\n  iszero\n  tag_7\n  jumpi\n  dup3\n  mload\n  dup3\n  sstore\n  swap2\n  0x20\n  add\n  swap2\n  swap1\n  0x01\n  add\n  swap1\n  jump(tag_6)\ntag_7:\ntag_5:\n  pop\n  swap1\n  pop\n  tag_8\n  swap2\n  swap1\n  tag_9\n  jump\t// in\ntag_8:\n  pop\n  swap1\n  jump\t// out\ntag_9:\ntag_10:\n  dup1\n  dup3\n  gt\n  iszero\n  tag_11\n  jumpi\n  0x00\n  dup2\n  0x00\n  swap1\n  sstore\n  pop\n  0x01\n  add\n  jump(tag_10)\ntag_11:\n  pop\n  swap1\n  jump\t// out\ntag_4:\n  dataSize(sub_0)\n  dup1\n  dataOffset(sub_0)\n  0x00\n  codecopy\n  0x00\n  return\nstop\n\nsub_0: assembly {\n        /* \"mapping_example.sol\":61:783  contract mapping_example... */\n      mstore(0x40, 0x80)\n      callvalue\n      dup1\n      iszero\n      tag_1\n      jumpi\n      0x00\n      dup1\n      revert\n    tag_1:\n      pop\n      jumpi(tag_2, lt(calldatasize, 0x04))\n      shr(0xe0, calldataload(0x00))\n      dup1\n      0x38d94193\n      eq\n      tag_3\n      jumpi\n      dup1\n      0x6c92f462\n      eq\n      tag_4\n      jumpi\n      dup1\n      0x912a5bde\n      eq\n      tag_5\n      jumpi\n      dup1\n      0xedda693e\n      eq\n      tag_6\n      jumpi\n    tag_2:\n      0x00\n      dup1\n      revert\n        /* \"mapping_example.sol\":94:134  uint[5] public array = [uint(1),2,3,4,5] */\n    tag_3:\n      tag_7\n      0x04\n      dup1\n      calldatasize\n      sub\n      dup2\n      add\n      swap1\n      tag_8\n      swap2\n      swap1\n      tag_9\n      jump\t// in\n    tag_8:\n      tag_10\n      jump\t// in\n    tag_7:\n      mload(0x40)\n      tag_11\n      swap2\n      swap1\n      tag_12\n      jump\t// in\n    tag_11:\n      mload(0x40)\n      dup1\n      swap2\n      sub\n      swap1\n      return\n        /* \"mapping_example.sol\":471:704  function structure() public returns(string memory, string memory, uint)... */\n    tag_4:\n      tag_13\n      tag_14\n      jump\t// in\n    tag_13:\n      mload(0x40)\n      tag_15\n      swap4\n      swap3\n      swap2\n      swap1\n      tag_16\n      jump\t// in\n    tag_15:\n      mload(0x40)\n      dup1\n      swap2\n      sub\n      swap1\n      return\n        /* \"mapping_example.sol\":248:267  student public std1 */\n    tag_5:\n      tag_17\n      tag_18\n      jump\t// in\n    tag_17:\n      mload(0x40)\n      tag_19\n      swap4\n      swap3\n      swap2\n      swap1\n      tag_20\n      jump\t// in\n    tag_19:\n      mload(0x40)\n      dup1\n      swap2\n      sub\n      swap1\n      return\n        /* \"mapping_example.sol\":276:463  function set(string memory _name, string memory _subject, uint8 _marks) public ... */\n    tag_6:\n      tag_21\n      0x04\n      dup1\n      calldatasize\n      sub\n      dup2\n      add\n      swap1\n      tag_22\n      swap2\n      swap1\n      tag_23\n      jump\t// in\n    tag_22:\n      tag_24\n      jump\t// in\n    tag_21:\n      stop\n        /* \"mapping_example.sol\":94:134  uint[5] public array = [uint(1),2,3,4,5] */\n    tag_10:\n      0x00\n      dup2\n      0x05\n      dup2\n      lt\n      tag_25\n      jumpi\n      0x00\n      dup1\n      revert\n    tag_25:\n      add\n      0x00\n      swap2\n      pop\n      swap1\n      pop\n      sload\n      dup2\n      jump\t// out\n        /* \"mapping_example.sol\":471:704  function structure() public returns(string memory, string memory, uint)... */\n    tag_14:\n        /* \"mapping_example.sol\":507:520  string memory */\n      0x60\n        /* \"mapping_example.sol\":522:535  string memory */\n      dup1\n        /* \"mapping_example.sol\":537:541  uint */\n      0x00\n        /* \"mapping_example.sol\":559:577  std1.name = \"John\" */\n      mload(0x40)\n      dup1\n      0x40\n      add\n      0x40\n      mstore\n      dup1\n      0x04\n      dup2\n      mstore\n      0x20\n      add\n      0x4a6f686e00000000000000000000000000000000000000000000000000000000\n      dup2\n      mstore\n      pop\n        /* \"mapping_example.sol\":559:563  std1 */\n      0x05\n        /* \"mapping_example.sol\":559:568  std1.name */\n      0x00\n      add\n        /* \"mapping_example.sol\":559:577  std1.name = \"John\" */\n      swap1\n      dup2\n      tag_28\n      swap2\n      swap1\n      tag_29\n      jump\t// in\n    tag_28:\n      pop\n        /* \"mapping_example.sol\":588:613  std1.subject =\"Chemistry\" */\n      mload(0x40)\n      dup1\n      0x40\n      add\n      0x40\n      mstore\n      dup1\n      0x09\n      dup2\n      mstore\n      0x20\n      add\n      0x4368656d69737472790000000000000000000000000000000000000000000000\n      dup2\n      mstore\n      pop\n        /* \"mapping_example.sol\":588:592  std1 */\n      0x05\n        /* \"mapping_example.sol\":588:600  std1.subject */\n      0x01\n      add\n        /* \"mapping_example.sol\":588:613  std1.subject =\"Chemistry\" */\n      swap1\n      dup2\n      tag_30\n      swap2\n      swap1\n      tag_29\n      jump\t// in\n    tag_30:\n      pop\n        /* \"mapping_example.sol\":637:639  88 */\n      0x58\n        /* \"mapping_example.sol\":624:628  std1 */\n      0x05\n        /* \"mapping_example.sol\":624:634  std1.marks */\n      0x02\n      add\n      0x00\n        /* \"mapping_example.sol\":624:639  std1.marks = 88 */\n      0x0100\n      exp\n      dup2\n      sload\n      dup2\n      0xff\n      mul\n      not\n      and\n      swap1\n      dup4\n      0xff\n      and\n      mul\n      or\n      swap1\n      sstore\n      pop\n        /* \"mapping_example.sol\":660:664  std1 */\n      0x05\n        /* \"mapping_example.sol\":660:669  std1.name */\n      0x00\n      add\n        /* \"mapping_example.sol\":671:675  std1 */\n      0x05\n        /* \"mapping_example.sol\":671:683  std1.subject */\n      0x01\n      add\n        /* \"mapping_example.sol\":685:689  std1 */\n      0x05\n        /* \"mapping_example.sol\":685:695  std1.marks */\n      0x02\n      add\n      0x00\n      swap1\n      sload\n      swap1\n      0x0100\n      exp\n      swap1\n      div\n      0xff\n      and\n        /* \"mapping_example.sol\":652:696  return (std1.name, std1.subject, std1.marks) */\n      dup3\n      dup1\n      sload\n      tag_31\n      swap1\n      tag_32\n      jump\t// in\n    tag_31:\n      dup1\n      0x1f\n      add\n      0x20\n      dup1\n      swap2\n      div\n      mul\n      0x20\n      add\n      mload(0x40)\n      swap1\n      dup2\n      add\n      0x40\n      mstore\n      dup1\n      swap3\n      swap2\n      swap1\n      dup2\n      dup2\n      mstore\n      0x20\n      add\n      dup3\n      dup1\n      sload\n      tag_33\n      swap1\n      tag_32\n      jump\t// in\n    tag_33:\n      dup1\n      iszero\n      tag_34\n      jumpi\n      dup1\n      0x1f\n      lt\n      tag_35\n      jumpi\n      0x0100\n      dup1\n      dup4\n      sload\n      div\n      mul\n      dup4\n      mstore\n      swap2\n      0x20\n      add\n      swap2\n      jump(tag_34)\n    tag_35:\n      dup3\n      add\n      swap2\n      swap1\n      0x00\n      mstore\n      keccak256(0x00, 0x20)\n      swap1\n    tag_36:\n      dup2\n      sload\n      dup2\n      mstore\n      swap1\n      0x01\n      add\n      swap1\n      0x20\n      add\n      dup1\n      dup4\n      gt\n      tag_36\n      jumpi\n      dup3\n      swap1\n      sub\n      0x1f\n      and\n      dup3\n      add\n      swap2\n    tag_34:\n      pop\n      pop\n      pop\n      pop\n      pop\n      swap3\n      pop\n      dup2\n      dup1\n      sload\n      tag_37\n      swap1\n      tag_32\n      jump\t// in\n    tag_37:\n      dup1\n      0x1f\n      add\n      0x20\n      dup1\n      swap2\n      div\n      mul\n      0x20\n      add\n      mload(0x40)\n      swap1\n      dup2\n      add\n      0x40\n      mstore\n      dup1\n      swap3\n      swap2\n      swap1\n      dup2\n      dup2\n      mstore\n      0x20\n      add\n      dup3\n      dup1\n      sload\n      tag_38\n      swap1\n      tag_32\n      jump\t// in\n    tag_38:\n      dup1\n      iszero\n      tag_39\n      jumpi\n      dup1\n      0x1f\n      lt\n      tag_40\n      jumpi\n      0x0100\n      dup1\n      dup4\n      sload\n      div\n      mul\n      dup4\n      mstore\n      swap2\n      0x20\n      add\n      swap2\n      jump(tag_39)\n    tag_40:\n      dup3\n      add\n      swap2\n      swap1\n      0x00\n      mstore\n      keccak256(0x00, 0x20)\n      swap1\n    tag_41:\n      dup2\n      sload\n      dup2\n      mstore\n      swap1\n      0x01\n      add\n      swap1\n      0x20\n      add\n      dup1\n      dup4\n      gt\n      tag_41\n      jumpi\n      dup3\n      swap1\n      sub\n      0x1f\n      and\n      dup3\n      add\n      swap2\n    tag_39:\n      pop\n      pop\n      pop\n      pop\n      pop\n      swap2\n      pop\n      dup1\n      0xff\n      and\n      swap1\n      pop\n      swap3\n      pop\n      swap3\n      pop\n      swap3\n      pop\n        /* \"mapping_example.sol\":471:704  function structure() public returns(string memory, string memory, uint)... */\n      swap1\n      swap2\n      swap3\n      jump\t// out\n        /* \"mapping_example.sol\":248:267  student public std1 */\n    tag_18:\n      0x05\n      dup1\n      0x00\n      add\n      dup1\n      sload\n      tag_42\n      swap1\n      tag_32\n      jump\t// in\n    tag_42:\n      dup1\n      0x1f\n      add\n      0x20\n      dup1\n      swap2\n      div\n      mul\n      0x20\n      add\n      mload(0x40)\n      swap1\n      dup2\n      add\n      0x40\n      mstore\n      dup1\n      swap3\n      swap2\n      swap1\n      dup2\n      dup2\n      mstore\n      0x20\n      add\n      dup3\n      dup1\n      sload\n      tag_43\n      swap1\n      tag_32\n      jump\t// in\n    tag_43:\n      dup1\n      iszero\n      tag_44\n      jumpi\n      dup1\n      0x1f\n      lt\n      tag_45\n      jumpi\n      0x0100\n      dup1\n      dup4\n      sload\n      div\n      mul\n      dup4\n      mstore\n      swap2\n      0x20\n      add\n      swap2\n      jump(tag_44)\n    tag_45:\n      dup3\n      add\n      swap2\n      swap1\n      0x00\n      mstore\n      keccak256(0x00, 0x20)\n      swap1\n    tag_46:\n      dup2\n      sload\n      dup2\n      mstore\n      swap1\n      0x01\n      add\n      swap1\n      0x20\n      add\n      dup1\n      dup4\n      gt\n      tag_46\n      jumpi\n      dup3\n      swap1\n      sub\n      0x1f\n      and\n      dup3\n      add\n      swap2\n    tag_44:\n      pop\n      pop\n      pop\n      pop\n      pop\n      swap1\n      dup1\n      0x01\n      add\n      dup1\n      sload\n      tag_47\n      swap1\n      tag_32\n      jump\t// in\n    tag_47:\n      dup1\n      0x1f\n      add\n      0x20\n      dup1\n      swap2\n      div\n      mul\n      0x20\n      add\n      mload(0x40)\n      swap1\n      dup2\n      add\n      0x40\n      mstore\n      dup1\n      swap3\n      swap2\n      swap1\n      dup2\n      dup2\n      mstore\n      0x20\n      add\n      dup3\n      dup1\n      sload\n      tag_48\n      swap1\n      tag_32\n      jump\t// in\n    tag_48:\n      dup1\n      iszero\n      tag_49\n      jumpi\n      dup1\n      0x1f\n      lt\n      tag_50\n      jumpi\n      0x0100\n      dup1\n      dup4\n      sload\n      div\n      mul\n      dup4\n      mstore\n      swap2\n      0x20\n      add\n      swap2\n      jump(tag_49)\n    tag_50:\n      dup3\n      add\n      swap2\n      swap1\n      0x00\n      mstore\n      keccak256(0x00, 0x20)\n      swap1\n    tag_51:\n      dup2\n      sload\n      dup2\n      mstore\n      swap1\n      0x01\n      add\n      swap1\n      0x20\n      add\n      dup1\n      dup4\n      gt\n      tag_51\n      jumpi\n      dup3\n      swap1\n      sub\n      0x1f\n      and\n      dup3\n      add\n      swap2\n    tag_49:\n      pop\n      pop\n      pop\n      pop\n      pop\n      swap1\n      dup1\n      0x02\n      add\n      0x00\n      swap1\n      sload\n      swap1\n      0x0100\n      exp\n      swap1\n      div\n      0xff\n      and\n      swap1\n      pop\n      dup4\n      jump\t// out\n        /* \"mapping_example.sol\":276:463  function set(string memory _name, string memory _subject, uint8 _marks) public ... */\n    tag_24:\n        /* \"mapping_example.sol\":384:389  _name */\n      dup3\n        /* \"mapping_example.sol\":373:377  std1 */\n      0x05\n        /* \"mapping_example.sol\":373:382  std1.name */\n      0x00\n      add\n        /* \"mapping_example.sol\":373:389  std1.name= _name */\n      swap1\n      dup2\n      tag_53\n      swap2\n      swap1\n      tag_29\n      jump\t// in\n    tag_53:\n      pop\n        /* \"mapping_example.sol\":416:424  _subject */\n      dup2\n        /* \"mapping_example.sol\":401:405  std1 */\n      0x05\n        /* \"mapping_example.sol\":401:413  std1.subject */\n      0x01\n      add\n        /* \"mapping_example.sol\":401:424  std1.subject = _subject */\n      swap1\n      dup2\n      tag_54\n      swap2\n      swap1\n      tag_29\n      jump\t// in\n    tag_54:\n      pop\n        /* \"mapping_example.sol\":449:455  _marks */\n      dup1\n        /* \"mapping_example.sol\":436:440  std1 */\n      0x05\n        /* \"mapping_example.sol\":436:446  std1.marks */\n      0x02\n      add\n      0x00\n        /* \"mapping_example.sol\":436:455  std1.marks = _marks */\n      0x0100\n      exp\n      dup2\n      sload\n      dup2\n      0xff\n      mul\n      not\n      and\n      swap1\n      dup4\n      0xff\n      and\n      mul\n      or\n      swap1\n      sstore\n      pop\n        /* \"mapping_example.sol\":276:463  function set(string memory _name, string memory _subject, uint8 _marks) public ... */\n      pop\n      pop\n      pop\n      jump\t// out\n        /* \"#utility.yul\":7:82   */\n    tag_55:\n        /* \"#utility.yul\":40:46   */\n      0x00\n        /* \"#utility.yul\":73:75   */\n      0x40\n        /* \"#utility.yul\":67:76   */\n      mload\n        /* \"#utility.yul\":57:76   */\n      swap1\n      pop\n        /* \"#utility.yul\":7:82   */\n      swap1\n      jump\t// out\n        /* \"#utility.yul\":88:205   */\n    tag_56:\n        /* \"#utility.yul\":197:198   */\n      0x00\n        /* \"#utility.yul\":194:195   */\n      dup1\n        /* \"#utility.yul\":187:199   */\n      revert\n        /* \"#utility.yul\":211:328   */\n    tag_57:\n        /* \"#utility.yul\":320:321   */\n      0x00\n        /* \"#utility.yul\":317:318   */\n      dup1\n        /* \"#utility.yul\":310:322   */\n      revert\n        /* \"#utility.yul\":334:411   */\n    tag_58:\n        /* \"#utility.yul\":371:378   */\n      0x00\n        /* \"#utility.yul\":400:405   */\n      dup2\n        /* \"#utility.yul\":389:405   */\n      swap1\n      pop\n        /* \"#utility.yul\":334:411   */\n      swap2\n      swap1\n      pop\n      jump\t// out\n        /* \"#utility.yul\":417:539   */\n    tag_59:\n        /* \"#utility.yul\":490:514   */\n      tag_102\n        /* \"#utility.yul\":508:513   */\n      dup2\n        /* \"#utility.yul\":490:514   */\n      tag_58\n      jump\t// in\n    tag_102:\n        /* \"#utility.yul\":483:488   */\n      dup2\n        /* \"#utility.yul\":480:515   */\n      eq\n        /* \"#utility.yul\":470:533   */\n      tag_103\n      jumpi\n        /* \"#utility.yul\":529:530   */\n      0x00\n        /* \"#utility.yul\":526:527   */\n      dup1\n        /* \"#utility.yul\":519:531   */\n      revert\n        /* \"#utility.yul\":470:533   */\n    tag_103:\n        /* \"#utility.yul\":417:539   */\n      pop\n      jump\t// out\n        /* \"#utility.yul\":545:684   */\n    tag_60:\n        /* \"#utility.yul\":591:596   */\n      0x00\n        /* \"#utility.yul\":629:635   */\n      dup2\n        /* \"#utility.yul\":616:636   */\n      calldataload\n        /* \"#utility.yul\":607:636   */\n      swap1\n      pop\n        /* \"#utility.yul\":645:678   */\n      tag_105\n        /* \"#utility.yul\":672:677   */\n      dup2\n        /* \"#utility.yul\":645:678   */\n      tag_59\n      jump\t// in\n    tag_105:\n        /* \"#utility.yul\":545:684   */\n      swap3\n      swap2\n      pop\n      pop\n      jump\t// out\n        /* \"#utility.yul\":690:1019   */\n    tag_9:\n        /* \"#utility.yul\":749:755   */\n      0x00\n        /* \"#utility.yul\":798:800   */\n      0x20\n        /* \"#utility.yul\":786:795   */\n      dup3\n        /* \"#utility.yul\":777:784   */\n      dup5\n        /* \"#utility.yul\":773:796   */\n      sub\n        /* \"#utility.yul\":769:801   */\n      slt\n        /* \"#utility.yul\":766:885   */\n      iszero\n      tag_107\n      jumpi\n        /* \"#utility.yul\":804:883   */\n      tag_108\n      tag_56\n      jump\t// in\n    tag_108:\n        /* \"#utility.yul\":766:885   */\n    tag_107:\n        /* \"#utility.yul\":924:925   */\n      0x00\n        /* \"#utility.yul\":949:1002   */\n      tag_109\n        /* \"#utility.yul\":994:1001   */\n      dup5\n        /* \"#utility.yul\":985:991   */\n      dup3\n        /* \"#utility.yul\":974:983   */\n      dup6\n        /* \"#utility.yul\":970:992   */\n      add\n        /* \"#utility.yul\":949:1002   */\n      tag_60\n      jump\t// in\n    tag_109:\n        /* \"#utility.yul\":939:1002   */\n      swap2\n      pop\n        /* \"#utility.yul\":895:1012   */\n      pop\n        /* \"#utility.yul\":690:1019   */\n      swap3\n      swap2\n      pop\n      pop\n      jump\t// out\n        /* \"#utility.yul\":1025:1143   */\n    tag_61:\n        /* \"#utility.yul\":1112:1136   */\n      tag_111\n        /* \"#utility.yul\":1130:1135   */\n      dup2\n        /* \"#utility.yul\":1112:1136   */\n      tag_58\n      jump\t// in\n    tag_111:\n        /* \"#utility.yul\":1107:1110   */\n      dup3\n        /* \"#utility.yul\":1100:1137   */\n      mstore\n        /* \"#utility.yul\":1025:1143   */\n      pop\n      pop\n      jump\t// out\n        /* \"#utility.yul\":1149:1371   */\n    tag_12:\n        /* \"#utility.yul\":1242:1246   */\n      0x00\n        /* \"#utility.yul\":1280:1282   */\n      0x20\n        /* \"#utility.yul\":1269:1278   */\n      dup3\n        /* \"#utility.yul\":1265:1283   */\n      add\n        /* \"#utility.yul\":1257:1283   */\n      swap1\n      pop\n        /* \"#utility.yul\":1293:1364   */\n      tag_113\n        /* \"#utility.yul\":1361:1362   */\n      0x00\n        /* \"#utility.yul\":1350:1359   */\n      dup4\n        /* \"#utility.yul\":1346:1363   */\n      add\n        /* \"#utility.yul\":1337:1343   */\n      dup5\n        /* \"#utility.yul\":1293:1364   */\n      tag_61\n      jump\t// in\n    tag_113:\n        /* \"#utility.yul\":1149:1371   */\n      swap3\n      swap2\n      pop\n      pop\n      jump\t// out\n        /* \"#utility.yul\":1377:1476   */\n    tag_62:\n        /* \"#utility.yul\":1429:1435   */\n      0x00\n        /* \"#utility.yul\":1463:1468   */\n      dup2\n        /* \"#utility.yul\":1457:1469   */\n      mload\n        /* \"#utility.yul\":1447:1469   */\n      swap1\n      pop\n        /* \"#utility.yul\":1377:1476   */\n      swap2\n      swap1\n      pop\n      jump\t// out\n        /* \"#utility.yul\":1482:1651   */\n    tag_63:\n        /* \"#utility.yul\":1566:1577   */\n      0x00\n        /* \"#utility.yul\":1600:1606   */\n      dup3\n        /* \"#utility.yul\":1595:1598   */\n      dup3\n        /* \"#utility.yul\":1588:1607   */\n      mstore\n        /* \"#utility.yul\":1640:1644   */\n      0x20\n        /* \"#utility.yul\":1635:1638   */\n      dup3\n        /* \"#utility.yul\":1631:1645   */\n      add\n        /* \"#utility.yul\":1616:1645   */\n      swap1\n      pop\n        /* \"#utility.yul\":1482:1651   */\n      swap3\n      swap2\n      pop\n      pop\n      jump\t// out\n        /* \"#utility.yul\":1657:1796   */\n    tag_64:\n        /* \"#utility.yul\":1746:1752   */\n      dup3\n        /* \"#utility.yul\":1741:1744   */\n      dup2\n        /* \"#utility.yul\":1736:1739   */\n      dup4\n        /* \"#utility.yul\":1730:1753   */\n      mcopy\n        /* \"#utility.yul\":1787:1788   */\n      0x00\n        /* \"#utility.yul\":1778:1784   */\n      dup4\n        /* \"#utility.yul\":1773:1776   */\n      dup4\n        /* \"#utility.yul\":1769:1785   */\n      add\n        /* \"#utility.yul\":1762:1789   */\n      mstore\n        /* \"#utility.yul\":1657:1796   */\n      pop\n      pop\n      pop\n      jump\t// out\n        /* \"#utility.yul\":1802:1904   */\n    tag_65:\n        /* \"#utility.yul\":1843:1849   */\n      0x00\n        /* \"#utility.yul\":1894:1896   */\n      0x1f\n        /* \"#utility.yul\":1890:1897   */\n      not\n        /* \"#utility.yul\":1885:1887   */\n      0x1f\n        /* \"#utility.yul\":1878:1883   */\n      dup4\n        /* \"#utility.yul\":1874:1888   */\n      add\n        /* \"#utility.yul\":1870:1898   */\n      and\n        /* \"#utility.yul\":1860:1898   */\n      swap1\n      pop\n        /* \"#utility.yul\":1802:1904   */\n      swap2\n      swap1\n      pop\n      jump\t// out\n        /* \"#utility.yul\":1910:2287   */\n    tag_66:\n        /* \"#utility.yul\":1998:2001   */\n      0x00\n        /* \"#utility.yul\":2026:2065   */\n      tag_119\n        /* \"#utility.yul\":2059:2064   */\n      dup3\n        /* \"#utility.yul\":2026:2065   */\n      tag_62\n      jump\t// in\n    tag_119:\n        /* \"#utility.yul\":2081:2152   */\n      tag_120\n        /* \"#utility.yul\":2145:2151   */\n      dup2\n        /* \"#utility.yul\":2140:2143   */\n      dup6\n        /* \"#utility.yul\":2081:2152   */\n      tag_63\n      jump\t// in\n    tag_120:\n        /* \"#utility.yul\":2074:2152   */\n      swap4\n      pop\n        /* \"#utility.yul\":2161:2226   */\n      tag_121\n        /* \"#utility.yul\":2219:2225   */\n      dup2\n        /* \"#utility.yul\":2214:2217   */\n      dup6\n        /* \"#utility.yul\":2207:2211   */\n      0x20\n        /* \"#utility.yul\":2200:2205   */\n      dup7\n        /* \"#utility.yul\":2196:2212   */\n      add\n        /* \"#utility.yul\":2161:2226   */\n      tag_64\n      jump\t// in\n    tag_121:\n        /* \"#utility.yul\":2251:2280   */\n      tag_122\n        /* \"#utility.yul\":2273:2279   */\n      dup2\n        /* \"#utility.yul\":2251:2280   */\n      tag_65\n      jump\t// in\n    tag_122:\n        /* \"#utility.yul\":2246:2249   */\n      dup5\n        /* \"#utility.yul\":2242:2281   */\n      add\n        /* \"#utility.yul\":2235:2281   */\n      swap2\n      pop\n        /* \"#utility.yul\":2002:2287   */\n      pop\n        /* \"#utility.yul\":1910:2287   */\n      swap3\n      swap2\n      pop\n      pop\n      jump\t// out\n        /* \"#utility.yul\":2293:2917   */\n    tag_16:\n        /* \"#utility.yul\":2482:2486   */\n      0x00\n        /* \"#utility.yul\":2520:2522   */\n      0x60\n        /* \"#utility.yul\":2509:2518   */\n      dup3\n        /* \"#utility.yul\":2505:2523   */\n      add\n        /* \"#utility.yul\":2497:2523   */\n      swap1\n      pop\n        /* \"#utility.yul\":2569:2578   */\n      dup2\n        /* \"#utility.yul\":2563:2567   */\n      dup2\n        /* \"#utility.yul\":2559:2579   */\n      sub\n        /* \"#utility.yul\":2555:2556   */\n      0x00\n        /* \"#utility.yul\":2544:2553   */\n      dup4\n        /* \"#utility.yul\":2540:2557   */\n      add\n        /* \"#utility.yul\":2533:2580   */\n      mstore\n        /* \"#utility.yul\":2597:2675   */\n      tag_124\n        /* \"#utility.yul\":2670:2674   */\n      dup2\n        /* \"#utility.yul\":2661:2667   */\n      dup7\n        /* \"#utility.yul\":2597:2675   */\n      tag_66\n      jump\t// in\n    tag_124:\n        /* \"#utility.yul\":2589:2675   */\n      swap1\n      pop\n        /* \"#utility.yul\":2722:2731   */\n      dup2\n        /* \"#utility.yul\":2716:2720   */\n      dup2\n        /* \"#utility.yul\":2712:2732   */\n      sub\n        /* \"#utility.yul\":2707:2709   */\n      0x20\n        /* \"#utility.yul\":2696:2705   */\n      dup4\n        /* \"#utility.yul\":2692:2710   */\n      add\n        /* \"#utility.yul\":2685:2733   */\n      mstore\n        /* \"#utility.yul\":2750:2828   */\n      tag_125\n        /* \"#utility.yul\":2823:2827   */\n      dup2\n        /* \"#utility.yul\":2814:2820   */\n      dup6\n        /* \"#utility.yul\":2750:2828   */\n      tag_66\n      jump\t// in\n    tag_125:\n        /* \"#utility.yul\":2742:2828   */\n      swap1\n      pop\n        /* \"#utility.yul\":2838:2910   */\n      tag_126\n        /* \"#utility.yul\":2906:2908   */\n      0x40\n        /* \"#utility.yul\":2895:2904   */\n      dup4\n        /* \"#utility.yul\":2891:2909   */\n      add\n        /* \"#utility.yul\":2882:2888   */\n      dup5\n        /* \"#utility.yul\":2838:2910   */\n      tag_61\n      jump\t// in\n    tag_126:\n        /* \"#utility.yul\":2293:2917   */\n      swap5\n      swap4\n      pop\n      pop\n      pop\n      pop\n      jump\t// out\n        /* \"#utility.yul\":2923:3009   */\n    tag_67:\n        /* \"#utility.yul\":2958:2965   */\n      0x00\n        /* \"#utility.yul\":2998:3002   */\n      0xff\n        /* \"#utility.yul\":2991:2996   */\n      dup3\n        /* \"#utility.yul\":2987:3003   */\n      and\n        /* \"#utility.yul\":2976:3003   */\n      swap1\n      pop\n        /* \"#utility.yul\":2923:3009   */\n      swap2\n      swap1\n      pop\n      jump\t// out\n        /* \"#utility.yul\":3015:3127   */\n    tag_68:\n        /* \"#utility.yul\":3098:3120   */\n      tag_129\n        /* \"#utility.yul\":3114:3119   */\n      dup2\n        /* \"#utility.yul\":3098:3120   */\n      tag_67\n      jump\t// in\n    tag_129:\n        /* \"#utility.yul\":3093:3096   */\n      dup3\n        /* \"#utility.yul\":3086:3121   */\n      mstore\n        /* \"#utility.yul\":3015:3127   */\n      pop\n      pop\n      jump\t// out\n        /* \"#utility.yul\":3133:3749   */\n    tag_20:\n        /* \"#utility.yul\":3318:3322   */\n      0x00\n        /* \"#utility.yul\":3356:3358   */\n      0x60\n        /* \"#utility.yul\":3345:3354   */\n      dup3\n        /* \"#utility.yul\":3341:3359   */\n      add\n        /* \"#utility.yul\":3333:3359   */\n      swap1\n      pop\n        /* \"#utility.yul\":3405:3414   */\n      dup2\n        /* \"#utility.yul\":3399:3403   */\n      dup2\n        /* \"#utility.yul\":3395:3415   */\n      sub\n        /* \"#utility.yul\":3391:3392   */\n      0x00\n        /* \"#utility.yul\":3380:3389   */\n      dup4\n        /* \"#utility.yul\":3376:3393   */\n      add\n        /* \"#utility.yul\":3369:3416   */\n      mstore\n        /* \"#utility.yul\":3433:3511   */\n      tag_131\n        /* \"#utility.yul\":3506:3510   */\n      dup2\n        /* \"#utility.yul\":3497:3503   */\n      dup7\n        /* \"#utility.yul\":3433:3511   */\n      tag_66\n      jump\t// in\n    tag_131:\n        /* \"#utility.yul\":3425:3511   */\n      swap1\n      pop\n        /* \"#utility.yul\":3558:3567   */\n      dup2\n        /* \"#utility.yul\":3552:3556   */\n      dup2\n        /* \"#utility.yul\":3548:3568   */\n      sub\n        /* \"#utility.yul\":3543:3545   */\n      0x20\n        /* \"#utility.yul\":3532:3541   */\n      dup4\n        /* \"#utility.yul\":3528:3546   */\n      add\n        /* \"#utility.yul\":3521:3569   */\n      mstore\n        /* \"#utility.yul\":3586:3664   */\n      tag_132\n        /* \"#utility.yul\":3659:3663   */\n      dup2\n        /* \"#utility.yul\":3650:3656   */\n      dup6\n        /* \"#utility.yul\":3586:3664   */\n      tag_66\n      jump\t// in\n    tag_132:\n        /* \"#utility.yul\":3578:3664   */\n      swap1\n      pop\n        /* \"#utility.yul\":3674:3742   */\n      tag_133\n        /* \"#utility.yul\":3738:3740   */\n      0x40\n        /* \"#utility.yul\":3727:3736   */\n      dup4\n        /* \"#utility.yul\":3723:3741   */\n      add\n        /* \"#utility.yul\":3714:3720   */\n      dup5\n        /* \"#utility.yul\":3674:3742   */\n      tag_68\n      jump\t// in\n    tag_133:\n        /* \"#utility.yul\":3133:3749   */\n      swap5\n      swap4\n      pop\n      pop\n      pop\n      pop\n      jump\t// out\n        /* \"#utility.yul\":3755:3872   */\n    tag_69:\n        /* \"#utility.yul\":3864:3865   */\n      0x00\n        /* \"#utility.yul\":3861:3862   */\n      dup1\n        /* \"#utility.yul\":3854:3866   */\n      revert\n        /* \"#utility.yul\":3878:3995   */\n    tag_70:\n        /* \"#utility.yul\":3987:3988   */\n      0x00\n        /* \"#utility.yul\":3984:3985   */\n      dup1\n        /* \"#utility.yul\":3977:3989   */\n      revert\n        /* \"#utility.yul\":4001:4181   */\n    tag_71:\n        /* \"#utility.yul\":4049:4126   */\n      0x4e487b7100000000000000000000000000000000000000000000000000000000\n        /* \"#utility.yul\":4046:4047   */\n      0x00\n        /* \"#utility.yul\":4039:4127   */\n      mstore\n        /* \"#utility.yul\":4146:4150   */\n      0x41\n        /* \"#utility.yul\":4143:4144   */\n      0x04\n        /* \"#utility.yul\":4136:4151   */\n      mstore\n        /* \"#utility.yul\":4170:4174   */\n      0x24\n        /* \"#utility.yul\":4167:4168   */\n      0x00\n        /* \"#utility.yul\":4160:4175   */\n      revert\n        /* \"#utility.yul\":4187:4468   */\n    tag_72:\n        /* \"#utility.yul\":4270:4297   */\n      tag_138\n        /* \"#utility.yul\":4292:4296   */\n      dup3\n        /* \"#utility.yul\":4270:4297   */\n      tag_65\n      jump\t// in\n    tag_138:\n        /* \"#utility.yul\":4262:4268   */\n      dup2\n        /* \"#utility.yul\":4258:4298   */\n      add\n        /* \"#utility.yul\":4400:4406   */\n      dup2\n        /* \"#utility.yul\":4388:4398   */\n      dup2\n        /* \"#utility.yul\":4385:4407   */\n      lt\n        /* \"#utility.yul\":4364:4382   */\n      0xffffffffffffffff\n        /* \"#utility.yul\":4352:4362   */\n      dup3\n        /* \"#utility.yul\":4349:4383   */\n      gt\n        /* \"#utility.yul\":4346:4408   */\n      or\n        /* \"#utility.yul\":4343:4431   */\n      iszero\n      tag_139\n      jumpi\n        /* \"#utility.yul\":4411:4429   */\n      tag_140\n      tag_71\n      jump\t// in\n    tag_140:\n        /* \"#utility.yul\":4343:4431   */\n    tag_139:\n        /* \"#utility.yul\":4451:4461   */\n      dup1\n        /* \"#utility.yul\":4447:4449   */\n      0x40\n        /* \"#utility.yul\":4440:4462   */\n      mstore\n        /* \"#utility.yul\":4230:4468   */\n      pop\n        /* \"#utility.yul\":4187:4468   */\n      pop\n      pop\n      jump\t// out\n        /* \"#utility.yul\":4474:4603   */\n    tag_73:\n        /* \"#utility.yul\":4508:4514   */\n      0x00\n        /* \"#utility.yul\":4535:4555   */\n      tag_142\n      tag_55\n      jump\t// in\n    tag_142:\n        /* \"#utility.yul\":4525:4555   */\n      swap1\n      pop\n        /* \"#utility.yul\":4564:4597   */\n      tag_143\n        /* \"#utility.yul\":4592:4596   */\n      dup3\n        /* \"#utility.yul\":4584:4590   */\n      dup3\n        /* \"#utility.yul\":4564:4597   */\n      tag_72\n      jump\t// in\n    tag_143:\n        /* \"#utility.yul\":4474:4603   */\n      swap2\n      swap1\n      pop\n      jump\t// out\n        /* \"#utility.yul\":4609:4917   */\n    tag_74:\n        /* \"#utility.yul\":4671:4675   */\n      0x00\n        /* \"#utility.yul\":4761:4779   */\n      0xffffffffffffffff\n        /* \"#utility.yul\":4753:4759   */\n      dup3\n        /* \"#utility.yul\":4750:4780   */\n      gt\n        /* \"#utility.yul\":4747:4803   */\n      iszero\n      tag_145\n      jumpi\n        /* \"#utility.yul\":4783:4801   */\n      tag_146\n      tag_71\n      jump\t// in\n    tag_146:\n        /* \"#utility.yul\":4747:4803   */\n    tag_145:\n        /* \"#utility.yul\":4821:4850   */\n      tag_147\n        /* \"#utility.yul\":4843:4849   */\n      dup3\n        /* \"#utility.yul\":4821:4850   */\n      tag_65\n      jump\t// in\n    tag_147:\n        /* \"#utility.yul\":4813:4850   */\n      swap1\n      pop\n        /* \"#utility.yul\":4905:4909   */\n      0x20\n        /* \"#utility.yul\":4899:4903   */\n      dup2\n        /* \"#utility.yul\":4895:4910   */\n      add\n        /* \"#utility.yul\":4887:4910   */\n      swap1\n      pop\n        /* \"#utility.yul\":4609:4917   */\n      swap2\n      swap1\n      pop\n      jump\t// out\n        /* \"#utility.yul\":4923:5071   */\n    tag_75:\n        /* \"#utility.yul\":5021:5027   */\n      dup3\n        /* \"#utility.yul\":5016:5019   */\n      dup2\n        /* \"#utility.yul\":5011:5014   */\n      dup4\n        /* \"#utility.yul\":4998:5028   */\n      calldatacopy\n        /* \"#utility.yul\":5062:5063   */\n      0x00\n        /* \"#utility.yul\":5053:5059   */\n      dup4\n        /* \"#utility.yul\":5048:5051   */\n      dup4\n        /* \"#utility.yul\":5044:5060   */\n      add\n        /* \"#utility.yul\":5037:5064   */\n      mstore\n        /* \"#utility.yul\":4923:5071   */\n      pop\n      pop\n      pop\n      jump\t// out\n        /* \"#utility.yul\":5077:5502   */\n    tag_76:\n        /* \"#utility.yul\":5155:5160   */\n      0x00\n        /* \"#utility.yul\":5180:5246   */\n      tag_150\n        /* \"#utility.yul\":5196:5245   */\n      tag_151\n        /* \"#utility.yul\":5238:5244   */\n      dup5\n        /* \"#utility.yul\":5196:5245   */\n      tag_74\n      jump\t// in\n    tag_151:\n        /* \"#utility.yul\":5180:5246   */\n      tag_73\n      jump\t// in\n    tag_150:\n        /* \"#utility.yul\":5171:5246   */\n      swap1\n      pop\n        /* \"#utility.yul\":5269:5275   */\n      dup3\n        /* \"#utility.yul\":5262:5267   */\n      dup2\n        /* \"#utility.yul\":5255:5276   */\n      mstore\n        /* \"#utility.yul\":5307:5311   */\n      0x20\n        /* \"#utility.yul\":5300:5305   */\n      dup2\n        /* \"#utility.yul\":5296:5312   */\n      add\n        /* \"#utility.yul\":5345:5348   */\n      dup5\n        /* \"#utility.yul\":5336:5342   */\n      dup5\n        /* \"#utility.yul\":5331:5334   */\n      dup5\n        /* \"#utility.yul\":5327:5343   */\n      add\n        /* \"#utility.yul\":5324:5349   */\n      gt\n        /* \"#utility.yul\":5321:5433   */\n      iszero\n      tag_152\n      jumpi\n        /* \"#utility.yul\":5352:5431   */\n      tag_153\n      tag_70\n      jump\t// in\n    tag_153:\n        /* \"#utility.yul\":5321:5433   */\n    tag_152:\n        /* \"#utility.yul\":5442:5496   */\n      tag_154\n        /* \"#utility.yul\":5489:5495   */\n      dup5\n        /* \"#utility.yul\":5484:5487   */\n      dup3\n        /* \"#utility.yul\":5479:5482   */\n      dup6\n        /* \"#utility.yul\":5442:5496   */\n      tag_75\n      jump\t// in\n    tag_154:\n        /* \"#utility.yul\":5161:5502   */\n      pop\n        /* \"#utility.yul\":5077:5502   */\n      swap4\n      swap3\n      pop\n      pop\n      pop\n      jump\t// out\n        /* \"#utility.yul\":5522:5862   */\n    tag_77:\n        /* \"#utility.yul\":5578:5583   */\n      0x00\n        /* \"#utility.yul\":5627:5630   */\n      dup3\n        /* \"#utility.yul\":5620:5624   */\n      0x1f\n        /* \"#utility.yul\":5612:5618   */\n      dup4\n        /* \"#utility.yul\":5608:5625   */\n      add\n        /* \"#utility.yul\":5604:5631   */\n      slt\n        /* \"#utility.yul\":5594:5716   */\n      tag_156\n      jumpi\n        /* \"#utility.yul\":5635:5714   */\n      tag_157\n      tag_69\n      jump\t// in\n    tag_157:\n        /* \"#utility.yul\":5594:5716   */\n    tag_156:\n        /* \"#utility.yul\":5752:5758   */\n      dup2\n        /* \"#utility.yul\":5739:5759   */\n      calldataload\n        /* \"#utility.yul\":5777:5856   */\n      tag_158\n        /* \"#utility.yul\":5852:5855   */\n      dup5\n        /* \"#utility.yul\":5844:5850   */\n      dup3\n        /* \"#utility.yul\":5837:5841   */\n      0x20\n        /* \"#utility.yul\":5829:5835   */\n      dup7\n        /* \"#utility.yul\":5825:5842   */\n      add\n        /* \"#utility.yul\":5777:5856   */\n      tag_76\n      jump\t// in\n    tag_158:\n        /* \"#utility.yul\":5768:5856   */\n      swap2\n      pop\n        /* \"#utility.yul\":5584:5862   */\n      pop\n        /* \"#utility.yul\":5522:5862   */\n      swap3\n      swap2\n      pop\n      pop\n      jump\t// out\n        /* \"#utility.yul\":5868:5986   */\n    tag_78:\n        /* \"#utility.yul\":5939:5961   */\n      tag_160\n        /* \"#utility.yul\":5955:5960   */\n      dup2\n        /* \"#utility.yul\":5939:5961   */\n      tag_67\n      jump\t// in\n    tag_160:\n        /* \"#utility.yul\":5932:5937   */\n      dup2\n        /* \"#utility.yul\":5929:5962   */\n      eq\n        /* \"#utility.yul\":5919:5980   */\n      tag_161\n      jumpi\n        /* \"#utility.yul\":5976:5977   */\n      0x00\n        /* \"#utility.yul\":5973:5974   */\n      dup1\n        /* \"#utility.yul\":5966:5978   */\n      revert\n        /* \"#utility.yul\":5919:5980   */\n    tag_161:\n        /* \"#utility.yul\":5868:5986   */\n      pop\n      jump\t// out\n        /* \"#utility.yul\":5992:6127   */\n    tag_79:\n        /* \"#utility.yul\":6036:6041   */\n      0x00\n        /* \"#utility.yul\":6074:6080   */\n      dup2\n        /* \"#utility.yul\":6061:6081   */\n      calldataload\n        /* \"#utility.yul\":6052:6081   */\n      swap1\n      pop\n        /* \"#utility.yul\":6090:6121   */\n      tag_163\n        /* \"#utility.yul\":6115:6120   */\n      dup2\n        /* \"#utility.yul\":6090:6121   */\n      tag_78\n      jump\t// in\n    tag_163:\n        /* \"#utility.yul\":5992:6127   */\n      swap3\n      swap2\n      pop\n      pop\n      jump\t// out\n        /* \"#utility.yul\":6133:7108   */\n    tag_23:\n        /* \"#utility.yul\":6228:6234   */\n      0x00\n        /* \"#utility.yul\":6236:6242   */\n      dup1\n        /* \"#utility.yul\":6244:6250   */\n      0x00\n        /* \"#utility.yul\":6293:6295   */\n      0x60\n        /* \"#utility.yul\":6281:6290   */\n      dup5\n        /* \"#utility.yul\":6272:6279   */\n      dup7\n        /* \"#utility.yul\":6268:6291   */\n      sub\n        /* \"#utility.yul\":6264:6296   */\n      slt\n        /* \"#utility.yul\":6261:6380   */\n      iszero\n      tag_165\n      jumpi\n        /* \"#utility.yul\":6299:6378   */\n      tag_166\n      tag_56\n      jump\t// in\n    tag_166:\n        /* \"#utility.yul\":6261:6380   */\n    tag_165:\n        /* \"#utility.yul\":6447:6448   */\n      0x00\n        /* \"#utility.yul\":6436:6445   */\n      dup5\n        /* \"#utility.yul\":6432:6449   */\n      add\n        /* \"#utility.yul\":6419:6450   */\n      calldataload\n        /* \"#utility.yul\":6477:6495   */\n      0xffffffffffffffff\n        /* \"#utility.yul\":6469:6475   */\n      dup2\n        /* \"#utility.yul\":6466:6496   */\n      gt\n        /* \"#utility.yul\":6463:6580   */\n      iszero\n      tag_167\n      jumpi\n        /* \"#utility.yul\":6499:6578   */\n      tag_168\n      tag_57\n      jump\t// in\n    tag_168:\n        /* \"#utility.yul\":6463:6580   */\n    tag_167:\n        /* \"#utility.yul\":6604:6667   */\n      tag_169\n        /* \"#utility.yul\":6659:6666   */\n      dup7\n        /* \"#utility.yul\":6650:6656   */\n      dup3\n        /* \"#utility.yul\":6639:6648   */\n      dup8\n        /* \"#utility.yul\":6635:6657   */\n      add\n        /* \"#utility.yul\":6604:6667   */\n      tag_77\n      jump\t// in\n    tag_169:\n        /* \"#utility.yul\":6594:6667   */\n      swap4\n      pop\n        /* \"#utility.yul\":6390:6677   */\n      pop\n        /* \"#utility.yul\":6744:6746   */\n      0x20\n        /* \"#utility.yul\":6733:6742   */\n      dup5\n        /* \"#utility.yul\":6729:6747   */\n      add\n        /* \"#utility.yul\":6716:6748   */\n      calldataload\n        /* \"#utility.yul\":6775:6793   */\n      0xffffffffffffffff\n        /* \"#utility.yul\":6767:6773   */\n      dup2\n        /* \"#utility.yul\":6764:6794   */\n      gt\n        /* \"#utility.yul\":6761:6878   */\n      iszero\n      tag_170\n      jumpi\n        /* \"#utility.yul\":6797:6876   */\n      tag_171\n      tag_57\n      jump\t// in\n    tag_171:\n        /* \"#utility.yul\":6761:6878   */\n    tag_170:\n        /* \"#utility.yul\":6902:6965   */\n      tag_172\n        /* \"#utility.yul\":6957:6964   */\n      dup7\n        /* \"#utility.yul\":6948:6954   */\n      dup3\n        /* \"#utility.yul\":6937:6946   */\n      dup8\n        /* \"#utility.yul\":6933:6955   */\n      add\n        /* \"#utility.yul\":6902:6965   */\n      tag_77\n      jump\t// in\n    tag_172:\n        /* \"#utility.yul\":6892:6965   */\n      swap3\n      pop\n        /* \"#utility.yul\":6687:6975   */\n      pop\n        /* \"#utility.yul\":7014:7016   */\n      0x40\n        /* \"#utility.yul\":7040:7091   */\n      tag_173\n        /* \"#utility.yul\":7083:7090   */\n      dup7\n        /* \"#utility.yul\":7074:7080   */\n      dup3\n        /* \"#utility.yul\":7063:7072   */\n      dup8\n        /* \"#utility.yul\":7059:7081   */\n      add\n        /* \"#utility.yul\":7040:7091   */\n      tag_79\n      jump\t// in\n    tag_173:\n        /* \"#utility.yul\":7030:7091   */\n      swap2\n      pop\n        /* \"#utility.yul\":6985:7101   */\n      pop\n        /* \"#utility.yul\":6133:7108   */\n      swap3\n      pop\n      swap3\n      pop\n      swap3\n      jump\t// out\n        /* \"#utility.yul\":7114:7294   */\n    tag_80:\n        /* \"#utility.yul\":7162:7239   */\n      0x4e487b7100000000000000000000000000000000000000000000000000000000\n        /* \"#utility.yul\":7159:7160   */\n      0x00\n        /* \"#utility.yul\":7152:7240   */\n      mstore\n        /* \"#utility.yul\":7259:7263   */\n      0x22\n        /* \"#utility.yul\":7256:7257   */\n      0x04\n        /* \"#utility.yul\":7249:7264   */\n      mstore\n        /* \"#utility.yul\":7283:7287   */\n      0x24\n        /* \"#utility.yul\":7280:7281   */\n      0x00\n        /* \"#utility.yul\":7273:7288   */\n      revert\n        /* \"#utility.yul\":7300:7620   */\n    tag_32:\n        /* \"#utility.yul\":7344:7350   */\n      0x00\n        /* \"#utility.yul\":7381:7382   */\n      0x02\n        /* \"#utility.yul\":7375:7379   */\n      dup3\n        /* \"#utility.yul\":7371:7383   */\n      div\n        /* \"#utility.yul\":7361:7383   */\n      swap1\n      pop\n        /* \"#utility.yul\":7428:7429   */\n      0x01\n        /* \"#utility.yul\":7422:7426   */\n      dup3\n        /* \"#utility.yul\":7418:7430   */\n      and\n        /* \"#utility.yul\":7449:7467   */\n      dup1\n        /* \"#utility.yul\":7439:7520   */\n      tag_176\n      jumpi\n        /* \"#utility.yul\":7505:7509   */\n      0x7f\n        /* \"#utility.yul\":7497:7503   */\n      dup3\n        /* \"#utility.yul\":7493:7510   */\n      and\n        /* \"#utility.yul\":7483:7510   */\n      swap2\n      pop\n        /* \"#utility.yul\":7439:7520   */\n    tag_176:\n        /* \"#utility.yul\":7567:7569   */\n      0x20\n        /* \"#utility.yul\":7559:7565   */\n      dup3\n        /* \"#utility.yul\":7556:7570   */\n      lt\n        /* \"#utility.yul\":7536:7554   */\n      dup2\n        /* \"#utility.yul\":7533:7571   */\n      sub\n        /* \"#utility.yul\":7530:7614   */\n      tag_177\n      jumpi\n        /* \"#utility.yul\":7586:7604   */\n      tag_178\n      tag_80\n      jump\t// in\n    tag_178:\n        /* \"#utility.yul\":7530:7614   */\n    tag_177:\n        /* \"#utility.yul\":7351:7620   */\n      pop\n        /* \"#utility.yul\":7300:7620   */\n      swap2\n      swap1\n      pop\n      jump\t// out\n        /* \"#utility.yul\":7626:7767   */\n    tag_81:\n        /* \"#utility.yul\":7675:7679   */\n      0x00\n        /* \"#utility.yul\":7698:7701   */\n      dup2\n        /* \"#utility.yul\":7690:7701   */\n      swap1\n      pop\n        /* \"#utility.yul\":7721:7724   */\n      dup2\n        /* \"#utility.yul\":7718:7719   */\n      0x00\n        /* \"#utility.yul\":7711:7725   */\n      mstore\n        /* \"#utility.yul\":7755:7759   */\n      0x20\n        /* \"#utility.yul\":7752:7753   */\n      0x00\n        /* \"#utility.yul\":7742:7760   */\n      keccak256\n        /* \"#utility.yul\":7734:7760   */\n      swap1\n      pop\n        /* \"#utility.yul\":7626:7767   */\n      swap2\n      swap1\n      pop\n      jump\t// out\n        /* \"#utility.yul\":7773:7866   */\n    tag_82:\n        /* \"#utility.yul\":7810:7816   */\n      0x00\n        /* \"#utility.yul\":7857:7859   */\n      0x20\n        /* \"#utility.yul\":7852:7854   */\n      0x1f\n        /* \"#utility.yul\":7845:7850   */\n      dup4\n        /* \"#utility.yul\":7841:7855   */\n      add\n        /* \"#utility.yul\":7837:7860   */\n      div\n        /* \"#utility.yul\":7827:7860   */\n      swap1\n      pop\n        /* \"#utility.yul\":7773:7866   */\n      swap2\n      swap1\n      pop\n      jump\t// out\n        /* \"#utility.yul\":7872:7979   */\n    tag_83:\n        /* \"#utility.yul\":7916:7924   */\n      0x00\n        /* \"#utility.yul\":7966:7971   */\n      dup3\n        /* \"#utility.yul\":7960:7964   */\n      dup3\n        /* \"#utility.yul\":7956:7972   */\n      shl\n        /* \"#utility.yul\":7935:7972   */\n      swap1\n      pop\n        /* \"#utility.yul\":7872:7979   */\n      swap3\n      swap2\n      pop\n      pop\n      jump\t// out\n        /* \"#utility.yul\":7985:8378   */\n    tag_84:\n        /* \"#utility.yul\":8054:8060   */\n      0x00\n        /* \"#utility.yul\":8104:8105   */\n      0x08\n        /* \"#utility.yul\":8092:8102   */\n      dup4\n        /* \"#utility.yul\":8088:8106   */\n      mul\n        /* \"#utility.yul\":8127:8224   */\n      tag_183\n        /* \"#utility.yul\":8157:8223   */\n      0xffffffffffffffffffffffffffffffffffffffffffffffffffffffffffffffff\n        /* \"#utility.yul\":8146:8155   */\n      dup3\n        /* \"#utility.yul\":8127:8224   */\n      tag_83\n      jump\t// in\n    tag_183:\n        /* \"#utility.yul\":8245:8284   */\n      tag_184\n        /* \"#utility.yul\":8275:8283   */\n      dup7\n        /* \"#utility.yul\":8264:8273   */\n      dup4\n        /* \"#utility.yul\":8245:8284   */\n      tag_83\n      jump\t// in\n    tag_184:\n        /* \"#utility.yul\":8233:8284   */\n      swap6\n      pop\n        /* \"#utility.yul\":8317:8321   */\n      dup1\n        /* \"#utility.yul\":8313:8322   */\n      not\n        /* \"#utility.yul\":8306:8311   */\n      dup5\n        /* \"#utility.yul\":8302:8323   */\n      and\n        /* \"#utility.yul\":8293:8323   */\n      swap4\n      pop\n        /* \"#utility.yul\":8366:8370   */\n      dup1\n        /* \"#utility.yul\":8356:8364   */\n      dup7\n        /* \"#utility.yul\":8352:8371   */\n      and\n        /* \"#utility.yul\":8345:8350   */\n      dup5\n        /* \"#utility.yul\":8342:8372   */\n      or\n        /* \"#utility.yul\":8332:8372   */\n      swap3\n      pop\n        /* \"#utility.yul\":8061:8378   */\n      pop\n      pop\n        /* \"#utility.yul\":7985:8378   */\n      swap4\n      swap3\n      pop\n      pop\n      pop\n      jump\t// out\n        /* \"#utility.yul\":8384:8444   */\n    tag_85:\n        /* \"#utility.yul\":8412:8415   */\n      0x00\n        /* \"#utility.yul\":8433:8438   */\n      dup2\n        /* \"#utility.yul\":8426:8438   */\n      swap1\n      pop\n        /* \"#utility.yul\":8384:8444   */\n      swap2\n      swap1\n      pop\n      jump\t// out\n        /* \"#utility.yul\":8450:8592   */\n    tag_86:\n        /* \"#utility.yul\":8500:8509   */\n      0x00\n        /* \"#utility.yul\":8533:8586   */\n      tag_187\n        /* \"#utility.yul\":8551:8585   */\n      tag_188\n        /* \"#utility.yul\":8560:8584   */\n      tag_189\n        /* \"#utility.yul\":8578:8583   */\n      dup5\n        /* \"#utility.yul\":8560:8584   */\n      tag_58\n      jump\t// in\n    tag_189:\n        /* \"#utility.yul\":8551:8585   */\n      tag_85\n      jump\t// in\n    tag_188:\n        /* \"#utility.yul\":8533:8586   */\n      tag_58\n      jump\t// in\n    tag_187:\n        /* \"#utility.yul\":8520:8586   */\n      swap1\n      pop\n        /* \"#utility.yul\":8450:8592   */\n      swap2\n      swap1\n      pop\n      jump\t// out\n        /* \"#utility.yul\":8598:8673   */\n    tag_87:\n        /* \"#utility.yul\":8641:8644   */\n      0x00\n        /* \"#utility.yul\":8662:8667   */\n      dup2\n        /* \"#utility.yul\":8655:8667   */\n      swap1\n      pop\n        /* \"#utility.yul\":8598:8673   */\n      swap2\n      swap1\n      pop\n      jump\t// out\n        /* \"#utility.yul\":8679:8948   */\n    tag_88:\n        /* \"#utility.yul\":8789:8828   */\n      tag_192\n        /* \"#utility.yul\":8820:8827   */\n      dup4\n        /* \"#utility.yul\":8789:8828   */\n      tag_86\n      jump\t// in\n    tag_192:\n        /* \"#utility.yul\":8850:8941   */\n      tag_193\n        /* \"#utility.yul\":8899:8940   */\n      tag_194\n        /* \"#utility.yul\":8923:8939   */\n      dup3\n        /* \"#utility.yul\":8899:8940   */\n      tag_87\n      jump\t// in\n    tag_194:\n        /* \"#utility.yul\":8891:8897   */\n      dup5\n        /* \"#utility.yul\":8884:8888   */\n      dup5\n        /* \"#utility.yul\":8878:8889   */\n      sload\n        /* \"#utility.yul\":8850:8941   */\n      tag_84\n      jump\t// in\n    tag_193:\n        /* \"#utility.yul\":8844:8848   */\n      dup3\n        /* \"#utility.yul\":8837:8942   */\n      sstore\n        /* \"#utility.yul\":8755:8948   */\n      pop\n        /* \"#utility.yul\":8679:8948   */\n      pop\n      pop\n      pop\n      jump\t// out\n        /* \"#utility.yul\":8954:9027   */\n    tag_89:\n        /* \"#utility.yul\":8999:9002   */\n      0x00\n        /* \"#utility.yul\":8954:9027   */\n      swap1\n      jump\t// out\n        /* \"#utility.yul\":9033:9222   */\n    tag_90:\n        /* \"#utility.yul\":9110:9142   */\n      tag_197\n      tag_89\n      jump\t// in\n    tag_197:\n        /* \"#utility.yul\":9151:9216   */\n      tag_198\n        /* \"#utility.yul\":9209:9215   */\n      dup2\n        /* \"#utility.yul\":9201:9207   */\n      dup5\n        /* \"#utility.yul\":9195:9199   */\n      dup5\n        /* \"#utility.yul\":9151:9216   */\n      tag_88\n      jump\t// in\n    tag_198:\n        /* \"#utility.yul\":9086:9222   */\n      pop\n        /* \"#utility.yul\":9033:9222   */\n      pop\n      pop\n      jump\t// out\n        /* \"#utility.yul\":9228:9414   */\n    tag_91:\n        /* \"#utility.yul\":9288:9408   */\n    tag_200:\n        /* \"#utility.yul\":9305:9308   */\n      dup2\n        /* \"#utility.yul\":9298:9303   */\n      dup2\n        /* \"#utility.yul\":9295:9309   */\n      lt\n        /* \"#utility.yul\":9288:9408   */\n      iszero\n      tag_202\n      jumpi\n        /* \"#utility.yul\":9359:9398   */\n      tag_203\n        /* \"#utility.yul\":9396:9397   */\n      0x00\n        /* \"#utility.yul\":9389:9394   */\n      dup3\n        /* \"#utility.yul\":9359:9398   */\n      tag_90\n      jump\t// in\n    tag_203:\n        /* \"#utility.yul\":9332:9333   */\n      0x01\n        /* \"#utility.yul\":9325:9330   */\n      dup2\n        /* \"#utility.yul\":9321:9334   */\n      add\n        /* \"#utility.yul\":9312:9334   */\n      swap1\n      pop\n        /* \"#utility.yul\":9288:9408   */\n      jump(tag_200)\n    tag_202:\n        /* \"#utility.yul\":9228:9414   */\n      pop\n      pop\n      jump\t// out\n        /* \"#utility.yul\":9420:9963   */\n    tag_92:\n        /* \"#utility.yul\":9521:9523   */\n      0x1f\n        /* \"#utility.yul\":9516:9519   */\n      dup3\n        /* \"#utility.yul\":9513:9524   */\n      gt\n        /* \"#utility.yul\":9510:9956   */\n      iszero\n      tag_205\n      jumpi\n        /* \"#utility.yul\":9555:9593   */\n      tag_206\n        /* \"#utility.yul\":9587:9592   */\n      dup2\n        /* \"#utility.yul\":9555:9593   */\n      tag_81\n      jump\t// in\n    tag_206:\n        /* \"#utility.yul\":9639:9668   */\n      tag_207\n        /* \"#utility.yul\":9657:9667   */\n      dup5\n        /* \"#utility.yul\":9639:9668   */\n      tag_82\n      jump\t// in\n    tag_207:\n        /* \"#utility.yul\":9629:9637   */\n      dup2\n        /* \"#utility.yul\":9625:9669   */\n      add\n        /* \"#utility.yul\":9822:9824   */\n      0x20\n        /* \"#utility.yul\":9810:9820   */\n      dup6\n        /* \"#utility.yul\":9807:9825   */\n      lt\n        /* \"#utility.yul\":9804:9853   */\n      iszero\n      tag_208\n      jumpi\n        /* \"#utility.yul\":9843:9851   */\n      dup2\n        /* \"#utility.yul\":9828:9851   */\n      swap1\n      pop\n        /* \"#utility.yul\":9804:9853   */\n    tag_208:\n        /* \"#utility.yul\":9866:9946   */\n      tag_209\n        /* \"#utility.yul\":9922:9944   */\n      tag_210\n        /* \"#utility.yul\":9940:9943   */\n      dup6\n        /* \"#utility.yul\":9922:9944   */\n      tag_82\n      jump\t// in\n    tag_210:\n        /* \"#utility.yul\":9912:9920   */\n      dup4\n        /* \"#utility.yul\":9908:9945   */\n      add\n        /* \"#utility.yul\":9895:9906   */\n      dup3\n        /* \"#utility.yul\":9866:9946   */\n      tag_91\n      jump\t// in\n    tag_209:\n        /* \"#utility.yul\":9525:9956   */\n      pop\n      pop\n        /* \"#utility.yul\":9510:9956   */\n    tag_205:\n        /* \"#utility.yul\":9420:9963   */\n      pop\n      pop\n      pop\n      jump\t// out\n        /* \"#utility.yul\":9969:10086   */\n    tag_93:\n        /* \"#utility.yul\":10023:10031   */\n      0x00\n        /* \"#utility.yul\":10073:10078   */\n      dup3\n        /* \"#utility.yul\":10067:10071   */\n      dup3\n        /* \"#utility.yul\":10063:10079   */\n      shr\n        /* \"#utility.yul\":10042:10079   */\n      swap1\n      pop\n        /* \"#utility.yul\":9969:10086   */\n      swap3\n      swap2\n      pop\n      pop\n      jump\t// out\n        /* \"#utility.yul\":10092:10261   */\n    tag_94:\n        /* \"#utility.yul\":10136:10142   */\n      0x00\n        /* \"#utility.yul\":10169:10220   */\n      tag_213\n        /* \"#utility.yul\":10217:10218   */\n      0x00\n        /* \"#utility.yul\":10213:10219   */\n      not\n        /* \"#utility.yul\":10205:10210   */\n      dup5\n        /* \"#utility.yul\":10202:10203   */\n      0x08\n        /* \"#utility.yul\":10198:10211   */\n      mul\n        /* \"#utility.yul\":10169:10220   */\n      tag_93\n      jump\t// in\n    tag_213:\n        /* \"#utility.yul\":10165:10221   */\n      not\n        /* \"#utility.yul\":10250:10254   */\n      dup1\n        /* \"#utility.yul\":10244:10248   */\n      dup4\n        /* \"#utility.yul\":10240:10255   */\n      and\n        /* \"#utility.yul\":10230:10255   */\n      swap2\n      pop\n        /* \"#utility.yul\":10143:10261   */\n      pop\n        /* \"#utility.yul\":10092:10261   */\n      swap3\n      swap2\n      pop\n      pop\n      jump\t// out\n        /* \"#utility.yul\":10266:10561   */\n    tag_95:\n        /* \"#utility.yul\":10342:10346   */\n      0x00\n        /* \"#utility.yul\":10488:10517   */\n      tag_215\n        /* \"#utility.yul\":10513:10516   */\n      dup4\n        /* \"#utility.yul\":10507:10511   */\n      dup4\n        /* \"#utility.yul\":10488:10517   */\n      tag_94\n      jump\t// in\n    tag_215:\n        /* \"#utility.yul\":10480:10517   */\n      swap2\n      pop\n        /* \"#utility.yul\":10550:10553   */\n      dup3\n        /* \"#utility.yul\":10547:10548   */\n      0x02\n        /* \"#utility.yul\":10543:10554   */\n      mul\n        /* \"#utility.yul\":10537:10541   */\n      dup3\n        /* \"#utility.yul\":10534:10555   */\n      or\n        /* \"#utility.yul\":10526:10555   */\n      swap1\n      pop\n        /* \"#utility.yul\":10266:10561   */\n      swap3\n      swap2\n      pop\n      pop\n      jump\t// out\n        /* \"#utility.yul\":10566:11961   */\n    tag_29:\n        /* \"#utility.yul\":10683:10720   */\n      tag_217\n        /* \"#utility.yul\":10716:10719   */\n      dup3\n        /* \"#utility.yul\":10683:10720   */\n      tag_62\n      jump\t// in\n    tag_217:\n        /* \"#utility.yul\":10785:10803   */\n      0xffffffffffffffff\n        /* \"#utility.yul\":10777:10783   */\n      dup2\n        /* \"#utility.yul\":10774:10804   */\n      gt\n        /* \"#utility.yul\":10771:10827   */\n      iszero\n      tag_218\n      jumpi\n        /* \"#utility.yul\":10807:10825   */\n      tag_219\n      tag_71\n      jump\t// in\n    tag_219:\n        /* \"#utility.yul\":10771:10827   */\n    tag_218:\n        /* \"#utility.yul\":10851:10889   */\n      tag_220\n        /* \"#utility.yul\":10883:10887   */\n      dup3\n        /* \"#utility.yul\":10877:10888   */\n      sload\n        /* \"#utility.yul\":10851:10889   */\n      tag_32\n      jump\t// in\n    tag_220:\n        /* \"#utility.yul\":10936:11003   */\n      tag_221\n        /* \"#utility.yul\":10996:11002   */\n      dup3\n        /* \"#utility.yul\":10988:10994   */\n      dup3\n        /* \"#utility.yul\":10982:10986   */\n      dup6\n        /* \"#utility.yul\":10936:11003   */\n      tag_92\n      jump\t// in\n    tag_221:\n        /* \"#utility.yul\":11030:11031   */\n      0x00\n        /* \"#utility.yul\":11054:11058   */\n      0x20\n        /* \"#utility.yul\":11041:11058   */\n      swap1\n      pop\n        /* \"#utility.yul\":11086:11088   */\n      0x1f\n        /* \"#utility.yul\":11078:11084   */\n      dup4\n        /* \"#utility.yul\":11075:11089   */\n      gt\n        /* \"#utility.yul\":11103:11104   */\n      0x01\n        /* \"#utility.yul\":11098:11716   */\n      dup2\n      eq\n      tag_223\n      jumpi\n        /* \"#utility.yul\":11760:11761   */\n      0x00\n        /* \"#utility.yul\":11777:11783   */\n      dup5\n        /* \"#utility.yul\":11774:11851   */\n      iszero\n      tag_224\n      jumpi\n        /* \"#utility.yul\":11826:11835   */\n      dup3\n        /* \"#utility.yul\":11821:11824   */\n      dup8\n        /* \"#utility.yul\":11817:11836   */\n      add\n        /* \"#utility.yul\":11811:11837   */\n      mload\n        /* \"#utility.yul\":11802:11837   */\n      swap1\n      pop\n        /* \"#utility.yul\":11774:11851   */\n    tag_224:\n        /* \"#utility.yul\":11877:11944   */\n      tag_225\n        /* \"#utility.yul\":11937:11943   */\n      dup6\n        /* \"#utility.yul\":11930:11935   */\n      dup3\n        /* \"#utility.yul\":11877:11944   */\n      tag_95\n      jump\t// in\n    tag_225:\n        /* \"#utility.yul\":11871:11875   */\n      dup7\n        /* \"#utility.yul\":11864:11945   */\n      sstore\n        /* \"#utility.yul\":11733:11955   */\n      pop\n        /* \"#utility.yul\":11068:11955   */\n      jump(tag_222)\n        /* \"#utility.yul\":11098:11716   */\n    tag_223:\n        /* \"#utility.yul\":11150:11154   */\n      0x1f\n        /* \"#utility.yul\":11146:11155   */\n      not\n        /* \"#utility.yul\":11138:11144   */\n      dup5\n        /* \"#utility.yul\":11134:11156   */\n      and\n        /* \"#utility.yul\":11184:11221   */\n      tag_226\n        /* \"#utility.yul\":11216:11220   */\n      dup7\n        /* \"#utility.yul\":11184:11221   */\n      tag_81\n      jump\t// in\n    tag_226:\n        /* \"#utility.yul\":11243:11244   */\n      0x00\n        /* \"#utility.yul\":11257:11465   */\n    tag_227:\n        /* \"#utility.yul\":11271:11278   */\n      dup3\n        /* \"#utility.yul\":11268:11269   */\n      dup2\n        /* \"#utility.yul\":11265:11279   */\n      lt\n        /* \"#utility.yul\":11257:11465   */\n      iszero\n      tag_229\n      jumpi\n        /* \"#utility.yul\":11350:11359   */\n      dup5\n        /* \"#utility.yul\":11345:11348   */\n      dup10\n        /* \"#utility.yul\":11341:11360   */\n      add\n        /* \"#utility.yul\":11335:11361   */\n      mload\n        /* \"#utility.yul\":11327:11333   */\n      dup3\n        /* \"#utility.yul\":11320:11362   */\n      sstore\n        /* \"#utility.yul\":11401:11402   */\n      0x01\n        /* \"#utility.yul\":11393:11399   */\n      dup3\n        /* \"#utility.yul\":11389:11403   */\n      add\n        /* \"#utility.yul\":11379:11403   */\n      swap2\n      pop\n        /* \"#utility.yul\":11448:11450   */\n      0x20\n        /* \"#utility.yul\":11437:11446   */\n      dup6\n        /* \"#utility.yul\":11433:11451   */\n      add\n        /* \"#utility.yul\":11420:11451   */\n      swap5\n      pop\n        /* \"#utility.yul\":11294:11298   */\n      0x20\n        /* \"#utility.yul\":11291:11292   */\n      dup2\n        /* \"#utility.yul\":11287:11299   */\n      add\n        /* \"#utility.yul\":11282:11299   */\n      swap1\n      pop\n        /* \"#utility.yul\":11257:11465   */\n      jump(tag_227)\n    tag_229:\n        /* \"#utility.yul\":11493:11499   */\n      dup7\n        /* \"#utility.yul\":11484:11491   */\n      dup4\n        /* \"#utility.yul\":11481:11500   */\n      lt\n        /* \"#utility.yul\":11478:11657   */\n      iszero\n      tag_230\n      jumpi\n        /* \"#utility.yul\":11551:11560   */\n      dup5\n        /* \"#utility.yul\":11546:11549   */\n      dup10\n        /* \"#utility.yul\":11542:11561   */\n      add\n        /* \"#utility.yul\":11536:11562   */\n      mload\n        /* \"#utility.yul\":11594:11642   */\n      tag_231\n        /* \"#utility.yul\":11636:11640   */\n      0x1f\n        /* \"#utility.yul\":11628:11634   */\n      dup10\n        /* \"#utility.yul\":11624:11641   */\n      and\n        /* \"#utility.yul\":11613:11622   */\n      dup3\n        /* \"#utility.yul\":11594:11642   */\n      tag_94\n      jump\t// in\n    tag_231:\n        /* \"#utility.yul\":11586:11592   */\n      dup4\n        /* \"#utility.yul\":11579:11643   */\n      sstore\n        /* \"#utility.yul\":11501:11657   */\n      pop\n        /* \"#utility.yul\":11478:11657   */\n    tag_230:\n        /* \"#utility.yul\":11703:11704   */\n      0x01\n        /* \"#utility.yul\":11699:11700   */\n      0x02\n        /* \"#utility.yul\":11691:11697   */\n      dup9\n        /* \"#utility.yul\":11687:11701   */\n      mul\n        /* \"#utility.yul\":11683:11705   */\n      add\n        /* \"#utility.yul\":11677:11681   */\n      dup9\n        /* \"#utility.yul\":11670:11706   */\n      sstore\n        /* \"#utility.yul\":11105:11716   */\n      pop\n      pop\n      pop\n        /* \"#utility.yul\":11068:11955   */\n    tag_222:\n      pop\n        /* \"#utility.yul\":10658:11961   */\n      pop\n      pop\n      pop\n        /* \"#utility.yul\":10566:11961   */\n      pop\n      pop\n      jump\t// out\n\n    auxdata: 0xa264697066735822122099f49a147c26379b1836856908d7e4353e94defb50e5fcf5f926ce55d6639b1964736f6c634300081a0033\n}\n",
				"bytecode": {
					"linkReferences": {},
					"object": "60806040526040518060a001604052806001815260200160028152602001600381526020016004815260200160058152505f906005603d929190604d565b503480156048575f80fd5b5060a1565b82600581019282156079579160200282015b828111156078578251825591602001919060010190605f565b5b509050608491906088565b5090565b5b80821115609d575f815f9055506001016089565b5090565b610ade806100ae5f395ff3fe608060405234801561000f575f80fd5b506004361061004a575f3560e01c806338d941931461004e5780636c92f4621461007e578063912a5bde1461009e578063edda693e146100be575b5f80fd5b6100686004803603810190610063919061049d565b6100da565b60405161007591906104d7565b60405180910390f35b6100866100f2565b60405161009593929190610560565b60405180910390f35b6100a66102e3565b6040516100b5939291906105be565b60405180910390f35b6100d860048036038101906100d39190610757565b610412565b005b5f81600581106100e8575f80fd5b015f915090505481565b6060805f6040518060400160405280600481526020017f4a6f686e0000000000000000000000000000000000000000000000000000000081525060055f01908161013c91906109d9565b506040518060400160405280600981526020017f4368656d697374727900000000000000000000000000000000000000000000008152506005600101908161018491906109d9565b50605860056002015f6101000a81548160ff021916908360ff16021790555060055f01600560010160056002015f9054906101000a900460ff168280546101ca9061080c565b80601f01602080910402602001604051908101604052809291908181526020018280546101f69061080c565b80156102415780601f1061021857610100808354040283529160200191610241565b820191905f5260205f20905b81548152906001019060200180831161022457829003601f168201915b505050505092508180546102549061080c565b80601f01602080910402602001604051908101604052809291908181526020018280546102809061080c565b80156102cb5780601f106102a2576101008083540402835291602001916102cb565b820191905f5260205f20905b8154815290600101906020018083116102ae57829003601f168201915b505050505091508060ff169050925092509250909192565b6005805f0180546102f39061080c565b80601f016020809104026020016040519081016040528092919081815260200182805461031f9061080c565b801561036a5780601f106103415761010080835404028352916020019161036a565b820191905f5260205f20905b81548152906001019060200180831161034d57829003601f168201915b50505050509080600101805461037f9061080c565b80601f01602080910402602001604051908101604052809291908181526020018280546103ab9061080c565b80156103f65780601f106103cd576101008083540402835291602001916103f6565b820191905f5260205f20905b8154815290600101906020018083116103d957829003601f168201915b505050505090806002015f9054906101000a900460ff16905083565b8260055f01908161042391906109d9565b50816005600101908161043691906109d9565b508060056002015f6101000a81548160ff021916908360ff160217905550505050565b5f604051905090565b5f80fd5b5f80fd5b5f819050919050565b61047c8161046a565b8114610486575f80fd5b50565b5f8135905061049781610473565b92915050565b5f602082840312156104b2576104b1610462565b5b5f6104bf84828501610489565b91505092915050565b6104d18161046a565b82525050565b5f6020820190506104ea5f8301846104c8565b92915050565b5f81519050919050565b5f82825260208201905092915050565b8281835e5f83830152505050565b5f601f19601f8301169050919050565b5f610532826104f0565b61053c81856104fa565b935061054c81856020860161050a565b61055581610518565b840191505092915050565b5f6060820190508181035f8301526105788186610528565b9050818103602083015261058c8185610528565b905061059b60408301846104c8565b949350505050565b5f60ff82169050919050565b6105b8816105a3565b82525050565b5f6060820190508181035f8301526105d68186610528565b905081810360208301526105ea8185610528565b90506105f960408301846105af565b949350505050565b5f80fd5b5f80fd5b7f4e487b71000000000000000000000000000000000000000000000000000000005f52604160045260245ffd5b61063f82610518565b810181811067ffffffffffffffff8211171561065e5761065d610609565b5b80604052505050565b5f610670610459565b905061067c8282610636565b919050565b5f67ffffffffffffffff82111561069b5761069a610609565b5b6106a482610518565b9050602081019050919050565b828183375f83830152505050565b5f6106d16106cc84610681565b610667565b9050828152602081018484840111156106ed576106ec610605565b5b6106f88482856106b1565b509392505050565b5f82601f83011261071457610713610601565b5b81356107248482602086016106bf565b91505092915050565b610736816105a3565b8114610740575f80fd5b50565b5f813590506107518161072d565b92915050565b5f805f6060848603121561076e5761076d610462565b5b5f84013567ffffffffffffffff81111561078b5761078a610466565b5b61079786828701610700565b935050602084013567ffffffffffffffff8111156107b8576107b7610466565b5b6107c486828701610700565b92505060406107d586828701610743565b9150509250925092565b7f4e487b71000000000000000000000000000000000000000000000000000000005f52602260045260245ffd5b5f600282049050600182168061082357607f821691505b602082108103610836576108356107df565b5b50919050565b5f819050815f5260205f209050919050565b5f6020601f8301049050919050565b5f82821b905092915050565b5f600883026108987fffffffffffffffffffffffffffffffffffffffffffffffffffffffffffffffff8261085d565b6108a2868361085d565b95508019841693508086168417925050509392505050565b5f819050919050565b5f6108dd6108d86108d38461046a565b6108ba565b61046a565b9050919050565b5f819050919050565b6108f6836108c3565b61090a610902826108e4565b848454610869565b825550505050565b5f90565b61091e610912565b6109298184846108ed565b505050565b5b8181101561094c576109415f82610916565b60018101905061092f565b5050565b601f821115610991576109628161083c565b61096b8461084e565b8101602085101561097a578190505b61098e6109868561084e565b83018261092e565b50505b505050565b5f82821c905092915050565b5f6109b15f1984600802610996565b1980831691505092915050565b5f6109c983836109a2565b9150826002028217905092915050565b6109e2826104f0565b67ffffffffffffffff8111156109fb576109fa610609565b5b610a05825461080c565b610a10828285610950565b5f60209050601f831160018114610a41575f8415610a2f578287015190505b610a3985826109be565b865550610aa0565b601f198416610a4f8661083c565b5f5b82811015610a7657848901518255600182019150602085019450602081019050610a51565b86831015610a935784890151610a8f601f8916826109a2565b8355505b6001600288020188555050505b50505050505056fea264697066735822122099f49a147c26379b1836856908d7e4353e94defb50e5fcf5f926ce55d6639b1964736f6c634300081a0033",
					"opcodes": "PUSH1 0x80 PUSH1 0x40 MSTORE PUSH1 0x40 MLOAD DUP1 PUSH1 0xA0 ADD PUSH1 0x40 MSTORE DUP1 PUSH1 0x1 DUP2 MSTORE PUSH1 0x20 ADD PUSH1 0x2 DUP2 MSTORE PUSH1 0x20 ADD PUSH1 0x3 DUP2 MSTORE PUSH1 0x20 ADD PUSH1 0x4 DUP2 MSTORE PUSH1 0x20 ADD PUSH1 0x5 DUP2 MSTORE POP PUSH0 SWAP1 PUSH1 0x5 PUSH1 0x3D SWAP3 SWAP2 SWAP1 PUSH1 0x4D JUMP JUMPDEST POP CALLVALUE DUP1 ISZERO PUSH1 0x48 JUMPI PUSH0 DUP1 REVERT JUMPDEST POP PUSH1 0xA1 JUMP JUMPDEST DUP3 PUSH1 0x5 DUP2 ADD SWAP3 DUP3 ISZERO PUSH1 0x79 JUMPI SWAP2 PUSH1 0x20 MUL DUP3 ADD JUMPDEST DUP3 DUP2 GT ISZERO PUSH1 0x78 JUMPI DUP3 MLOAD DUP3 SSTORE SWAP2 PUSH1 0x20 ADD SWAP2 SWAP1 PUSH1 0x1 ADD SWAP1 PUSH1 0x5F JUMP JUMPDEST JUMPDEST POP SWAP1 POP PUSH1 0x84 SWAP2 SWAP1 PUSH1 0x88 JUMP JUMPDEST POP SWAP1 JUMP JUMPDEST JUMPDEST DUP1 DUP3 GT ISZERO PUSH1 0x9D JUMPI PUSH0 DUP2 PUSH0 SWAP1 SSTORE POP PUSH1 0x1 ADD PUSH1 0x89 JUMP JUMPDEST POP SWAP1 JUMP JUMPDEST PUSH2 0xADE DUP1 PUSH2 0xAE PUSH0 CODECOPY PUSH0 RETURN INVALID PUSH1 0x80 PUSH1 0x40 MSTORE CALLVALUE DUP1 ISZERO PUSH2 0xF JUMPI PUSH0 DUP1 REVERT JUMPDEST POP PUSH1 0x4 CALLDATASIZE LT PUSH2 0x4A JUMPI PUSH0 CALLDATALOAD PUSH1 0xE0 SHR DUP1 PUSH4 0x38D94193 EQ PUSH2 0x4E JUMPI DUP1 PUSH4 0x6C92F462 EQ PUSH2 0x7E JUMPI DUP1 PUSH4 0x912A5BDE EQ PUSH2 0x9E JUMPI DUP1 PUSH4 0xEDDA693E EQ PUSH2 0xBE JUMPI JUMPDEST PUSH0 DUP1 REVERT JUMPDEST PUSH2 0x68 PUSH1 0x4 DUP1 CALLDATASIZE SUB DUP2 ADD SWAP1 PUSH2 0x63 SWAP2 SWAP1 PUSH2 0x49D JUMP JUMPDEST PUSH2 0xDA JUMP JUMPDEST PUSH1 0x40 MLOAD PUSH2 0x75 SWAP2 SWAP1 PUSH2 0x4D7 JUMP JUMPDEST PUSH1 0x40 MLOAD DUP1 SWAP2 SUB SWAP1 RETURN JUMPDEST PUSH2 0x86 PUSH2 0xF2 JUMP JUMPDEST PUSH1 0x40 MLOAD PUSH2 0x95 SWAP4 SWAP3 SWAP2 SWAP1 PUSH2 0x560 JUMP JUMPDEST PUSH1 0x40 MLOAD DUP1 SWAP2 SUB SWAP1 RETURN JUMPDEST PUSH2 0xA6 PUSH2 0x2E3 JUMP JUMPDEST PUSH1 0x40 MLOAD PUSH2 0xB5 SWAP4 SWAP3 SWAP2 SWAP1 PUSH2 0x5BE JUMP JUMPDEST PUSH1 0x40 MLOAD DUP1 SWAP2 SUB SWAP1 RETURN JUMPDEST PUSH2 0xD8 PUSH1 0x4 DUP1 CALLDATASIZE SUB DUP2 ADD SWAP1 PUSH2 0xD3 SWAP2 SWAP1 PUSH2 0x757 JUMP JUMPDEST PUSH2 0x412 JUMP JUMPDEST STOP JUMPDEST PUSH0 DUP2 PUSH1 0x5 DUP2 LT PUSH2 0xE8 JUMPI PUSH0 DUP1 REVERT JUMPDEST ADD PUSH0 SWAP2 POP SWAP1 POP SLOAD DUP2 JUMP JUMPDEST PUSH1 0x60 DUP1 PUSH0 PUSH1 0x40 MLOAD DUP1 PUSH1 0x40 ADD PUSH1 0x40 MSTORE DUP1 PUSH1 0x4 DUP2 MSTORE PUSH1 0x20 ADD PUSH32 0x4A6F686E00000000000000000000000000000000000000000000000000000000 DUP2 MSTORE POP PUSH1 0x5 PUSH0 ADD SWAP1 DUP2 PUSH2 0x13C SWAP2 SWAP1 PUSH2 0x9D9 JUMP JUMPDEST POP PUSH1 0x40 MLOAD DUP1 PUSH1 0x40 ADD PUSH1 0x40 MSTORE DUP1 PUSH1 0x9 DUP2 MSTORE PUSH1 0x20 ADD PUSH32 0x4368656D69737472790000000000000000000000000000000000000000000000 DUP2 MSTORE POP PUSH1 0x5 PUSH1 0x1 ADD SWAP1 DUP2 PUSH2 0x184 SWAP2 SWAP1 PUSH2 0x9D9 JUMP JUMPDEST POP PUSH1 0x58 PUSH1 0x5 PUSH1 0x2 ADD PUSH0 PUSH2 0x100 EXP DUP2 SLOAD DUP2 PUSH1 0xFF MUL NOT AND SWAP1 DUP4 PUSH1 0xFF AND MUL OR SWAP1 SSTORE POP PUSH1 0x5 PUSH0 ADD PUSH1 0x5 PUSH1 0x1 ADD PUSH1 0x5 PUSH1 0x2 ADD PUSH0 SWAP1 SLOAD SWAP1 PUSH2 0x100 EXP SWAP1 DIV PUSH1 0xFF AND DUP3 DUP1 SLOAD PUSH2 0x1CA SWAP1 PUSH2 0x80C JUMP JUMPDEST DUP1 PUSH1 0x1F ADD PUSH1 0x20 DUP1 SWAP2 DIV MUL PUSH1 0x20 ADD PUSH1 0x40 MLOAD SWAP1 DUP2 ADD PUSH1 0x40 MSTORE DUP1 SWAP3 SWAP2 SWAP1 DUP2 DUP2 MSTORE PUSH1 0x20 ADD DUP3 DUP1 SLOAD PUSH2 0x1F6 SWAP1 PUSH2 0x80C JUMP JUMPDEST DUP1 ISZERO PUSH2 0x241 JUMPI DUP1 PUSH1 0x1F LT PUSH2 0x218 JUMPI PUSH2 0x100 DUP1 DUP4 SLOAD DIV MUL DUP4 MSTORE SWAP2 PUSH1 0x20 ADD SWAP2 PUSH2 0x241 JUMP JUMPDEST DUP3 ADD SWAP2 SWAP1 PUSH0 MSTORE PUSH1 0x20 PUSH0 KECCAK256 SWAP1 JUMPDEST DUP2 SLOAD DUP2 MSTORE SWAP1 PUSH1 0x1 ADD SWAP1 PUSH1 0x20 ADD DUP1 DUP4 GT PUSH2 0x224 JUMPI DUP3 SWAP1 SUB PUSH1 0x1F AND DUP3 ADD SWAP2 JUMPDEST POP POP POP POP POP SWAP3 POP DUP2 DUP1 SLOAD PUSH2 0x254 SWAP1 PUSH2 0x80C JUMP JUMPDEST DUP1 PUSH1 0x1F ADD PUSH1 0x20 DUP1 SWAP2 DIV MUL PUSH1 0x20 ADD PUSH1 0x40 MLOAD SWAP1 DUP2 ADD PUSH1 0x40 MSTORE DUP1 SWAP3 SWAP2 SWAP1 DUP2 DUP2 MSTORE PUSH1 0x20 ADD DUP3 DUP1 SLOAD PUSH2 0x280 SWAP1 PUSH2 0x80C JUMP JUMPDEST DUP1 ISZERO PUSH2 0x2CB JUMPI DUP1 PUSH1 0x1F LT PUSH2 0x2A2 JUMPI PUSH2 0x100 DUP1 DUP4 SLOAD DIV MUL DUP4 MSTORE SWAP2 PUSH1 0x20 ADD SWAP2 PUSH2 0x2CB JUMP JUMPDEST DUP3 ADD SWAP2 SWAP1 PUSH0 MSTORE PUSH1 0x20 PUSH0 KECCAK256 SWAP1 JUMPDEST DUP2 SLOAD DUP2 MSTORE SWAP1 PUSH1 0x1 ADD SWAP1 PUSH1 0x20 ADD DUP1 DUP4 GT PUSH2 0x2AE JUMPI DUP3 SWAP1 SUB PUSH1 0x1F AND DUP3 ADD SWAP2 JUMPDEST POP POP POP POP POP SWAP2 POP DUP1 PUSH1 0xFF AND SWAP1 POP SWAP3 POP SWAP3 POP SWAP3 POP SWAP1 SWAP2 SWAP3 JUMP JUMPDEST PUSH1 0x5 DUP1 PUSH0 ADD DUP1 SLOAD PUSH2 0x2F3 SWAP1 PUSH2 0x80C JUMP JUMPDEST DUP1 PUSH1 0x1F ADD PUSH1 0x20 DUP1 SWAP2 DIV MUL PUSH1 0x20 ADD PUSH1 0x40 MLOAD SWAP1 DUP2 ADD PUSH1 0x40 MSTORE DUP1 SWAP3 SWAP2 SWAP1 DUP2 DUP2 MSTORE PUSH1 0x20 ADD DUP3 DUP1 SLOAD PUSH2 0x31F SWAP1 PUSH2 0x80C JUMP JUMPDEST DUP1 ISZERO PUSH2 0x36A JUMPI DUP1 PUSH1 0x1F LT PUSH2 0x341 JUMPI PUSH2 0x100 DUP1 DUP4 SLOAD DIV MUL DUP4 MSTORE SWAP2 PUSH1 0x20 ADD SWAP2 PUSH2 0x36A JUMP JUMPDEST DUP3 ADD SWAP2 SWAP1 PUSH0 MSTORE PUSH1 0x20 PUSH0 KECCAK256 SWAP1 JUMPDEST DUP2 SLOAD DUP2 MSTORE SWAP1 PUSH1 0x1 ADD SWAP1 PUSH1 0x20 ADD DUP1 DUP4 GT PUSH2 0x34D JUMPI DUP3 SWAP1 SUB PUSH1 0x1F AND DUP3 ADD SWAP2 JUMPDEST POP POP POP POP POP SWAP1 DUP1 PUSH1 0x1 ADD DUP1 SLOAD PUSH2 0x37F SWAP1 PUSH2 0x80C JUMP JUMPDEST DUP1 PUSH1 0x1F ADD PUSH1 0x20 DUP1 SWAP2 DIV MUL PUSH1 0x20 ADD PUSH1 0x40 MLOAD SWAP1 DUP2 ADD PUSH1 0x40 MSTORE DUP1 SWAP3 SWAP2 SWAP1 DUP2 DUP2 MSTORE PUSH1 0x20 ADD DUP3 DUP1 SLOAD PUSH2 0x3AB SWAP1 PUSH2 0x80C JUMP JUMPDEST DUP1 ISZERO PUSH2 0x3F6 JUMPI DUP1 PUSH1 0x1F LT PUSH2 0x3CD JUMPI PUSH2 0x100 DUP1 DUP4 SLOAD DIV MUL DUP4 MSTORE SWAP2 PUSH1 0x20 ADD SWAP2 PUSH2 0x3F6 JUMP JUMPDEST DUP3 ADD SWAP2 SWAP1 PUSH0 MSTORE PUSH1 0x20 PUSH0 KECCAK256 SWAP1 JUMPDEST DUP2 SLOAD DUP2 MSTORE SWAP1 PUSH1 0x1 ADD SWAP1 PUSH1 0x20 ADD DUP1 DUP4 GT PUSH2 0x3D9 JUMPI DUP3 SWAP1 SUB PUSH1 0x1F AND DUP3 ADD SWAP2 JUMPDEST POP POP POP POP POP SWAP1 DUP1 PUSH1 0x2 ADD PUSH0 SWAP1 SLOAD SWAP1 PUSH2 0x100 EXP SWAP1 DIV PUSH1 0xFF AND SWAP1 POP DUP4 JUMP JUMPDEST DUP3 PUSH1 0x5 PUSH0 ADD SWAP1 DUP2 PUSH2 0x423 SWAP2 SWAP1 PUSH2 0x9D9 JUMP JUMPDEST POP DUP2 PUSH1 0x5 PUSH1 0x1 ADD SWAP1 DUP2 PUSH2 0x436 SWAP2 SWAP1 PUSH2 0x9D9 JUMP JUMPDEST POP DUP1 PUSH1 0x5 PUSH1 0x2 ADD PUSH0 PUSH2 0x100 EXP DUP2 SLOAD DUP2 PUSH1 0xFF MUL NOT AND SWAP1 DUP4 PUSH1 0xFF AND MUL OR SWAP1 SSTORE POP POP POP POP JUMP JUMPDEST PUSH0 PUSH1 0x40 MLOAD SWAP1 POP SWAP1 JUMP JUMPDEST PUSH0 DUP1 REVERT JUMPDEST PUSH0 DUP1 REVERT JUMPDEST PUSH0 DUP2 SWAP1 POP SWAP2 SWAP1 POP JUMP JUMPDEST PUSH2 0x47C DUP2 PUSH2 0x46A JUMP JUMPDEST DUP2 EQ PUSH2 0x486 JUMPI PUSH0 DUP1 REVERT JUMPDEST POP JUMP JUMPDEST PUSH0 DUP2 CALLDATALOAD SWAP1 POP PUSH2 0x497 DUP2 PUSH2 0x473 JUMP JUMPDEST SWAP3 SWAP2 POP POP JUMP JUMPDEST PUSH0 PUSH1 0x20 DUP3 DUP5 SUB SLT ISZERO PUSH2 0x4B2 JUMPI PUSH2 0x4B1 PUSH2 0x462 JUMP JUMPDEST JUMPDEST PUSH0 PUSH2 0x4BF DUP5 DUP3 DUP6 ADD PUSH2 0x489 JUMP JUMPDEST SWAP2 POP POP SWAP3 SWAP2 POP POP JUMP JUMPDEST PUSH2 0x4D1 DUP2 PUSH2 0x46A JUMP JUMPDEST DUP3 MSTORE POP POP JUMP JUMPDEST PUSH0 PUSH1 0x20 DUP3 ADD SWAP1 POP PUSH2 0x4EA PUSH0 DUP4 ADD DUP5 PUSH2 0x4C8 JUMP JUMPDEST SWAP3 SWAP2 POP POP JUMP JUMPDEST PUSH0 DUP2 MLOAD SWAP1 POP SWAP2 SWAP1 POP JUMP JUMPDEST PUSH0 DUP3 DUP3 MSTORE PUSH1 0x20 DUP3 ADD SWAP1 POP SWAP3 SWAP2 POP POP JUMP JUMPDEST DUP3 DUP2 DUP4 MCOPY PUSH0 DUP4 DUP4 ADD MSTORE POP POP POP JUMP JUMPDEST PUSH0 PUSH1 0x1F NOT PUSH1 0x1F DUP4 ADD AND SWAP1 POP SWAP2 SWAP1 POP JUMP JUMPDEST PUSH0 PUSH2 0x532 DUP3 PUSH2 0x4F0 JUMP JUMPDEST PUSH2 0x53C DUP2 DUP6 PUSH2 0x4FA JUMP JUMPDEST SWAP4 POP PUSH2 0x54C DUP2 DUP6 PUSH1 0x20 DUP7 ADD PUSH2 0x50A JUMP JUMPDEST PUSH2 0x555 DUP2 PUSH2 0x518 JUMP JUMPDEST DUP5 ADD SWAP2 POP POP SWAP3 SWAP2 POP POP JUMP JUMPDEST PUSH0 PUSH1 0x60 DUP3 ADD SWAP1 POP DUP2 DUP2 SUB PUSH0 DUP4 ADD MSTORE PUSH2 0x578 DUP2 DUP7 PUSH2 0x528 JUMP JUMPDEST SWAP1 POP DUP2 DUP2 SUB PUSH1 0x20 DUP4 ADD MSTORE PUSH2 0x58C DUP2 DUP6 PUSH2 0x528 JUMP JUMPDEST SWAP1 POP PUSH2 0x59B PUSH1 0x40 DUP4 ADD DUP5 PUSH2 0x4C8 JUMP JUMPDEST SWAP5 SWAP4 POP POP POP POP JUMP JUMPDEST PUSH0 PUSH1 0xFF DUP3 AND SWAP1 POP SWAP2 SWAP1 POP JUMP JUMPDEST PUSH2 0x5B8 DUP2 PUSH2 0x5A3 JUMP JUMPDEST DUP3 MSTORE POP POP JUMP JUMPDEST PUSH0 PUSH1 0x60 DUP3 ADD SWAP1 POP DUP2 DUP2 SUB PUSH0 DUP4 ADD MSTORE PUSH2 0x5D6 DUP2 DUP7 PUSH2 0x528 JUMP JUMPDEST SWAP1 POP DUP2 DUP2 SUB PUSH1 0x20 DUP4 ADD MSTORE PUSH2 0x5EA DUP2 DUP6 PUSH2 0x528 JUMP JUMPDEST SWAP1 POP PUSH2 0x5F9 PUSH1 0x40 DUP4 ADD DUP5 PUSH2 0x5AF JUMP JUMPDEST SWAP5 SWAP4 POP POP POP POP JUMP JUMPDEST PUSH0 DUP1 REVERT JUMPDEST PUSH0 DUP1 REVERT JUMPDEST PUSH32 0x4E487B7100000000000000000000000000000000000000000000000000000000 PUSH0 MSTORE PUSH1 0x41 PUSH1 0x4 MSTORE PUSH1 0x24 PUSH0 REVERT JUMPDEST PUSH2 0x63F DUP3 PUSH2 0x518 JUMP JUMPDEST DUP2 ADD DUP2 DUP2 LT PUSH8 0xFFFFFFFFFFFFFFFF DUP3 GT OR ISZERO PUSH2 0x65E JUMPI PUSH2 0x65D PUSH2 0x609 JUMP JUMPDEST JUMPDEST DUP1 PUSH1 0x40 MSTORE POP POP POP JUMP JUMPDEST PUSH0 PUSH2 0x670 PUSH2 0x459 JUMP JUMPDEST SWAP1 POP PUSH2 0x67C DUP3 DUP3 PUSH2 0x636 JUMP JUMPDEST SWAP2 SWAP1 POP JUMP JUMPDEST PUSH0 PUSH8 0xFFFFFFFFFFFFFFFF DUP3 GT ISZERO PUSH2 0x69B JUMPI PUSH2 0x69A PUSH2 0x609 JUMP JUMPDEST JUMPDEST PUSH2 0x6A4 DUP3 PUSH2 0x518 JUMP JUMPDEST SWAP1 POP PUSH1 0x20 DUP2 ADD SWAP1 POP SWAP2 SWAP1 POP JUMP JUMPDEST DUP3 DUP2 DUP4 CALLDATACOPY PUSH0 DUP4 DUP4 ADD MSTORE POP POP POP JUMP JUMPDEST PUSH0 PUSH2 0x6D1 PUSH2 0x6CC DUP5 PUSH2 0x681 JUMP JUMPDEST PUSH2 0x667 JUMP JUMPDEST SWAP1 POP DUP3 DUP2 MSTORE PUSH1 0x20 DUP2 ADD DUP5 DUP5 DUP5 ADD GT ISZERO PUSH2 0x6ED JUMPI PUSH2 0x6EC PUSH2 0x605 JUMP JUMPDEST JUMPDEST PUSH2 0x6F8 DUP5 DUP3 DUP6 PUSH2 0x6B1 JUMP JUMPDEST POP SWAP4 SWAP3 POP POP POP JUMP JUMPDEST PUSH0 DUP3 PUSH1 0x1F DUP4 ADD SLT PUSH2 0x714 JUMPI PUSH2 0x713 PUSH2 0x601 JUMP JUMPDEST JUMPDEST DUP2 CALLDATALOAD PUSH2 0x724 DUP5 DUP3 PUSH1 0x20 DUP7 ADD PUSH2 0x6BF JUMP JUMPDEST SWAP2 POP POP SWAP3 SWAP2 POP POP JUMP JUMPDEST PUSH2 0x736 DUP2 PUSH2 0x5A3 JUMP JUMPDEST DUP2 EQ PUSH2 0x740 JUMPI PUSH0 DUP1 REVERT JUMPDEST POP JUMP JUMPDEST PUSH0 DUP2 CALLDATALOAD SWAP1 POP PUSH2 0x751 DUP2 PUSH2 0x72D JUMP JUMPDEST SWAP3 SWAP2 POP POP JUMP JUMPDEST PUSH0 DUP1 PUSH0 PUSH1 0x60 DUP5 DUP7 SUB SLT ISZERO PUSH2 0x76E JUMPI PUSH2 0x76D PUSH2 0x462 JUMP JUMPDEST JUMPDEST PUSH0 DUP5 ADD CALLDATALOAD PUSH8 0xFFFFFFFFFFFFFFFF DUP2 GT ISZERO PUSH2 0x78B JUMPI PUSH2 0x78A PUSH2 0x466 JUMP JUMPDEST JUMPDEST PUSH2 0x797 DUP7 DUP3 DUP8 ADD PUSH2 0x700 JUMP JUMPDEST SWAP4 POP POP PUSH1 0x20 DUP5 ADD CALLDATALOAD PUSH8 0xFFFFFFFFFFFFFFFF DUP2 GT ISZERO PUSH2 0x7B8 JUMPI PUSH2 0x7B7 PUSH2 0x466 JUMP JUMPDEST JUMPDEST PUSH2 0x7C4 DUP7 DUP3 DUP8 ADD PUSH2 0x700 JUMP JUMPDEST SWAP3 POP POP PUSH1 0x40 PUSH2 0x7D5 DUP7 DUP3 DUP8 ADD PUSH2 0x743 JUMP JUMPDEST SWAP2 POP POP SWAP3 POP SWAP3 POP SWAP3 JUMP JUMPDEST PUSH32 0x4E487B7100000000000000000000000000000000000000000000000000000000 PUSH0 MSTORE PUSH1 0x22 PUSH1 0x4 MSTORE PUSH1 0x24 PUSH0 REVERT JUMPDEST PUSH0 PUSH1 0x2 DUP3 DIV SWAP1 POP PUSH1 0x1 DUP3 AND DUP1 PUSH2 0x823 JUMPI PUSH1 0x7F DUP3 AND SWAP2 POP JUMPDEST PUSH1 0x20 DUP3 LT DUP2 SUB PUSH2 0x836 JUMPI PUSH2 0x835 PUSH2 0x7DF JUMP JUMPDEST JUMPDEST POP SWAP2 SWAP1 POP JUMP JUMPDEST PUSH0 DUP2 SWAP1 POP DUP2 PUSH0 MSTORE PUSH1 0x20 PUSH0 KECCAK256 SWAP1 POP SWAP2 SWAP1 POP JUMP JUMPDEST PUSH0 PUSH1 0x20 PUSH1 0x1F DUP4 ADD DIV SWAP1 POP SWAP2 SWAP1 POP JUMP JUMPDEST PUSH0 DUP3 DUP3 SHL SWAP1 POP SWAP3 SWAP2 POP POP JUMP JUMPDEST PUSH0 PUSH1 0x8 DUP4 MUL PUSH2 0x898 PUSH32 0xFFFFFFFFFFFFFFFFFFFFFFFFFFFFFFFFFFFFFFFFFFFFFFFFFFFFFFFFFFFFFFFF DUP3 PUSH2 0x85D JUMP JUMPDEST PUSH2 0x8A2 DUP7 DUP4 PUSH2 0x85D JUMP JUMPDEST SWAP6 POP DUP1 NOT DUP5 AND SWAP4 POP DUP1 DUP7 AND DUP5 OR SWAP3 POP POP POP SWAP4 SWAP3 POP POP POP JUMP JUMPDEST PUSH0 DUP2 SWAP1 POP SWAP2 SWAP1 POP JUMP JUMPDEST PUSH0 PUSH2 0x8DD PUSH2 0x8D8 PUSH2 0x8D3 DUP5 PUSH2 0x46A JUMP JUMPDEST PUSH2 0x8BA JUMP JUMPDEST PUSH2 0x46A JUMP JUMPDEST SWAP1 POP SWAP2 SWAP1 POP JUMP JUMPDEST PUSH0 DUP2 SWAP1 POP SWAP2 SWAP1 POP JUMP JUMPDEST PUSH2 0x8F6 DUP4 PUSH2 0x8C3 JUMP JUMPDEST PUSH2 0x90A PUSH2 0x902 DUP3 PUSH2 0x8E4 JUMP JUMPDEST DUP5 DUP5 SLOAD PUSH2 0x869 JUMP JUMPDEST DUP3 SSTORE POP POP POP POP JUMP JUMPDEST PUSH0 SWAP1 JUMP JUMPDEST PUSH2 0x91E PUSH2 0x912 JUMP JUMPDEST PUSH2 0x929 DUP2 DUP5 DUP5 PUSH2 0x8ED JUMP JUMPDEST POP POP POP JUMP JUMPDEST JUMPDEST DUP2 DUP2 LT ISZERO PUSH2 0x94C JUMPI PUSH2 0x941 PUSH0 DUP3 PUSH2 0x916 JUMP JUMPDEST PUSH1 0x1 DUP2 ADD SWAP1 POP PUSH2 0x92F JUMP JUMPDEST POP POP JUMP JUMPDEST PUSH1 0x1F DUP3 GT ISZERO PUSH2 0x991 JUMPI PUSH2 0x962 DUP2 PUSH2 0x83C JUMP JUMPDEST PUSH2 0x96B DUP5 PUSH2 0x84E JUMP JUMPDEST DUP2 ADD PUSH1 0x20 DUP6 LT ISZERO PUSH2 0x97A JUMPI DUP2 SWAP1 POP JUMPDEST PUSH2 0x98E PUSH2 0x986 DUP6 PUSH2 0x84E JUMP JUMPDEST DUP4 ADD DUP3 PUSH2 0x92E JUMP JUMPDEST POP POP JUMPDEST POP POP POP JUMP JUMPDEST PUSH0 DUP3 DUP3 SHR SWAP1 POP SWAP3 SWAP2 POP POP JUMP JUMPDEST PUSH0 PUSH2 0x9B1 PUSH0 NOT DUP5 PUSH1 0x8 MUL PUSH2 0x996 JUMP JUMPDEST NOT DUP1 DUP4 AND SWAP2 POP POP SWAP3 SWAP2 POP POP JUMP JUMPDEST PUSH0 PUSH2 0x9C9 DUP4 DUP4 PUSH2 0x9A2 JUMP JUMPDEST SWAP2 POP DUP3 PUSH1 0x2 MUL DUP3 OR SWAP1 POP SWAP3 SWAP2 POP POP JUMP JUMPDEST PUSH2 0x9E2 DUP3 PUSH2 0x4F0 JUMP JUMPDEST PUSH8 0xFFFFFFFFFFFFFFFF DUP2 GT ISZERO PUSH2 0x9FB JUMPI PUSH2 0x9FA PUSH2 0x609 JUMP JUMPDEST JUMPDEST PUSH2 0xA05 DUP3 SLOAD PUSH2 0x80C JUMP JUMPDEST PUSH2 0xA10 DUP3 DUP3 DUP6 PUSH2 0x950 JUMP JUMPDEST PUSH0 PUSH1 0x20 SWAP1 POP PUSH1 0x1F DUP4 GT PUSH1 0x1 DUP2 EQ PUSH2 0xA41 JUMPI PUSH0 DUP5 ISZERO PUSH2 0xA2F JUMPI DUP3 DUP8 ADD MLOAD SWAP1 POP JUMPDEST PUSH2 0xA39 DUP6 DUP3 PUSH2 0x9BE JUMP JUMPDEST DUP7 SSTORE POP PUSH2 0xAA0 JUMP JUMPDEST PUSH1 0x1F NOT DUP5 AND PUSH2 0xA4F DUP7 PUSH2 0x83C JUMP JUMPDEST PUSH0 JUMPDEST DUP3 DUP2 LT ISZERO PUSH2 0xA76 JUMPI DUP5 DUP10 ADD MLOAD DUP3 SSTORE PUSH1 0x1 DUP3 ADD SWAP2 POP PUSH1 0x20 DUP6 ADD SWAP5 POP PUSH1 0x20 DUP2 ADD SWAP1 POP PUSH2 0xA51 JUMP JUMPDEST DUP7 DUP4 LT ISZERO PUSH2 0xA93 JUMPI DUP5 DUP10 ADD MLOAD PUSH2 0xA8F PUSH1 0x1F DUP10 AND DUP3 PUSH2 0x9A2 JUMP JUMPDEST DUP4 SSTORE POP JUMPDEST PUSH1 0x1 PUSH1 0x2 DUP9 MUL ADD DUP9 SSTORE POP POP POP JUMPDEST POP POP POP POP POP POP JUMP INVALID LOG2 PUSH5 0x6970667358 0x22 SLT KECCAK256 SWAP10 DELEGATECALL SWAP11 EQ PUSH29 0x26379B1836856908D7E4353E94DEFB50E5FCF5F926CE55D6639B196473 PUSH16 0x6C634300081A00330000000000000000 "
				},
				"gasEstimates": {
					"creation": {
						"codeDepositCost": "556400",
						"executionCost": "infinite",
						"totalCost": "infinite"
					},
					"external": {
						"array(uint256)": "infinite",
						"set(string,string,uint8)": "infinite",
						"std1()": "infinite",
						"structure()": "infinite"
					}
				},
				"methodIdentifiers": {
					"array(uint256)": "38d94193",
					"set(string,string,uint8)": "edda693e",
					"std1()": "912a5bde",
					"structure()": "6c92f462"
				}
			},
			"storageLayout": {
				"storage": [
					{
						"astId": 14,
						"contract": "mapping_example.sol:mapping_example",
						"label": "array",
						"offset": 0,
						"slot": "0",
						"type": "t_array(t_uint256)5_storage"
					},
					{
						"astId": 24,
						"contract": "mapping_example.sol:mapping_example",
						"label": "std1",
						"offset": 0,
						"slot": "5",
						"type": "t_struct(student)21_storage"
					},
					{
						"astId": 93,
						"contract": "mapping_example.sol:mapping_example",
						"label": "result",
						"offset": 0,
						"slot": "8",
						"type": "t_mapping(t_address,t_struct(student)21_storage)"
					},
					{
						"astId": 96,
						"contract": "mapping_example.sol:mapping_example",
						"label": "student_result",
						"offset": 0,
						"slot": "9",
						"type": "t_array(t_address)dyn_storage"
					}
				],
				"types": {
					"t_address": {
						"encoding": "inplace",
						"label": "address",
						"numberOfBytes": "20"
					},
					"t_array(t_address)dyn_storage": {
						"base": "t_address",
						"encoding": "dynamic_array",
						"label": "address[]",
						"numberOfBytes": "32"
					},
					"t_array(t_uint256)5_storage": {
						"base": "t_uint256",
						"encoding": "inplace",
						"label": "uint256[5]",
						"numberOfBytes": "160"
					},
					"t_mapping(t_address,t_struct(student)21_storage)": {
						"encoding": "mapping",
						"key": "t_address",
						"label": "mapping(address => struct mapping_example.student)",
						"numberOfBytes": "32",
						"value": "t_struct(student)21_storage"
					},
					"t_string_storage": {
						"encoding": "bytes",
						"label": "string",
						"numberOfBytes": "32"
					},
					"t_struct(student)21_storage": {
						"encoding": "inplace",
						"label": "struct mapping_example.student",
						"members": [
							{
								"astId": 16,
								"contract": "mapping_example.sol:mapping_example",
								"label": "name",
								"offset": 0,
								"slot": "0",
								"type": "t_string_storage"
							},
							{
								"astId": 18,
								"contract": "mapping_example.sol:mapping_example",
								"label": "subject",
								"offset": 0,
								"slot": "1",
								"type": "t_string_storage"
							},
							{
								"astId": 20,
								"contract": "mapping_example.sol:mapping_example",
								"label": "marks",
								"offset": 0,
								"slot": "2",
								"type": "t_uint8"
							}
						],
						"numberOfBytes": "96"
					},
					"t_uint256": {
						"encoding": "inplace",
						"label": "uint256",
						"numberOfBytes": "32"
					},
					"t_uint8": {
						"encoding": "inplace",
						"label": "uint8",
						"numberOfBytes": "1"
					}
				}
			},
			"userdoc": {
				"kind": "user",
				"methods": {},
				"version": 1
			}
		}
	}
}