{
	"pure.sol": {
		"Pure": {
			"abi": [
				{
					"inputs": [],
					"name": "getData",
					"outputs": [
						{
							"internalType": "uint256",
							"name": "",
							"type": "uint256"
						},
						{
							"internalType": "uint256",
							"name": "",
							"type": "uint256"
						}
					],
					"stateMutability": "view",
					"type": "function"
				}
			],
			"devdoc": {
				"kind": "dev",
				"methods": {},
				"version": 1
			},
			"evm": {
				"assembly": "    /* \"pure.sol\":69:376  contract Pure ... */\n  mstore(0x40, 0x80)\n    /* \"pure.sol\":107:108  4 */\n  0x04\n    /* \"pure.sol\":92:108  uint256 num1 = 4 */\n  0x00\n  sstore\n    /* \"pure.sol\":130:132  10 */\n  0x0a\n    /* \"pure.sol\":115:132  uint256 num2 = 10 */\n  0x01\n  sstore\n    /* \"pure.sol\":69:376  contract Pure ... */\n  callvalue\n  dup1\n  iszero\n  tag_1\n  jumpi\n  0x00\n  dup1\n  revert\ntag_1:\n  pop\n  dataSize(sub_0)\n  dup1\n  dataOffset(sub_0)\n  0x00\n  codecopy\n  0x00\n  return\nstop\n\nsub_0: assembly {\n        /* \"pure.sol\":69:376  contract Pure ... */\n      mstore(0x40, 0x80)\n      callvalue\n      dup1\n      iszero\n      tag_1\n      jumpi\n      0x00\n      dup1\n      revert\n    tag_1:\n      pop\n      jumpi(tag_2, lt(calldatasize, 0x04))\n      shr(0xe0, calldataload(0x00))\n      dup1\n      0x3bc5de30\n      eq\n      tag_3\n      jumpi\n    tag_2:\n      0x00\n      dup1\n      revert\n        /* \"pure.sol\":141:371  function getData() public view returns(uint256, uint256)... */\n    tag_3:\n      tag_4\n      tag_5\n      jump\t// in\n    tag_4:\n      mload(0x40)\n      tag_6\n      swap3\n      swap2\n      swap1\n      tag_7\n      jump\t// in\n    tag_6:\n      mload(0x40)\n      dup1\n      swap2\n      sub\n      swap1\n      return\n    tag_5:\n        /* \"pure.sol\":180:187  uint256 */\n      0x00\n        /* \"pure.sol\":189:196  uint256 */\n      dup1\n        /* \"pure.sol\":210:224  uint256 muNum1 */\n      0x00\n        /* \"pure.sol\":227:229  30 */\n      0x1e\n        /* \"pure.sol\":210:229  uint256 muNum1 = 30 */\n      swap1\n      pop\n        /* \"pure.sol\":236:250  uint256 muNum2 */\n      0x00\n        /* \"pure.sol\":253:255  50 */\n      0x32\n        /* \"pure.sol\":236:255  uint256 muNum2 = 50 */\n      swap1\n      pop\n        /* \"pure.sol\":266:281  uint256 product */\n      0x00\n        /* \"pure.sol\":292:296  num1 */\n      dup1\n      sload\n        /* \"pure.sol\":283:289  muNum1 */\n      dup4\n        /* \"pure.sol\":283:296  muNum1 * num1 */\n      tag_9\n      swap2\n      swap1\n      tag_10\n      jump\t// in\n    tag_9:\n        /* \"pure.sol\":266:296  uint256 product =muNum1 * num1 */\n      swap1\n      pop\n        /* \"pure.sol\":304:317  uint256 total */\n      0x00\n        /* \"pure.sol\":327:331  num2 */\n      sload(0x01)\n        /* \"pure.sol\":319:325  muNum2 */\n      dup4\n        /* \"pure.sol\":319:331  muNum2* num2 */\n      tag_11\n      swap2\n      swap1\n      tag_10\n      jump\t// in\n    tag_11:\n        /* \"pure.sol\":304:331  uint256 total =muNum2* num2 */\n      swap1\n      pop\n        /* \"pure.sol\":349:356  product */\n      dup2\n        /* \"pure.sol\":358:363  total */\n      dup2\n        /* \"pure.sol\":341:364  return (product, total) */\n      swap6\n      pop\n      swap6\n      pop\n      pop\n      pop\n      pop\n      pop\n        /* \"pure.sol\":141:371  function getData() public view returns(uint256, uint256)... */\n      swap1\n      swap2\n      jump\t// out\n        /* \"#utility.yul\":7:84   */\n    tag_12:\n        /* \"#utility.yul\":44:51   */\n      0x00\n        /* \"#utility.yul\":73:78   */\n      dup2\n        /* \"#utility.yul\":62:78   */\n      swap1\n      pop\n        /* \"#utility.yul\":7:84   */\n      swap2\n      swap1\n      pop\n      jump\t// out\n        /* \"#utility.yul\":90:208   */\n    tag_13:\n        /* \"#utility.yul\":177:201   */\n      tag_18\n        /* \"#utility.yul\":195:200   */\n      dup2\n        /* \"#utility.yul\":177:201   */\n      tag_12\n      jump\t// in\n    tag_18:\n        /* \"#utility.yul\":172:175   */\n      dup3\n        /* \"#utility.yul\":165:202   */\n      mstore\n        /* \"#utility.yul\":90:208   */\n      pop\n      pop\n      jump\t// out\n        /* \"#utility.yul\":214:546   */\n    tag_7:\n        /* \"#utility.yul\":335:339   */\n      0x00\n        /* \"#utility.yul\":373:375   */\n      0x40\n        /* \"#utility.yul\":362:371   */\n      dup3\n        /* \"#utility.yul\":358:376   */\n      add\n        /* \"#utility.yul\":350:376   */\n      swap1\n      pop\n        /* \"#utility.yul\":386:457   */\n      tag_20\n        /* \"#utility.yul\":454:455   */\n      0x00\n        /* \"#utility.yul\":443:452   */\n      dup4\n        /* \"#utility.yul\":439:456   */\n      add\n        /* \"#utility.yul\":430:436   */\n      dup6\n        /* \"#utility.yul\":386:457   */\n      tag_13\n      jump\t// in\n    tag_20:\n        /* \"#utility.yul\":467:539   */\n      tag_21\n        /* \"#utility.yul\":535:537   */\n      0x20\n        /* \"#utility.yul\":524:533   */\n      dup4\n        /* \"#utility.yul\":520:538   */\n      add\n        /* \"#utility.yul\":511:517   */\n      dup5\n        /* \"#utility.yul\":467:539   */\n      tag_13\n      jump\t// in\n    tag_21:\n        /* \"#utility.yul\":214:546   */\n      swap4\n      swap3\n      pop\n      pop\n      pop\n      jump\t// out\n        /* \"#utility.yul\":552:732   */\n    tag_14:\n        /* \"#utility.yul\":600:677   */\n      0x4e487b7100000000000000000000000000000000000000000000000000000000\n        /* \"#utility.yul\":597:598   */\n      0x00\n        /* \"#utility.yul\":590:678   */\n      mstore\n        /* \"#utility.yul\":697:701   */\n      0x11\n        /* \"#utility.yul\":694:695   */\n      0x04\n        /* \"#utility.yul\":687:702   */\n      mstore\n        /* \"#utility.yul\":721:725   */\n      0x24\n        /* \"#utility.yul\":718:719   */\n      0x00\n        /* \"#utility.yul\":711:726   */\n      revert\n        /* \"#utility.yul\":738:1148   */\n    tag_10:\n        /* \"#utility.yul\":778:785   */\n      0x00\n        /* \"#utility.yul\":801:821   */\n      tag_24\n        /* \"#utility.yul\":819:820   */\n      dup3\n        /* \"#utility.yul\":801:821   */\n      tag_12\n      jump\t// in\n    tag_24:\n        /* \"#utility.yul\":796:821   */\n      swap2\n      pop\n        /* \"#utility.yul\":835:855   */\n      tag_25\n        /* \"#utility.yul\":853:854   */\n      dup4\n        /* \"#utility.yul\":835:855   */\n      tag_12\n      jump\t// in\n    tag_25:\n        /* \"#utility.yul\":830:855   */\n      swap3\n      pop\n        /* \"#utility.yul\":890:891   */\n      dup3\n        /* \"#utility.yul\":887:888   */\n      dup3\n        /* \"#utility.yul\":883:892   */\n      mul\n        /* \"#utility.yul\":912:942   */\n      tag_26\n        /* \"#utility.yul\":930:941   */\n      dup2\n        /* \"#utility.yul\":912:942   */\n      tag_12\n      jump\t// in\n    tag_26:\n        /* \"#utility.yul\":901:942   */\n      swap2\n      pop\n        /* \"#utility.yul\":1091:1092   */\n      dup3\n        /* \"#utility.yul\":1082:1089   */\n      dup3\n        /* \"#utility.yul\":1078:1093   */\n      div\n        /* \"#utility.yul\":1075:1076   */\n      dup5\n        /* \"#utility.yul\":1072:1094   */\n      eq\n        /* \"#utility.yul\":1052:1053   */\n      dup4\n        /* \"#utility.yul\":1045:1054   */\n      iszero\n        /* \"#utility.yul\":1025:1108   */\n      or\n        /* \"#utility.yul\":1002:1141   */\n      tag_27\n      jumpi\n        /* \"#utility.yul\":1121:1139   */\n      tag_28\n      tag_14\n      jump\t// in\n    tag_28:\n        /* \"#utility.yul\":1002:1141   */\n    tag_27:\n        /* \"#utility.yul\":786:1148   */\n      pop\n        /* \"#utility.yul\":738:1148   */\n      swap3\n      swap2\n      pop\n      pop\n      jump\t// out\n\n    auxdata: 0xa2646970667358221220cc89d7aa79ea39155b88e08bd10714eabc2dc2450099ba32b97d55d8004af1fc64736f6c634300081a0033\n}\n",
				"bytecode": {
					"linkReferences": {},
					"object": "608060405260045f55600a6001553480156017575f80fd5b5061016a806100255f395ff3fe608060405234801561000f575f80fd5b5060043610610029575f3560e01c80633bc5de301461002d575b5f80fd5b61003561004c565b60405161004392919061009f565b60405180910390f35b5f805f601e90505f603290505f80548361006691906100f3565b90505f6001548361007791906100f3565b9050818195509550505050509091565b5f819050919050565b61009981610087565b82525050565b5f6040820190506100b25f830185610090565b6100bf6020830184610090565b9392505050565b7f4e487b71000000000000000000000000000000000000000000000000000000005f52601160045260245ffd5b5f6100fd82610087565b915061010883610087565b925082820261011681610087565b9150828204841483151761012d5761012c6100c6565b5b509291505056fea2646970667358221220cc89d7aa79ea39155b88e08bd10714eabc2dc2450099ba32b97d55d8004af1fc64736f6c634300081a0033",
					"opcodes": "PUSH1 0x80 PUSH1 0x40 MSTORE PUSH1 0x4 PUSH0 SSTORE PUSH1 0xA PUSH1 0x1 SSTORE CALLVALUE DUP1 ISZERO PUSH1 0x17 JUMPI PUSH0 DUP1 REVERT JUMPDEST POP PUSH2 0x16A DUP1 PUSH2 0x25 PUSH0 CODECOPY PUSH0 RETURN INVALID PUSH1 0x80 PUSH1 0x40 MSTORE CALLVALUE DUP1 ISZERO PUSH2 0xF JUMPI PUSH0 DUP1 REVERT JUMPDEST POP PUSH1 0x4 CALLDATASIZE LT PUSH2 0x29 JUMPI PUSH0 CALLDATALOAD PUSH1 0xE0 SHR DUP1 PUSH4 0x3BC5DE30 EQ PUSH2 0x2D JUMPI JUMPDEST PUSH0 DUP1 REVERT JUMPDEST PUSH2 0x35 PUSH2 0x4C JUMP JUMPDEST PUSH1 0x40 MLOAD PUSH2 0x43 SWAP3 SWAP2 SWAP1 PUSH2 0x9F JUMP JUMPDEST PUSH1 0x40 MLOAD DUP1 SWAP2 SUB SWAP1 RETURN JUMPDEST PUSH0 DUP1 PUSH0 PUSH1 0x1E SWAP1 POP PUSH0 PUSH1 0x32 SWAP1 POP PUSH0 DUP1 SLOAD DUP4 PUSH2 0x66 SWAP2 SWAP1 PUSH2 0xF3 JUMP JUMPDEST SWAP1 POP PUSH0 PUSH1 0x1 SLOAD DUP4 PUSH2 0x77 SWAP2 SWAP1 PUSH2 0xF3 JUMP JUMPDEST SWAP1 POP DUP2 DUP2 SWAP6 POP SWAP6 POP POP POP POP POP SWAP1 SWAP2 JUMP JUMPDEST PUSH0 DUP2 SWAP1 POP SWAP2 SWAP1 POP JUMP JUMPDEST PUSH2 0x99 DUP2 PUSH2 0x87 JUMP JUMPDEST DUP3 MSTORE POP POP JUMP JUMPDEST PUSH0 PUSH1 0x40 DUP3 ADD SWAP1 POP PUSH2 0xB2 PUSH0 DUP4 ADD DUP6 PUSH2 0x90 JUMP JUMPDEST PUSH2 0xBF PUSH1 0x20 DUP4 ADD DUP5 PUSH2 0x90 JUMP JUMPDEST SWAP4 SWAP3 POP POP POP JUMP JUMPDEST PUSH32 0x4E487B7100000000000000000000000000000000000000000000000000000000 PUSH0 MSTORE PUSH1 0x11 PUSH1 0x4 MSTORE PUSH1 0x24 PUSH0 REVERT JUMPDEST PUSH0 PUSH2 0xFD DUP3 PUSH2 0x87 JUMP JUMPDEST SWAP2 POP PUSH2 0x108 DUP4 PUSH2 0x87 JUMP JUMPDEST SWAP3 POP DUP3 DUP3 MUL PUSH2 0x116 DUP2 PUSH2 0x87 JUMP JUMPDEST SWAP2 POP DUP3 DUP3 DIV DUP5 EQ DUP4 ISZERO OR PUSH2 0x12D JUMPI PUSH2 0x12C PUSH2 0xC6 JUMP JUMPDEST JUMPDEST POP SWAP3 SWAP2 POP POP JUMP INVALID LOG2 PUSH5 0x6970667358 0x22 SLT KECCAK256 0xCC DUP10 0xD7 0xAA PUSH26 0xEA39155B88E08BD10714EABC2DC2450099BA32B97D55D8004AF1 0xFC PUSH5 0x736F6C6343 STOP ADDMOD BYTE STOP CALLER "
				},
				"gasEstimates": {
					"creation": {
						"codeDepositCost": "72400",
						"executionCost": "44332",
						"totalCost": "116732"
					},
					"external": {
						"getData()": "infinite"
					}
				},
				"methodIdentifiers": {
					"getData()": "3bc5de30"
				}
			},
			"storageLayout": {
				"storage": [
					{
						"astId": 4,
						"contract": "pure.sol:Pure",
						"label": "num1",
						"offset": 0,
						"slot": "0",
						"type": "t_uint256"
					},
					{
						"astId": 7,
						"contract": "pure.sol:Pure",
						"label": "num2",
						"offset": 0,
						"slot": "1",
						"type": "t_uint256"
					}
				],
				"types": {
					"t_uint256": {
						"encoding": "inplace",
						"label": "uint256",
						"numberOfBytes": "32"
					}
				}
			},
			"userdoc": {
				"kind": "user",
				"methods": {},
				"version": 1
			}
		}
	}
}