{
	"ABIDecode.sol": {
		"ABIDcode": {
			"abi": [
				{
					"inputs": [
						{
							"internalType": "bytes",
							"name": "data",
							"type": "bytes"
						}
					],
					"name": "decode",
					"outputs": [
						{
							"internalType": "uint256",
							"name": "x",
							"type": "uint256"
						},
						{
							"internalType": "address",
							"name": "addr",
							"type": "address"
						},
						{
							"internalType": "uint256[]",
							"name": "arr",
							"type": "uint256[]"
						},
						{
							"components": [
								{
									"internalType": "string",
									"name": "name",
									"type": "string"
								},
								{
									"internalType": "uint256[2]",
									"name": "nums",
									"type": "uint256[2]"
								}
							],
							"internalType": "struct ABIDcode.MyStruct",
							"name": "myStruct",
							"type": "tuple"
						}
					],
					"stateMutability": "pure",
					"type": "function"
				},
				{
					"inputs": [
						{
							"internalType": "uint256",
							"name": "x",
							"type": "uint256"
						},
						{
							"internalType": "address",
							"name": "addr",
							"type": "address"
						},
						{
							"internalType": "uint256[]",
							"name": "arr",
							"type": "uint256[]"
						},
						{
							"components": [
								{
									"internalType": "string",
									"name": "name",
									"type": "string"
								},
								{
									"internalType": "uint256[2]",
									"name": "nums",
									"type": "uint256[2]"
								}
							],
							"internalType": "struct ABIDcode.MyStruct",
							"name": "myStruct",
							"type": "tuple"
						}
					],
					"name": "encode",
					"outputs": [
						{
							"internalType": "bytes",
							"name": "",
							"type": "bytes"
						}
					],
					"stateMutability": "pure",
					"type": "function"
				}
			],
			"devdoc": {
				"kind": "dev",
				"methods": {},
				"version": 1
			},
			"evm": {
				"assembly": "    /* \"ABIDecode.sol\":61:767  contract ABIDcode {... */\n  mstore(0x40, 0x80)\n  callvalue\n  dup1\n  iszero\n  tag_1\n  jumpi\n  0x00\n  dup1\n  revert\ntag_1:\n  pop\n  dataSize(sub_0)\n  dup1\n  dataOffset(sub_0)\n  0x00\n  codecopy\n  0x00\n  return\nstop\n\nsub_0: assembly {\n        /* \"ABIDecode.sol\":61:767  contract ABIDcode {... */\n      mstore(0x40, 0x80)\n      callvalue\n      dup1\n      iszero\n      tag_1\n      jumpi\n      0x00\n      dup1\n      revert\n    tag_1:\n      pop\n      jumpi(tag_2, lt(calldatasize, 0x04))\n      shr(0xe0, calldataload(0x00))\n      dup1\n      0x7049e087\n      eq\n      tag_3\n      jumpi\n      dup1\n      0xe5c5e9a3\n      eq\n      tag_4\n      jumpi\n    tag_2:\n      0x00\n      dup1\n      revert\n        /* \"ABIDecode.sol\":167:403  function encode(... */\n    tag_3:\n      tag_5\n      0x04\n      dup1\n      calldatasize\n      sub\n      dup2\n      add\n      swap1\n      tag_6\n      swap2\n      swap1\n      tag_7\n      jump\t// in\n    tag_6:\n      tag_8\n      jump\t// in\n    tag_5:\n      mload(0x40)\n      tag_9\n      swap2\n      swap1\n      tag_10\n      jump\t// in\n    tag_9:\n      mload(0x40)\n      dup1\n      swap2\n      sub\n      swap1\n      return\n        /* \"ABIDecode.sol\":412:764  function decode(bytes calldata data)... */\n    tag_4:\n      tag_11\n      0x04\n      dup1\n      calldatasize\n      sub\n      dup2\n      add\n      swap1\n      tag_12\n      swap2\n      swap1\n      tag_13\n      jump\t// in\n    tag_12:\n      tag_14\n      jump\t// in\n    tag_11:\n      mload(0x40)\n      tag_15\n      swap5\n      swap4\n      swap3\n      swap2\n      swap1\n      tag_16\n      jump\t// in\n    tag_15:\n      mload(0x40)\n      dup1\n      swap2\n      sub\n      swap1\n      return\n        /* \"ABIDecode.sol\":167:403  function encode(... */\n    tag_8:\n        /* \"ABIDecode.sol\":322:334  bytes memory */\n      0x60\n        /* \"ABIDecode.sol\":371:372  x */\n      dup6\n        /* \"ABIDecode.sol\":374:378  addr */\n      dup6\n        /* \"ABIDecode.sol\":380:383  arr */\n      dup6\n      dup6\n        /* \"ABIDecode.sol\":385:393  myStruct */\n      dup6\n        /* \"ABIDecode.sol\":360:394  abi.encode(x, addr, arr, myStruct) */\n      add(0x20, mload(0x40))\n      tag_18\n      swap6\n      swap5\n      swap4\n      swap3\n      swap2\n      swap1\n      tag_19\n      jump\t// in\n    tag_18:\n      mload(0x40)\n      0x20\n      dup2\n      dup4\n      sub\n      sub\n      dup2\n      mstore\n      swap1\n      0x40\n      mstore\n        /* \"ABIDecode.sol\":353:394  return abi.encode(x, addr, arr, myStruct) */\n      swap1\n      pop\n        /* \"ABIDecode.sol\":167:403  function encode(... */\n      swap6\n      swap5\n      pop\n      pop\n      pop\n      pop\n      pop\n      jump\t// out\n        /* \"ABIDecode.sol\":412:764  function decode(bytes calldata data)... */\n    tag_14:\n        /* \"ABIDecode.sol\":488:494  uint x */\n      0x00\n        /* \"ABIDecode.sol\":506:518  address addr */\n      dup1\n        /* \"ABIDecode.sol\":529:546  uint[] memory arr */\n      0x60\n        /* \"ABIDecode.sol\":557:581  MyStruct memory myStruct */\n      tag_20\n      tag_21\n      jump\t// in\n    tag_20:\n        /* \"ABIDecode.sol\":715:719  data */\n      dup6\n      dup6\n        /* \"ABIDecode.sol\":704:755  abi.decode(data, (uint, address, uint[], MyStruct)) */\n      dup2\n      add\n      swap1\n      tag_23\n      swap2\n      swap1\n      tag_24\n      jump\t// in\n    tag_23:\n        /* \"ABIDecode.sol\":677:755  (x, addr, arr, myStruct) = abi.decode(data, (uint, address, uint[], MyStruct)) */\n      dup1\n      swap5\n      pop\n      dup2\n      swap6\n      pop\n      dup3\n      swap7\n      pop\n      dup4\n      swap8\n      pop\n      pop\n      pop\n      pop\n      pop\n        /* \"ABIDecode.sol\":412:764  function decode(bytes calldata data)... */\n      swap3\n      swap6\n      swap2\n      swap5\n      pop\n      swap3\n      pop\n      jump\t// out\n    tag_21:\n      mload(0x40)\n      dup1\n      0x40\n      add\n      0x40\n      mstore\n      dup1\n      0x60\n      dup2\n      mstore\n      0x20\n      add\n      tag_25\n      tag_26\n      jump\t// in\n    tag_25:\n      dup2\n      mstore\n      pop\n      swap1\n      jump\t// out\n    tag_26:\n      mload(0x40)\n      dup1\n      0x40\n      add\n      0x40\n      mstore\n      dup1\n      0x02\n      swap1\n      0x20\n      dup3\n      mul\n      dup1\n      calldatasize\n      dup4\n      calldatacopy\n      dup1\n      dup3\n      add\n      swap2\n      pop\n      pop\n      swap1\n      pop\n      pop\n      swap1\n      jump\t// out\n        /* \"#utility.yul\":7:82   */\n    tag_27:\n        /* \"#utility.yul\":40:46   */\n      0x00\n        /* \"#utility.yul\":73:75   */\n      0x40\n        /* \"#utility.yul\":67:76   */\n      mload\n        /* \"#utility.yul\":57:76   */\n      swap1\n      pop\n        /* \"#utility.yul\":7:82   */\n      swap1\n      jump\t// out\n        /* \"#utility.yul\":88:205   */\n    tag_28:\n        /* \"#utility.yul\":197:198   */\n      0x00\n        /* \"#utility.yul\":194:195   */\n      dup1\n        /* \"#utility.yul\":187:199   */\n      revert\n        /* \"#utility.yul\":211:328   */\n    tag_29:\n        /* \"#utility.yul\":320:321   */\n      0x00\n        /* \"#utility.yul\":317:318   */\n      dup1\n        /* \"#utility.yul\":310:322   */\n      revert\n        /* \"#utility.yul\":334:411   */\n    tag_30:\n        /* \"#utility.yul\":371:378   */\n      0x00\n        /* \"#utility.yul\":400:405   */\n      dup2\n        /* \"#utility.yul\":389:405   */\n      swap1\n      pop\n        /* \"#utility.yul\":334:411   */\n      swap2\n      swap1\n      pop\n      jump\t// out\n        /* \"#utility.yul\":417:539   */\n    tag_31:\n        /* \"#utility.yul\":490:514   */\n      tag_104\n        /* \"#utility.yul\":508:513   */\n      dup2\n        /* \"#utility.yul\":490:514   */\n      tag_30\n      jump\t// in\n    tag_104:\n        /* \"#utility.yul\":483:488   */\n      dup2\n        /* \"#utility.yul\":480:515   */\n      eq\n        /* \"#utility.yul\":470:533   */\n      tag_105\n      jumpi\n        /* \"#utility.yul\":529:530   */\n      0x00\n        /* \"#utility.yul\":526:527   */\n      dup1\n        /* \"#utility.yul\":519:531   */\n      revert\n        /* \"#utility.yul\":470:533   */\n    tag_105:\n        /* \"#utility.yul\":417:539   */\n      pop\n      jump\t// out\n        /* \"#utility.yul\":545:684   */\n    tag_32:\n        /* \"#utility.yul\":591:596   */\n      0x00\n        /* \"#utility.yul\":629:635   */\n      dup2\n        /* \"#utility.yul\":616:636   */\n      calldataload\n        /* \"#utility.yul\":607:636   */\n      swap1\n      pop\n        /* \"#utility.yul\":645:678   */\n      tag_107\n        /* \"#utility.yul\":672:677   */\n      dup2\n        /* \"#utility.yul\":645:678   */\n      tag_31\n      jump\t// in\n    tag_107:\n        /* \"#utility.yul\":545:684   */\n      swap3\n      swap2\n      pop\n      pop\n      jump\t// out\n        /* \"#utility.yul\":690:816   */\n    tag_33:\n        /* \"#utility.yul\":727:734   */\n      0x00\n        /* \"#utility.yul\":767:809   */\n      0xffffffffffffffffffffffffffffffffffffffff\n        /* \"#utility.yul\":760:765   */\n      dup3\n        /* \"#utility.yul\":756:810   */\n      and\n        /* \"#utility.yul\":745:810   */\n      swap1\n      pop\n        /* \"#utility.yul\":690:816   */\n      swap2\n      swap1\n      pop\n      jump\t// out\n        /* \"#utility.yul\":822:918   */\n    tag_34:\n        /* \"#utility.yul\":859:866   */\n      0x00\n        /* \"#utility.yul\":888:912   */\n      tag_110\n        /* \"#utility.yul\":906:911   */\n      dup3\n        /* \"#utility.yul\":888:912   */\n      tag_33\n      jump\t// in\n    tag_110:\n        /* \"#utility.yul\":877:912   */\n      swap1\n      pop\n        /* \"#utility.yul\":822:918   */\n      swap2\n      swap1\n      pop\n      jump\t// out\n        /* \"#utility.yul\":924:1046   */\n    tag_35:\n        /* \"#utility.yul\":997:1021   */\n      tag_112\n        /* \"#utility.yul\":1015:1020   */\n      dup2\n        /* \"#utility.yul\":997:1021   */\n      tag_34\n      jump\t// in\n    tag_112:\n        /* \"#utility.yul\":990:995   */\n      dup2\n        /* \"#utility.yul\":987:1022   */\n      eq\n        /* \"#utility.yul\":977:1040   */\n      tag_113\n      jumpi\n        /* \"#utility.yul\":1036:1037   */\n      0x00\n        /* \"#utility.yul\":1033:1034   */\n      dup1\n        /* \"#utility.yul\":1026:1038   */\n      revert\n        /* \"#utility.yul\":977:1040   */\n    tag_113:\n        /* \"#utility.yul\":924:1046   */\n      pop\n      jump\t// out\n        /* \"#utility.yul\":1052:1191   */\n    tag_36:\n        /* \"#utility.yul\":1098:1103   */\n      0x00\n        /* \"#utility.yul\":1136:1142   */\n      dup2\n        /* \"#utility.yul\":1123:1143   */\n      calldataload\n        /* \"#utility.yul\":1114:1143   */\n      swap1\n      pop\n        /* \"#utility.yul\":1152:1185   */\n      tag_115\n        /* \"#utility.yul\":1179:1184   */\n      dup2\n        /* \"#utility.yul\":1152:1185   */\n      tag_35\n      jump\t// in\n    tag_115:\n        /* \"#utility.yul\":1052:1191   */\n      swap3\n      swap2\n      pop\n      pop\n      jump\t// out\n        /* \"#utility.yul\":1197:1314   */\n    tag_37:\n        /* \"#utility.yul\":1306:1307   */\n      0x00\n        /* \"#utility.yul\":1303:1304   */\n      dup1\n        /* \"#utility.yul\":1296:1308   */\n      revert\n        /* \"#utility.yul\":1320:1437   */\n    tag_38:\n        /* \"#utility.yul\":1429:1430   */\n      0x00\n        /* \"#utility.yul\":1426:1427   */\n      dup1\n        /* \"#utility.yul\":1419:1431   */\n      revert\n        /* \"#utility.yul\":1443:1560   */\n    tag_39:\n        /* \"#utility.yul\":1552:1553   */\n      0x00\n        /* \"#utility.yul\":1549:1550   */\n      dup1\n        /* \"#utility.yul\":1542:1554   */\n      revert\n        /* \"#utility.yul\":1583:2151   */\n    tag_40:\n        /* \"#utility.yul\":1656:1664   */\n      0x00\n        /* \"#utility.yul\":1666:1672   */\n      dup1\n        /* \"#utility.yul\":1716:1719   */\n      dup4\n        /* \"#utility.yul\":1709:1713   */\n      0x1f\n        /* \"#utility.yul\":1701:1707   */\n      dup5\n        /* \"#utility.yul\":1697:1714   */\n      add\n        /* \"#utility.yul\":1693:1720   */\n      slt\n        /* \"#utility.yul\":1683:1805   */\n      tag_120\n      jumpi\n        /* \"#utility.yul\":1724:1803   */\n      tag_121\n      tag_37\n      jump\t// in\n    tag_121:\n        /* \"#utility.yul\":1683:1805   */\n    tag_120:\n        /* \"#utility.yul\":1837:1843   */\n      dup3\n        /* \"#utility.yul\":1824:1844   */\n      calldataload\n        /* \"#utility.yul\":1814:1844   */\n      swap1\n      pop\n        /* \"#utility.yul\":1867:1885   */\n      0xffffffffffffffff\n        /* \"#utility.yul\":1859:1865   */\n      dup2\n        /* \"#utility.yul\":1856:1886   */\n      gt\n        /* \"#utility.yul\":1853:1970   */\n      iszero\n      tag_122\n      jumpi\n        /* \"#utility.yul\":1889:1968   */\n      tag_123\n      tag_38\n      jump\t// in\n    tag_123:\n        /* \"#utility.yul\":1853:1970   */\n    tag_122:\n        /* \"#utility.yul\":2003:2007   */\n      0x20\n        /* \"#utility.yul\":1995:2001   */\n      dup4\n        /* \"#utility.yul\":1991:2008   */\n      add\n        /* \"#utility.yul\":1979:2008   */\n      swap2\n      pop\n        /* \"#utility.yul\":2057:2060   */\n      dup4\n        /* \"#utility.yul\":2049:2053   */\n      0x20\n        /* \"#utility.yul\":2041:2047   */\n      dup3\n        /* \"#utility.yul\":2037:2054   */\n      mul\n        /* \"#utility.yul\":2027:2035   */\n      dup4\n        /* \"#utility.yul\":2023:2055   */\n      add\n        /* \"#utility.yul\":2020:2061   */\n      gt\n        /* \"#utility.yul\":2017:2145   */\n      iszero\n      tag_124\n      jumpi\n        /* \"#utility.yul\":2064:2143   */\n      tag_125\n      tag_39\n      jump\t// in\n    tag_125:\n        /* \"#utility.yul\":2017:2145   */\n    tag_124:\n        /* \"#utility.yul\":1583:2151   */\n      swap3\n      pop\n      swap3\n      swap1\n      pop\n      jump\t// out\n        /* \"#utility.yul\":2157:2274   */\n    tag_41:\n        /* \"#utility.yul\":2266:2267   */\n      0x00\n        /* \"#utility.yul\":2263:2264   */\n      dup1\n        /* \"#utility.yul\":2256:2268   */\n      revert\n        /* \"#utility.yul\":2312:2541   */\n    tag_42:\n        /* \"#utility.yul\":2383:2388   */\n      0x00\n        /* \"#utility.yul\":2424:2426   */\n      0x60\n        /* \"#utility.yul\":2415:2421   */\n      dup3\n        /* \"#utility.yul\":2410:2413   */\n      dup5\n        /* \"#utility.yul\":2406:2422   */\n      sub\n        /* \"#utility.yul\":2402:2427   */\n      slt\n        /* \"#utility.yul\":2399:2511   */\n      iszero\n      tag_128\n      jumpi\n        /* \"#utility.yul\":2430:2509   */\n      tag_129\n      tag_41\n      jump\t// in\n    tag_129:\n        /* \"#utility.yul\":2399:2511   */\n    tag_128:\n        /* \"#utility.yul\":2529:2535   */\n      dup2\n        /* \"#utility.yul\":2520:2535   */\n      swap1\n      pop\n        /* \"#utility.yul\":2312:2541   */\n      swap3\n      swap2\n      pop\n      pop\n      jump\t// out\n        /* \"#utility.yul\":2547:3752   */\n    tag_7:\n        /* \"#utility.yul\":2685:2691   */\n      0x00\n        /* \"#utility.yul\":2693:2699   */\n      dup1\n        /* \"#utility.yul\":2701:2707   */\n      0x00\n        /* \"#utility.yul\":2709:2715   */\n      dup1\n        /* \"#utility.yul\":2717:2723   */\n      0x00\n        /* \"#utility.yul\":2766:2769   */\n      0x80\n        /* \"#utility.yul\":2754:2763   */\n      dup7\n        /* \"#utility.yul\":2745:2752   */\n      dup9\n        /* \"#utility.yul\":2741:2764   */\n      sub\n        /* \"#utility.yul\":2737:2770   */\n      slt\n        /* \"#utility.yul\":2734:2854   */\n      iszero\n      tag_131\n      jumpi\n        /* \"#utility.yul\":2773:2852   */\n      tag_132\n      tag_28\n      jump\t// in\n    tag_132:\n        /* \"#utility.yul\":2734:2854   */\n    tag_131:\n        /* \"#utility.yul\":2893:2894   */\n      0x00\n        /* \"#utility.yul\":2918:2971   */\n      tag_133\n        /* \"#utility.yul\":2963:2970   */\n      dup9\n        /* \"#utility.yul\":2954:2960   */\n      dup3\n        /* \"#utility.yul\":2943:2952   */\n      dup10\n        /* \"#utility.yul\":2939:2961   */\n      add\n        /* \"#utility.yul\":2918:2971   */\n      tag_32\n      jump\t// in\n    tag_133:\n        /* \"#utility.yul\":2908:2971   */\n      swap6\n      pop\n        /* \"#utility.yul\":2864:2981   */\n      pop\n        /* \"#utility.yul\":3020:3022   */\n      0x20\n        /* \"#utility.yul\":3046:3099   */\n      tag_134\n        /* \"#utility.yul\":3091:3098   */\n      dup9\n        /* \"#utility.yul\":3082:3088   */\n      dup3\n        /* \"#utility.yul\":3071:3080   */\n      dup10\n        /* \"#utility.yul\":3067:3089   */\n      add\n        /* \"#utility.yul\":3046:3099   */\n      tag_36\n      jump\t// in\n    tag_134:\n        /* \"#utility.yul\":3036:3099   */\n      swap5\n      pop\n        /* \"#utility.yul\":2991:3109   */\n      pop\n        /* \"#utility.yul\":3176:3178   */\n      0x40\n        /* \"#utility.yul\":3165:3174   */\n      dup7\n        /* \"#utility.yul\":3161:3179   */\n      add\n        /* \"#utility.yul\":3148:3180   */\n      calldataload\n        /* \"#utility.yul\":3207:3225   */\n      0xffffffffffffffff\n        /* \"#utility.yul\":3199:3205   */\n      dup2\n        /* \"#utility.yul\":3196:3226   */\n      gt\n        /* \"#utility.yul\":3193:3310   */\n      iszero\n      tag_135\n      jumpi\n        /* \"#utility.yul\":3229:3308   */\n      tag_136\n      tag_29\n      jump\t// in\n    tag_136:\n        /* \"#utility.yul\":3193:3310   */\n    tag_135:\n        /* \"#utility.yul\":3342:3422   */\n      tag_137\n        /* \"#utility.yul\":3414:3421   */\n      dup9\n        /* \"#utility.yul\":3405:3411   */\n      dup3\n        /* \"#utility.yul\":3394:3403   */\n      dup10\n        /* \"#utility.yul\":3390:3412   */\n      add\n        /* \"#utility.yul\":3342:3422   */\n      tag_40\n      jump\t// in\n    tag_137:\n        /* \"#utility.yul\":3324:3422   */\n      swap4\n      pop\n      swap4\n      pop\n        /* \"#utility.yul\":3119:3432   */\n      pop\n        /* \"#utility.yul\":3499:3501   */\n      0x60\n        /* \"#utility.yul\":3488:3497   */\n      dup7\n        /* \"#utility.yul\":3484:3502   */\n      add\n        /* \"#utility.yul\":3471:3503   */\n      calldataload\n        /* \"#utility.yul\":3530:3548   */\n      0xffffffffffffffff\n        /* \"#utility.yul\":3522:3528   */\n      dup2\n        /* \"#utility.yul\":3519:3549   */\n      gt\n        /* \"#utility.yul\":3516:3633   */\n      iszero\n      tag_138\n      jumpi\n        /* \"#utility.yul\":3552:3631   */\n      tag_139\n      tag_29\n      jump\t// in\n    tag_139:\n        /* \"#utility.yul\":3516:3633   */\n    tag_138:\n        /* \"#utility.yul\":3657:3735   */\n      tag_140\n        /* \"#utility.yul\":3727:3734   */\n      dup9\n        /* \"#utility.yul\":3718:3724   */\n      dup3\n        /* \"#utility.yul\":3707:3716   */\n      dup10\n        /* \"#utility.yul\":3703:3725   */\n      add\n        /* \"#utility.yul\":3657:3735   */\n      tag_42\n      jump\t// in\n    tag_140:\n        /* \"#utility.yul\":3647:3735   */\n      swap2\n      pop\n        /* \"#utility.yul\":3442:3745   */\n      pop\n        /* \"#utility.yul\":2547:3752   */\n      swap3\n      swap6\n      pop\n      swap3\n      swap6\n      swap1\n      swap4\n      pop\n      jump\t// out\n        /* \"#utility.yul\":3758:3856   */\n    tag_43:\n        /* \"#utility.yul\":3809:3815   */\n      0x00\n        /* \"#utility.yul\":3843:3848   */\n      dup2\n        /* \"#utility.yul\":3837:3849   */\n      mload\n        /* \"#utility.yul\":3827:3849   */\n      swap1\n      pop\n        /* \"#utility.yul\":3758:3856   */\n      swap2\n      swap1\n      pop\n      jump\t// out\n        /* \"#utility.yul\":3862:4030   */\n    tag_44:\n        /* \"#utility.yul\":3945:3956   */\n      0x00\n        /* \"#utility.yul\":3979:3985   */\n      dup3\n        /* \"#utility.yul\":3974:3977   */\n      dup3\n        /* \"#utility.yul\":3967:3986   */\n      mstore\n        /* \"#utility.yul\":4019:4023   */\n      0x20\n        /* \"#utility.yul\":4014:4017   */\n      dup3\n        /* \"#utility.yul\":4010:4024   */\n      add\n        /* \"#utility.yul\":3995:4024   */\n      swap1\n      pop\n        /* \"#utility.yul\":3862:4030   */\n      swap3\n      swap2\n      pop\n      pop\n      jump\t// out\n        /* \"#utility.yul\":4036:4175   */\n    tag_45:\n        /* \"#utility.yul\":4125:4131   */\n      dup3\n        /* \"#utility.yul\":4120:4123   */\n      dup2\n        /* \"#utility.yul\":4115:4118   */\n      dup4\n        /* \"#utility.yul\":4109:4132   */\n      mcopy\n        /* \"#utility.yul\":4166:4167   */\n      0x00\n        /* \"#utility.yul\":4157:4163   */\n      dup4\n        /* \"#utility.yul\":4152:4155   */\n      dup4\n        /* \"#utility.yul\":4148:4164   */\n      add\n        /* \"#utility.yul\":4141:4168   */\n      mstore\n        /* \"#utility.yul\":4036:4175   */\n      pop\n      pop\n      pop\n      jump\t// out\n        /* \"#utility.yul\":4181:4283   */\n    tag_46:\n        /* \"#utility.yul\":4222:4228   */\n      0x00\n        /* \"#utility.yul\":4273:4275   */\n      0x1f\n        /* \"#utility.yul\":4269:4276   */\n      not\n        /* \"#utility.yul\":4264:4266   */\n      0x1f\n        /* \"#utility.yul\":4257:4262   */\n      dup4\n        /* \"#utility.yul\":4253:4267   */\n      add\n        /* \"#utility.yul\":4249:4277   */\n      and\n        /* \"#utility.yul\":4239:4277   */\n      swap1\n      pop\n        /* \"#utility.yul\":4181:4283   */\n      swap2\n      swap1\n      pop\n      jump\t// out\n        /* \"#utility.yul\":4289:4662   */\n    tag_47:\n        /* \"#utility.yul\":4375:4378   */\n      0x00\n        /* \"#utility.yul\":4403:4441   */\n      tag_146\n        /* \"#utility.yul\":4435:4440   */\n      dup3\n        /* \"#utility.yul\":4403:4441   */\n      tag_43\n      jump\t// in\n    tag_146:\n        /* \"#utility.yul\":4457:4527   */\n      tag_147\n        /* \"#utility.yul\":4520:4526   */\n      dup2\n        /* \"#utility.yul\":4515:4518   */\n      dup6\n        /* \"#utility.yul\":4457:4527   */\n      tag_44\n      jump\t// in\n    tag_147:\n        /* \"#utility.yul\":4450:4527   */\n      swap4\n      pop\n        /* \"#utility.yul\":4536:4601   */\n      tag_148\n        /* \"#utility.yul\":4594:4600   */\n      dup2\n        /* \"#utility.yul\":4589:4592   */\n      dup6\n        /* \"#utility.yul\":4582:4586   */\n      0x20\n        /* \"#utility.yul\":4575:4580   */\n      dup7\n        /* \"#utility.yul\":4571:4587   */\n      add\n        /* \"#utility.yul\":4536:4601   */\n      tag_45\n      jump\t// in\n    tag_148:\n        /* \"#utility.yul\":4626:4655   */\n      tag_149\n        /* \"#utility.yul\":4648:4654   */\n      dup2\n        /* \"#utility.yul\":4626:4655   */\n      tag_46\n      jump\t// in\n    tag_149:\n        /* \"#utility.yul\":4621:4624   */\n      dup5\n        /* \"#utility.yul\":4617:4656   */\n      add\n        /* \"#utility.yul\":4610:4656   */\n      swap2\n      pop\n        /* \"#utility.yul\":4379:4662   */\n      pop\n        /* \"#utility.yul\":4289:4662   */\n      swap3\n      swap2\n      pop\n      pop\n      jump\t// out\n        /* \"#utility.yul\":4668:4977   */\n    tag_10:\n        /* \"#utility.yul\":4779:4783   */\n      0x00\n        /* \"#utility.yul\":4817:4819   */\n      0x20\n        /* \"#utility.yul\":4806:4815   */\n      dup3\n        /* \"#utility.yul\":4802:4820   */\n      add\n        /* \"#utility.yul\":4794:4820   */\n      swap1\n      pop\n        /* \"#utility.yul\":4866:4875   */\n      dup2\n        /* \"#utility.yul\":4860:4864   */\n      dup2\n        /* \"#utility.yul\":4856:4876   */\n      sub\n        /* \"#utility.yul\":4852:4853   */\n      0x00\n        /* \"#utility.yul\":4841:4850   */\n      dup4\n        /* \"#utility.yul\":4837:4854   */\n      add\n        /* \"#utility.yul\":4830:4877   */\n      mstore\n        /* \"#utility.yul\":4894:4970   */\n      tag_151\n        /* \"#utility.yul\":4965:4969   */\n      dup2\n        /* \"#utility.yul\":4956:4962   */\n      dup5\n        /* \"#utility.yul\":4894:4970   */\n      tag_47\n      jump\t// in\n    tag_151:\n        /* \"#utility.yul\":4886:4970   */\n      swap1\n      pop\n        /* \"#utility.yul\":4668:4977   */\n      swap3\n      swap2\n      pop\n      pop\n      jump\t// out\n        /* \"#utility.yul\":4996:5548   */\n    tag_48:\n        /* \"#utility.yul\":5053:5061   */\n      0x00\n        /* \"#utility.yul\":5063:5069   */\n      dup1\n        /* \"#utility.yul\":5113:5116   */\n      dup4\n        /* \"#utility.yul\":5106:5110   */\n      0x1f\n        /* \"#utility.yul\":5098:5104   */\n      dup5\n        /* \"#utility.yul\":5094:5111   */\n      add\n        /* \"#utility.yul\":5090:5117   */\n      slt\n        /* \"#utility.yul\":5080:5202   */\n      tag_153\n      jumpi\n        /* \"#utility.yul\":5121:5200   */\n      tag_154\n      tag_37\n      jump\t// in\n    tag_154:\n        /* \"#utility.yul\":5080:5202   */\n    tag_153:\n        /* \"#utility.yul\":5234:5240   */\n      dup3\n        /* \"#utility.yul\":5221:5241   */\n      calldataload\n        /* \"#utility.yul\":5211:5241   */\n      swap1\n      pop\n        /* \"#utility.yul\":5264:5282   */\n      0xffffffffffffffff\n        /* \"#utility.yul\":5256:5262   */\n      dup2\n        /* \"#utility.yul\":5253:5283   */\n      gt\n        /* \"#utility.yul\":5250:5367   */\n      iszero\n      tag_155\n      jumpi\n        /* \"#utility.yul\":5286:5365   */\n      tag_156\n      tag_38\n      jump\t// in\n    tag_156:\n        /* \"#utility.yul\":5250:5367   */\n    tag_155:\n        /* \"#utility.yul\":5400:5404   */\n      0x20\n        /* \"#utility.yul\":5392:5398   */\n      dup4\n        /* \"#utility.yul\":5388:5405   */\n      add\n        /* \"#utility.yul\":5376:5405   */\n      swap2\n      pop\n        /* \"#utility.yul\":5454:5457   */\n      dup4\n        /* \"#utility.yul\":5446:5450   */\n      0x01\n        /* \"#utility.yul\":5438:5444   */\n      dup3\n        /* \"#utility.yul\":5434:5451   */\n      mul\n        /* \"#utility.yul\":5424:5432   */\n      dup4\n        /* \"#utility.yul\":5420:5452   */\n      add\n        /* \"#utility.yul\":5417:5458   */\n      gt\n        /* \"#utility.yul\":5414:5542   */\n      iszero\n      tag_157\n      jumpi\n        /* \"#utility.yul\":5461:5540   */\n      tag_158\n      tag_39\n      jump\t// in\n    tag_158:\n        /* \"#utility.yul\":5414:5542   */\n    tag_157:\n        /* \"#utility.yul\":4996:5548   */\n      swap3\n      pop\n      swap3\n      swap1\n      pop\n      jump\t// out\n        /* \"#utility.yul\":5554:6081   */\n    tag_13:\n        /* \"#utility.yul\":5624:5630   */\n      0x00\n        /* \"#utility.yul\":5632:5638   */\n      dup1\n        /* \"#utility.yul\":5681:5683   */\n      0x20\n        /* \"#utility.yul\":5669:5678   */\n      dup4\n        /* \"#utility.yul\":5660:5667   */\n      dup6\n        /* \"#utility.yul\":5656:5679   */\n      sub\n        /* \"#utility.yul\":5652:5684   */\n      slt\n        /* \"#utility.yul\":5649:5768   */\n      iszero\n      tag_160\n      jumpi\n        /* \"#utility.yul\":5687:5766   */\n      tag_161\n      tag_28\n      jump\t// in\n    tag_161:\n        /* \"#utility.yul\":5649:5768   */\n    tag_160:\n        /* \"#utility.yul\":5835:5836   */\n      0x00\n        /* \"#utility.yul\":5824:5833   */\n      dup4\n        /* \"#utility.yul\":5820:5837   */\n      add\n        /* \"#utility.yul\":5807:5838   */\n      calldataload\n        /* \"#utility.yul\":5865:5883   */\n      0xffffffffffffffff\n        /* \"#utility.yul\":5857:5863   */\n      dup2\n        /* \"#utility.yul\":5854:5884   */\n      gt\n        /* \"#utility.yul\":5851:5968   */\n      iszero\n      tag_162\n      jumpi\n        /* \"#utility.yul\":5887:5966   */\n      tag_163\n      tag_29\n      jump\t// in\n    tag_163:\n        /* \"#utility.yul\":5851:5968   */\n    tag_162:\n        /* \"#utility.yul\":6000:6064   */\n      tag_164\n        /* \"#utility.yul\":6056:6063   */\n      dup6\n        /* \"#utility.yul\":6047:6053   */\n      dup3\n        /* \"#utility.yul\":6036:6045   */\n      dup7\n        /* \"#utility.yul\":6032:6054   */\n      add\n        /* \"#utility.yul\":6000:6064   */\n      tag_48\n      jump\t// in\n    tag_164:\n        /* \"#utility.yul\":5982:6064   */\n      swap3\n      pop\n      swap3\n      pop\n        /* \"#utility.yul\":5778:6074   */\n      pop\n        /* \"#utility.yul\":5554:6081   */\n      swap3\n      pop\n      swap3\n      swap1\n      pop\n      jump\t// out\n        /* \"#utility.yul\":6087:6205   */\n    tag_49:\n        /* \"#utility.yul\":6174:6198   */\n      tag_166\n        /* \"#utility.yul\":6192:6197   */\n      dup2\n        /* \"#utility.yul\":6174:6198   */\n      tag_30\n      jump\t// in\n    tag_166:\n        /* \"#utility.yul\":6169:6172   */\n      dup3\n        /* \"#utility.yul\":6162:6199   */\n      mstore\n        /* \"#utility.yul\":6087:6205   */\n      pop\n      pop\n      jump\t// out\n        /* \"#utility.yul\":6211:6329   */\n    tag_50:\n        /* \"#utility.yul\":6298:6322   */\n      tag_168\n        /* \"#utility.yul\":6316:6321   */\n      dup2\n        /* \"#utility.yul\":6298:6322   */\n      tag_34\n      jump\t// in\n    tag_168:\n        /* \"#utility.yul\":6293:6296   */\n      dup3\n        /* \"#utility.yul\":6286:6323   */\n      mstore\n        /* \"#utility.yul\":6211:6329   */\n      pop\n      pop\n      jump\t// out\n        /* \"#utility.yul\":6335:6449   */\n    tag_51:\n        /* \"#utility.yul\":6402:6408   */\n      0x00\n        /* \"#utility.yul\":6436:6441   */\n      dup2\n        /* \"#utility.yul\":6430:6442   */\n      mload\n        /* \"#utility.yul\":6420:6442   */\n      swap1\n      pop\n        /* \"#utility.yul\":6335:6449   */\n      swap2\n      swap1\n      pop\n      jump\t// out\n        /* \"#utility.yul\":6455:6639   */\n    tag_52:\n        /* \"#utility.yul\":6554:6565   */\n      0x00\n        /* \"#utility.yul\":6588:6594   */\n      dup3\n        /* \"#utility.yul\":6583:6586   */\n      dup3\n        /* \"#utility.yul\":6576:6595   */\n      mstore\n        /* \"#utility.yul\":6628:6632   */\n      0x20\n        /* \"#utility.yul\":6623:6626   */\n      dup3\n        /* \"#utility.yul\":6619:6633   */\n      add\n        /* \"#utility.yul\":6604:6633   */\n      swap1\n      pop\n        /* \"#utility.yul\":6455:6639   */\n      swap3\n      swap2\n      pop\n      pop\n      jump\t// out\n        /* \"#utility.yul\":6645:6777   */\n    tag_53:\n        /* \"#utility.yul\":6712:6716   */\n      0x00\n        /* \"#utility.yul\":6735:6738   */\n      dup2\n        /* \"#utility.yul\":6727:6738   */\n      swap1\n      pop\n        /* \"#utility.yul\":6765:6769   */\n      0x20\n        /* \"#utility.yul\":6760:6763   */\n      dup3\n        /* \"#utility.yul\":6756:6770   */\n      add\n        /* \"#utility.yul\":6748:6770   */\n      swap1\n      pop\n        /* \"#utility.yul\":6645:6777   */\n      swap2\n      swap1\n      pop\n      jump\t// out\n        /* \"#utility.yul\":6783:6891   */\n    tag_54:\n        /* \"#utility.yul\":6860:6884   */\n      tag_173\n        /* \"#utility.yul\":6878:6883   */\n      dup2\n        /* \"#utility.yul\":6860:6884   */\n      tag_30\n      jump\t// in\n    tag_173:\n        /* \"#utility.yul\":6855:6858   */\n      dup3\n        /* \"#utility.yul\":6848:6885   */\n      mstore\n        /* \"#utility.yul\":6783:6891   */\n      pop\n      pop\n      jump\t// out\n        /* \"#utility.yul\":6897:7076   */\n    tag_55:\n        /* \"#utility.yul\":6966:6976   */\n      0x00\n        /* \"#utility.yul\":6987:7033   */\n      tag_175\n        /* \"#utility.yul\":7029:7032   */\n      dup4\n        /* \"#utility.yul\":7021:7027   */\n      dup4\n        /* \"#utility.yul\":6987:7033   */\n      tag_54\n      jump\t// in\n    tag_175:\n        /* \"#utility.yul\":7065:7069   */\n      0x20\n        /* \"#utility.yul\":7060:7063   */\n      dup4\n        /* \"#utility.yul\":7056:7070   */\n      add\n        /* \"#utility.yul\":7042:7070   */\n      swap1\n      pop\n        /* \"#utility.yul\":6897:7076   */\n      swap3\n      swap2\n      pop\n      pop\n      jump\t// out\n        /* \"#utility.yul\":7082:7195   */\n    tag_56:\n        /* \"#utility.yul\":7152:7156   */\n      0x00\n        /* \"#utility.yul\":7184:7188   */\n      0x20\n        /* \"#utility.yul\":7179:7182   */\n      dup3\n        /* \"#utility.yul\":7175:7189   */\n      add\n        /* \"#utility.yul\":7167:7189   */\n      swap1\n      pop\n        /* \"#utility.yul\":7082:7195   */\n      swap2\n      swap1\n      pop\n      jump\t// out\n        /* \"#utility.yul\":7231:7963   */\n    tag_57:\n        /* \"#utility.yul\":7350:7353   */\n      0x00\n        /* \"#utility.yul\":7379:7433   */\n      tag_178\n        /* \"#utility.yul\":7427:7432   */\n      dup3\n        /* \"#utility.yul\":7379:7433   */\n      tag_51\n      jump\t// in\n    tag_178:\n        /* \"#utility.yul\":7449:7535   */\n      tag_179\n        /* \"#utility.yul\":7528:7534   */\n      dup2\n        /* \"#utility.yul\":7523:7526   */\n      dup6\n        /* \"#utility.yul\":7449:7535   */\n      tag_52\n      jump\t// in\n    tag_179:\n        /* \"#utility.yul\":7442:7535   */\n      swap4\n      pop\n        /* \"#utility.yul\":7559:7615   */\n      tag_180\n        /* \"#utility.yul\":7609:7614   */\n      dup4\n        /* \"#utility.yul\":7559:7615   */\n      tag_53\n      jump\t// in\n    tag_180:\n        /* \"#utility.yul\":7638:7645   */\n      dup1\n        /* \"#utility.yul\":7669:7670   */\n      0x00\n        /* \"#utility.yul\":7654:7938   */\n    tag_181:\n        /* \"#utility.yul\":7679:7685   */\n      dup4\n        /* \"#utility.yul\":7676:7677   */\n      dup2\n        /* \"#utility.yul\":7673:7686   */\n      lt\n        /* \"#utility.yul\":7654:7938   */\n      iszero\n      tag_183\n      jumpi\n        /* \"#utility.yul\":7755:7761   */\n      dup2\n        /* \"#utility.yul\":7749:7762   */\n      mload\n        /* \"#utility.yul\":7782:7845   */\n      tag_184\n        /* \"#utility.yul\":7841:7844   */\n      dup9\n        /* \"#utility.yul\":7826:7839   */\n      dup3\n        /* \"#utility.yul\":7782:7845   */\n      tag_55\n      jump\t// in\n    tag_184:\n        /* \"#utility.yul\":7775:7845   */\n      swap8\n      pop\n        /* \"#utility.yul\":7868:7928   */\n      tag_185\n        /* \"#utility.yul\":7921:7927   */\n      dup4\n        /* \"#utility.yul\":7868:7928   */\n      tag_56\n      jump\t// in\n    tag_185:\n        /* \"#utility.yul\":7858:7928   */\n      swap3\n      pop\n        /* \"#utility.yul\":7714:7938   */\n      pop\n        /* \"#utility.yul\":7701:7702   */\n      0x01\n        /* \"#utility.yul\":7698:7699   */\n      dup2\n        /* \"#utility.yul\":7694:7703   */\n      add\n        /* \"#utility.yul\":7689:7703   */\n      swap1\n      pop\n        /* \"#utility.yul\":7654:7938   */\n      jump(tag_181)\n    tag_183:\n        /* \"#utility.yul\":7658:7672   */\n      pop\n        /* \"#utility.yul\":7954:7957   */\n      dup6\n        /* \"#utility.yul\":7947:7957   */\n      swap4\n      pop\n        /* \"#utility.yul\":7355:7963   */\n      pop\n      pop\n      pop\n        /* \"#utility.yul\":7231:7963   */\n      swap3\n      swap2\n      pop\n      pop\n      jump\t// out\n        /* \"#utility.yul\":7969:8068   */\n    tag_58:\n        /* \"#utility.yul\":8021:8027   */\n      0x00\n        /* \"#utility.yul\":8055:8060   */\n      dup2\n        /* \"#utility.yul\":8049:8061   */\n      mload\n        /* \"#utility.yul\":8039:8061   */\n      swap1\n      pop\n        /* \"#utility.yul\":7969:8068   */\n      swap2\n      swap1\n      pop\n      jump\t// out\n        /* \"#utility.yul\":8074:8233   */\n    tag_59:\n        /* \"#utility.yul\":8148:8159   */\n      0x00\n        /* \"#utility.yul\":8182:8188   */\n      dup3\n        /* \"#utility.yul\":8177:8180   */\n      dup3\n        /* \"#utility.yul\":8170:8189   */\n      mstore\n        /* \"#utility.yul\":8222:8226   */\n      0x20\n        /* \"#utility.yul\":8217:8220   */\n      dup3\n        /* \"#utility.yul\":8213:8227   */\n      add\n        /* \"#utility.yul\":8198:8227   */\n      swap1\n      pop\n        /* \"#utility.yul\":8074:8233   */\n      swap3\n      swap2\n      pop\n      pop\n      jump\t// out\n        /* \"#utility.yul\":8239:8596   */\n    tag_60:\n        /* \"#utility.yul\":8317:8320   */\n      0x00\n        /* \"#utility.yul\":8345:8384   */\n      tag_189\n        /* \"#utility.yul\":8378:8383   */\n      dup3\n        /* \"#utility.yul\":8345:8384   */\n      tag_58\n      jump\t// in\n    tag_189:\n        /* \"#utility.yul\":8400:8461   */\n      tag_190\n        /* \"#utility.yul\":8454:8460   */\n      dup2\n        /* \"#utility.yul\":8449:8452   */\n      dup6\n        /* \"#utility.yul\":8400:8461   */\n      tag_59\n      jump\t// in\n    tag_190:\n        /* \"#utility.yul\":8393:8461   */\n      swap4\n      pop\n        /* \"#utility.yul\":8470:8535   */\n      tag_191\n        /* \"#utility.yul\":8528:8534   */\n      dup2\n        /* \"#utility.yul\":8523:8526   */\n      dup6\n        /* \"#utility.yul\":8516:8520   */\n      0x20\n        /* \"#utility.yul\":8509:8514   */\n      dup7\n        /* \"#utility.yul\":8505:8521   */\n      add\n        /* \"#utility.yul\":8470:8535   */\n      tag_45\n      jump\t// in\n    tag_191:\n        /* \"#utility.yul\":8560:8589   */\n      tag_192\n        /* \"#utility.yul\":8582:8588   */\n      dup2\n        /* \"#utility.yul\":8560:8589   */\n      tag_46\n      jump\t// in\n    tag_192:\n        /* \"#utility.yul\":8555:8558   */\n      dup5\n        /* \"#utility.yul\":8551:8590   */\n      add\n        /* \"#utility.yul\":8544:8590   */\n      swap2\n      pop\n        /* \"#utility.yul\":8321:8596   */\n      pop\n        /* \"#utility.yul\":8239:8596   */\n      swap3\n      swap2\n      pop\n      pop\n      jump\t// out\n        /* \"#utility.yul\":8602:8706   */\n    tag_61:\n        /* \"#utility.yul\":8667:8673   */\n      0x00\n        /* \"#utility.yul\":8695:8699   */\n      0x02\n        /* \"#utility.yul\":8685:8699   */\n      swap1\n      pop\n        /* \"#utility.yul\":8602:8706   */\n      swap2\n      swap1\n      pop\n      jump\t// out\n        /* \"#utility.yul\":8712:8845   */\n    tag_62:\n        /* \"#utility.yul\":8799:8810   */\n      0x00\n        /* \"#utility.yul\":8836:8839   */\n      dup2\n        /* \"#utility.yul\":8821:8839   */\n      swap1\n      pop\n        /* \"#utility.yul\":8712:8845   */\n      swap3\n      swap2\n      pop\n      pop\n      jump\t// out\n        /* \"#utility.yul\":8851:8949   */\n    tag_63:\n        /* \"#utility.yul\":8916:8920   */\n      0x00\n        /* \"#utility.yul\":8939:8942   */\n      dup2\n        /* \"#utility.yul\":8931:8942   */\n      swap1\n      pop\n        /* \"#utility.yul\":8851:8949   */\n      swap2\n      swap1\n      pop\n      jump\t// out\n        /* \"#utility.yul\":8955:9066   */\n    tag_64:\n        /* \"#utility.yul\":9023:9027   */\n      0x00\n        /* \"#utility.yul\":9055:9059   */\n      0x20\n        /* \"#utility.yul\":9050:9053   */\n      dup3\n        /* \"#utility.yul\":9046:9060   */\n      add\n        /* \"#utility.yul\":9038:9060   */\n      swap1\n      pop\n        /* \"#utility.yul\":8955:9066   */\n      swap2\n      swap1\n      pop\n      jump\t// out\n        /* \"#utility.yul\":9104:9778   */\n    tag_65:\n        /* \"#utility.yul\":9230:9282   */\n      tag_198\n        /* \"#utility.yul\":9276:9281   */\n      dup2\n        /* \"#utility.yul\":9230:9282   */\n      tag_61\n      jump\t// in\n    tag_198:\n        /* \"#utility.yul\":9298:9372   */\n      tag_199\n        /* \"#utility.yul\":9365:9371   */\n      dup2\n        /* \"#utility.yul\":9360:9363   */\n      dup5\n        /* \"#utility.yul\":9298:9372   */\n      tag_62\n      jump\t// in\n    tag_199:\n        /* \"#utility.yul\":9291:9372   */\n      swap3\n      pop\n        /* \"#utility.yul\":9396:9450   */\n      tag_200\n        /* \"#utility.yul\":9444:9449   */\n      dup3\n        /* \"#utility.yul\":9396:9450   */\n      tag_63\n      jump\t// in\n    tag_200:\n        /* \"#utility.yul\":9473:9480   */\n      dup1\n        /* \"#utility.yul\":9504:9505   */\n      0x00\n        /* \"#utility.yul\":9489:9771   */\n    tag_201:\n        /* \"#utility.yul\":9514:9520   */\n      dup4\n        /* \"#utility.yul\":9511:9512   */\n      dup2\n        /* \"#utility.yul\":9508:9521   */\n      lt\n        /* \"#utility.yul\":9489:9771   */\n      iszero\n      tag_203\n      jumpi\n        /* \"#utility.yul\":9590:9596   */\n      dup2\n        /* \"#utility.yul\":9584:9597   */\n      mload\n        /* \"#utility.yul\":9617:9680   */\n      tag_204\n        /* \"#utility.yul\":9676:9679   */\n      dup8\n        /* \"#utility.yul\":9661:9674   */\n      dup3\n        /* \"#utility.yul\":9617:9680   */\n      tag_55\n      jump\t// in\n    tag_204:\n        /* \"#utility.yul\":9610:9680   */\n      swap7\n      pop\n        /* \"#utility.yul\":9703:9761   */\n      tag_205\n        /* \"#utility.yul\":9754:9760   */\n      dup4\n        /* \"#utility.yul\":9703:9761   */\n      tag_64\n      jump\t// in\n    tag_205:\n        /* \"#utility.yul\":9693:9761   */\n      swap3\n      pop\n        /* \"#utility.yul\":9549:9771   */\n      pop\n        /* \"#utility.yul\":9536:9537   */\n      0x01\n        /* \"#utility.yul\":9533:9534   */\n      dup2\n        /* \"#utility.yul\":9529:9538   */\n      add\n        /* \"#utility.yul\":9524:9538   */\n      swap1\n      pop\n        /* \"#utility.yul\":9489:9771   */\n      jump(tag_201)\n    tag_203:\n        /* \"#utility.yul\":9493:9507   */\n      pop\n        /* \"#utility.yul\":9206:9778   */\n      pop\n      pop\n      pop\n        /* \"#utility.yul\":9104:9778   */\n      pop\n      pop\n      jump\t// out\n        /* \"#utility.yul\":9844:10492   */\n    tag_66:\n        /* \"#utility.yul\":9959:9962   */\n      0x00\n        /* \"#utility.yul\":9995:9999   */\n      0x60\n        /* \"#utility.yul\":9990:9993   */\n      dup4\n        /* \"#utility.yul\":9986:10000   */\n      add\n        /* \"#utility.yul\":10082:10086   */\n      0x00\n        /* \"#utility.yul\":10075:10080   */\n      dup4\n        /* \"#utility.yul\":10071:10087   */\n      add\n        /* \"#utility.yul\":10065:10088   */\n      mload\n        /* \"#utility.yul\":10135:10138   */\n      dup5\n        /* \"#utility.yul\":10129:10133   */\n      dup3\n        /* \"#utility.yul\":10125:10139   */\n      sub\n        /* \"#utility.yul\":10118:10122   */\n      0x00\n        /* \"#utility.yul\":10113:10116   */\n      dup7\n        /* \"#utility.yul\":10109:10123   */\n      add\n        /* \"#utility.yul\":10102:10140   */\n      mstore\n        /* \"#utility.yul\":10161:10234   */\n      tag_207\n        /* \"#utility.yul\":10229:10233   */\n      dup3\n        /* \"#utility.yul\":10215:10227   */\n      dup3\n        /* \"#utility.yul\":10161:10234   */\n      tag_60\n      jump\t// in\n    tag_207:\n        /* \"#utility.yul\":10153:10234   */\n      swap2\n      pop\n        /* \"#utility.yul\":10010:10245   */\n      pop\n        /* \"#utility.yul\":10327:10331   */\n      0x20\n        /* \"#utility.yul\":10320:10325   */\n      dup4\n        /* \"#utility.yul\":10316:10332   */\n      add\n        /* \"#utility.yul\":10310:10333   */\n      mload\n        /* \"#utility.yul\":10346:10455   */\n      tag_208\n        /* \"#utility.yul\":10449:10453   */\n      0x20\n        /* \"#utility.yul\":10444:10447   */\n      dup7\n        /* \"#utility.yul\":10440:10454   */\n      add\n        /* \"#utility.yul\":10426:10438   */\n      dup3\n        /* \"#utility.yul\":10346:10455   */\n      tag_65\n      jump\t// in\n    tag_208:\n        /* \"#utility.yul\":10255:10465   */\n      pop\n        /* \"#utility.yul\":10482:10486   */\n      dup1\n        /* \"#utility.yul\":10475:10486   */\n      swap2\n      pop\n        /* \"#utility.yul\":9964:10492   */\n      pop\n        /* \"#utility.yul\":9844:10492   */\n      swap3\n      swap2\n      pop\n      pop\n      jump\t// out\n        /* \"#utility.yul\":10498:11345   */\n    tag_16:\n        /* \"#utility.yul\":10771:10775   */\n      0x00\n        /* \"#utility.yul\":10809:10812   */\n      0x80\n        /* \"#utility.yul\":10798:10807   */\n      dup3\n        /* \"#utility.yul\":10794:10813   */\n      add\n        /* \"#utility.yul\":10786:10813   */\n      swap1\n      pop\n        /* \"#utility.yul\":10823:10894   */\n      tag_210\n        /* \"#utility.yul\":10891:10892   */\n      0x00\n        /* \"#utility.yul\":10880:10889   */\n      dup4\n        /* \"#utility.yul\":10876:10893   */\n      add\n        /* \"#utility.yul\":10867:10873   */\n      dup8\n        /* \"#utility.yul\":10823:10894   */\n      tag_49\n      jump\t// in\n    tag_210:\n        /* \"#utility.yul\":10904:10976   */\n      tag_211\n        /* \"#utility.yul\":10972:10974   */\n      0x20\n        /* \"#utility.yul\":10961:10970   */\n      dup4\n        /* \"#utility.yul\":10957:10975   */\n      add\n        /* \"#utility.yul\":10948:10954   */\n      dup7\n        /* \"#utility.yul\":10904:10976   */\n      tag_50\n      jump\t// in\n    tag_211:\n        /* \"#utility.yul\":11023:11032   */\n      dup2\n        /* \"#utility.yul\":11017:11021   */\n      dup2\n        /* \"#utility.yul\":11013:11033   */\n      sub\n        /* \"#utility.yul\":11008:11010   */\n      0x40\n        /* \"#utility.yul\":10997:11006   */\n      dup4\n        /* \"#utility.yul\":10993:11011   */\n      add\n        /* \"#utility.yul\":10986:11034   */\n      mstore\n        /* \"#utility.yul\":11051:11159   */\n      tag_212\n        /* \"#utility.yul\":11154:11158   */\n      dup2\n        /* \"#utility.yul\":11145:11151   */\n      dup6\n        /* \"#utility.yul\":11051:11159   */\n      tag_57\n      jump\t// in\n    tag_212:\n        /* \"#utility.yul\":11043:11159   */\n      swap1\n      pop\n        /* \"#utility.yul\":11206:11215   */\n      dup2\n        /* \"#utility.yul\":11200:11204   */\n      dup2\n        /* \"#utility.yul\":11196:11216   */\n      sub\n        /* \"#utility.yul\":11191:11193   */\n      0x60\n        /* \"#utility.yul\":11180:11189   */\n      dup4\n        /* \"#utility.yul\":11176:11194   */\n      add\n        /* \"#utility.yul\":11169:11217   */\n      mstore\n        /* \"#utility.yul\":11234:11338   */\n      tag_213\n        /* \"#utility.yul\":11333:11337   */\n      dup2\n        /* \"#utility.yul\":11324:11330   */\n      dup5\n        /* \"#utility.yul\":11234:11338   */\n      tag_66\n      jump\t// in\n    tag_213:\n        /* \"#utility.yul\":11226:11338   */\n      swap1\n      pop\n        /* \"#utility.yul\":10498:11345   */\n      swap6\n      swap5\n      pop\n      pop\n      pop\n      pop\n      pop\n      jump\t// out\n        /* \"#utility.yul\":11351:11468   */\n    tag_67:\n        /* \"#utility.yul\":11460:11461   */\n      0x00\n        /* \"#utility.yul\":11457:11458   */\n      dup1\n        /* \"#utility.yul\":11450:11462   */\n      revert\n        /* \"#utility.yul\":11474:11573   */\n    tag_68:\n        /* \"#utility.yul\":11559:11565   */\n      dup3\n        /* \"#utility.yul\":11554:11557   */\n      dup2\n        /* \"#utility.yul\":11549:11552   */\n      dup4\n        /* \"#utility.yul\":11536:11566   */\n      calldatacopy\n        /* \"#utility.yul\":11474:11573   */\n      pop\n      pop\n      pop\n      jump\t// out\n        /* \"#utility.yul\":11609:12146   */\n    tag_69:\n        /* \"#utility.yul\":11737:11740   */\n      0x00\n        /* \"#utility.yul\":11758:11844   */\n      tag_217\n        /* \"#utility.yul\":11837:11843   */\n      dup4\n        /* \"#utility.yul\":11832:11835   */\n      dup6\n        /* \"#utility.yul\":11758:11844   */\n      tag_52\n      jump\t// in\n    tag_217:\n        /* \"#utility.yul\":11751:11844   */\n      swap4\n      pop\n        /* \"#utility.yul\":11868:11934   */\n      0x07ffffffffffffffffffffffffffffffffffffffffffffffffffffffffffffff\n        /* \"#utility.yul\":11860:11866   */\n      dup4\n        /* \"#utility.yul\":11857:11935   */\n      gt\n        /* \"#utility.yul\":11854:12019   */\n      iszero\n      tag_218\n      jumpi\n        /* \"#utility.yul\":11938:12017   */\n      tag_219\n      tag_67\n      jump\t// in\n    tag_219:\n        /* \"#utility.yul\":11854:12019   */\n    tag_218:\n        /* \"#utility.yul\":12050:12054   */\n      0x20\n        /* \"#utility.yul\":12042:12048   */\n      dup4\n        /* \"#utility.yul\":12038:12055   */\n      mul\n        /* \"#utility.yul\":12028:12055   */\n      swap3\n      pop\n        /* \"#utility.yul\":12065:12108   */\n      tag_220\n        /* \"#utility.yul\":12101:12107   */\n      dup4\n        /* \"#utility.yul\":12096:12099   */\n      dup6\n        /* \"#utility.yul\":12089:12094   */\n      dup5\n        /* \"#utility.yul\":12065:12108   */\n      tag_68\n      jump\t// in\n    tag_220:\n        /* \"#utility.yul\":12133:12139   */\n      dup3\n        /* \"#utility.yul\":12128:12131   */\n      dup5\n        /* \"#utility.yul\":12124:12140   */\n      add\n        /* \"#utility.yul\":12117:12140   */\n      swap1\n      pop\n        /* \"#utility.yul\":11609:12146   */\n      swap4\n      swap3\n      pop\n      pop\n      pop\n      jump\t// out\n        /* \"#utility.yul\":12152:12269   */\n    tag_70:\n        /* \"#utility.yul\":12261:12262   */\n      0x00\n        /* \"#utility.yul\":12258:12259   */\n      dup1\n        /* \"#utility.yul\":12251:12263   */\n      revert\n        /* \"#utility.yul\":12275:12392   */\n    tag_71:\n        /* \"#utility.yul\":12384:12385   */\n      0x00\n        /* \"#utility.yul\":12381:12382   */\n      dup1\n        /* \"#utility.yul\":12374:12386   */\n      revert\n        /* \"#utility.yul\":12398:12515   */\n    tag_72:\n        /* \"#utility.yul\":12507:12508   */\n      0x00\n        /* \"#utility.yul\":12504:12505   */\n      dup1\n        /* \"#utility.yul\":12497:12509   */\n      revert\n        /* \"#utility.yul\":12521:13233   */\n    tag_73:\n        /* \"#utility.yul\":12586:12591   */\n      0x00\n        /* \"#utility.yul\":12593:12599   */\n      dup1\n        /* \"#utility.yul\":12649:12652   */\n      dup4\n        /* \"#utility.yul\":12636:12653   */\n      calldataload\n        /* \"#utility.yul\":12741:12742   */\n      0x01\n        /* \"#utility.yul\":12735:12739   */\n      0x20\n        /* \"#utility.yul\":12731:12743   */\n      sub\n        /* \"#utility.yul\":12720:12728   */\n      dup5\n        /* \"#utility.yul\":12704:12718   */\n      calldatasize\n        /* \"#utility.yul\":12700:12729   */\n      sub\n        /* \"#utility.yul\":12696:12744   */\n      sub\n        /* \"#utility.yul\":12676:12694   */\n      dup2\n        /* \"#utility.yul\":12672:12745   */\n      slt\n        /* \"#utility.yul\":12662:12830   */\n      tag_225\n      jumpi\n        /* \"#utility.yul\":12749:12828   */\n      tag_226\n      tag_72\n      jump\t// in\n    tag_226:\n        /* \"#utility.yul\":12662:12830   */\n    tag_225:\n        /* \"#utility.yul\":12872:12880   */\n      dup4\n        /* \"#utility.yul\":12852:12870   */\n      dup2\n        /* \"#utility.yul\":12848:12881   */\n      add\n        /* \"#utility.yul\":12839:12881   */\n      swap3\n      pop\n        /* \"#utility.yul\":12914:12919   */\n      dup3\n        /* \"#utility.yul\":12901:12920   */\n      calldataload\n        /* \"#utility.yul\":12891:12920   */\n      swap2\n      pop\n        /* \"#utility.yul\":12949:12953   */\n      0x20\n        /* \"#utility.yul\":12942:12947   */\n      dup4\n        /* \"#utility.yul\":12938:12954   */\n      add\n        /* \"#utility.yul\":12929:12954   */\n      swap3\n      pop\n        /* \"#utility.yul\":12977:12995   */\n      0xffffffffffffffff\n        /* \"#utility.yul\":12969:12975   */\n      dup3\n        /* \"#utility.yul\":12966:12996   */\n      gt\n        /* \"#utility.yul\":12963:13080   */\n      iszero\n      tag_227\n      jumpi\n        /* \"#utility.yul\":12999:13078   */\n      tag_228\n      tag_70\n      jump\t// in\n    tag_228:\n        /* \"#utility.yul\":12963:13080   */\n    tag_227:\n        /* \"#utility.yul\":13135:13139   */\n      0x01\n        /* \"#utility.yul\":13127:13133   */\n      dup3\n        /* \"#utility.yul\":13123:13140   */\n      mul\n        /* \"#utility.yul\":13107:13121   */\n      calldatasize\n        /* \"#utility.yul\":13103:13141   */\n      sub\n        /* \"#utility.yul\":13096:13101   */\n      dup4\n        /* \"#utility.yul\":13092:13142   */\n      sgt\n        /* \"#utility.yul\":13089:13226   */\n      iszero\n      tag_229\n      jumpi\n        /* \"#utility.yul\":13145:13224   */\n      tag_230\n      tag_71\n      jump\t// in\n    tag_230:\n        /* \"#utility.yul\":13089:13226   */\n    tag_229:\n        /* \"#utility.yul\":12600:13233   */\n      pop\n        /* \"#utility.yul\":12521:13233   */\n      swap3\n      pop\n      swap3\n      swap1\n      pop\n      jump\t// out\n        /* \"#utility.yul\":13239:13387   */\n    tag_74:\n        /* \"#utility.yul\":13337:13343   */\n      dup3\n        /* \"#utility.yul\":13332:13335   */\n      dup2\n        /* \"#utility.yul\":13327:13330   */\n      dup4\n        /* \"#utility.yul\":13314:13344   */\n      calldatacopy\n        /* \"#utility.yul\":13378:13379   */\n      0x00\n        /* \"#utility.yul\":13369:13375   */\n      dup4\n        /* \"#utility.yul\":13364:13367   */\n      dup4\n        /* \"#utility.yul\":13360:13376   */\n      add\n        /* \"#utility.yul\":13353:13380   */\n      mstore\n        /* \"#utility.yul\":13239:13387   */\n      pop\n      pop\n      pop\n      jump\t// out\n        /* \"#utility.yul\":13417:13714   */\n    tag_75:\n        /* \"#utility.yul\":13505:13508   */\n      0x00\n        /* \"#utility.yul\":13526:13587   */\n      tag_233\n        /* \"#utility.yul\":13580:13586   */\n      dup4\n        /* \"#utility.yul\":13575:13578   */\n      dup6\n        /* \"#utility.yul\":13526:13587   */\n      tag_59\n      jump\t// in\n    tag_233:\n        /* \"#utility.yul\":13519:13587   */\n      swap4\n      pop\n        /* \"#utility.yul\":13597:13653   */\n      tag_234\n        /* \"#utility.yul\":13646:13652   */\n      dup4\n        /* \"#utility.yul\":13641:13644   */\n      dup6\n        /* \"#utility.yul\":13634:13639   */\n      dup5\n        /* \"#utility.yul\":13597:13653   */\n      tag_74\n      jump\t// in\n    tag_234:\n        /* \"#utility.yul\":13678:13707   */\n      tag_235\n        /* \"#utility.yul\":13700:13706   */\n      dup4\n        /* \"#utility.yul\":13678:13707   */\n      tag_46\n      jump\t// in\n    tag_235:\n        /* \"#utility.yul\":13673:13676   */\n      dup5\n        /* \"#utility.yul\":13669:13708   */\n      add\n        /* \"#utility.yul\":13662:13708   */\n      swap1\n      pop\n        /* \"#utility.yul\":13417:13714   */\n      swap4\n      swap3\n      pop\n      pop\n      pop\n      jump\t// out\n        /* \"#utility.yul\":13720:13831   */\n    tag_76:\n        /* \"#utility.yul\":13797:13802   */\n      0x00\n        /* \"#utility.yul\":13822:13825   */\n      dup3\n        /* \"#utility.yul\":13813:13825   */\n      swap1\n      pop\n        /* \"#utility.yul\":13720:13831   */\n      swap3\n      swap2\n      pop\n      pop\n      jump\t// out\n        /* \"#utility.yul\":13869:14029   */\n    tag_77:\n        /* \"#utility.yul\":13982:14023   */\n      tag_238\n        /* \"#utility.yul\":14018:14022   */\n      0x40\n        /* \"#utility.yul\":14013:14016   */\n      dup4\n        /* \"#utility.yul\":14006:14011   */\n      dup4\n        /* \"#utility.yul\":13982:14023   */\n      tag_68\n      jump\t// in\n    tag_238:\n        /* \"#utility.yul\":13869:14029   */\n      pop\n      pop\n      jump\t// out\n        /* \"#utility.yul\":14095:14868   */\n    tag_78:\n        /* \"#utility.yul\":14212:14215   */\n      0x00\n        /* \"#utility.yul\":14248:14252   */\n      0x60\n        /* \"#utility.yul\":14243:14246   */\n      dup4\n        /* \"#utility.yul\":14239:14253   */\n      add\n        /* \"#utility.yul\":14332:14394   */\n      tag_240\n        /* \"#utility.yul\":14388:14392   */\n      0x00\n        /* \"#utility.yul\":14381:14386   */\n      dup5\n        /* \"#utility.yul\":14377:14393   */\n      add\n        /* \"#utility.yul\":14370:14375   */\n      dup5\n        /* \"#utility.yul\":14332:14394   */\n      tag_73\n      jump\t// in\n    tag_240:\n        /* \"#utility.yul\":14441:14444   */\n      dup6\n        /* \"#utility.yul\":14435:14439   */\n      dup4\n        /* \"#utility.yul\":14431:14445   */\n      sub\n        /* \"#utility.yul\":14424:14428   */\n      0x00\n        /* \"#utility.yul\":14419:14422   */\n      dup8\n        /* \"#utility.yul\":14415:14429   */\n      add\n        /* \"#utility.yul\":14408:14446   */\n      mstore\n        /* \"#utility.yul\":14467:14556   */\n      tag_241\n        /* \"#utility.yul\":14551:14555   */\n      dup4\n        /* \"#utility.yul\":14537:14549   */\n      dup3\n        /* \"#utility.yul\":14523:14535   */\n      dup5\n        /* \"#utility.yul\":14467:14556   */\n      tag_75\n      jump\t// in\n    tag_241:\n        /* \"#utility.yul\":14459:14556   */\n      swap3\n      pop\n        /* \"#utility.yul\":14263:14567   */\n      pop\n      pop\n        /* \"#utility.yul\":14632:14707   */\n      tag_242\n        /* \"#utility.yul\":14701:14705   */\n      0x20\n        /* \"#utility.yul\":14694:14699   */\n      dup5\n        /* \"#utility.yul\":14690:14706   */\n      add\n        /* \"#utility.yul\":14683:14688   */\n      dup5\n        /* \"#utility.yul\":14632:14707   */\n      tag_76\n      jump\t// in\n    tag_242:\n        /* \"#utility.yul\":14720:14831   */\n      tag_243\n        /* \"#utility.yul\":14825:14829   */\n      0x20\n        /* \"#utility.yul\":14820:14823   */\n      dup7\n        /* \"#utility.yul\":14816:14830   */\n      add\n        /* \"#utility.yul\":14802:14814   */\n      dup3\n        /* \"#utility.yul\":14720:14831   */\n      tag_77\n      jump\t// in\n    tag_243:\n        /* \"#utility.yul\":14577:14841   */\n      pop\n        /* \"#utility.yul\":14858:14862   */\n      dup1\n        /* \"#utility.yul\":14851:14862   */\n      swap2\n      pop\n        /* \"#utility.yul\":14217:14868   */\n      pop\n        /* \"#utility.yul\":14095:14868   */\n      swap3\n      swap2\n      pop\n      pop\n      jump\t// out\n        /* \"#utility.yul\":14874:15745   */\n    tag_19:\n        /* \"#utility.yul\":15159:15163   */\n      0x00\n        /* \"#utility.yul\":15197:15200   */\n      0x80\n        /* \"#utility.yul\":15186:15195   */\n      dup3\n        /* \"#utility.yul\":15182:15201   */\n      add\n        /* \"#utility.yul\":15174:15201   */\n      swap1\n      pop\n        /* \"#utility.yul\":15211:15282   */\n      tag_245\n        /* \"#utility.yul\":15279:15280   */\n      0x00\n        /* \"#utility.yul\":15268:15277   */\n      dup4\n        /* \"#utility.yul\":15264:15281   */\n      add\n        /* \"#utility.yul\":15255:15261   */\n      dup9\n        /* \"#utility.yul\":15211:15282   */\n      tag_49\n      jump\t// in\n    tag_245:\n        /* \"#utility.yul\":15292:15364   */\n      tag_246\n        /* \"#utility.yul\":15360:15362   */\n      0x20\n        /* \"#utility.yul\":15349:15358   */\n      dup4\n        /* \"#utility.yul\":15345:15363   */\n      add\n        /* \"#utility.yul\":15336:15342   */\n      dup8\n        /* \"#utility.yul\":15292:15364   */\n      tag_50\n      jump\t// in\n    tag_246:\n        /* \"#utility.yul\":15411:15420   */\n      dup2\n        /* \"#utility.yul\":15405:15409   */\n      dup2\n        /* \"#utility.yul\":15401:15421   */\n      sub\n        /* \"#utility.yul\":15396:15398   */\n      0x40\n        /* \"#utility.yul\":15385:15394   */\n      dup4\n        /* \"#utility.yul\":15381:15399   */\n      add\n        /* \"#utility.yul\":15374:15422   */\n      mstore\n        /* \"#utility.yul\":15439:15557   */\n      tag_247\n        /* \"#utility.yul\":15552:15556   */\n      dup2\n        /* \"#utility.yul\":15543:15549   */\n      dup6\n        /* \"#utility.yul\":15535:15541   */\n      dup8\n        /* \"#utility.yul\":15439:15557   */\n      tag_69\n      jump\t// in\n    tag_247:\n        /* \"#utility.yul\":15431:15557   */\n      swap1\n      pop\n        /* \"#utility.yul\":15604:15613   */\n      dup2\n        /* \"#utility.yul\":15598:15602   */\n      dup2\n        /* \"#utility.yul\":15594:15614   */\n      sub\n        /* \"#utility.yul\":15589:15591   */\n      0x60\n        /* \"#utility.yul\":15578:15587   */\n      dup4\n        /* \"#utility.yul\":15574:15592   */\n      add\n        /* \"#utility.yul\":15567:15615   */\n      mstore\n        /* \"#utility.yul\":15632:15738   */\n      tag_248\n        /* \"#utility.yul\":15733:15737   */\n      dup2\n        /* \"#utility.yul\":15724:15730   */\n      dup5\n        /* \"#utility.yul\":15632:15738   */\n      tag_78\n      jump\t// in\n    tag_248:\n        /* \"#utility.yul\":15624:15738   */\n      swap1\n      pop\n        /* \"#utility.yul\":14874:15745   */\n      swap7\n      swap6\n      pop\n      pop\n      pop\n      pop\n      pop\n      pop\n      jump\t// out\n        /* \"#utility.yul\":15751:15855   */\n    tag_79:\n        /* \"#utility.yul\":15796:15803   */\n      0x00\n        /* \"#utility.yul\":15825:15849   */\n      tag_250\n        /* \"#utility.yul\":15843:15848   */\n      dup3\n        /* \"#utility.yul\":15825:15849   */\n      tag_33\n      jump\t// in\n    tag_250:\n        /* \"#utility.yul\":15814:15849   */\n      swap1\n      pop\n        /* \"#utility.yul\":15751:15855   */\n      swap2\n      swap1\n      pop\n      jump\t// out\n        /* \"#utility.yul\":15861:15999   */\n    tag_80:\n        /* \"#utility.yul\":15942:15974   */\n      tag_252\n        /* \"#utility.yul\":15968:15973   */\n      dup2\n        /* \"#utility.yul\":15942:15974   */\n      tag_79\n      jump\t// in\n    tag_252:\n        /* \"#utility.yul\":15935:15940   */\n      dup2\n        /* \"#utility.yul\":15932:15975   */\n      eq\n        /* \"#utility.yul\":15922:15993   */\n      tag_253\n      jumpi\n        /* \"#utility.yul\":15989:15990   */\n      0x00\n        /* \"#utility.yul\":15986:15987   */\n      dup1\n        /* \"#utility.yul\":15979:15991   */\n      revert\n        /* \"#utility.yul\":15922:15993   */\n    tag_253:\n        /* \"#utility.yul\":15861:15999   */\n      pop\n      jump\t// out\n        /* \"#utility.yul\":16005:16160   */\n    tag_81:\n        /* \"#utility.yul\":16059:16064   */\n      0x00\n        /* \"#utility.yul\":16097:16103   */\n      dup2\n        /* \"#utility.yul\":16084:16104   */\n      calldataload\n        /* \"#utility.yul\":16075:16104   */\n      swap1\n      pop\n        /* \"#utility.yul\":16113:16154   */\n      tag_255\n        /* \"#utility.yul\":16148:16153   */\n      dup2\n        /* \"#utility.yul\":16113:16154   */\n      tag_80\n      jump\t// in\n    tag_255:\n        /* \"#utility.yul\":16005:16160   */\n      swap3\n      swap2\n      pop\n      pop\n      jump\t// out\n        /* \"#utility.yul\":16166:16346   */\n    tag_82:\n        /* \"#utility.yul\":16214:16291   */\n      0x4e487b7100000000000000000000000000000000000000000000000000000000\n        /* \"#utility.yul\":16211:16212   */\n      0x00\n        /* \"#utility.yul\":16204:16292   */\n      mstore\n        /* \"#utility.yul\":16311:16315   */\n      0x41\n        /* \"#utility.yul\":16308:16309   */\n      0x04\n        /* \"#utility.yul\":16301:16316   */\n      mstore\n        /* \"#utility.yul\":16335:16339   */\n      0x24\n        /* \"#utility.yul\":16332:16333   */\n      0x00\n        /* \"#utility.yul\":16325:16340   */\n      revert\n        /* \"#utility.yul\":16352:16633   */\n    tag_83:\n        /* \"#utility.yul\":16435:16462   */\n      tag_258\n        /* \"#utility.yul\":16457:16461   */\n      dup3\n        /* \"#utility.yul\":16435:16462   */\n      tag_46\n      jump\t// in\n    tag_258:\n        /* \"#utility.yul\":16427:16433   */\n      dup2\n        /* \"#utility.yul\":16423:16463   */\n      add\n        /* \"#utility.yul\":16565:16571   */\n      dup2\n        /* \"#utility.yul\":16553:16563   */\n      dup2\n        /* \"#utility.yul\":16550:16572   */\n      lt\n        /* \"#utility.yul\":16529:16547   */\n      0xffffffffffffffff\n        /* \"#utility.yul\":16517:16527   */\n      dup3\n        /* \"#utility.yul\":16514:16548   */\n      gt\n        /* \"#utility.yul\":16511:16573   */\n      or\n        /* \"#utility.yul\":16508:16596   */\n      iszero\n      tag_259\n      jumpi\n        /* \"#utility.yul\":16576:16594   */\n      tag_260\n      tag_82\n      jump\t// in\n    tag_260:\n        /* \"#utility.yul\":16508:16596   */\n    tag_259:\n        /* \"#utility.yul\":16616:16626   */\n      dup1\n        /* \"#utility.yul\":16612:16614   */\n      0x40\n        /* \"#utility.yul\":16605:16627   */\n      mstore\n        /* \"#utility.yul\":16395:16633   */\n      pop\n        /* \"#utility.yul\":16352:16633   */\n      pop\n      pop\n      jump\t// out\n        /* \"#utility.yul\":16639:16768   */\n    tag_84:\n        /* \"#utility.yul\":16673:16679   */\n      0x00\n        /* \"#utility.yul\":16700:16720   */\n      tag_262\n      tag_27\n      jump\t// in\n    tag_262:\n        /* \"#utility.yul\":16690:16720   */\n      swap1\n      pop\n        /* \"#utility.yul\":16729:16762   */\n      tag_263\n        /* \"#utility.yul\":16757:16761   */\n      dup3\n        /* \"#utility.yul\":16749:16755   */\n      dup3\n        /* \"#utility.yul\":16729:16762   */\n      tag_83\n      jump\t// in\n    tag_263:\n        /* \"#utility.yul\":16639:16768   */\n      swap2\n      swap1\n      pop\n      jump\t// out\n        /* \"#utility.yul\":16774:17085   */\n    tag_85:\n        /* \"#utility.yul\":16851:16855   */\n      0x00\n        /* \"#utility.yul\":16941:16959   */\n      0xffffffffffffffff\n        /* \"#utility.yul\":16933:16939   */\n      dup3\n        /* \"#utility.yul\":16930:16960   */\n      gt\n        /* \"#utility.yul\":16927:16983   */\n      iszero\n      tag_265\n      jumpi\n        /* \"#utility.yul\":16963:16981   */\n      tag_266\n      tag_82\n      jump\t// in\n    tag_266:\n        /* \"#utility.yul\":16927:16983   */\n    tag_265:\n        /* \"#utility.yul\":17013:17017   */\n      0x20\n        /* \"#utility.yul\":17005:17011   */\n      dup3\n        /* \"#utility.yul\":17001:17018   */\n      mul\n        /* \"#utility.yul\":16993:17018   */\n      swap1\n      pop\n        /* \"#utility.yul\":17073:17077   */\n      0x20\n        /* \"#utility.yul\":17067:17071   */\n      dup2\n        /* \"#utility.yul\":17063:17078   */\n      add\n        /* \"#utility.yul\":17055:17078   */\n      swap1\n      pop\n        /* \"#utility.yul\":16774:17085   */\n      swap2\n      swap1\n      pop\n      jump\t// out\n        /* \"#utility.yul\":17108:17818   */\n    tag_86:\n        /* \"#utility.yul\":17204:17209   */\n      0x00\n        /* \"#utility.yul\":17229:17310   */\n      tag_268\n        /* \"#utility.yul\":17245:17309   */\n      tag_269\n        /* \"#utility.yul\":17302:17308   */\n      dup5\n        /* \"#utility.yul\":17245:17309   */\n      tag_85\n      jump\t// in\n    tag_269:\n        /* \"#utility.yul\":17229:17310   */\n      tag_84\n      jump\t// in\n    tag_268:\n        /* \"#utility.yul\":17220:17310   */\n      swap1\n      pop\n        /* \"#utility.yul\":17330:17335   */\n      dup1\n        /* \"#utility.yul\":17359:17365   */\n      dup4\n        /* \"#utility.yul\":17352:17357   */\n      dup3\n        /* \"#utility.yul\":17345:17366   */\n      mstore\n        /* \"#utility.yul\":17393:17397   */\n      0x20\n        /* \"#utility.yul\":17386:17391   */\n      dup3\n        /* \"#utility.yul\":17382:17398   */\n      add\n        /* \"#utility.yul\":17375:17398   */\n      swap1\n      pop\n        /* \"#utility.yul\":17446:17450   */\n      0x20\n        /* \"#utility.yul\":17438:17444   */\n      dup5\n        /* \"#utility.yul\":17434:17451   */\n      mul\n        /* \"#utility.yul\":17426:17432   */\n      dup4\n        /* \"#utility.yul\":17422:17452   */\n      add\n        /* \"#utility.yul\":17475:17478   */\n      dup6\n        /* \"#utility.yul\":17467:17473   */\n      dup2\n        /* \"#utility.yul\":17464:17479   */\n      gt\n        /* \"#utility.yul\":17461:17583   */\n      iszero\n      tag_270\n      jumpi\n        /* \"#utility.yul\":17494:17573   */\n      tag_271\n      tag_39\n      jump\t// in\n    tag_271:\n        /* \"#utility.yul\":17461:17583   */\n    tag_270:\n        /* \"#utility.yul\":17609:17615   */\n      dup4\n        /* \"#utility.yul\":17592:17812   */\n    tag_272:\n        /* \"#utility.yul\":17626:17632   */\n      dup2\n        /* \"#utility.yul\":17621:17624   */\n      dup2\n        /* \"#utility.yul\":17618:17633   */\n      lt\n        /* \"#utility.yul\":17592:17812   */\n      iszero\n      tag_274\n      jumpi\n        /* \"#utility.yul\":17701:17704   */\n      dup1\n        /* \"#utility.yul\":17730:17767   */\n      tag_275\n        /* \"#utility.yul\":17763:17766   */\n      dup9\n        /* \"#utility.yul\":17751:17761   */\n      dup3\n        /* \"#utility.yul\":17730:17767   */\n      tag_32\n      jump\t// in\n    tag_275:\n        /* \"#utility.yul\":17725:17728   */\n      dup5\n        /* \"#utility.yul\":17718:17768   */\n      mstore\n        /* \"#utility.yul\":17797:17801   */\n      0x20\n        /* \"#utility.yul\":17792:17795   */\n      dup5\n        /* \"#utility.yul\":17788:17802   */\n      add\n        /* \"#utility.yul\":17781:17802   */\n      swap4\n      pop\n        /* \"#utility.yul\":17668:17812   */\n      pop\n        /* \"#utility.yul\":17652:17656   */\n      0x20\n        /* \"#utility.yul\":17647:17650   */\n      dup2\n        /* \"#utility.yul\":17643:17657   */\n      add\n        /* \"#utility.yul\":17636:17657   */\n      swap1\n      pop\n        /* \"#utility.yul\":17592:17812   */\n      jump(tag_272)\n    tag_274:\n        /* \"#utility.yul\":17596:17617   */\n      pop\n        /* \"#utility.yul\":17210:17818   */\n      pop\n      pop\n        /* \"#utility.yul\":17108:17818   */\n      swap4\n      swap3\n      pop\n      pop\n      pop\n      jump\t// out\n        /* \"#utility.yul\":17841:18211   */\n    tag_87:\n        /* \"#utility.yul\":17912:17917   */\n      0x00\n        /* \"#utility.yul\":17961:17964   */\n      dup3\n        /* \"#utility.yul\":17954:17958   */\n      0x1f\n        /* \"#utility.yul\":17946:17952   */\n      dup4\n        /* \"#utility.yul\":17942:17959   */\n      add\n        /* \"#utility.yul\":17938:17965   */\n      slt\n        /* \"#utility.yul\":17928:18050   */\n      tag_277\n      jumpi\n        /* \"#utility.yul\":17969:18048   */\n      tag_278\n      tag_37\n      jump\t// in\n    tag_278:\n        /* \"#utility.yul\":17928:18050   */\n    tag_277:\n        /* \"#utility.yul\":18086:18092   */\n      dup2\n        /* \"#utility.yul\":18073:18093   */\n      calldataload\n        /* \"#utility.yul\":18111:18205   */\n      tag_279\n        /* \"#utility.yul\":18201:18204   */\n      dup5\n        /* \"#utility.yul\":18193:18199   */\n      dup3\n        /* \"#utility.yul\":18186:18190   */\n      0x20\n        /* \"#utility.yul\":18178:18184   */\n      dup7\n        /* \"#utility.yul\":18174:18191   */\n      add\n        /* \"#utility.yul\":18111:18205   */\n      tag_86\n      jump\t// in\n    tag_279:\n        /* \"#utility.yul\":18102:18205   */\n      swap2\n      pop\n        /* \"#utility.yul\":17918:18211   */\n      pop\n        /* \"#utility.yul\":17841:18211   */\n      swap3\n      swap2\n      pop\n      pop\n      jump\t// out\n        /* \"#utility.yul\":18217:18334   */\n    tag_88:\n        /* \"#utility.yul\":18326:18327   */\n      0x00\n        /* \"#utility.yul\":18323:18324   */\n      dup1\n        /* \"#utility.yul\":18316:18328   */\n      revert\n        /* \"#utility.yul\":18340:18457   */\n    tag_89:\n        /* \"#utility.yul\":18449:18450   */\n      0x00\n        /* \"#utility.yul\":18446:18447   */\n      dup1\n        /* \"#utility.yul\":18439:18451   */\n      revert\n        /* \"#utility.yul\":18463:18580   */\n    tag_90:\n        /* \"#utility.yul\":18572:18573   */\n      0x00\n        /* \"#utility.yul\":18569:18570   */\n      dup1\n        /* \"#utility.yul\":18562:18574   */\n      revert\n        /* \"#utility.yul\":18586:18894   */\n    tag_91:\n        /* \"#utility.yul\":18648:18652   */\n      0x00\n        /* \"#utility.yul\":18738:18756   */\n      0xffffffffffffffff\n        /* \"#utility.yul\":18730:18736   */\n      dup3\n        /* \"#utility.yul\":18727:18757   */\n      gt\n        /* \"#utility.yul\":18724:18780   */\n      iszero\n      tag_284\n      jumpi\n        /* \"#utility.yul\":18760:18778   */\n      tag_285\n      tag_82\n      jump\t// in\n    tag_285:\n        /* \"#utility.yul\":18724:18780   */\n    tag_284:\n        /* \"#utility.yul\":18798:18827   */\n      tag_286\n        /* \"#utility.yul\":18820:18826   */\n      dup3\n        /* \"#utility.yul\":18798:18827   */\n      tag_46\n      jump\t// in\n    tag_286:\n        /* \"#utility.yul\":18790:18827   */\n      swap1\n      pop\n        /* \"#utility.yul\":18882:18886   */\n      0x20\n        /* \"#utility.yul\":18876:18880   */\n      dup2\n        /* \"#utility.yul\":18872:18887   */\n      add\n        /* \"#utility.yul\":18864:18887   */\n      swap1\n      pop\n        /* \"#utility.yul\":18586:18894   */\n      swap2\n      swap1\n      pop\n      jump\t// out\n        /* \"#utility.yul\":18900:19325   */\n    tag_92:\n        /* \"#utility.yul\":18978:18983   */\n      0x00\n        /* \"#utility.yul\":19003:19069   */\n      tag_288\n        /* \"#utility.yul\":19019:19068   */\n      tag_289\n        /* \"#utility.yul\":19061:19067   */\n      dup5\n        /* \"#utility.yul\":19019:19068   */\n      tag_91\n      jump\t// in\n    tag_289:\n        /* \"#utility.yul\":19003:19069   */\n      tag_84\n      jump\t// in\n    tag_288:\n        /* \"#utility.yul\":18994:19069   */\n      swap1\n      pop\n        /* \"#utility.yul\":19092:19098   */\n      dup3\n        /* \"#utility.yul\":19085:19090   */\n      dup2\n        /* \"#utility.yul\":19078:19099   */\n      mstore\n        /* \"#utility.yul\":19130:19134   */\n      0x20\n        /* \"#utility.yul\":19123:19128   */\n      dup2\n        /* \"#utility.yul\":19119:19135   */\n      add\n        /* \"#utility.yul\":19168:19171   */\n      dup5\n        /* \"#utility.yul\":19159:19165   */\n      dup5\n        /* \"#utility.yul\":19154:19157   */\n      dup5\n        /* \"#utility.yul\":19150:19166   */\n      add\n        /* \"#utility.yul\":19147:19172   */\n      gt\n        /* \"#utility.yul\":19144:19256   */\n      iszero\n      tag_290\n      jumpi\n        /* \"#utility.yul\":19175:19254   */\n      tag_291\n      tag_90\n      jump\t// in\n    tag_291:\n        /* \"#utility.yul\":19144:19256   */\n    tag_290:\n        /* \"#utility.yul\":19265:19319   */\n      tag_292\n        /* \"#utility.yul\":19312:19318   */\n      dup5\n        /* \"#utility.yul\":19307:19310   */\n      dup3\n        /* \"#utility.yul\":19302:19305   */\n      dup6\n        /* \"#utility.yul\":19265:19319   */\n      tag_74\n      jump\t// in\n    tag_292:\n        /* \"#utility.yul\":18984:19325   */\n      pop\n        /* \"#utility.yul\":18900:19325   */\n      swap4\n      swap3\n      pop\n      pop\n      pop\n      jump\t// out\n        /* \"#utility.yul\":19345:19685   */\n    tag_93:\n        /* \"#utility.yul\":19401:19406   */\n      0x00\n        /* \"#utility.yul\":19450:19453   */\n      dup3\n        /* \"#utility.yul\":19443:19447   */\n      0x1f\n        /* \"#utility.yul\":19435:19441   */\n      dup4\n        /* \"#utility.yul\":19431:19448   */\n      add\n        /* \"#utility.yul\":19427:19454   */\n      slt\n        /* \"#utility.yul\":19417:19539   */\n      tag_294\n      jumpi\n        /* \"#utility.yul\":19458:19537   */\n      tag_295\n      tag_37\n      jump\t// in\n    tag_295:\n        /* \"#utility.yul\":19417:19539   */\n    tag_294:\n        /* \"#utility.yul\":19575:19581   */\n      dup2\n        /* \"#utility.yul\":19562:19582   */\n      calldataload\n        /* \"#utility.yul\":19600:19679   */\n      tag_296\n        /* \"#utility.yul\":19675:19678   */\n      dup5\n        /* \"#utility.yul\":19667:19673   */\n      dup3\n        /* \"#utility.yul\":19660:19664   */\n      0x20\n        /* \"#utility.yul\":19652:19658   */\n      dup7\n        /* \"#utility.yul\":19648:19665   */\n      add\n        /* \"#utility.yul\":19600:19679   */\n      tag_92\n      jump\t// in\n    tag_296:\n        /* \"#utility.yul\":19591:19679   */\n      swap2\n      pop\n        /* \"#utility.yul\":19407:19685   */\n      pop\n        /* \"#utility.yul\":19345:19685   */\n      swap3\n      swap2\n      pop\n      pop\n      jump\t// out\n        /* \"#utility.yul\":19691:19940   */\n    tag_94:\n        /* \"#utility.yul\":19766:19770   */\n      0x00\n        /* \"#utility.yul\":19856:19874   */\n      0xffffffffffffffff\n        /* \"#utility.yul\":19848:19854   */\n      dup3\n        /* \"#utility.yul\":19845:19875   */\n      gt\n        /* \"#utility.yul\":19842:19898   */\n      iszero\n      tag_298\n      jumpi\n        /* \"#utility.yul\":19878:19896   */\n      tag_299\n      tag_82\n      jump\t// in\n    tag_299:\n        /* \"#utility.yul\":19842:19898   */\n    tag_298:\n        /* \"#utility.yul\":19928:19932   */\n      0x20\n        /* \"#utility.yul\":19920:19926   */\n      dup3\n        /* \"#utility.yul\":19916:19933   */\n      mul\n        /* \"#utility.yul\":19908:19933   */\n      swap1\n      pop\n        /* \"#utility.yul\":19691:19940   */\n      swap2\n      swap1\n      pop\n      jump\t// out\n        /* \"#utility.yul\":19964:20607   */\n    tag_95:\n        /* \"#utility.yul\":20058:20063   */\n      0x00\n        /* \"#utility.yul\":20083:20162   */\n      tag_301\n        /* \"#utility.yul\":20099:20161   */\n      tag_302\n        /* \"#utility.yul\":20154:20160   */\n      dup5\n        /* \"#utility.yul\":20099:20161   */\n      tag_94\n      jump\t// in\n    tag_302:\n        /* \"#utility.yul\":20083:20162   */\n      tag_84\n      jump\t// in\n    tag_301:\n        /* \"#utility.yul\":20074:20162   */\n      swap1\n      pop\n        /* \"#utility.yul\":20182:20187   */\n      dup1\n        /* \"#utility.yul\":20235:20239   */\n      0x20\n        /* \"#utility.yul\":20227:20233   */\n      dup5\n        /* \"#utility.yul\":20223:20240   */\n      mul\n        /* \"#utility.yul\":20215:20221   */\n      dup4\n        /* \"#utility.yul\":20211:20241   */\n      add\n        /* \"#utility.yul\":20264:20267   */\n      dup6\n        /* \"#utility.yul\":20256:20262   */\n      dup2\n        /* \"#utility.yul\":20253:20268   */\n      gt\n        /* \"#utility.yul\":20250:20372   */\n      iszero\n      tag_303\n      jumpi\n        /* \"#utility.yul\":20283:20362   */\n      tag_304\n      tag_39\n      jump\t// in\n    tag_304:\n        /* \"#utility.yul\":20250:20372   */\n    tag_303:\n        /* \"#utility.yul\":20398:20404   */\n      dup4\n        /* \"#utility.yul\":20381:20601   */\n    tag_305:\n        /* \"#utility.yul\":20415:20421   */\n      dup2\n        /* \"#utility.yul\":20410:20413   */\n      dup2\n        /* \"#utility.yul\":20407:20422   */\n      lt\n        /* \"#utility.yul\":20381:20601   */\n      iszero\n      tag_307\n      jumpi\n        /* \"#utility.yul\":20490:20493   */\n      dup1\n        /* \"#utility.yul\":20519:20556   */\n      tag_308\n        /* \"#utility.yul\":20552:20555   */\n      dup9\n        /* \"#utility.yul\":20540:20550   */\n      dup3\n        /* \"#utility.yul\":20519:20556   */\n      tag_32\n      jump\t// in\n    tag_308:\n        /* \"#utility.yul\":20514:20517   */\n      dup5\n        /* \"#utility.yul\":20507:20557   */\n      mstore\n        /* \"#utility.yul\":20586:20590   */\n      0x20\n        /* \"#utility.yul\":20581:20584   */\n      dup5\n        /* \"#utility.yul\":20577:20591   */\n      add\n        /* \"#utility.yul\":20570:20591   */\n      swap4\n      pop\n        /* \"#utility.yul\":20457:20601   */\n      pop\n        /* \"#utility.yul\":20441:20445   */\n      0x20\n        /* \"#utility.yul\":20436:20439   */\n      dup2\n        /* \"#utility.yul\":20432:20446   */\n      add\n        /* \"#utility.yul\":20425:20446   */\n      swap1\n      pop\n        /* \"#utility.yul\":20381:20601   */\n      jump(tag_305)\n    tag_307:\n        /* \"#utility.yul\":20385:20406   */\n      pop\n        /* \"#utility.yul\":20064:20607   */\n      pop\n      pop\n        /* \"#utility.yul\":19964:20607   */\n      swap4\n      swap3\n      pop\n      pop\n      pop\n      jump\t// out\n        /* \"#utility.yul\":20631:20970   */\n    tag_96:\n        /* \"#utility.yul\":20700:20705   */\n      0x00\n        /* \"#utility.yul\":20749:20752   */\n      dup3\n        /* \"#utility.yul\":20742:20746   */\n      0x1f\n        /* \"#utility.yul\":20734:20740   */\n      dup4\n        /* \"#utility.yul\":20730:20747   */\n      add\n        /* \"#utility.yul\":20726:20753   */\n      slt\n        /* \"#utility.yul\":20716:20838   */\n      tag_310\n      jumpi\n        /* \"#utility.yul\":20757:20836   */\n      tag_311\n      tag_37\n      jump\t// in\n    tag_311:\n        /* \"#utility.yul\":20716:20838   */\n    tag_310:\n        /* \"#utility.yul\":20861:20865   */\n      0x02\n        /* \"#utility.yul\":20883:20964   */\n      tag_312\n        /* \"#utility.yul\":20960:20963   */\n      dup5\n        /* \"#utility.yul\":20952:20958   */\n      dup3\n        /* \"#utility.yul\":20944:20950   */\n      dup6\n        /* \"#utility.yul\":20883:20964   */\n      tag_95\n      jump\t// in\n    tag_312:\n        /* \"#utility.yul\":20874:20964   */\n      swap2\n      pop\n        /* \"#utility.yul\":20706:20970   */\n      pop\n        /* \"#utility.yul\":20631:20970   */\n      swap3\n      swap2\n      pop\n      pop\n      jump\t// out\n        /* \"#utility.yul\":21008:21773   */\n    tag_97:\n        /* \"#utility.yul\":21080:21085   */\n      0x00\n        /* \"#utility.yul\":21124:21128   */\n      0x60\n        /* \"#utility.yul\":21112:21121   */\n      dup3\n        /* \"#utility.yul\":21107:21110   */\n      dup5\n        /* \"#utility.yul\":21103:21122   */\n      sub\n        /* \"#utility.yul\":21099:21129   */\n      slt\n        /* \"#utility.yul\":21096:21213   */\n      iszero\n      tag_314\n      jumpi\n        /* \"#utility.yul\":21132:21211   */\n      tag_315\n      tag_88\n      jump\t// in\n    tag_315:\n        /* \"#utility.yul\":21096:21213   */\n    tag_314:\n        /* \"#utility.yul\":21231:21252   */\n      tag_316\n        /* \"#utility.yul\":21247:21251   */\n      0x40\n        /* \"#utility.yul\":21231:21252   */\n      tag_84\n      jump\t// in\n    tag_316:\n        /* \"#utility.yul\":21222:21252   */\n      swap1\n      pop\n        /* \"#utility.yul\":21339:21340   */\n      0x00\n        /* \"#utility.yul\":21328:21337   */\n      dup3\n        /* \"#utility.yul\":21324:21341   */\n      add\n        /* \"#utility.yul\":21311:21342   */\n      calldataload\n        /* \"#utility.yul\":21369:21387   */\n      0xffffffffffffffff\n        /* \"#utility.yul\":21361:21367   */\n      dup2\n        /* \"#utility.yul\":21358:21388   */\n      gt\n        /* \"#utility.yul\":21355:21472   */\n      iszero\n      tag_317\n      jumpi\n        /* \"#utility.yul\":21391:21470   */\n      tag_318\n      tag_89\n      jump\t// in\n    tag_318:\n        /* \"#utility.yul\":21355:21472   */\n    tag_317:\n        /* \"#utility.yul\":21511:21570   */\n      tag_319\n        /* \"#utility.yul\":21566:21569   */\n      dup5\n        /* \"#utility.yul\":21557:21563   */\n      dup3\n        /* \"#utility.yul\":21546:21555   */\n      dup6\n        /* \"#utility.yul\":21542:21564   */\n      add\n        /* \"#utility.yul\":21511:21570   */\n      tag_93\n      jump\t// in\n    tag_319:\n        /* \"#utility.yul\":21504:21508   */\n      0x00\n        /* \"#utility.yul\":21497:21502   */\n      dup4\n        /* \"#utility.yul\":21493:21509   */\n      add\n        /* \"#utility.yul\":21486:21571   */\n      mstore\n        /* \"#utility.yul\":21262:21582   */\n      pop\n        /* \"#utility.yul\":21641:21643   */\n      0x20\n        /* \"#utility.yul\":21682:21754   */\n      tag_320\n        /* \"#utility.yul\":21750:21753   */\n      dup5\n        /* \"#utility.yul\":21741:21747   */\n      dup3\n        /* \"#utility.yul\":21730:21739   */\n      dup6\n        /* \"#utility.yul\":21726:21748   */\n      add\n        /* \"#utility.yul\":21682:21754   */\n      tag_96\n      jump\t// in\n    tag_320:\n        /* \"#utility.yul\":21675:21679   */\n      0x20\n        /* \"#utility.yul\":21668:21673   */\n      dup4\n        /* \"#utility.yul\":21664:21680   */\n      add\n        /* \"#utility.yul\":21657:21755   */\n      mstore\n        /* \"#utility.yul\":21592:21766   */\n      pop\n        /* \"#utility.yul\":21008:21773   */\n      swap3\n      swap2\n      pop\n      pop\n      jump\t// out\n        /* \"#utility.yul\":21779:22976   */\n    tag_24:\n        /* \"#utility.yul\":21921:21927   */\n      0x00\n        /* \"#utility.yul\":21929:21935   */\n      dup1\n        /* \"#utility.yul\":21937:21943   */\n      0x00\n        /* \"#utility.yul\":21945:21951   */\n      dup1\n        /* \"#utility.yul\":21994:21997   */\n      0x80\n        /* \"#utility.yul\":21982:21991   */\n      dup6\n        /* \"#utility.yul\":21973:21980   */\n      dup8\n        /* \"#utility.yul\":21969:21992   */\n      sub\n        /* \"#utility.yul\":21965:21998   */\n      slt\n        /* \"#utility.yul\":21962:22082   */\n      iszero\n      tag_322\n      jumpi\n        /* \"#utility.yul\":22001:22080   */\n      tag_323\n      tag_28\n      jump\t// in\n    tag_323:\n        /* \"#utility.yul\":21962:22082   */\n    tag_322:\n        /* \"#utility.yul\":22121:22122   */\n      0x00\n        /* \"#utility.yul\":22146:22199   */\n      tag_324\n        /* \"#utility.yul\":22191:22198   */\n      dup8\n        /* \"#utility.yul\":22182:22188   */\n      dup3\n        /* \"#utility.yul\":22171:22180   */\n      dup9\n        /* \"#utility.yul\":22167:22189   */\n      add\n        /* \"#utility.yul\":22146:22199   */\n      tag_32\n      jump\t// in\n    tag_324:\n        /* \"#utility.yul\":22136:22199   */\n      swap5\n      pop\n        /* \"#utility.yul\":22092:22209   */\n      pop\n        /* \"#utility.yul\":22248:22250   */\n      0x20\n        /* \"#utility.yul\":22274:22335   */\n      tag_325\n        /* \"#utility.yul\":22327:22334   */\n      dup8\n        /* \"#utility.yul\":22318:22324   */\n      dup3\n        /* \"#utility.yul\":22307:22316   */\n      dup9\n        /* \"#utility.yul\":22303:22325   */\n      add\n        /* \"#utility.yul\":22274:22335   */\n      tag_81\n      jump\t// in\n    tag_325:\n        /* \"#utility.yul\":22264:22335   */\n      swap4\n      pop\n        /* \"#utility.yul\":22219:22345   */\n      pop\n        /* \"#utility.yul\":22412:22414   */\n      0x40\n        /* \"#utility.yul\":22401:22410   */\n      dup6\n        /* \"#utility.yul\":22397:22415   */\n      add\n        /* \"#utility.yul\":22384:22416   */\n      calldataload\n        /* \"#utility.yul\":22443:22461   */\n      0xffffffffffffffff\n        /* \"#utility.yul\":22435:22441   */\n      dup2\n        /* \"#utility.yul\":22432:22462   */\n      gt\n        /* \"#utility.yul\":22429:22546   */\n      iszero\n      tag_326\n      jumpi\n        /* \"#utility.yul\":22465:22544   */\n      tag_327\n      tag_29\n      jump\t// in\n    tag_327:\n        /* \"#utility.yul\":22429:22546   */\n    tag_326:\n        /* \"#utility.yul\":22570:22648   */\n      tag_328\n        /* \"#utility.yul\":22640:22647   */\n      dup8\n        /* \"#utility.yul\":22631:22637   */\n      dup3\n        /* \"#utility.yul\":22620:22629   */\n      dup9\n        /* \"#utility.yul\":22616:22638   */\n      add\n        /* \"#utility.yul\":22570:22648   */\n      tag_87\n      jump\t// in\n    tag_328:\n        /* \"#utility.yul\":22560:22648   */\n      swap3\n      pop\n        /* \"#utility.yul\":22355:22658   */\n      pop\n        /* \"#utility.yul\":22725:22727   */\n      0x60\n        /* \"#utility.yul\":22714:22723   */\n      dup6\n        /* \"#utility.yul\":22710:22728   */\n      add\n        /* \"#utility.yul\":22697:22729   */\n      calldataload\n        /* \"#utility.yul\":22756:22774   */\n      0xffffffffffffffff\n        /* \"#utility.yul\":22748:22754   */\n      dup2\n        /* \"#utility.yul\":22745:22775   */\n      gt\n        /* \"#utility.yul\":22742:22859   */\n      iszero\n      tag_329\n      jumpi\n        /* \"#utility.yul\":22778:22857   */\n      tag_330\n      tag_29\n      jump\t// in\n    tag_330:\n        /* \"#utility.yul\":22742:22859   */\n    tag_329:\n        /* \"#utility.yul\":22883:22959   */\n      tag_331\n        /* \"#utility.yul\":22951:22958   */\n      dup8\n        /* \"#utility.yul\":22942:22948   */\n      dup3\n        /* \"#utility.yul\":22931:22940   */\n      dup9\n        /* \"#utility.yul\":22927:22949   */\n      add\n        /* \"#utility.yul\":22883:22959   */\n      tag_97\n      jump\t// in\n    tag_331:\n        /* \"#utility.yul\":22873:22959   */\n      swap2\n      pop\n        /* \"#utility.yul\":22668:22969   */\n      pop\n        /* \"#utility.yul\":21779:22976   */\n      swap3\n      swap6\n      swap2\n      swap5\n      pop\n      swap3\n      pop\n      jump\t// out\n\n    auxdata: 0xa2646970667358221220763567fab53aeed3215cceec968abf626afc19e6170c9d2f4ba0b426df3f3f6864736f6c634300081a0033\n}\n",
				"bytecode": {
					"linkReferences": {},
					"object": "6080604052348015600e575f80fd5b50610c378061001c5f395ff3fe608060405234801561000f575f80fd5b5060043610610034575f3560e01c80637049e08714610038578063e5c5e9a314610068575b5f80fd5b610052600480360381019061004d9190610267565b61009b565b60405161005f9190610377565b60405180910390f35b610082600480360381019061007d91906103ec565b6100d0565b6040516100929493929190610617565b60405180910390f35b606085858585856040516020016100b69594939291906107de565b604051602081830303815290604052905095945050505050565b5f8060606100dc610104565b85858101906100eb9190610b65565b8094508195508296508397505050505092959194509250565b60405180604001604052806060815260200161011e610124565b81525090565b6040518060400160405280600290602082028036833780820191505090505090565b5f604051905090565b5f80fd5b5f80fd5b5f819050919050565b61016981610157565b8114610173575f80fd5b50565b5f8135905061018481610160565b92915050565b5f73ffffffffffffffffffffffffffffffffffffffff82169050919050565b5f6101b38261018a565b9050919050565b6101c3816101a9565b81146101cd575f80fd5b50565b5f813590506101de816101ba565b92915050565b5f80fd5b5f80fd5b5f80fd5b5f8083601f840112610205576102046101e4565b5b8235905067ffffffffffffffff811115610222576102216101e8565b5b60208301915083602082028301111561023e5761023d6101ec565b5b9250929050565b5f80fd5b5f6060828403121561025e5761025d610245565b5b81905092915050565b5f805f805f608086880312156102805761027f61014f565b5b5f61028d88828901610176565b955050602061029e888289016101d0565b945050604086013567ffffffffffffffff8111156102bf576102be610153565b5b6102cb888289016101f0565b9350935050606086013567ffffffffffffffff8111156102ee576102ed610153565b5b6102fa88828901610249565b9150509295509295909350565b5f81519050919050565b5f82825260208201905092915050565b8281835e5f83830152505050565b5f601f19601f8301169050919050565b5f61034982610307565b6103538185610311565b9350610363818560208601610321565b61036c8161032f565b840191505092915050565b5f6020820190508181035f83015261038f818461033f565b905092915050565b5f8083601f8401126103ac576103ab6101e4565b5b8235905067ffffffffffffffff8111156103c9576103c86101e8565b5b6020830191508360018202830111156103e5576103e46101ec565b5b9250929050565b5f80602083850312156104025761040161014f565b5b5f83013567ffffffffffffffff81111561041f5761041e610153565b5b61042b85828601610397565b92509250509250929050565b61044081610157565b82525050565b61044f816101a9565b82525050565b5f81519050919050565b5f82825260208201905092915050565b5f819050602082019050919050565b61048781610157565b82525050565b5f610498838361047e565b60208301905092915050565b5f602082019050919050565b5f6104ba82610455565b6104c4818561045f565b93506104cf8361046f565b805f5b838110156104ff5781516104e6888261048d565b97506104f1836104a4565b9250506001810190506104d2565b5085935050505092915050565b5f81519050919050565b5f82825260208201905092915050565b5f6105308261050c565b61053a8185610516565b935061054a818560208601610321565b6105538161032f565b840191505092915050565b5f60029050919050565b5f81905092915050565b5f819050919050565b5f602082019050919050565b6105908161055e565b61059a8184610568565b92506105a582610572565b805f5b838110156105d55781516105bc878261048d565b96506105c78361057b565b9250506001810190506105a8565b505050505050565b5f606083015f8301518482035f8601526105f78282610526565b915050602083015161060c6020860182610587565b508091505092915050565b5f60808201905061062a5f830187610437565b6106376020830186610446565b818103604083015261064981856104b0565b9050818103606083015261065d81846105dd565b905095945050505050565b5f80fd5b82818337505050565b5f610680838561045f565b93507f07ffffffffffffffffffffffffffffffffffffffffffffffffffffffffffffff8311156106b3576106b2610668565b5b6020830292506106c483858461066c565b82840190509392505050565b5f80fd5b5f80fd5b5f80fd5b5f80833560016020038436030381126106f8576106f76106d8565b5b83810192508235915060208301925067ffffffffffffffff8211156107205761071f6106d0565b5b600182023603831315610736576107356106d4565b5b509250929050565b828183375f83830152505050565b5f6107578385610516565b935061076483858461073e565b61076d8361032f565b840190509392505050565b5f82905092915050565b61078e6040838361066c565b5050565b5f606083016107a35f8401846106dc565b8583035f8701526107b583828461074c565b925050506107c66020840184610778565b6107d36020860182610782565b508091505092915050565b5f6080820190506107f15f830188610437565b6107fe6020830187610446565b8181036040830152610811818587610675565b905081810360608301526108258184610792565b90509695505050505050565b5f61083b8261018a565b9050919050565b61084b81610831565b8114610855575f80fd5b50565b5f8135905061086681610842565b92915050565b7f4e487b71000000000000000000000000000000000000000000000000000000005f52604160045260245ffd5b6108a28261032f565b810181811067ffffffffffffffff821117156108c1576108c061086c565b5b80604052505050565b5f6108d3610146565b90506108df8282610899565b919050565b5f67ffffffffffffffff8211156108fe576108fd61086c565b5b602082029050602081019050919050565b5f61092161091c846108e4565b6108ca565b90508083825260208201905060208402830185811115610944576109436101ec565b5b835b8181101561096d57806109598882610176565b845260208401935050602081019050610946565b5050509392505050565b5f82601f83011261098b5761098a6101e4565b5b813561099b84826020860161090f565b91505092915050565b5f80fd5b5f80fd5b5f80fd5b5f67ffffffffffffffff8211156109ca576109c961086c565b5b6109d38261032f565b9050602081019050919050565b5f6109f26109ed846109b0565b6108ca565b905082815260208101848484011115610a0e57610a0d6109ac565b5b610a1984828561073e565b509392505050565b5f82601f830112610a3557610a346101e4565b5b8135610a458482602086016109e0565b91505092915050565b5f67ffffffffffffffff821115610a6857610a6761086c565b5b602082029050919050565b5f610a85610a8084610a4e565b6108ca565b90508060208402830185811115610a9f57610a9e6101ec565b5b835b81811015610ac85780610ab48882610176565b845260208401935050602081019050610aa1565b5050509392505050565b5f82601f830112610ae657610ae56101e4565b5b6002610af3848285610a73565b91505092915050565b5f60608284031215610b1157610b106109a4565b5b610b1b60406108ca565b90505f82013567ffffffffffffffff811115610b3a57610b396109a8565b5b610b4684828501610a21565b5f830152506020610b5984828501610ad2565b60208301525092915050565b5f805f8060808587031215610b7d57610b7c61014f565b5b5f610b8a87828801610176565b9450506020610b9b87828801610858565b935050604085013567ffffffffffffffff811115610bbc57610bbb610153565b5b610bc887828801610977565b925050606085013567ffffffffffffffff811115610be957610be8610153565b5b610bf587828801610afc565b9150509295919450925056fea2646970667358221220763567fab53aeed3215cceec968abf626afc19e6170c9d2f4ba0b426df3f3f6864736f6c634300081a0033",
					"opcodes": "PUSH1 0x80 PUSH1 0x40 MSTORE CALLVALUE DUP1 ISZERO PUSH1 0xE JUMPI PUSH0 DUP1 REVERT JUMPDEST POP PUSH2 0xC37 DUP1 PUSH2 0x1C PUSH0 CODECOPY PUSH0 RETURN INVALID PUSH1 0x80 PUSH1 0x40 MSTORE CALLVALUE DUP1 ISZERO PUSH2 0xF JUMPI PUSH0 DUP1 REVERT JUMPDEST POP PUSH1 0x4 CALLDATASIZE LT PUSH2 0x34 JUMPI PUSH0 CALLDATALOAD PUSH1 0xE0 SHR DUP1 PUSH4 0x7049E087 EQ PUSH2 0x38 JUMPI DUP1 PUSH4 0xE5C5E9A3 EQ PUSH2 0x68 JUMPI JUMPDEST PUSH0 DUP1 REVERT JUMPDEST PUSH2 0x52 PUSH1 0x4 DUP1 CALLDATASIZE SUB DUP2 ADD SWAP1 PUSH2 0x4D SWAP2 SWAP1 PUSH2 0x267 JUMP JUMPDEST PUSH2 0x9B JUMP JUMPDEST PUSH1 0x40 MLOAD PUSH2 0x5F SWAP2 SWAP1 PUSH2 0x377 JUMP JUMPDEST PUSH1 0x40 MLOAD DUP1 SWAP2 SUB SWAP1 RETURN JUMPDEST PUSH2 0x82 PUSH1 0x4 DUP1 CALLDATASIZE SUB DUP2 ADD SWAP1 PUSH2 0x7D SWAP2 SWAP1 PUSH2 0x3EC JUMP JUMPDEST PUSH2 0xD0 JUMP JUMPDEST PUSH1 0x40 MLOAD PUSH2 0x92 SWAP5 SWAP4 SWAP3 SWAP2 SWAP1 PUSH2 0x617 JUMP JUMPDEST PUSH1 0x40 MLOAD DUP1 SWAP2 SUB SWAP1 RETURN JUMPDEST PUSH1 0x60 DUP6 DUP6 DUP6 DUP6 DUP6 PUSH1 0x40 MLOAD PUSH1 0x20 ADD PUSH2 0xB6 SWAP6 SWAP5 SWAP4 SWAP3 SWAP2 SWAP1 PUSH2 0x7DE JUMP JUMPDEST PUSH1 0x40 MLOAD PUSH1 0x20 DUP2 DUP4 SUB SUB DUP2 MSTORE SWAP1 PUSH1 0x40 MSTORE SWAP1 POP SWAP6 SWAP5 POP POP POP POP POP JUMP JUMPDEST PUSH0 DUP1 PUSH1 0x60 PUSH2 0xDC PUSH2 0x104 JUMP JUMPDEST DUP6 DUP6 DUP2 ADD SWAP1 PUSH2 0xEB SWAP2 SWAP1 PUSH2 0xB65 JUMP JUMPDEST DUP1 SWAP5 POP DUP2 SWAP6 POP DUP3 SWAP7 POP DUP4 SWAP8 POP POP POP POP POP SWAP3 SWAP6 SWAP2 SWAP5 POP SWAP3 POP JUMP JUMPDEST PUSH1 0x40 MLOAD DUP1 PUSH1 0x40 ADD PUSH1 0x40 MSTORE DUP1 PUSH1 0x60 DUP2 MSTORE PUSH1 0x20 ADD PUSH2 0x11E PUSH2 0x124 JUMP JUMPDEST DUP2 MSTORE POP SWAP1 JUMP JUMPDEST PUSH1 0x40 MLOAD DUP1 PUSH1 0x40 ADD PUSH1 0x40 MSTORE DUP1 PUSH1 0x2 SWAP1 PUSH1 0x20 DUP3 MUL DUP1 CALLDATASIZE DUP4 CALLDATACOPY DUP1 DUP3 ADD SWAP2 POP POP SWAP1 POP POP SWAP1 JUMP JUMPDEST PUSH0 PUSH1 0x40 MLOAD SWAP1 POP SWAP1 JUMP JUMPDEST PUSH0 DUP1 REVERT JUMPDEST PUSH0 DUP1 REVERT JUMPDEST PUSH0 DUP2 SWAP1 POP SWAP2 SWAP1 POP JUMP JUMPDEST PUSH2 0x169 DUP2 PUSH2 0x157 JUMP JUMPDEST DUP2 EQ PUSH2 0x173 JUMPI PUSH0 DUP1 REVERT JUMPDEST POP JUMP JUMPDEST PUSH0 DUP2 CALLDATALOAD SWAP1 POP PUSH2 0x184 DUP2 PUSH2 0x160 JUMP JUMPDEST SWAP3 SWAP2 POP POP JUMP JUMPDEST PUSH0 PUSH20 0xFFFFFFFFFFFFFFFFFFFFFFFFFFFFFFFFFFFFFFFF DUP3 AND SWAP1 POP SWAP2 SWAP1 POP JUMP JUMPDEST PUSH0 PUSH2 0x1B3 DUP3 PUSH2 0x18A JUMP JUMPDEST SWAP1 POP SWAP2 SWAP1 POP JUMP JUMPDEST PUSH2 0x1C3 DUP2 PUSH2 0x1A9 JUMP JUMPDEST DUP2 EQ PUSH2 0x1CD JUMPI PUSH0 DUP1 REVERT JUMPDEST POP JUMP JUMPDEST PUSH0 DUP2 CALLDATALOAD SWAP1 POP PUSH2 0x1DE DUP2 PUSH2 0x1BA JUMP JUMPDEST SWAP3 SWAP2 POP POP JUMP JUMPDEST PUSH0 DUP1 REVERT JUMPDEST PUSH0 DUP1 REVERT JUMPDEST PUSH0 DUP1 REVERT JUMPDEST PUSH0 DUP1 DUP4 PUSH1 0x1F DUP5 ADD SLT PUSH2 0x205 JUMPI PUSH2 0x204 PUSH2 0x1E4 JUMP JUMPDEST JUMPDEST DUP3 CALLDATALOAD SWAP1 POP PUSH8 0xFFFFFFFFFFFFFFFF DUP2 GT ISZERO PUSH2 0x222 JUMPI PUSH2 0x221 PUSH2 0x1E8 JUMP JUMPDEST JUMPDEST PUSH1 0x20 DUP4 ADD SWAP2 POP DUP4 PUSH1 0x20 DUP3 MUL DUP4 ADD GT ISZERO PUSH2 0x23E JUMPI PUSH2 0x23D PUSH2 0x1EC JUMP JUMPDEST JUMPDEST SWAP3 POP SWAP3 SWAP1 POP JUMP JUMPDEST PUSH0 DUP1 REVERT JUMPDEST PUSH0 PUSH1 0x60 DUP3 DUP5 SUB SLT ISZERO PUSH2 0x25E JUMPI PUSH2 0x25D PUSH2 0x245 JUMP JUMPDEST JUMPDEST DUP2 SWAP1 POP SWAP3 SWAP2 POP POP JUMP JUMPDEST PUSH0 DUP1 PUSH0 DUP1 PUSH0 PUSH1 0x80 DUP7 DUP9 SUB SLT ISZERO PUSH2 0x280 JUMPI PUSH2 0x27F PUSH2 0x14F JUMP JUMPDEST JUMPDEST PUSH0 PUSH2 0x28D DUP9 DUP3 DUP10 ADD PUSH2 0x176 JUMP JUMPDEST SWAP6 POP POP PUSH1 0x20 PUSH2 0x29E DUP9 DUP3 DUP10 ADD PUSH2 0x1D0 JUMP JUMPDEST SWAP5 POP POP PUSH1 0x40 DUP7 ADD CALLDATALOAD PUSH8 0xFFFFFFFFFFFFFFFF DUP2 GT ISZERO PUSH2 0x2BF JUMPI PUSH2 0x2BE PUSH2 0x153 JUMP JUMPDEST JUMPDEST PUSH2 0x2CB DUP9 DUP3 DUP10 ADD PUSH2 0x1F0 JUMP JUMPDEST SWAP4 POP SWAP4 POP POP PUSH1 0x60 DUP7 ADD CALLDATALOAD PUSH8 0xFFFFFFFFFFFFFFFF DUP2 GT ISZERO PUSH2 0x2EE JUMPI PUSH2 0x2ED PUSH2 0x153 JUMP JUMPDEST JUMPDEST PUSH2 0x2FA DUP9 DUP3 DUP10 ADD PUSH2 0x249 JUMP JUMPDEST SWAP2 POP POP SWAP3 SWAP6 POP SWAP3 SWAP6 SWAP1 SWAP4 POP JUMP JUMPDEST PUSH0 DUP2 MLOAD SWAP1 POP SWAP2 SWAP1 POP JUMP JUMPDEST PUSH0 DUP3 DUP3 MSTORE PUSH1 0x20 DUP3 ADD SWAP1 POP SWAP3 SWAP2 POP POP JUMP JUMPDEST DUP3 DUP2 DUP4 MCOPY PUSH0 DUP4 DUP4 ADD MSTORE POP POP POP JUMP JUMPDEST PUSH0 PUSH1 0x1F NOT PUSH1 0x1F DUP4 ADD AND SWAP1 POP SWAP2 SWAP1 POP JUMP JUMPDEST PUSH0 PUSH2 0x349 DUP3 PUSH2 0x307 JUMP JUMPDEST PUSH2 0x353 DUP2 DUP6 PUSH2 0x311 JUMP JUMPDEST SWAP4 POP PUSH2 0x363 DUP2 DUP6 PUSH1 0x20 DUP7 ADD PUSH2 0x321 JUMP JUMPDEST PUSH2 0x36C DUP2 PUSH2 0x32F JUMP JUMPDEST DUP5 ADD SWAP2 POP POP SWAP3 SWAP2 POP POP JUMP JUMPDEST PUSH0 PUSH1 0x20 DUP3 ADD SWAP1 POP DUP2 DUP2 SUB PUSH0 DUP4 ADD MSTORE PUSH2 0x38F DUP2 DUP5 PUSH2 0x33F JUMP JUMPDEST SWAP1 POP SWAP3 SWAP2 POP POP JUMP JUMPDEST PUSH0 DUP1 DUP4 PUSH1 0x1F DUP5 ADD SLT PUSH2 0x3AC JUMPI PUSH2 0x3AB PUSH2 0x1E4 JUMP JUMPDEST JUMPDEST DUP3 CALLDATALOAD SWAP1 POP PUSH8 0xFFFFFFFFFFFFFFFF DUP2 GT ISZERO PUSH2 0x3C9 JUMPI PUSH2 0x3C8 PUSH2 0x1E8 JUMP JUMPDEST JUMPDEST PUSH1 0x20 DUP4 ADD SWAP2 POP DUP4 PUSH1 0x1 DUP3 MUL DUP4 ADD GT ISZERO PUSH2 0x3E5 JUMPI PUSH2 0x3E4 PUSH2 0x1EC JUMP JUMPDEST JUMPDEST SWAP3 POP SWAP3 SWAP1 POP JUMP JUMPDEST PUSH0 DUP1 PUSH1 0x20 DUP4 DUP6 SUB SLT ISZERO PUSH2 0x402 JUMPI PUSH2 0x401 PUSH2 0x14F JUMP JUMPDEST JUMPDEST PUSH0 DUP4 ADD CALLDATALOAD PUSH8 0xFFFFFFFFFFFFFFFF DUP2 GT ISZERO PUSH2 0x41F JUMPI PUSH2 0x41E PUSH2 0x153 JUMP JUMPDEST JUMPDEST PUSH2 0x42B DUP6 DUP3 DUP7 ADD PUSH2 0x397 JUMP JUMPDEST SWAP3 POP SWAP3 POP POP SWAP3 POP SWAP3 SWAP1 POP JUMP JUMPDEST PUSH2 0x440 DUP2 PUSH2 0x157 JUMP JUMPDEST DUP3 MSTORE POP POP JUMP JUMPDEST PUSH2 0x44F DUP2 PUSH2 0x1A9 JUMP JUMPDEST DUP3 MSTORE POP POP JUMP JUMPDEST PUSH0 DUP2 MLOAD SWAP1 POP SWAP2 SWAP1 POP JUMP JUMPDEST PUSH0 DUP3 DUP3 MSTORE PUSH1 0x20 DUP3 ADD SWAP1 POP SWAP3 SWAP2 POP POP JUMP JUMPDEST PUSH0 DUP2 SWAP1 POP PUSH1 0x20 DUP3 ADD SWAP1 POP SWAP2 SWAP1 POP JUMP JUMPDEST PUSH2 0x487 DUP2 PUSH2 0x157 JUMP JUMPDEST DUP3 MSTORE POP POP JUMP JUMPDEST PUSH0 PUSH2 0x498 DUP4 DUP4 PUSH2 0x47E JUMP JUMPDEST PUSH1 0x20 DUP4 ADD SWAP1 POP SWAP3 SWAP2 POP POP JUMP JUMPDEST PUSH0 PUSH1 0x20 DUP3 ADD SWAP1 POP SWAP2 SWAP1 POP JUMP JUMPDEST PUSH0 PUSH2 0x4BA DUP3 PUSH2 0x455 JUMP JUMPDEST PUSH2 0x4C4 DUP2 DUP6 PUSH2 0x45F JUMP JUMPDEST SWAP4 POP PUSH2 0x4CF DUP4 PUSH2 0x46F JUMP JUMPDEST DUP1 PUSH0 JUMPDEST DUP4 DUP2 LT ISZERO PUSH2 0x4FF JUMPI DUP2 MLOAD PUSH2 0x4E6 DUP9 DUP3 PUSH2 0x48D JUMP JUMPDEST SWAP8 POP PUSH2 0x4F1 DUP4 PUSH2 0x4A4 JUMP JUMPDEST SWAP3 POP POP PUSH1 0x1 DUP2 ADD SWAP1 POP PUSH2 0x4D2 JUMP JUMPDEST POP DUP6 SWAP4 POP POP POP POP SWAP3 SWAP2 POP POP JUMP JUMPDEST PUSH0 DUP2 MLOAD SWAP1 POP SWAP2 SWAP1 POP JUMP JUMPDEST PUSH0 DUP3 DUP3 MSTORE PUSH1 0x20 DUP3 ADD SWAP1 POP SWAP3 SWAP2 POP POP JUMP JUMPDEST PUSH0 PUSH2 0x530 DUP3 PUSH2 0x50C JUMP JUMPDEST PUSH2 0x53A DUP2 DUP6 PUSH2 0x516 JUMP JUMPDEST SWAP4 POP PUSH2 0x54A DUP2 DUP6 PUSH1 0x20 DUP7 ADD PUSH2 0x321 JUMP JUMPDEST PUSH2 0x553 DUP2 PUSH2 0x32F JUMP JUMPDEST DUP5 ADD SWAP2 POP POP SWAP3 SWAP2 POP POP JUMP JUMPDEST PUSH0 PUSH1 0x2 SWAP1 POP SWAP2 SWAP1 POP JUMP JUMPDEST PUSH0 DUP2 SWAP1 POP SWAP3 SWAP2 POP POP JUMP JUMPDEST PUSH0 DUP2 SWAP1 POP SWAP2 SWAP1 POP JUMP JUMPDEST PUSH0 PUSH1 0x20 DUP3 ADD SWAP1 POP SWAP2 SWAP1 POP JUMP JUMPDEST PUSH2 0x590 DUP2 PUSH2 0x55E JUMP JUMPDEST PUSH2 0x59A DUP2 DUP5 PUSH2 0x568 JUMP JUMPDEST SWAP3 POP PUSH2 0x5A5 DUP3 PUSH2 0x572 JUMP JUMPDEST DUP1 PUSH0 JUMPDEST DUP4 DUP2 LT ISZERO PUSH2 0x5D5 JUMPI DUP2 MLOAD PUSH2 0x5BC DUP8 DUP3 PUSH2 0x48D JUMP JUMPDEST SWAP7 POP PUSH2 0x5C7 DUP4 PUSH2 0x57B JUMP JUMPDEST SWAP3 POP POP PUSH1 0x1 DUP2 ADD SWAP1 POP PUSH2 0x5A8 JUMP JUMPDEST POP POP POP POP POP POP JUMP JUMPDEST PUSH0 PUSH1 0x60 DUP4 ADD PUSH0 DUP4 ADD MLOAD DUP5 DUP3 SUB PUSH0 DUP7 ADD MSTORE PUSH2 0x5F7 DUP3 DUP3 PUSH2 0x526 JUMP JUMPDEST SWAP2 POP POP PUSH1 0x20 DUP4 ADD MLOAD PUSH2 0x60C PUSH1 0x20 DUP7 ADD DUP3 PUSH2 0x587 JUMP JUMPDEST POP DUP1 SWAP2 POP POP SWAP3 SWAP2 POP POP JUMP JUMPDEST PUSH0 PUSH1 0x80 DUP3 ADD SWAP1 POP PUSH2 0x62A PUSH0 DUP4 ADD DUP8 PUSH2 0x437 JUMP JUMPDEST PUSH2 0x637 PUSH1 0x20 DUP4 ADD DUP7 PUSH2 0x446 JUMP JUMPDEST DUP2 DUP2 SUB PUSH1 0x40 DUP4 ADD MSTORE PUSH2 0x649 DUP2 DUP6 PUSH2 0x4B0 JUMP JUMPDEST SWAP1 POP DUP2 DUP2 SUB PUSH1 0x60 DUP4 ADD MSTORE PUSH2 0x65D DUP2 DUP5 PUSH2 0x5DD JUMP JUMPDEST SWAP1 POP SWAP6 SWAP5 POP POP POP POP POP JUMP JUMPDEST PUSH0 DUP1 REVERT JUMPDEST DUP3 DUP2 DUP4 CALLDATACOPY POP POP POP JUMP JUMPDEST PUSH0 PUSH2 0x680 DUP4 DUP6 PUSH2 0x45F JUMP JUMPDEST SWAP4 POP PUSH32 0x7FFFFFFFFFFFFFFFFFFFFFFFFFFFFFFFFFFFFFFFFFFFFFFFFFFFFFFFFFFFFFF DUP4 GT ISZERO PUSH2 0x6B3 JUMPI PUSH2 0x6B2 PUSH2 0x668 JUMP JUMPDEST JUMPDEST PUSH1 0x20 DUP4 MUL SWAP3 POP PUSH2 0x6C4 DUP4 DUP6 DUP5 PUSH2 0x66C JUMP JUMPDEST DUP3 DUP5 ADD SWAP1 POP SWAP4 SWAP3 POP POP POP JUMP JUMPDEST PUSH0 DUP1 REVERT JUMPDEST PUSH0 DUP1 REVERT JUMPDEST PUSH0 DUP1 REVERT JUMPDEST PUSH0 DUP1 DUP4 CALLDATALOAD PUSH1 0x1 PUSH1 0x20 SUB DUP5 CALLDATASIZE SUB SUB DUP2 SLT PUSH2 0x6F8 JUMPI PUSH2 0x6F7 PUSH2 0x6D8 JUMP JUMPDEST JUMPDEST DUP4 DUP2 ADD SWAP3 POP DUP3 CALLDATALOAD SWAP2 POP PUSH1 0x20 DUP4 ADD SWAP3 POP PUSH8 0xFFFFFFFFFFFFFFFF DUP3 GT ISZERO PUSH2 0x720 JUMPI PUSH2 0x71F PUSH2 0x6D0 JUMP JUMPDEST JUMPDEST PUSH1 0x1 DUP3 MUL CALLDATASIZE SUB DUP4 SGT ISZERO PUSH2 0x736 JUMPI PUSH2 0x735 PUSH2 0x6D4 JUMP JUMPDEST JUMPDEST POP SWAP3 POP SWAP3 SWAP1 POP JUMP JUMPDEST DUP3 DUP2 DUP4 CALLDATACOPY PUSH0 DUP4 DUP4 ADD MSTORE POP POP POP JUMP JUMPDEST PUSH0 PUSH2 0x757 DUP4 DUP6 PUSH2 0x516 JUMP JUMPDEST SWAP4 POP PUSH2 0x764 DUP4 DUP6 DUP5 PUSH2 0x73E JUMP JUMPDEST PUSH2 0x76D DUP4 PUSH2 0x32F JUMP JUMPDEST DUP5 ADD SWAP1 POP SWAP4 SWAP3 POP POP POP JUMP JUMPDEST PUSH0 DUP3 SWAP1 POP SWAP3 SWAP2 POP POP JUMP JUMPDEST PUSH2 0x78E PUSH1 0x40 DUP4 DUP4 PUSH2 0x66C JUMP JUMPDEST POP POP JUMP JUMPDEST PUSH0 PUSH1 0x60 DUP4 ADD PUSH2 0x7A3 PUSH0 DUP5 ADD DUP5 PUSH2 0x6DC JUMP JUMPDEST DUP6 DUP4 SUB PUSH0 DUP8 ADD MSTORE PUSH2 0x7B5 DUP4 DUP3 DUP5 PUSH2 0x74C JUMP JUMPDEST SWAP3 POP POP POP PUSH2 0x7C6 PUSH1 0x20 DUP5 ADD DUP5 PUSH2 0x778 JUMP JUMPDEST PUSH2 0x7D3 PUSH1 0x20 DUP7 ADD DUP3 PUSH2 0x782 JUMP JUMPDEST POP DUP1 SWAP2 POP POP SWAP3 SWAP2 POP POP JUMP JUMPDEST PUSH0 PUSH1 0x80 DUP3 ADD SWAP1 POP PUSH2 0x7F1 PUSH0 DUP4 ADD DUP9 PUSH2 0x437 JUMP JUMPDEST PUSH2 0x7FE PUSH1 0x20 DUP4 ADD DUP8 PUSH2 0x446 JUMP JUMPDEST DUP2 DUP2 SUB PUSH1 0x40 DUP4 ADD MSTORE PUSH2 0x811 DUP2 DUP6 DUP8 PUSH2 0x675 JUMP JUMPDEST SWAP1 POP DUP2 DUP2 SUB PUSH1 0x60 DUP4 ADD MSTORE PUSH2 0x825 DUP2 DUP5 PUSH2 0x792 JUMP JUMPDEST SWAP1 POP SWAP7 SWAP6 POP POP POP POP POP POP JUMP JUMPDEST PUSH0 PUSH2 0x83B DUP3 PUSH2 0x18A JUMP JUMPDEST SWAP1 POP SWAP2 SWAP1 POP JUMP JUMPDEST PUSH2 0x84B DUP2 PUSH2 0x831 JUMP JUMPDEST DUP2 EQ PUSH2 0x855 JUMPI PUSH0 DUP1 REVERT JUMPDEST POP JUMP JUMPDEST PUSH0 DUP2 CALLDATALOAD SWAP1 POP PUSH2 0x866 DUP2 PUSH2 0x842 JUMP JUMPDEST SWAP3 SWAP2 POP POP JUMP JUMPDEST PUSH32 0x4E487B7100000000000000000000000000000000000000000000000000000000 PUSH0 MSTORE PUSH1 0x41 PUSH1 0x4 MSTORE PUSH1 0x24 PUSH0 REVERT JUMPDEST PUSH2 0x8A2 DUP3 PUSH2 0x32F JUMP JUMPDEST DUP2 ADD DUP2 DUP2 LT PUSH8 0xFFFFFFFFFFFFFFFF DUP3 GT OR ISZERO PUSH2 0x8C1 JUMPI PUSH2 0x8C0 PUSH2 0x86C JUMP JUMPDEST JUMPDEST DUP1 PUSH1 0x40 MSTORE POP POP POP JUMP JUMPDEST PUSH0 PUSH2 0x8D3 PUSH2 0x146 JUMP JUMPDEST SWAP1 POP PUSH2 0x8DF DUP3 DUP3 PUSH2 0x899 JUMP JUMPDEST SWAP2 SWAP1 POP JUMP JUMPDEST PUSH0 PUSH8 0xFFFFFFFFFFFFFFFF DUP3 GT ISZERO PUSH2 0x8FE JUMPI PUSH2 0x8FD PUSH2 0x86C JUMP JUMPDEST JUMPDEST PUSH1 0x20 DUP3 MUL SWAP1 POP PUSH1 0x20 DUP2 ADD SWAP1 POP SWAP2 SWAP1 POP JUMP JUMPDEST PUSH0 PUSH2 0x921 PUSH2 0x91C DUP5 PUSH2 0x8E4 JUMP JUMPDEST PUSH2 0x8CA JUMP JUMPDEST SWAP1 POP DUP1 DUP4 DUP3 MSTORE PUSH1 0x20 DUP3 ADD SWAP1 POP PUSH1 0x20 DUP5 MUL DUP4 ADD DUP6 DUP2 GT ISZERO PUSH2 0x944 JUMPI PUSH2 0x943 PUSH2 0x1EC JUMP JUMPDEST JUMPDEST DUP4 JUMPDEST DUP2 DUP2 LT ISZERO PUSH2 0x96D JUMPI DUP1 PUSH2 0x959 DUP9 DUP3 PUSH2 0x176 JUMP JUMPDEST DUP5 MSTORE PUSH1 0x20 DUP5 ADD SWAP4 POP POP PUSH1 0x20 DUP2 ADD SWAP1 POP PUSH2 0x946 JUMP JUMPDEST POP POP POP SWAP4 SWAP3 POP POP POP JUMP JUMPDEST PUSH0 DUP3 PUSH1 0x1F DUP4 ADD SLT PUSH2 0x98B JUMPI PUSH2 0x98A PUSH2 0x1E4 JUMP JUMPDEST JUMPDEST DUP2 CALLDATALOAD PUSH2 0x99B DUP5 DUP3 PUSH1 0x20 DUP7 ADD PUSH2 0x90F JUMP JUMPDEST SWAP2 POP POP SWAP3 SWAP2 POP POP JUMP JUMPDEST PUSH0 DUP1 REVERT JUMPDEST PUSH0 DUP1 REVERT JUMPDEST PUSH0 DUP1 REVERT JUMPDEST PUSH0 PUSH8 0xFFFFFFFFFFFFFFFF DUP3 GT ISZERO PUSH2 0x9CA JUMPI PUSH2 0x9C9 PUSH2 0x86C JUMP JUMPDEST JUMPDEST PUSH2 0x9D3 DUP3 PUSH2 0x32F JUMP JUMPDEST SWAP1 POP PUSH1 0x20 DUP2 ADD SWAP1 POP SWAP2 SWAP1 POP JUMP JUMPDEST PUSH0 PUSH2 0x9F2 PUSH2 0x9ED DUP5 PUSH2 0x9B0 JUMP JUMPDEST PUSH2 0x8CA JUMP JUMPDEST SWAP1 POP DUP3 DUP2 MSTORE PUSH1 0x20 DUP2 ADD DUP5 DUP5 DUP5 ADD GT ISZERO PUSH2 0xA0E JUMPI PUSH2 0xA0D PUSH2 0x9AC JUMP JUMPDEST JUMPDEST PUSH2 0xA19 DUP5 DUP3 DUP6 PUSH2 0x73E JUMP JUMPDEST POP SWAP4 SWAP3 POP POP POP JUMP JUMPDEST PUSH0 DUP3 PUSH1 0x1F DUP4 ADD SLT PUSH2 0xA35 JUMPI PUSH2 0xA34 PUSH2 0x1E4 JUMP JUMPDEST JUMPDEST DUP2 CALLDATALOAD PUSH2 0xA45 DUP5 DUP3 PUSH1 0x20 DUP7 ADD PUSH2 0x9E0 JUMP JUMPDEST SWAP2 POP POP SWAP3 SWAP2 POP POP JUMP JUMPDEST PUSH0 PUSH8 0xFFFFFFFFFFFFFFFF DUP3 GT ISZERO PUSH2 0xA68 JUMPI PUSH2 0xA67 PUSH2 0x86C JUMP JUMPDEST JUMPDEST PUSH1 0x20 DUP3 MUL SWAP1 POP SWAP2 SWAP1 POP JUMP JUMPDEST PUSH0 PUSH2 0xA85 PUSH2 0xA80 DUP5 PUSH2 0xA4E JUMP JUMPDEST PUSH2 0x8CA JUMP JUMPDEST SWAP1 POP DUP1 PUSH1 0x20 DUP5 MUL DUP4 ADD DUP6 DUP2 GT ISZERO PUSH2 0xA9F JUMPI PUSH2 0xA9E PUSH2 0x1EC JUMP JUMPDEST JUMPDEST DUP4 JUMPDEST DUP2 DUP2 LT ISZERO PUSH2 0xAC8 JUMPI DUP1 PUSH2 0xAB4 DUP9 DUP3 PUSH2 0x176 JUMP JUMPDEST DUP5 MSTORE PUSH1 0x20 DUP5 ADD SWAP4 POP POP PUSH1 0x20 DUP2 ADD SWAP1 POP PUSH2 0xAA1 JUMP JUMPDEST POP POP POP SWAP4 SWAP3 POP POP POP JUMP JUMPDEST PUSH0 DUP3 PUSH1 0x1F DUP4 ADD SLT PUSH2 0xAE6 JUMPI PUSH2 0xAE5 PUSH2 0x1E4 JUMP JUMPDEST JUMPDEST PUSH1 0x2 PUSH2 0xAF3 DUP5 DUP3 DUP6 PUSH2 0xA73 JUMP JUMPDEST SWAP2 POP POP SWAP3 SWAP2 POP POP JUMP JUMPDEST PUSH0 PUSH1 0x60 DUP3 DUP5 SUB SLT ISZERO PUSH2 0xB11 JUMPI PUSH2 0xB10 PUSH2 0x9A4 JUMP JUMPDEST JUMPDEST PUSH2 0xB1B PUSH1 0x40 PUSH2 0x8CA JUMP JUMPDEST SWAP1 POP PUSH0 DUP3 ADD CALLDATALOAD PUSH8 0xFFFFFFFFFFFFFFFF DUP2 GT ISZERO PUSH2 0xB3A JUMPI PUSH2 0xB39 PUSH2 0x9A8 JUMP JUMPDEST JUMPDEST PUSH2 0xB46 DUP5 DUP3 DUP6 ADD PUSH2 0xA21 JUMP JUMPDEST PUSH0 DUP4 ADD MSTORE POP PUSH1 0x20 PUSH2 0xB59 DUP5 DUP3 DUP6 ADD PUSH2 0xAD2 JUMP JUMPDEST PUSH1 0x20 DUP4 ADD MSTORE POP SWAP3 SWAP2 POP POP JUMP JUMPDEST PUSH0 DUP1 PUSH0 DUP1 PUSH1 0x80 DUP6 DUP8 SUB SLT ISZERO PUSH2 0xB7D JUMPI PUSH2 0xB7C PUSH2 0x14F JUMP JUMPDEST JUMPDEST PUSH0 PUSH2 0xB8A DUP8 DUP3 DUP9 ADD PUSH2 0x176 JUMP JUMPDEST SWAP5 POP POP PUSH1 0x20 PUSH2 0xB9B DUP8 DUP3 DUP9 ADD PUSH2 0x858 JUMP JUMPDEST SWAP4 POP POP PUSH1 0x40 DUP6 ADD CALLDATALOAD PUSH8 0xFFFFFFFFFFFFFFFF DUP2 GT ISZERO PUSH2 0xBBC JUMPI PUSH2 0xBBB PUSH2 0x153 JUMP JUMPDEST JUMPDEST PUSH2 0xBC8 DUP8 DUP3 DUP9 ADD PUSH2 0x977 JUMP JUMPDEST SWAP3 POP POP PUSH1 0x60 DUP6 ADD CALLDATALOAD PUSH8 0xFFFFFFFFFFFFFFFF DUP2 GT ISZERO PUSH2 0xBE9 JUMPI PUSH2 0xBE8 PUSH2 0x153 JUMP JUMPDEST JUMPDEST PUSH2 0xBF5 DUP8 DUP3 DUP9 ADD PUSH2 0xAFC JUMP JUMPDEST SWAP2 POP POP SWAP3 SWAP6 SWAP2 SWAP5 POP SWAP3 POP JUMP INVALID LOG2 PUSH5 0x6970667358 0x22 SLT KECCAK256 PUSH23 0x3567FAB53AEED3215CCEEC968ABF626AFC19E6170C9D2F 0x4B LOG0 0xB4 0x26 0xDF EXTCODEHASH EXTCODEHASH PUSH9 0x64736F6C634300081A STOP CALLER "
				},
				"gasEstimates": {
					"creation": {
						"codeDepositCost": "625400",
						"executionCost": "655",
						"totalCost": "626055"
					},
					"external": {
						"decode(bytes)": "infinite",
						"encode(uint256,address,uint256[],(string,uint256[2]))": "infinite"
					}
				},
				"methodIdentifiers": {
					"decode(bytes)": "e5c5e9a3",
					"encode(uint256,address,uint256[],(string,uint256[2]))": "7049e087"
				}
			},
			"storageLayout": {
				"storage": [],
				"types": null
			},
			"userdoc": {
				"kind": "user",
				"methods": {},
				"version": 1
			}
		}
	}
}