{
	"payable.sol": {
		"Payable": {
			"abi": [
				{
					"inputs": [],
					"stateMutability": "payable",
					"type": "constructor"
				},
				{
					"inputs": [],
					"name": "deposit",
					"outputs": [],
					"stateMutability": "payable",
					"type": "function"
				},
				{
					"inputs": [],
					"name": "nonPayable",
					"outputs": [],
					"stateMutability": "nonpayable",
					"type": "function"
				},
				{
					"inputs": [],
					"name": "owner",
					"outputs": [
						{
							"internalType": "address payable",
							"name": "",
							"type": "address"
						}
					],
					"stateMutability": "view",
					"type": "function"
				},
				{
					"inputs": [
						{
							"internalType": "address payable",
							"name": "_to",
							"type": "address"
						},
						{
							"internalType": "uint256",
							"name": "_amount",
							"type": "uint256"
						}
					],
					"name": "transfer",
					"outputs": [],
					"stateMutability": "nonpayable",
					"type": "function"
				},
				{
					"inputs": [],
					"name": "withdraw",
					"outputs": [],
					"stateMutability": "nonpayable",
					"type": "function"
				}
			],
			"devdoc": {
				"kind": "dev",
				"methods": {},
				"version": 1
			},
			"evm": {
				"assembly": "    /* \"payable.sol\":61:1348  contract Payable{... */\n  mstore(0x40, 0x80)\n    /* \"payable.sol\":253:263  msg.sender */\n  caller\n    /* \"payable.sol\":237:242  owner */\n  0x00\n  dup1\n    /* \"payable.sol\":237:264  owner = payable(msg.sender) */\n  0x0100\n  exp\n  dup2\n  sload\n  dup2\n  0xffffffffffffffffffffffffffffffffffffffff\n  mul\n  not\n  and\n  swap1\n  dup4\n  0xffffffffffffffffffffffffffffffffffffffff\n  and\n  mul\n  or\n  swap1\n  sstore\n  pop\n    /* \"payable.sol\":61:1348  contract Payable{... */\n  dataSize(sub_0)\n  dup1\n  dataOffset(sub_0)\n  0x00\n  codecopy\n  0x00\n  return\nstop\n\nsub_0: assembly {\n        /* \"payable.sol\":61:1348  contract Payable{... */\n      mstore(0x40, 0x80)\n      jumpi(tag_1, lt(calldatasize, 0x04))\n      shr(0xe0, calldataload(0x00))\n      dup1\n      0x3ccfd60b\n      eq\n      tag_2\n      jumpi\n      dup1\n      0x52da86d5\n      eq\n      tag_3\n      jumpi\n      dup1\n      0x8da5cb5b\n      eq\n      tag_4\n      jumpi\n      dup1\n      0xa9059cbb\n      eq\n      tag_5\n      jumpi\n      dup1\n      0xd0e30db0\n      eq\n      tag_6\n      jumpi\n    tag_1:\n      0x00\n      dup1\n      revert\n        /* \"payable.sol\":702:1048  function withdraw() public {... */\n    tag_2:\n      callvalue\n      dup1\n      iszero\n      tag_7\n      jumpi\n      0x00\n      dup1\n      revert\n    tag_7:\n      pop\n      tag_8\n      tag_9\n      jump\t// in\n    tag_8:\n      stop\n        /* \"payable.sol\":606:638  function nonPayable () public {} */\n    tag_3:\n      callvalue\n      dup1\n      iszero\n      tag_10\n      jumpi\n      0x00\n      dup1\n      revert\n    tag_10:\n      pop\n      tag_11\n      tag_12\n      jump\t// in\n    tag_11:\n      stop\n        /* \"payable.sol\":126:154  address payable public owner */\n    tag_4:\n      callvalue\n      dup1\n      iszero\n      tag_13\n      jumpi\n      0x00\n      dup1\n      revert\n    tag_13:\n      pop\n      tag_14\n      tag_15\n      jump\t// in\n    tag_14:\n      mload(0x40)\n      tag_16\n      swap2\n      swap1\n      tag_17\n      jump\t// in\n    tag_16:\n      mload(0x40)\n      dup1\n      swap2\n      sub\n      swap1\n      return\n        /* \"payable.sol\":1127:1345  function transfer(address payable _to, uint _amount) public {... */\n    tag_5:\n      callvalue\n      dup1\n      iszero\n      tag_18\n      jumpi\n      0x00\n      dup1\n      revert\n    tag_18:\n      pop\n      tag_19\n      0x04\n      dup1\n      calldatasize\n      sub\n      dup2\n      add\n      swap1\n      tag_20\n      swap2\n      swap1\n      tag_21\n      jump\t// in\n    tag_20:\n      tag_22\n      jump\t// in\n    tag_19:\n      stop\n        /* \"payable.sol\":444:480  function deposit() public payable {} */\n    tag_6:\n      tag_23\n      tag_24\n      jump\t// in\n    tag_23:\n      stop\n        /* \"payable.sol\":702:1048  function withdraw() public {... */\n    tag_9:\n        /* \"payable.sol\":792:803  uint amount */\n      0x00\n        /* \"payable.sol\":806:827  address(this).balance */\n      selfbalance\n        /* \"payable.sol\":792:827  uint amount = address(this).balance */\n      swap1\n      pop\n        /* \"payable.sol\":947:959  bool success */\n      0x00\n        /* \"payable.sol\":964:969  owner */\n      dup1\n      0x00\n      swap1\n      sload\n      swap1\n      0x0100\n      exp\n      swap1\n      div\n      0xffffffffffffffffffffffffffffffffffffffff\n      and\n        /* \"payable.sol\":964:974  owner.call */\n      0xffffffffffffffffffffffffffffffffffffffff\n      and\n        /* \"payable.sol\":982:988  amount */\n      dup3\n        /* \"payable.sol\":964:993  owner.call{value: amount}(\"\") */\n      mload(0x40)\n      tag_26\n      swap1\n      tag_27\n      jump\t// in\n    tag_26:\n      0x00\n      mload(0x40)\n      dup1\n      dup4\n      sub\n      dup2\n      dup6\n      dup8\n      gas\n      call\n      swap3\n      pop\n      pop\n      pop\n      returndatasize\n      dup1\n      0x00\n      dup2\n      eq\n      tag_30\n      jumpi\n      mload(0x40)\n      swap2\n      pop\n      and(add(returndatasize, 0x3f), not(0x1f))\n      dup3\n      add\n      0x40\n      mstore\n      returndatasize\n      dup3\n      mstore\n      returndatasize\n      0x00\n      0x20\n      dup5\n      add\n      returndatacopy\n      jump(tag_29)\n    tag_30:\n      0x60\n      swap2\n      pop\n    tag_29:\n      pop\n        /* \"payable.sol\":946:993  (bool success,) = owner.call{value: amount}(\"\") */\n      pop\n      swap1\n      pop\n        /* \"payable.sol\":1008:1015  success */\n      dup1\n        /* \"payable.sol\":1000:1040  require(success, \"Failed to send Ether\") */\n      tag_31\n      jumpi\n      mload(0x40)\n      0x08c379a000000000000000000000000000000000000000000000000000000000\n      dup2\n      mstore\n      0x04\n      add\n      tag_32\n      swap1\n      tag_33\n      jump\t// in\n    tag_32:\n      mload(0x40)\n      dup1\n      swap2\n      sub\n      swap1\n      revert\n    tag_31:\n        /* \"payable.sol\":729:1048  {... */\n      pop\n      pop\n        /* \"payable.sol\":702:1048  function withdraw() public {... */\n      jump\t// out\n        /* \"payable.sol\":606:638  function nonPayable () public {} */\n    tag_12:\n      jump\t// out\n        /* \"payable.sol\":126:154  address payable public owner */\n    tag_15:\n      0x00\n      dup1\n      sload\n      swap1\n      0x0100\n      exp\n      swap1\n      div\n      0xffffffffffffffffffffffffffffffffffffffff\n      and\n      dup2\n      jump\t// out\n        /* \"payable.sol\":1127:1345  function transfer(address payable _to, uint _amount) public {... */\n    tag_22:\n        /* \"payable.sol\":1244:1256  bool success */\n      0x00\n        /* \"payable.sol\":1262:1265  _to */\n      dup3\n        /* \"payable.sol\":1262:1270  _to.call */\n      0xffffffffffffffffffffffffffffffffffffffff\n      and\n        /* \"payable.sol\":1278:1285  _amount */\n      dup3\n        /* \"payable.sol\":1262:1291  _to.call{value: _amount} (\"\") */\n      mload(0x40)\n      tag_36\n      swap1\n      tag_27\n      jump\t// in\n    tag_36:\n      0x00\n      mload(0x40)\n      dup1\n      dup4\n      sub\n      dup2\n      dup6\n      dup8\n      gas\n      call\n      swap3\n      pop\n      pop\n      pop\n      returndatasize\n      dup1\n      0x00\n      dup2\n      eq\n      tag_39\n      jumpi\n      mload(0x40)\n      swap2\n      pop\n      and(add(returndatasize, 0x3f), not(0x1f))\n      dup3\n      add\n      0x40\n      mstore\n      returndatasize\n      dup3\n      mstore\n      returndatasize\n      0x00\n      0x20\n      dup5\n      add\n      returndatacopy\n      jump(tag_38)\n    tag_39:\n      0x60\n      swap2\n      pop\n    tag_38:\n      pop\n        /* \"payable.sol\":1243:1291  (bool success, ) = _to.call{value: _amount} (\"\") */\n      pop\n      swap1\n      pop\n        /* \"payable.sol\":1306:1313  success */\n      dup1\n        /* \"payable.sol\":1298:1338  require(success, \"failed to send Ether\") */\n      tag_40\n      jumpi\n      mload(0x40)\n      0x08c379a000000000000000000000000000000000000000000000000000000000\n      dup2\n      mstore\n      0x04\n      add\n      tag_41\n      swap1\n      tag_42\n      jump\t// in\n    tag_41:\n      mload(0x40)\n      dup1\n      swap2\n      sub\n      swap1\n      revert\n    tag_40:\n        /* \"payable.sol\":1187:1345  {... */\n      pop\n        /* \"payable.sol\":1127:1345  function transfer(address payable _to, uint _amount) public {... */\n      pop\n      pop\n      jump\t// out\n        /* \"payable.sol\":444:480  function deposit() public payable {} */\n    tag_24:\n      jump\t// out\n        /* \"#utility.yul\":7:133   */\n    tag_44:\n        /* \"#utility.yul\":44:51   */\n      0x00\n        /* \"#utility.yul\":84:126   */\n      0xffffffffffffffffffffffffffffffffffffffff\n        /* \"#utility.yul\":77:82   */\n      dup3\n        /* \"#utility.yul\":73:127   */\n      and\n        /* \"#utility.yul\":62:127   */\n      swap1\n      pop\n        /* \"#utility.yul\":7:133   */\n      swap2\n      swap1\n      pop\n      jump\t// out\n        /* \"#utility.yul\":139:243   */\n    tag_45:\n        /* \"#utility.yul\":184:191   */\n      0x00\n        /* \"#utility.yul\":213:237   */\n      tag_66\n        /* \"#utility.yul\":231:236   */\n      dup3\n        /* \"#utility.yul\":213:237   */\n      tag_44\n      jump\t// in\n    tag_66:\n        /* \"#utility.yul\":202:237   */\n      swap1\n      pop\n        /* \"#utility.yul\":139:243   */\n      swap2\n      swap1\n      pop\n      jump\t// out\n        /* \"#utility.yul\":249:391   */\n    tag_46:\n        /* \"#utility.yul\":352:384   */\n      tag_68\n        /* \"#utility.yul\":378:383   */\n      dup2\n        /* \"#utility.yul\":352:384   */\n      tag_45\n      jump\t// in\n    tag_68:\n        /* \"#utility.yul\":347:350   */\n      dup3\n        /* \"#utility.yul\":340:385   */\n      mstore\n        /* \"#utility.yul\":249:391   */\n      pop\n      pop\n      jump\t// out\n        /* \"#utility.yul\":397:651   */\n    tag_17:\n        /* \"#utility.yul\":506:510   */\n      0x00\n        /* \"#utility.yul\":544:546   */\n      0x20\n        /* \"#utility.yul\":533:542   */\n      dup3\n        /* \"#utility.yul\":529:547   */\n      add\n        /* \"#utility.yul\":521:547   */\n      swap1\n      pop\n        /* \"#utility.yul\":557:644   */\n      tag_70\n        /* \"#utility.yul\":641:642   */\n      0x00\n        /* \"#utility.yul\":630:639   */\n      dup4\n        /* \"#utility.yul\":626:643   */\n      add\n        /* \"#utility.yul\":617:623   */\n      dup5\n        /* \"#utility.yul\":557:644   */\n      tag_46\n      jump\t// in\n    tag_70:\n        /* \"#utility.yul\":397:651   */\n      swap3\n      swap2\n      pop\n      pop\n      jump\t// out\n        /* \"#utility.yul\":738:855   */\n    tag_48:\n        /* \"#utility.yul\":847:848   */\n      0x00\n        /* \"#utility.yul\":844:845   */\n      dup1\n        /* \"#utility.yul\":837:849   */\n      revert\n        /* \"#utility.yul\":984:1122   */\n    tag_50:\n        /* \"#utility.yul\":1065:1097   */\n      tag_75\n        /* \"#utility.yul\":1091:1096   */\n      dup2\n        /* \"#utility.yul\":1065:1097   */\n      tag_45\n      jump\t// in\n    tag_75:\n        /* \"#utility.yul\":1058:1063   */\n      dup2\n        /* \"#utility.yul\":1055:1098   */\n      eq\n        /* \"#utility.yul\":1045:1116   */\n      tag_76\n      jumpi\n        /* \"#utility.yul\":1112:1113   */\n      0x00\n        /* \"#utility.yul\":1109:1110   */\n      dup1\n        /* \"#utility.yul\":1102:1114   */\n      revert\n        /* \"#utility.yul\":1045:1116   */\n    tag_76:\n        /* \"#utility.yul\":984:1122   */\n      pop\n      jump\t// out\n        /* \"#utility.yul\":1128:1283   */\n    tag_51:\n        /* \"#utility.yul\":1182:1187   */\n      0x00\n        /* \"#utility.yul\":1220:1226   */\n      dup2\n        /* \"#utility.yul\":1207:1227   */\n      calldataload\n        /* \"#utility.yul\":1198:1227   */\n      swap1\n      pop\n        /* \"#utility.yul\":1236:1277   */\n      tag_78\n        /* \"#utility.yul\":1271:1276   */\n      dup2\n        /* \"#utility.yul\":1236:1277   */\n      tag_50\n      jump\t// in\n    tag_78:\n        /* \"#utility.yul\":1128:1283   */\n      swap3\n      swap2\n      pop\n      pop\n      jump\t// out\n        /* \"#utility.yul\":1289:1366   */\n    tag_52:\n        /* \"#utility.yul\":1326:1333   */\n      0x00\n        /* \"#utility.yul\":1355:1360   */\n      dup2\n        /* \"#utility.yul\":1344:1360   */\n      swap1\n      pop\n        /* \"#utility.yul\":1289:1366   */\n      swap2\n      swap1\n      pop\n      jump\t// out\n        /* \"#utility.yul\":1372:1494   */\n    tag_53:\n        /* \"#utility.yul\":1445:1469   */\n      tag_81\n        /* \"#utility.yul\":1463:1468   */\n      dup2\n        /* \"#utility.yul\":1445:1469   */\n      tag_52\n      jump\t// in\n    tag_81:\n        /* \"#utility.yul\":1438:1443   */\n      dup2\n        /* \"#utility.yul\":1435:1470   */\n      eq\n        /* \"#utility.yul\":1425:1488   */\n      tag_82\n      jumpi\n        /* \"#utility.yul\":1484:1485   */\n      0x00\n        /* \"#utility.yul\":1481:1482   */\n      dup1\n        /* \"#utility.yul\":1474:1486   */\n      revert\n        /* \"#utility.yul\":1425:1488   */\n    tag_82:\n        /* \"#utility.yul\":1372:1494   */\n      pop\n      jump\t// out\n        /* \"#utility.yul\":1500:1639   */\n    tag_54:\n        /* \"#utility.yul\":1546:1551   */\n      0x00\n        /* \"#utility.yul\":1584:1590   */\n      dup2\n        /* \"#utility.yul\":1571:1591   */\n      calldataload\n        /* \"#utility.yul\":1562:1591   */\n      swap1\n      pop\n        /* \"#utility.yul\":1600:1633   */\n      tag_84\n        /* \"#utility.yul\":1627:1632   */\n      dup2\n        /* \"#utility.yul\":1600:1633   */\n      tag_53\n      jump\t// in\n    tag_84:\n        /* \"#utility.yul\":1500:1639   */\n      swap3\n      swap2\n      pop\n      pop\n      jump\t// out\n        /* \"#utility.yul\":1645:2135   */\n    tag_21:\n        /* \"#utility.yul\":1721:1727   */\n      0x00\n        /* \"#utility.yul\":1729:1735   */\n      dup1\n        /* \"#utility.yul\":1778:1780   */\n      0x40\n        /* \"#utility.yul\":1766:1775   */\n      dup4\n        /* \"#utility.yul\":1757:1764   */\n      dup6\n        /* \"#utility.yul\":1753:1776   */\n      sub\n        /* \"#utility.yul\":1749:1781   */\n      slt\n        /* \"#utility.yul\":1746:1865   */\n      iszero\n      tag_86\n      jumpi\n        /* \"#utility.yul\":1784:1863   */\n      tag_87\n      tag_48\n      jump\t// in\n    tag_87:\n        /* \"#utility.yul\":1746:1865   */\n    tag_86:\n        /* \"#utility.yul\":1904:1905   */\n      0x00\n        /* \"#utility.yul\":1929:1990   */\n      tag_88\n        /* \"#utility.yul\":1982:1989   */\n      dup6\n        /* \"#utility.yul\":1973:1979   */\n      dup3\n        /* \"#utility.yul\":1962:1971   */\n      dup7\n        /* \"#utility.yul\":1958:1980   */\n      add\n        /* \"#utility.yul\":1929:1990   */\n      tag_51\n      jump\t// in\n    tag_88:\n        /* \"#utility.yul\":1919:1990   */\n      swap3\n      pop\n        /* \"#utility.yul\":1875:2000   */\n      pop\n        /* \"#utility.yul\":2039:2041   */\n      0x20\n        /* \"#utility.yul\":2065:2118   */\n      tag_89\n        /* \"#utility.yul\":2110:2117   */\n      dup6\n        /* \"#utility.yul\":2101:2107   */\n      dup3\n        /* \"#utility.yul\":2090:2099   */\n      dup7\n        /* \"#utility.yul\":2086:2108   */\n      add\n        /* \"#utility.yul\":2065:2118   */\n      tag_54\n      jump\t// in\n    tag_89:\n        /* \"#utility.yul\":2055:2118   */\n      swap2\n      pop\n        /* \"#utility.yul\":2010:2128   */\n      pop\n        /* \"#utility.yul\":1645:2135   */\n      swap3\n      pop\n      swap3\n      swap1\n      pop\n      jump\t// out\n        /* \"#utility.yul\":2141:2288   */\n    tag_55:\n        /* \"#utility.yul\":2242:2253   */\n      0x00\n        /* \"#utility.yul\":2279:2282   */\n      dup2\n        /* \"#utility.yul\":2264:2282   */\n      swap1\n      pop\n        /* \"#utility.yul\":2141:2288   */\n      swap3\n      swap2\n      pop\n      pop\n      jump\t// out\n        /* \"#utility.yul\":2294:2408   */\n    tag_56:\n      pop\n      jump\t// out\n        /* \"#utility.yul\":2414:2812   */\n    tag_57:\n        /* \"#utility.yul\":2573:2576   */\n      0x00\n        /* \"#utility.yul\":2594:2677   */\n      tag_93\n        /* \"#utility.yul\":2675:2676   */\n      0x00\n        /* \"#utility.yul\":2670:2673   */\n      dup4\n        /* \"#utility.yul\":2594:2677   */\n      tag_55\n      jump\t// in\n    tag_93:\n        /* \"#utility.yul\":2587:2677   */\n      swap2\n      pop\n        /* \"#utility.yul\":2686:2779   */\n      tag_94\n        /* \"#utility.yul\":2775:2778   */\n      dup3\n        /* \"#utility.yul\":2686:2779   */\n      tag_56\n      jump\t// in\n    tag_94:\n        /* \"#utility.yul\":2804:2805   */\n      0x00\n        /* \"#utility.yul\":2799:2802   */\n      dup3\n        /* \"#utility.yul\":2795:2806   */\n      add\n        /* \"#utility.yul\":2788:2806   */\n      swap1\n      pop\n        /* \"#utility.yul\":2414:2812   */\n      swap2\n      swap1\n      pop\n      jump\t// out\n        /* \"#utility.yul\":2818:3197   */\n    tag_27:\n        /* \"#utility.yul\":3002:3005   */\n      0x00\n        /* \"#utility.yul\":3024:3171   */\n      tag_96\n        /* \"#utility.yul\":3167:3170   */\n      dup3\n        /* \"#utility.yul\":3024:3171   */\n      tag_57\n      jump\t// in\n    tag_96:\n        /* \"#utility.yul\":3017:3171   */\n      swap2\n      pop\n        /* \"#utility.yul\":3188:3191   */\n      dup2\n        /* \"#utility.yul\":3181:3191   */\n      swap1\n      pop\n        /* \"#utility.yul\":2818:3197   */\n      swap2\n      swap1\n      pop\n      jump\t// out\n        /* \"#utility.yul\":3203:3372   */\n    tag_58:\n        /* \"#utility.yul\":3287:3298   */\n      0x00\n        /* \"#utility.yul\":3321:3327   */\n      dup3\n        /* \"#utility.yul\":3316:3319   */\n      dup3\n        /* \"#utility.yul\":3309:3328   */\n      mstore\n        /* \"#utility.yul\":3361:3365   */\n      0x20\n        /* \"#utility.yul\":3356:3359   */\n      dup3\n        /* \"#utility.yul\":3352:3366   */\n      add\n        /* \"#utility.yul\":3337:3366   */\n      swap1\n      pop\n        /* \"#utility.yul\":3203:3372   */\n      swap3\n      swap2\n      pop\n      pop\n      jump\t// out\n        /* \"#utility.yul\":3378:3548   */\n    tag_59:\n        /* \"#utility.yul\":3518:3540   */\n      0x4661696c656420746f2073656e64204574686572000000000000000000000000\n        /* \"#utility.yul\":3514:3515   */\n      0x00\n        /* \"#utility.yul\":3506:3512   */\n      dup3\n        /* \"#utility.yul\":3502:3516   */\n      add\n        /* \"#utility.yul\":3495:3541   */\n      mstore\n        /* \"#utility.yul\":3378:3548   */\n      pop\n      jump\t// out\n        /* \"#utility.yul\":3554:3920   */\n    tag_60:\n        /* \"#utility.yul\":3696:3699   */\n      0x00\n        /* \"#utility.yul\":3717:3784   */\n      tag_100\n        /* \"#utility.yul\":3781:3783   */\n      0x14\n        /* \"#utility.yul\":3776:3779   */\n      dup4\n        /* \"#utility.yul\":3717:3784   */\n      tag_58\n      jump\t// in\n    tag_100:\n        /* \"#utility.yul\":3710:3784   */\n      swap2\n      pop\n        /* \"#utility.yul\":3793:3886   */\n      tag_101\n        /* \"#utility.yul\":3882:3885   */\n      dup3\n        /* \"#utility.yul\":3793:3886   */\n      tag_59\n      jump\t// in\n    tag_101:\n        /* \"#utility.yul\":3911:3913   */\n      0x20\n        /* \"#utility.yul\":3906:3909   */\n      dup3\n        /* \"#utility.yul\":3902:3914   */\n      add\n        /* \"#utility.yul\":3895:3914   */\n      swap1\n      pop\n        /* \"#utility.yul\":3554:3920   */\n      swap2\n      swap1\n      pop\n      jump\t// out\n        /* \"#utility.yul\":3926:4345   */\n    tag_33:\n        /* \"#utility.yul\":4092:4096   */\n      0x00\n        /* \"#utility.yul\":4130:4132   */\n      0x20\n        /* \"#utility.yul\":4119:4128   */\n      dup3\n        /* \"#utility.yul\":4115:4133   */\n      add\n        /* \"#utility.yul\":4107:4133   */\n      swap1\n      pop\n        /* \"#utility.yul\":4179:4188   */\n      dup2\n        /* \"#utility.yul\":4173:4177   */\n      dup2\n        /* \"#utility.yul\":4169:4189   */\n      sub\n        /* \"#utility.yul\":4165:4166   */\n      0x00\n        /* \"#utility.yul\":4154:4163   */\n      dup4\n        /* \"#utility.yul\":4150:4167   */\n      add\n        /* \"#utility.yul\":4143:4190   */\n      mstore\n        /* \"#utility.yul\":4207:4338   */\n      tag_103\n        /* \"#utility.yul\":4333:4337   */\n      dup2\n        /* \"#utility.yul\":4207:4338   */\n      tag_60\n      jump\t// in\n    tag_103:\n        /* \"#utility.yul\":4199:4338   */\n      swap1\n      pop\n        /* \"#utility.yul\":3926:4345   */\n      swap2\n      swap1\n      pop\n      jump\t// out\n        /* \"#utility.yul\":4351:4521   */\n    tag_61:\n        /* \"#utility.yul\":4491:4513   */\n      0x6661696c656420746f2073656e64204574686572000000000000000000000000\n        /* \"#utility.yul\":4487:4488   */\n      0x00\n        /* \"#utility.yul\":4479:4485   */\n      dup3\n        /* \"#utility.yul\":4475:4489   */\n      add\n        /* \"#utility.yul\":4468:4514   */\n      mstore\n        /* \"#utility.yul\":4351:4521   */\n      pop\n      jump\t// out\n        /* \"#utility.yul\":4527:4893   */\n    tag_62:\n        /* \"#utility.yul\":4669:4672   */\n      0x00\n        /* \"#utility.yul\":4690:4757   */\n      tag_106\n        /* \"#utility.yul\":4754:4756   */\n      0x14\n        /* \"#utility.yul\":4749:4752   */\n      dup4\n        /* \"#utility.yul\":4690:4757   */\n      tag_58\n      jump\t// in\n    tag_106:\n        /* \"#utility.yul\":4683:4757   */\n      swap2\n      pop\n        /* \"#utility.yul\":4766:4859   */\n      tag_107\n        /* \"#utility.yul\":4855:4858   */\n      dup3\n        /* \"#utility.yul\":4766:4859   */\n      tag_61\n      jump\t// in\n    tag_107:\n        /* \"#utility.yul\":4884:4886   */\n      0x20\n        /* \"#utility.yul\":4879:4882   */\n      dup3\n        /* \"#utility.yul\":4875:4887   */\n      add\n        /* \"#utility.yul\":4868:4887   */\n      swap1\n      pop\n        /* \"#utility.yul\":4527:4893   */\n      swap2\n      swap1\n      pop\n      jump\t// out\n        /* \"#utility.yul\":4899:5318   */\n    tag_42:\n        /* \"#utility.yul\":5065:5069   */\n      0x00\n        /* \"#utility.yul\":5103:5105   */\n      0x20\n        /* \"#utility.yul\":5092:5101   */\n      dup3\n        /* \"#utility.yul\":5088:5106   */\n      add\n        /* \"#utility.yul\":5080:5106   */\n      swap1\n      pop\n        /* \"#utility.yul\":5152:5161   */\n      dup2\n        /* \"#utility.yul\":5146:5150   */\n      dup2\n        /* \"#utility.yul\":5142:5162   */\n      sub\n        /* \"#utility.yul\":5138:5139   */\n      0x00\n        /* \"#utility.yul\":5127:5136   */\n      dup4\n        /* \"#utility.yul\":5123:5140   */\n      add\n        /* \"#utility.yul\":5116:5163   */\n      mstore\n        /* \"#utility.yul\":5180:5311   */\n      tag_109\n        /* \"#utility.yul\":5306:5310   */\n      dup2\n        /* \"#utility.yul\":5180:5311   */\n      tag_62\n      jump\t// in\n    tag_109:\n        /* \"#utility.yul\":5172:5311   */\n      swap1\n      pop\n        /* \"#utility.yul\":4899:5318   */\n      swap2\n      swap1\n      pop\n      jump\t// out\n\n    auxdata: 0xa2646970667358221220b521df912fab55fdb1a18f1dd4313499e0205e37f98d7fcdf90f818f6e79ef7e64736f6c634300081a0033\n}\n",
				"bytecode": {
					"linkReferences": {},
					"object": "6080604052335f806101000a81548173ffffffffffffffffffffffffffffffffffffffff021916908373ffffffffffffffffffffffffffffffffffffffff1602179055506104c7806100505f395ff3fe608060405260043610610049575f3560e01c80633ccfd60b1461004d57806352da86d5146100635780638da5cb5b14610079578063a9059cbb146100a3578063d0e30db0146100cb575b5f80fd5b348015610058575f80fd5b506100616100d5565b005b34801561006e575f80fd5b506100776101a5565b005b348015610084575f80fd5b5061008d6101a7565b60405161009a91906102b8565b60405180910390f35b3480156100ae575f80fd5b506100c960048036038101906100c49190610332565b6101ca565b005b6100d3610277565b005b5f4790505f805f9054906101000a900473ffffffffffffffffffffffffffffffffffffffff1673ffffffffffffffffffffffffffffffffffffffff168260405161011e9061039d565b5f6040518083038185875af1925050503d805f8114610158576040519150601f19603f3d011682016040523d82523d5f602084013e61015d565b606091505b50509050806101a1576040517f08c379a00000000000000000000000000000000000000000000000000000000081526004016101989061040b565b60405180910390fd5b5050565b565b5f8054906101000a900473ffffffffffffffffffffffffffffffffffffffff1681565b5f8273ffffffffffffffffffffffffffffffffffffffff16826040516101ef9061039d565b5f6040518083038185875af1925050503d805f8114610229576040519150601f19603f3d011682016040523d82523d5f602084013e61022e565b606091505b5050905080610272576040517f08c379a000000000000000000000000000000000000000000000000000000000815260040161026990610473565b60405180910390fd5b505050565b565b5f73ffffffffffffffffffffffffffffffffffffffff82169050919050565b5f6102a282610279565b9050919050565b6102b281610298565b82525050565b5f6020820190506102cb5f8301846102a9565b92915050565b5f80fd5b6102de81610298565b81146102e8575f80fd5b50565b5f813590506102f9816102d5565b92915050565b5f819050919050565b610311816102ff565b811461031b575f80fd5b50565b5f8135905061032c81610308565b92915050565b5f8060408385031215610348576103476102d1565b5b5f610355858286016102eb565b92505060206103668582860161031e565b9150509250929050565b5f81905092915050565b50565b5f6103885f83610370565b91506103938261037a565b5f82019050919050565b5f6103a78261037d565b9150819050919050565b5f82825260208201905092915050565b7f4661696c656420746f2073656e642045746865720000000000000000000000005f82015250565b5f6103f56014836103b1565b9150610400826103c1565b602082019050919050565b5f6020820190508181035f830152610422816103e9565b9050919050565b7f6661696c656420746f2073656e642045746865720000000000000000000000005f82015250565b5f61045d6014836103b1565b915061046882610429565b602082019050919050565b5f6020820190508181035f83015261048a81610451565b905091905056fea2646970667358221220b521df912fab55fdb1a18f1dd4313499e0205e37f98d7fcdf90f818f6e79ef7e64736f6c634300081a0033",
					"opcodes": "PUSH1 0x80 PUSH1 0x40 MSTORE CALLER PUSH0 DUP1 PUSH2 0x100 EXP DUP2 SLOAD DUP2 PUSH20 0xFFFFFFFFFFFFFFFFFFFFFFFFFFFFFFFFFFFFFFFF MUL NOT AND SWAP1 DUP4 PUSH20 0xFFFFFFFFFFFFFFFFFFFFFFFFFFFFFFFFFFFFFFFF AND MUL OR SWAP1 SSTORE POP PUSH2 0x4C7 DUP1 PUSH2 0x50 PUSH0 CODECOPY PUSH0 RETURN INVALID PUSH1 0x80 PUSH1 0x40 MSTORE PUSH1 0x4 CALLDATASIZE LT PUSH2 0x49 JUMPI PUSH0 CALLDATALOAD PUSH1 0xE0 SHR DUP1 PUSH4 0x3CCFD60B EQ PUSH2 0x4D JUMPI DUP1 PUSH4 0x52DA86D5 EQ PUSH2 0x63 JUMPI DUP1 PUSH4 0x8DA5CB5B EQ PUSH2 0x79 JUMPI DUP1 PUSH4 0xA9059CBB EQ PUSH2 0xA3 JUMPI DUP1 PUSH4 0xD0E30DB0 EQ PUSH2 0xCB JUMPI JUMPDEST PUSH0 DUP1 REVERT JUMPDEST CALLVALUE DUP1 ISZERO PUSH2 0x58 JUMPI PUSH0 DUP1 REVERT JUMPDEST POP PUSH2 0x61 PUSH2 0xD5 JUMP JUMPDEST STOP JUMPDEST CALLVALUE DUP1 ISZERO PUSH2 0x6E JUMPI PUSH0 DUP1 REVERT JUMPDEST POP PUSH2 0x77 PUSH2 0x1A5 JUMP JUMPDEST STOP JUMPDEST CALLVALUE DUP1 ISZERO PUSH2 0x84 JUMPI PUSH0 DUP1 REVERT JUMPDEST POP PUSH2 0x8D PUSH2 0x1A7 JUMP JUMPDEST PUSH1 0x40 MLOAD PUSH2 0x9A SWAP2 SWAP1 PUSH2 0x2B8 JUMP JUMPDEST PUSH1 0x40 MLOAD DUP1 SWAP2 SUB SWAP1 RETURN JUMPDEST CALLVALUE DUP1 ISZERO PUSH2 0xAE JUMPI PUSH0 DUP1 REVERT JUMPDEST POP PUSH2 0xC9 PUSH1 0x4 DUP1 CALLDATASIZE SUB DUP2 ADD SWAP1 PUSH2 0xC4 SWAP2 SWAP1 PUSH2 0x332 JUMP JUMPDEST PUSH2 0x1CA JUMP JUMPDEST STOP JUMPDEST PUSH2 0xD3 PUSH2 0x277 JUMP JUMPDEST STOP JUMPDEST PUSH0 SELFBALANCE SWAP1 POP PUSH0 DUP1 PUSH0 SWAP1 SLOAD SWAP1 PUSH2 0x100 EXP SWAP1 DIV PUSH20 0xFFFFFFFFFFFFFFFFFFFFFFFFFFFFFFFFFFFFFFFF AND PUSH20 0xFFFFFFFFFFFFFFFFFFFFFFFFFFFFFFFFFFFFFFFF AND DUP3 PUSH1 0x40 MLOAD PUSH2 0x11E SWAP1 PUSH2 0x39D JUMP JUMPDEST PUSH0 PUSH1 0x40 MLOAD DUP1 DUP4 SUB DUP2 DUP6 DUP8 GAS CALL SWAP3 POP POP POP RETURNDATASIZE DUP1 PUSH0 DUP2 EQ PUSH2 0x158 JUMPI PUSH1 0x40 MLOAD SWAP2 POP PUSH1 0x1F NOT PUSH1 0x3F RETURNDATASIZE ADD AND DUP3 ADD PUSH1 0x40 MSTORE RETURNDATASIZE DUP3 MSTORE RETURNDATASIZE PUSH0 PUSH1 0x20 DUP5 ADD RETURNDATACOPY PUSH2 0x15D JUMP JUMPDEST PUSH1 0x60 SWAP2 POP JUMPDEST POP POP SWAP1 POP DUP1 PUSH2 0x1A1 JUMPI PUSH1 0x40 MLOAD PUSH32 0x8C379A000000000000000000000000000000000000000000000000000000000 DUP2 MSTORE PUSH1 0x4 ADD PUSH2 0x198 SWAP1 PUSH2 0x40B JUMP JUMPDEST PUSH1 0x40 MLOAD DUP1 SWAP2 SUB SWAP1 REVERT JUMPDEST POP POP JUMP JUMPDEST JUMP JUMPDEST PUSH0 DUP1 SLOAD SWAP1 PUSH2 0x100 EXP SWAP1 DIV PUSH20 0xFFFFFFFFFFFFFFFFFFFFFFFFFFFFFFFFFFFFFFFF AND DUP2 JUMP JUMPDEST PUSH0 DUP3 PUSH20 0xFFFFFFFFFFFFFFFFFFFFFFFFFFFFFFFFFFFFFFFF AND DUP3 PUSH1 0x40 MLOAD PUSH2 0x1EF SWAP1 PUSH2 0x39D JUMP JUMPDEST PUSH0 PUSH1 0x40 MLOAD DUP1 DUP4 SUB DUP2 DUP6 DUP8 GAS CALL SWAP3 POP POP POP RETURNDATASIZE DUP1 PUSH0 DUP2 EQ PUSH2 0x229 JUMPI PUSH1 0x40 MLOAD SWAP2 POP PUSH1 0x1F NOT PUSH1 0x3F RETURNDATASIZE ADD AND DUP3 ADD PUSH1 0x40 MSTORE RETURNDATASIZE DUP3 MSTORE RETURNDATASIZE PUSH0 PUSH1 0x20 DUP5 ADD RETURNDATACOPY PUSH2 0x22E JUMP JUMPDEST PUSH1 0x60 SWAP2 POP JUMPDEST POP POP SWAP1 POP DUP1 PUSH2 0x272 JUMPI PUSH1 0x40 MLOAD PUSH32 0x8C379A000000000000000000000000000000000000000000000000000000000 DUP2 MSTORE PUSH1 0x4 ADD PUSH2 0x269 SWAP1 PUSH2 0x473 JUMP JUMPDEST PUSH1 0x40 MLOAD DUP1 SWAP2 SUB SWAP1 REVERT JUMPDEST POP POP POP JUMP JUMPDEST JUMP JUMPDEST PUSH0 PUSH20 0xFFFFFFFFFFFFFFFFFFFFFFFFFFFFFFFFFFFFFFFF DUP3 AND SWAP1 POP SWAP2 SWAP1 POP JUMP JUMPDEST PUSH0 PUSH2 0x2A2 DUP3 PUSH2 0x279 JUMP JUMPDEST SWAP1 POP SWAP2 SWAP1 POP JUMP JUMPDEST PUSH2 0x2B2 DUP2 PUSH2 0x298 JUMP JUMPDEST DUP3 MSTORE POP POP JUMP JUMPDEST PUSH0 PUSH1 0x20 DUP3 ADD SWAP1 POP PUSH2 0x2CB PUSH0 DUP4 ADD DUP5 PUSH2 0x2A9 JUMP JUMPDEST SWAP3 SWAP2 POP POP JUMP JUMPDEST PUSH0 DUP1 REVERT JUMPDEST PUSH2 0x2DE DUP2 PUSH2 0x298 JUMP JUMPDEST DUP2 EQ PUSH2 0x2E8 JUMPI PUSH0 DUP1 REVERT JUMPDEST POP JUMP JUMPDEST PUSH0 DUP2 CALLDATALOAD SWAP1 POP PUSH2 0x2F9 DUP2 PUSH2 0x2D5 JUMP JUMPDEST SWAP3 SWAP2 POP POP JUMP JUMPDEST PUSH0 DUP2 SWAP1 POP SWAP2 SWAP1 POP JUMP JUMPDEST PUSH2 0x311 DUP2 PUSH2 0x2FF JUMP JUMPDEST DUP2 EQ PUSH2 0x31B JUMPI PUSH0 DUP1 REVERT JUMPDEST POP JUMP JUMPDEST PUSH0 DUP2 CALLDATALOAD SWAP1 POP PUSH2 0x32C DUP2 PUSH2 0x308 JUMP JUMPDEST SWAP3 SWAP2 POP POP JUMP JUMPDEST PUSH0 DUP1 PUSH1 0x40 DUP4 DUP6 SUB SLT ISZERO PUSH2 0x348 JUMPI PUSH2 0x347 PUSH2 0x2D1 JUMP JUMPDEST JUMPDEST PUSH0 PUSH2 0x355 DUP6 DUP3 DUP7 ADD PUSH2 0x2EB JUMP JUMPDEST SWAP3 POP POP PUSH1 0x20 PUSH2 0x366 DUP6 DUP3 DUP7 ADD PUSH2 0x31E JUMP JUMPDEST SWAP2 POP POP SWAP3 POP SWAP3 SWAP1 POP JUMP JUMPDEST PUSH0 DUP2 SWAP1 POP SWAP3 SWAP2 POP POP JUMP JUMPDEST POP JUMP JUMPDEST PUSH0 PUSH2 0x388 PUSH0 DUP4 PUSH2 0x370 JUMP JUMPDEST SWAP2 POP PUSH2 0x393 DUP3 PUSH2 0x37A JUMP JUMPDEST PUSH0 DUP3 ADD SWAP1 POP SWAP2 SWAP1 POP JUMP JUMPDEST PUSH0 PUSH2 0x3A7 DUP3 PUSH2 0x37D JUMP JUMPDEST SWAP2 POP DUP2 SWAP1 POP SWAP2 SWAP1 POP JUMP JUMPDEST PUSH0 DUP3 DUP3 MSTORE PUSH1 0x20 DUP3 ADD SWAP1 POP SWAP3 SWAP2 POP POP JUMP JUMPDEST PUSH32 0x4661696C656420746F2073656E64204574686572000000000000000000000000 PUSH0 DUP3 ADD MSTORE POP JUMP JUMPDEST PUSH0 PUSH2 0x3F5 PUSH1 0x14 DUP4 PUSH2 0x3B1 JUMP JUMPDEST SWAP2 POP PUSH2 0x400 DUP3 PUSH2 0x3C1 JUMP JUMPDEST PUSH1 0x20 DUP3 ADD SWAP1 POP SWAP2 SWAP1 POP JUMP JUMPDEST PUSH0 PUSH1 0x20 DUP3 ADD SWAP1 POP DUP2 DUP2 SUB PUSH0 DUP4 ADD MSTORE PUSH2 0x422 DUP2 PUSH2 0x3E9 JUMP JUMPDEST SWAP1 POP SWAP2 SWAP1 POP JUMP JUMPDEST PUSH32 0x6661696C656420746F2073656E64204574686572000000000000000000000000 PUSH0 DUP3 ADD MSTORE POP JUMP JUMPDEST PUSH0 PUSH2 0x45D PUSH1 0x14 DUP4 PUSH2 0x3B1 JUMP JUMPDEST SWAP2 POP PUSH2 0x468 DUP3 PUSH2 0x429 JUMP JUMPDEST PUSH1 0x20 DUP3 ADD SWAP1 POP SWAP2 SWAP1 POP JUMP JUMPDEST PUSH0 PUSH1 0x20 DUP3 ADD SWAP1 POP DUP2 DUP2 SUB PUSH0 DUP4 ADD MSTORE PUSH2 0x48A DUP2 PUSH2 0x451 JUMP JUMPDEST SWAP1 POP SWAP2 SWAP1 POP JUMP INVALID LOG2 PUSH5 0x6970667358 0x22 SLT KECCAK256 0xB5 0x21 0xDF SWAP2 0x2F 0xAB SSTORE REVERT 0xB1 LOG1 DUP16 SAR 0xD4 BALANCE CALLVALUE SWAP10 0xE0 KECCAK256 MCOPY CALLDATACOPY 0xF9 DUP14 PUSH32 0xCDF90F818F6E79EF7E64736F6C634300081A0033000000000000000000000000 "
				},
				"gasEstimates": {
					"creation": {
						"codeDepositCost": "244600",
						"executionCost": "24526",
						"totalCost": "269126"
					},
					"external": {
						"deposit()": "185",
						"nonPayable()": "143",
						"owner()": "2527",
						"transfer(address,uint256)": "infinite",
						"withdraw()": "infinite"
					}
				},
				"methodIdentifiers": {
					"deposit()": "d0e30db0",
					"nonPayable()": "52da86d5",
					"owner()": "8da5cb5b",
					"transfer(address,uint256)": "a9059cbb",
					"withdraw()": "3ccfd60b"
				}
			},
			"storageLayout": {
				"storage": [
					{
						"astId": 3,
						"contract": "payable.sol:Payable",
						"label": "owner",
						"offset": 0,
						"slot": "0",
						"type": "t_address_payable"
					}
				],
				"types": {
					"t_address_payable": {
						"encoding": "inplace",
						"label": "address payable",
						"numberOfBytes": "20"
					}
				}
			},
			"userdoc": {
				"kind": "user",
				"methods": {},
				"version": 1
			}
		}
	}
}