{
	"ErrorHandling.sol": {
		"Require": {
			"abi": [
				{
					"inputs": [
						{
							"internalType": "uint256",
							"name": "_input",
							"type": "uint256"
						}
					],
					"name": "Odd",
					"outputs": [
						{
							"internalType": "bool",
							"name": "",
							"type": "bool"
						}
					],
					"stateMutability": "view",
					"type": "function"
				},
				{
					"inputs": [
						{
							"internalType": "uint256",
							"name": "_Input",
							"type": "uint256"
						}
					],
					"name": "checkInput",
					"outputs": [
						{
							"internalType": "string",
							"name": "",
							"type": "string"
						}
					],
					"stateMutability": "view",
					"type": "function"
				}
			],
			"devdoc": {
				"kind": "dev",
				"methods": {},
				"version": 1
			},
			"evm": {
				"assembly": "    /* \"ErrorHandling.sol\":118:486  contract Require{... */\n  mstore(0x40, 0x80)\n  callvalue\n  dup1\n  iszero\n  tag_1\n  jumpi\n  0x00\n  dup1\n  revert\ntag_1:\n  pop\n  dataSize(sub_0)\n  dup1\n  dataOffset(sub_0)\n  0x00\n  codecopy\n  0x00\n  return\nstop\n\nsub_0: assembly {\n        /* \"ErrorHandling.sol\":118:486  contract Require{... */\n      mstore(0x40, 0x80)\n      callvalue\n      dup1\n      iszero\n      tag_1\n      jumpi\n      0x00\n      dup1\n      revert\n    tag_1:\n      pop\n      jumpi(tag_2, lt(calldatasize, 0x04))\n      shr(0xe0, calldataload(0x00))\n      dup1\n      0x021b8a7f\n      eq\n      tag_3\n      jumpi\n      dup1\n      0x922e883a\n      eq\n      tag_4\n      jumpi\n    tag_2:\n      0x00\n      dup1\n      revert\n        /* \"ErrorHandling.sol\":141:353  function checkInput(uint256 _Input) public view returns(string memory){... */\n    tag_3:\n      tag_5\n      0x04\n      dup1\n      calldatasize\n      sub\n      dup2\n      add\n      swap1\n      tag_6\n      swap2\n      swap1\n      tag_7\n      jump\t// in\n    tag_6:\n      tag_8\n      jump\t// in\n    tag_5:\n      mload(0x40)\n      tag_9\n      swap2\n      swap1\n      tag_10\n      jump\t// in\n    tag_9:\n      mload(0x40)\n      dup1\n      swap2\n      sub\n      swap1\n      return\n        /* \"ErrorHandling.sol\":361:482  function Odd(uint256 _input) public view returns(bool){... */\n    tag_4:\n      tag_11\n      0x04\n      dup1\n      calldatasize\n      sub\n      dup2\n      add\n      swap1\n      tag_12\n      swap2\n      swap1\n      tag_7\n      jump\t// in\n    tag_12:\n      tag_13\n      jump\t// in\n    tag_11:\n      mload(0x40)\n      tag_14\n      swap2\n      swap1\n      tag_15\n      jump\t// in\n    tag_14:\n      mload(0x40)\n      dup1\n      swap2\n      sub\n      swap1\n      return\n        /* \"ErrorHandling.sol\":141:353  function checkInput(uint256 _Input) public view returns(string memory){... */\n    tag_8:\n        /* \"ErrorHandling.sol\":197:210  string memory */\n      0x60\n        /* \"ErrorHandling.sol\":240:241  0 */\n      0x00\n        /* \"ErrorHandling.sol\":230:236  _Input */\n      dup3\n        /* \"ErrorHandling.sol\":230:241  _Input >= 0 */\n      lt\n      iszero\n        /* \"ErrorHandling.sol\":222:259  require(_Input >= 0, \"invalid uint8\") */\n      tag_17\n      jumpi\n      mload(0x40)\n      0x08c379a000000000000000000000000000000000000000000000000000000000\n      dup2\n      mstore\n      0x04\n      add\n      tag_18\n      swap1\n      tag_19\n      jump\t// in\n    tag_18:\n      mload(0x40)\n      dup1\n      swap2\n      sub\n      swap1\n      revert\n    tag_17:\n        /* \"ErrorHandling.sol\":288:291  255 */\n      0xff\n        /* \"ErrorHandling.sol\":278:284  _Input */\n      dup3\n        /* \"ErrorHandling.sol\":278:291  _Input <= 255 */\n      gt\n      iszero\n        /* \"ErrorHandling.sol\":270:309  require(_Input <= 255, \"invalid uint8\") */\n      tag_20\n      jumpi\n      mload(0x40)\n      0x08c379a000000000000000000000000000000000000000000000000000000000\n      dup2\n      mstore\n      0x04\n      add\n      tag_21\n      swap1\n      tag_19\n      jump\t// in\n    tag_21:\n      mload(0x40)\n      dup1\n      swap2\n      sub\n      swap1\n      revert\n    tag_20:\n        /* \"ErrorHandling.sol\":322:345  return \"Input is Uint8\" */\n      mload(0x40)\n      dup1\n      0x40\n      add\n      0x40\n      mstore\n      dup1\n      0x0e\n      dup2\n      mstore\n      0x20\n      add\n      0x496e7075742069732055696e7438000000000000000000000000000000000000\n      dup2\n      mstore\n      pop\n      swap1\n      pop\n        /* \"ErrorHandling.sol\":141:353  function checkInput(uint256 _Input) public view returns(string memory){... */\n      swap2\n      swap1\n      pop\n      jump\t// out\n        /* \"ErrorHandling.sol\":361:482  function Odd(uint256 _input) public view returns(bool){... */\n    tag_13:\n        /* \"ErrorHandling.sol\":410:414  bool */\n      0x00\n        /* \"ErrorHandling.sol\":448:449  0 */\n      dup1\n        /* \"ErrorHandling.sol\":443:444  2 */\n      0x02\n        /* \"ErrorHandling.sol\":434:440  _input */\n      dup4\n        /* \"ErrorHandling.sol\":434:444  _input % 2 */\n      tag_23\n      swap2\n      swap1\n      tag_24\n      jump\t// in\n    tag_23:\n        /* \"ErrorHandling.sol\":434:449  _input % 2 != 0 */\n      eq\n      iszero\n        /* \"ErrorHandling.sol\":426:450  return (_input % 2 != 0) */\n      swap1\n      pop\n        /* \"ErrorHandling.sol\":361:482  function Odd(uint256 _input) public view returns(bool){... */\n      swap2\n      swap1\n      pop\n      jump\t// out\n        /* \"#utility.yul\":88:205   */\n    tag_26:\n        /* \"#utility.yul\":197:198   */\n      0x00\n        /* \"#utility.yul\":194:195   */\n      dup1\n        /* \"#utility.yul\":187:199   */\n      revert\n        /* \"#utility.yul\":334:411   */\n    tag_28:\n        /* \"#utility.yul\":371:378   */\n      0x00\n        /* \"#utility.yul\":400:405   */\n      dup2\n        /* \"#utility.yul\":389:405   */\n      swap1\n      pop\n        /* \"#utility.yul\":334:411   */\n      swap2\n      swap1\n      pop\n      jump\t// out\n        /* \"#utility.yul\":417:539   */\n    tag_29:\n        /* \"#utility.yul\":490:514   */\n      tag_47\n        /* \"#utility.yul\":508:513   */\n      dup2\n        /* \"#utility.yul\":490:514   */\n      tag_28\n      jump\t// in\n    tag_47:\n        /* \"#utility.yul\":483:488   */\n      dup2\n        /* \"#utility.yul\":480:515   */\n      eq\n        /* \"#utility.yul\":470:533   */\n      tag_48\n      jumpi\n        /* \"#utility.yul\":529:530   */\n      0x00\n        /* \"#utility.yul\":526:527   */\n      dup1\n        /* \"#utility.yul\":519:531   */\n      revert\n        /* \"#utility.yul\":470:533   */\n    tag_48:\n        /* \"#utility.yul\":417:539   */\n      pop\n      jump\t// out\n        /* \"#utility.yul\":545:684   */\n    tag_30:\n        /* \"#utility.yul\":591:596   */\n      0x00\n        /* \"#utility.yul\":629:635   */\n      dup2\n        /* \"#utility.yul\":616:636   */\n      calldataload\n        /* \"#utility.yul\":607:636   */\n      swap1\n      pop\n        /* \"#utility.yul\":645:678   */\n      tag_50\n        /* \"#utility.yul\":672:677   */\n      dup2\n        /* \"#utility.yul\":645:678   */\n      tag_29\n      jump\t// in\n    tag_50:\n        /* \"#utility.yul\":545:684   */\n      swap3\n      swap2\n      pop\n      pop\n      jump\t// out\n        /* \"#utility.yul\":690:1019   */\n    tag_7:\n        /* \"#utility.yul\":749:755   */\n      0x00\n        /* \"#utility.yul\":798:800   */\n      0x20\n        /* \"#utility.yul\":786:795   */\n      dup3\n        /* \"#utility.yul\":777:784   */\n      dup5\n        /* \"#utility.yul\":773:796   */\n      sub\n        /* \"#utility.yul\":769:801   */\n      slt\n        /* \"#utility.yul\":766:885   */\n      iszero\n      tag_52\n      jumpi\n        /* \"#utility.yul\":804:883   */\n      tag_53\n      tag_26\n      jump\t// in\n    tag_53:\n        /* \"#utility.yul\":766:885   */\n    tag_52:\n        /* \"#utility.yul\":924:925   */\n      0x00\n        /* \"#utility.yul\":949:1002   */\n      tag_54\n        /* \"#utility.yul\":994:1001   */\n      dup5\n        /* \"#utility.yul\":985:991   */\n      dup3\n        /* \"#utility.yul\":974:983   */\n      dup6\n        /* \"#utility.yul\":970:992   */\n      add\n        /* \"#utility.yul\":949:1002   */\n      tag_30\n      jump\t// in\n    tag_54:\n        /* \"#utility.yul\":939:1002   */\n      swap2\n      pop\n        /* \"#utility.yul\":895:1012   */\n      pop\n        /* \"#utility.yul\":690:1019   */\n      swap3\n      swap2\n      pop\n      pop\n      jump\t// out\n        /* \"#utility.yul\":1025:1124   */\n    tag_31:\n        /* \"#utility.yul\":1077:1083   */\n      0x00\n        /* \"#utility.yul\":1111:1116   */\n      dup2\n        /* \"#utility.yul\":1105:1117   */\n      mload\n        /* \"#utility.yul\":1095:1117   */\n      swap1\n      pop\n        /* \"#utility.yul\":1025:1124   */\n      swap2\n      swap1\n      pop\n      jump\t// out\n        /* \"#utility.yul\":1130:1299   */\n    tag_32:\n        /* \"#utility.yul\":1214:1225   */\n      0x00\n        /* \"#utility.yul\":1248:1254   */\n      dup3\n        /* \"#utility.yul\":1243:1246   */\n      dup3\n        /* \"#utility.yul\":1236:1255   */\n      mstore\n        /* \"#utility.yul\":1288:1292   */\n      0x20\n        /* \"#utility.yul\":1283:1286   */\n      dup3\n        /* \"#utility.yul\":1279:1293   */\n      add\n        /* \"#utility.yul\":1264:1293   */\n      swap1\n      pop\n        /* \"#utility.yul\":1130:1299   */\n      swap3\n      swap2\n      pop\n      pop\n      jump\t// out\n        /* \"#utility.yul\":1305:1444   */\n    tag_33:\n        /* \"#utility.yul\":1394:1400   */\n      dup3\n        /* \"#utility.yul\":1389:1392   */\n      dup2\n        /* \"#utility.yul\":1384:1387   */\n      dup4\n        /* \"#utility.yul\":1378:1401   */\n      mcopy\n        /* \"#utility.yul\":1435:1436   */\n      0x00\n        /* \"#utility.yul\":1426:1432   */\n      dup4\n        /* \"#utility.yul\":1421:1424   */\n      dup4\n        /* \"#utility.yul\":1417:1433   */\n      add\n        /* \"#utility.yul\":1410:1437   */\n      mstore\n        /* \"#utility.yul\":1305:1444   */\n      pop\n      pop\n      pop\n      jump\t// out\n        /* \"#utility.yul\":1450:1552   */\n    tag_34:\n        /* \"#utility.yul\":1491:1497   */\n      0x00\n        /* \"#utility.yul\":1542:1544   */\n      0x1f\n        /* \"#utility.yul\":1538:1545   */\n      not\n        /* \"#utility.yul\":1533:1535   */\n      0x1f\n        /* \"#utility.yul\":1526:1531   */\n      dup4\n        /* \"#utility.yul\":1522:1536   */\n      add\n        /* \"#utility.yul\":1518:1546   */\n      and\n        /* \"#utility.yul\":1508:1546   */\n      swap1\n      pop\n        /* \"#utility.yul\":1450:1552   */\n      swap2\n      swap1\n      pop\n      jump\t// out\n        /* \"#utility.yul\":1558:1935   */\n    tag_35:\n        /* \"#utility.yul\":1646:1649   */\n      0x00\n        /* \"#utility.yul\":1674:1713   */\n      tag_60\n        /* \"#utility.yul\":1707:1712   */\n      dup3\n        /* \"#utility.yul\":1674:1713   */\n      tag_31\n      jump\t// in\n    tag_60:\n        /* \"#utility.yul\":1729:1800   */\n      tag_61\n        /* \"#utility.yul\":1793:1799   */\n      dup2\n        /* \"#utility.yul\":1788:1791   */\n      dup6\n        /* \"#utility.yul\":1729:1800   */\n      tag_32\n      jump\t// in\n    tag_61:\n        /* \"#utility.yul\":1722:1800   */\n      swap4\n      pop\n        /* \"#utility.yul\":1809:1874   */\n      tag_62\n        /* \"#utility.yul\":1867:1873   */\n      dup2\n        /* \"#utility.yul\":1862:1865   */\n      dup6\n        /* \"#utility.yul\":1855:1859   */\n      0x20\n        /* \"#utility.yul\":1848:1853   */\n      dup7\n        /* \"#utility.yul\":1844:1860   */\n      add\n        /* \"#utility.yul\":1809:1874   */\n      tag_33\n      jump\t// in\n    tag_62:\n        /* \"#utility.yul\":1899:1928   */\n      tag_63\n        /* \"#utility.yul\":1921:1927   */\n      dup2\n        /* \"#utility.yul\":1899:1928   */\n      tag_34\n      jump\t// in\n    tag_63:\n        /* \"#utility.yul\":1894:1897   */\n      dup5\n        /* \"#utility.yul\":1890:1929   */\n      add\n        /* \"#utility.yul\":1883:1929   */\n      swap2\n      pop\n        /* \"#utility.yul\":1650:1935   */\n      pop\n        /* \"#utility.yul\":1558:1935   */\n      swap3\n      swap2\n      pop\n      pop\n      jump\t// out\n        /* \"#utility.yul\":1941:2254   */\n    tag_10:\n        /* \"#utility.yul\":2054:2058   */\n      0x00\n        /* \"#utility.yul\":2092:2094   */\n      0x20\n        /* \"#utility.yul\":2081:2090   */\n      dup3\n        /* \"#utility.yul\":2077:2095   */\n      add\n        /* \"#utility.yul\":2069:2095   */\n      swap1\n      pop\n        /* \"#utility.yul\":2141:2150   */\n      dup2\n        /* \"#utility.yul\":2135:2139   */\n      dup2\n        /* \"#utility.yul\":2131:2151   */\n      sub\n        /* \"#utility.yul\":2127:2128   */\n      0x00\n        /* \"#utility.yul\":2116:2125   */\n      dup4\n        /* \"#utility.yul\":2112:2129   */\n      add\n        /* \"#utility.yul\":2105:2152   */\n      mstore\n        /* \"#utility.yul\":2169:2247   */\n      tag_65\n        /* \"#utility.yul\":2242:2246   */\n      dup2\n        /* \"#utility.yul\":2233:2239   */\n      dup5\n        /* \"#utility.yul\":2169:2247   */\n      tag_35\n      jump\t// in\n    tag_65:\n        /* \"#utility.yul\":2161:2247   */\n      swap1\n      pop\n        /* \"#utility.yul\":1941:2254   */\n      swap3\n      swap2\n      pop\n      pop\n      jump\t// out\n        /* \"#utility.yul\":2260:2350   */\n    tag_36:\n        /* \"#utility.yul\":2294:2301   */\n      0x00\n        /* \"#utility.yul\":2337:2342   */\n      dup2\n        /* \"#utility.yul\":2330:2343   */\n      iszero\n        /* \"#utility.yul\":2323:2344   */\n      iszero\n        /* \"#utility.yul\":2312:2344   */\n      swap1\n      pop\n        /* \"#utility.yul\":2260:2350   */\n      swap2\n      swap1\n      pop\n      jump\t// out\n        /* \"#utility.yul\":2356:2465   */\n    tag_37:\n        /* \"#utility.yul\":2437:2458   */\n      tag_68\n        /* \"#utility.yul\":2452:2457   */\n      dup2\n        /* \"#utility.yul\":2437:2458   */\n      tag_36\n      jump\t// in\n    tag_68:\n        /* \"#utility.yul\":2432:2435   */\n      dup3\n        /* \"#utility.yul\":2425:2459   */\n      mstore\n        /* \"#utility.yul\":2356:2465   */\n      pop\n      pop\n      jump\t// out\n        /* \"#utility.yul\":2471:2681   */\n    tag_15:\n        /* \"#utility.yul\":2558:2562   */\n      0x00\n        /* \"#utility.yul\":2596:2598   */\n      0x20\n        /* \"#utility.yul\":2585:2594   */\n      dup3\n        /* \"#utility.yul\":2581:2599   */\n      add\n        /* \"#utility.yul\":2573:2599   */\n      swap1\n      pop\n        /* \"#utility.yul\":2609:2674   */\n      tag_70\n        /* \"#utility.yul\":2671:2672   */\n      0x00\n        /* \"#utility.yul\":2660:2669   */\n      dup4\n        /* \"#utility.yul\":2656:2673   */\n      add\n        /* \"#utility.yul\":2647:2653   */\n      dup5\n        /* \"#utility.yul\":2609:2674   */\n      tag_37\n      jump\t// in\n    tag_70:\n        /* \"#utility.yul\":2471:2681   */\n      swap3\n      swap2\n      pop\n      pop\n      jump\t// out\n        /* \"#utility.yul\":2687:2850   */\n    tag_38:\n        /* \"#utility.yul\":2827:2842   */\n      0x696e76616c69642075696e743800000000000000000000000000000000000000\n        /* \"#utility.yul\":2823:2824   */\n      0x00\n        /* \"#utility.yul\":2815:2821   */\n      dup3\n        /* \"#utility.yul\":2811:2825   */\n      add\n        /* \"#utility.yul\":2804:2843   */\n      mstore\n        /* \"#utility.yul\":2687:2850   */\n      pop\n      jump\t// out\n        /* \"#utility.yul\":2856:3222   */\n    tag_39:\n        /* \"#utility.yul\":2998:3001   */\n      0x00\n        /* \"#utility.yul\":3019:3086   */\n      tag_73\n        /* \"#utility.yul\":3083:3085   */\n      0x0d\n        /* \"#utility.yul\":3078:3081   */\n      dup4\n        /* \"#utility.yul\":3019:3086   */\n      tag_32\n      jump\t// in\n    tag_73:\n        /* \"#utility.yul\":3012:3086   */\n      swap2\n      pop\n        /* \"#utility.yul\":3095:3188   */\n      tag_74\n        /* \"#utility.yul\":3184:3187   */\n      dup3\n        /* \"#utility.yul\":3095:3188   */\n      tag_38\n      jump\t// in\n    tag_74:\n        /* \"#utility.yul\":3213:3215   */\n      0x20\n        /* \"#utility.yul\":3208:3211   */\n      dup3\n        /* \"#utility.yul\":3204:3216   */\n      add\n        /* \"#utility.yul\":3197:3216   */\n      swap1\n      pop\n        /* \"#utility.yul\":2856:3222   */\n      swap2\n      swap1\n      pop\n      jump\t// out\n        /* \"#utility.yul\":3228:3647   */\n    tag_19:\n        /* \"#utility.yul\":3394:3398   */\n      0x00\n        /* \"#utility.yul\":3432:3434   */\n      0x20\n        /* \"#utility.yul\":3421:3430   */\n      dup3\n        /* \"#utility.yul\":3417:3435   */\n      add\n        /* \"#utility.yul\":3409:3435   */\n      swap1\n      pop\n        /* \"#utility.yul\":3481:3490   */\n      dup2\n        /* \"#utility.yul\":3475:3479   */\n      dup2\n        /* \"#utility.yul\":3471:3491   */\n      sub\n        /* \"#utility.yul\":3467:3468   */\n      0x00\n        /* \"#utility.yul\":3456:3465   */\n      dup4\n        /* \"#utility.yul\":3452:3469   */\n      add\n        /* \"#utility.yul\":3445:3492   */\n      mstore\n        /* \"#utility.yul\":3509:3640   */\n      tag_76\n        /* \"#utility.yul\":3635:3639   */\n      dup2\n        /* \"#utility.yul\":3509:3640   */\n      tag_39\n      jump\t// in\n    tag_76:\n        /* \"#utility.yul\":3501:3640   */\n      swap1\n      pop\n        /* \"#utility.yul\":3228:3647   */\n      swap2\n      swap1\n      pop\n      jump\t// out\n        /* \"#utility.yul\":3653:3833   */\n    tag_40:\n        /* \"#utility.yul\":3701:3778   */\n      0x4e487b7100000000000000000000000000000000000000000000000000000000\n        /* \"#utility.yul\":3698:3699   */\n      0x00\n        /* \"#utility.yul\":3691:3779   */\n      mstore\n        /* \"#utility.yul\":3798:3802   */\n      0x12\n        /* \"#utility.yul\":3795:3796   */\n      0x04\n        /* \"#utility.yul\":3788:3803   */\n      mstore\n        /* \"#utility.yul\":3822:3826   */\n      0x24\n        /* \"#utility.yul\":3819:3820   */\n      0x00\n        /* \"#utility.yul\":3812:3827   */\n      revert\n        /* \"#utility.yul\":3839:4015   */\n    tag_24:\n        /* \"#utility.yul\":3871:3872   */\n      0x00\n        /* \"#utility.yul\":3888:3908   */\n      tag_79\n        /* \"#utility.yul\":3906:3907   */\n      dup3\n        /* \"#utility.yul\":3888:3908   */\n      tag_28\n      jump\t// in\n    tag_79:\n        /* \"#utility.yul\":3883:3908   */\n      swap2\n      pop\n        /* \"#utility.yul\":3922:3942   */\n      tag_80\n        /* \"#utility.yul\":3940:3941   */\n      dup4\n        /* \"#utility.yul\":3922:3942   */\n      tag_28\n      jump\t// in\n    tag_80:\n        /* \"#utility.yul\":3917:3942   */\n      swap3\n      pop\n        /* \"#utility.yul\":3961:3962   */\n      dup3\n        /* \"#utility.yul\":3951:3986   */\n      tag_81\n      jumpi\n        /* \"#utility.yul\":3966:3984   */\n      tag_82\n      tag_40\n      jump\t// in\n    tag_82:\n        /* \"#utility.yul\":3951:3986   */\n    tag_81:\n        /* \"#utility.yul\":4007:4008   */\n      dup3\n        /* \"#utility.yul\":4004:4005   */\n      dup3\n        /* \"#utility.yul\":4000:4009   */\n      mod\n        /* \"#utility.yul\":3995:4009   */\n      swap1\n      pop\n        /* \"#utility.yul\":3839:4015   */\n      swap3\n      swap2\n      pop\n      pop\n      jump\t// out\n\n    auxdata: 0xa2646970667358221220fd5f8b58ea6e0313681db143c804521182b1868695c13d6e6a74636bc7d94b6964736f6c634300081a0033\n}\n",
				"bytecode": {
					"linkReferences": {},
					"object": "6080604052348015600e575f80fd5b506103968061001c5f395ff3fe608060405234801561000f575f80fd5b5060043610610034575f3560e01c8063021b8a7f14610038578063922e883a14610068575b5f80fd5b610052600480360381019061004d91906101ad565b610098565b60405161005f9190610248565b60405180910390f35b610082600480360381019061007d91906101ad565b61015e565b60405161008f9190610282565b60405180910390f35b60605f8210156100dd576040517f08c379a00000000000000000000000000000000000000000000000000000000081526004016100d4906102e5565b60405180910390fd5b60ff821115610121576040517f08c379a0000000000000000000000000000000000000000000000000000000008152600401610118906102e5565b60405180910390fd5b6040518060400160405280600e81526020017f496e7075742069732055696e74380000000000000000000000000000000000008152509050919050565b5f8060028361016d9190610330565b14159050919050565b5f80fd5b5f819050919050565b61018c8161017a565b8114610196575f80fd5b50565b5f813590506101a781610183565b92915050565b5f602082840312156101c2576101c1610176565b5b5f6101cf84828501610199565b91505092915050565b5f81519050919050565b5f82825260208201905092915050565b8281835e5f83830152505050565b5f601f19601f8301169050919050565b5f61021a826101d8565b61022481856101e2565b93506102348185602086016101f2565b61023d81610200565b840191505092915050565b5f6020820190508181035f8301526102608184610210565b905092915050565b5f8115159050919050565b61027c81610268565b82525050565b5f6020820190506102955f830184610273565b92915050565b7f696e76616c69642075696e7438000000000000000000000000000000000000005f82015250565b5f6102cf600d836101e2565b91506102da8261029b565b602082019050919050565b5f6020820190508181035f8301526102fc816102c3565b9050919050565b7f4e487b71000000000000000000000000000000000000000000000000000000005f52601260045260245ffd5b5f61033a8261017a565b91506103458361017a565b92508261035557610354610303565b5b82820690509291505056fea2646970667358221220fd5f8b58ea6e0313681db143c804521182b1868695c13d6e6a74636bc7d94b6964736f6c634300081a0033",
					"opcodes": "PUSH1 0x80 PUSH1 0x40 MSTORE CALLVALUE DUP1 ISZERO PUSH1 0xE JUMPI PUSH0 DUP1 REVERT JUMPDEST POP PUSH2 0x396 DUP1 PUSH2 0x1C PUSH0 CODECOPY PUSH0 RETURN INVALID PUSH1 0x80 PUSH1 0x40 MSTORE CALLVALUE DUP1 ISZERO PUSH2 0xF JUMPI PUSH0 DUP1 REVERT JUMPDEST POP PUSH1 0x4 CALLDATASIZE LT PUSH2 0x34 JUMPI PUSH0 CALLDATALOAD PUSH1 0xE0 SHR DUP1 PUSH4 0x21B8A7F EQ PUSH2 0x38 JUMPI DUP1 PUSH4 0x922E883A EQ PUSH2 0x68 JUMPI JUMPDEST PUSH0 DUP1 REVERT JUMPDEST PUSH2 0x52 PUSH1 0x4 DUP1 CALLDATASIZE SUB DUP2 ADD SWAP1 PUSH2 0x4D SWAP2 SWAP1 PUSH2 0x1AD JUMP JUMPDEST PUSH2 0x98 JUMP JUMPDEST PUSH1 0x40 MLOAD PUSH2 0x5F SWAP2 SWAP1 PUSH2 0x248 JUMP JUMPDEST PUSH1 0x40 MLOAD DUP1 SWAP2 SUB SWAP1 RETURN JUMPDEST PUSH2 0x82 PUSH1 0x4 DUP1 CALLDATASIZE SUB DUP2 ADD SWAP1 PUSH2 0x7D SWAP2 SWAP1 PUSH2 0x1AD JUMP JUMPDEST PUSH2 0x15E JUMP JUMPDEST PUSH1 0x40 MLOAD PUSH2 0x8F SWAP2 SWAP1 PUSH2 0x282 JUMP JUMPDEST PUSH1 0x40 MLOAD DUP1 SWAP2 SUB SWAP1 RETURN JUMPDEST PUSH1 0x60 PUSH0 DUP3 LT ISZERO PUSH2 0xDD JUMPI PUSH1 0x40 MLOAD PUSH32 0x8C379A000000000000000000000000000000000000000000000000000000000 DUP2 MSTORE PUSH1 0x4 ADD PUSH2 0xD4 SWAP1 PUSH2 0x2E5 JUMP JUMPDEST PUSH1 0x40 MLOAD DUP1 SWAP2 SUB SWAP1 REVERT JUMPDEST PUSH1 0xFF DUP3 GT ISZERO PUSH2 0x121 JUMPI PUSH1 0x40 MLOAD PUSH32 0x8C379A000000000000000000000000000000000000000000000000000000000 DUP2 MSTORE PUSH1 0x4 ADD PUSH2 0x118 SWAP1 PUSH2 0x2E5 JUMP JUMPDEST PUSH1 0x40 MLOAD DUP1 SWAP2 SUB SWAP1 REVERT JUMPDEST PUSH1 0x40 MLOAD DUP1 PUSH1 0x40 ADD PUSH1 0x40 MSTORE DUP1 PUSH1 0xE DUP2 MSTORE PUSH1 0x20 ADD PUSH32 0x496E7075742069732055696E7438000000000000000000000000000000000000 DUP2 MSTORE POP SWAP1 POP SWAP2 SWAP1 POP JUMP JUMPDEST PUSH0 DUP1 PUSH1 0x2 DUP4 PUSH2 0x16D SWAP2 SWAP1 PUSH2 0x330 JUMP JUMPDEST EQ ISZERO SWAP1 POP SWAP2 SWAP1 POP JUMP JUMPDEST PUSH0 DUP1 REVERT JUMPDEST PUSH0 DUP2 SWAP1 POP SWAP2 SWAP1 POP JUMP JUMPDEST PUSH2 0x18C DUP2 PUSH2 0x17A JUMP JUMPDEST DUP2 EQ PUSH2 0x196 JUMPI PUSH0 DUP1 REVERT JUMPDEST POP JUMP JUMPDEST PUSH0 DUP2 CALLDATALOAD SWAP1 POP PUSH2 0x1A7 DUP2 PUSH2 0x183 JUMP JUMPDEST SWAP3 SWAP2 POP POP JUMP JUMPDEST PUSH0 PUSH1 0x20 DUP3 DUP5 SUB SLT ISZERO PUSH2 0x1C2 JUMPI PUSH2 0x1C1 PUSH2 0x176 JUMP JUMPDEST JUMPDEST PUSH0 PUSH2 0x1CF DUP5 DUP3 DUP6 ADD PUSH2 0x199 JUMP JUMPDEST SWAP2 POP POP SWAP3 SWAP2 POP POP JUMP JUMPDEST PUSH0 DUP2 MLOAD SWAP1 POP SWAP2 SWAP1 POP JUMP JUMPDEST PUSH0 DUP3 DUP3 MSTORE PUSH1 0x20 DUP3 ADD SWAP1 POP SWAP3 SWAP2 POP POP JUMP JUMPDEST DUP3 DUP2 DUP4 MCOPY PUSH0 DUP4 DUP4 ADD MSTORE POP POP POP JUMP JUMPDEST PUSH0 PUSH1 0x1F NOT PUSH1 0x1F DUP4 ADD AND SWAP1 POP SWAP2 SWAP1 POP JUMP JUMPDEST PUSH0 PUSH2 0x21A DUP3 PUSH2 0x1D8 JUMP JUMPDEST PUSH2 0x224 DUP2 DUP6 PUSH2 0x1E2 JUMP JUMPDEST SWAP4 POP PUSH2 0x234 DUP2 DUP6 PUSH1 0x20 DUP7 ADD PUSH2 0x1F2 JUMP JUMPDEST PUSH2 0x23D DUP2 PUSH2 0x200 JUMP JUMPDEST DUP5 ADD SWAP2 POP POP SWAP3 SWAP2 POP POP JUMP JUMPDEST PUSH0 PUSH1 0x20 DUP3 ADD SWAP1 POP DUP2 DUP2 SUB PUSH0 DUP4 ADD MSTORE PUSH2 0x260 DUP2 DUP5 PUSH2 0x210 JUMP JUMPDEST SWAP1 POP SWAP3 SWAP2 POP POP JUMP JUMPDEST PUSH0 DUP2 ISZERO ISZERO SWAP1 POP SWAP2 SWAP1 POP JUMP JUMPDEST PUSH2 0x27C DUP2 PUSH2 0x268 JUMP JUMPDEST DUP3 MSTORE POP POP JUMP JUMPDEST PUSH0 PUSH1 0x20 DUP3 ADD SWAP1 POP PUSH2 0x295 PUSH0 DUP4 ADD DUP5 PUSH2 0x273 JUMP JUMPDEST SWAP3 SWAP2 POP POP JUMP JUMPDEST PUSH32 0x696E76616C69642075696E743800000000000000000000000000000000000000 PUSH0 DUP3 ADD MSTORE POP JUMP JUMPDEST PUSH0 PUSH2 0x2CF PUSH1 0xD DUP4 PUSH2 0x1E2 JUMP JUMPDEST SWAP2 POP PUSH2 0x2DA DUP3 PUSH2 0x29B JUMP JUMPDEST PUSH1 0x20 DUP3 ADD SWAP1 POP SWAP2 SWAP1 POP JUMP JUMPDEST PUSH0 PUSH1 0x20 DUP3 ADD SWAP1 POP DUP2 DUP2 SUB PUSH0 DUP4 ADD MSTORE PUSH2 0x2FC DUP2 PUSH2 0x2C3 JUMP JUMPDEST SWAP1 POP SWAP2 SWAP1 POP JUMP JUMPDEST PUSH32 0x4E487B7100000000000000000000000000000000000000000000000000000000 PUSH0 MSTORE PUSH1 0x12 PUSH1 0x4 MSTORE PUSH1 0x24 PUSH0 REVERT JUMPDEST PUSH0 PUSH2 0x33A DUP3 PUSH2 0x17A JUMP JUMPDEST SWAP2 POP PUSH2 0x345 DUP4 PUSH2 0x17A JUMP JUMPDEST SWAP3 POP DUP3 PUSH2 0x355 JUMPI PUSH2 0x354 PUSH2 0x303 JUMP JUMPDEST JUMPDEST DUP3 DUP3 MOD SWAP1 POP SWAP3 SWAP2 POP POP JUMP INVALID LOG2 PUSH5 0x6970667358 0x22 SLT KECCAK256 REVERT PUSH0 DUP12 PC 0xEA PUSH15 0x313681DB143C804521182B1868695 0xC1 RETURNDATASIZE PUSH15 0x6A74636BC7D94B6964736F6C634300 ADDMOD BYTE STOP CALLER "
				},
				"gasEstimates": {
					"creation": {
						"codeDepositCost": "183600",
						"executionCost": "224",
						"totalCost": "183824"
					},
					"external": {
						"Odd(uint256)": "infinite",
						"checkInput(uint256)": "infinite"
					}
				},
				"methodIdentifiers": {
					"Odd(uint256)": "922e883a",
					"checkInput(uint256)": "021b8a7f"
				}
			},
			"storageLayout": {
				"storage": [],
				"types": null
			},
			"userdoc": {
				"kind": "user",
				"methods": {},
				"version": 1
			}
		}
	}
}