{
	"Library.sol": {
		"TestArray": {
			"abi": [
				{
					"inputs": [
						{
							"internalType": "uint256",
							"name": "",
							"type": "uint256"
						}
					],
					"name": "arr",
					"outputs": [
						{
							"internalType": "uint256",
							"name": "",
							"type": "uint256"
						}
					],
					"stateMutability": "view",
					"type": "function"
				},
				{
					"inputs": [],
					"name": "testArrayRemove",
					"outputs": [],
					"stateMutability": "nonpayable",
					"type": "function"
				}
			],
			"devdoc": {
				"kind": "dev",
				"methods": {},
				"version": 1
			},
			"evm": {
				"assembly": "    /* \"Library.sol\":985:1312  contract TestArray{... */\n  mstore(0x40, 0x80)\n  callvalue\n  dup1\n  iszero\n  tag_1\n  jumpi\n  0x00\n  dup1\n  revert\ntag_1:\n  pop\n  dataSize(sub_0)\n  dup1\n  dataOffset(sub_0)\n  0x00\n  codecopy\n  0x00\n  return\nstop\n\nsub_0: assembly {\n        /* \"Library.sol\":985:1312  contract TestArray{... */\n      mstore(0x40, 0x80)\n      callvalue\n      dup1\n      iszero\n      tag_1\n      jumpi\n      0x00\n      dup1\n      revert\n    tag_1:\n      pop\n      jumpi(tag_2, lt(calldatasize, 0x04))\n      shr(0xe0, calldataload(0x00))\n      dup1\n      0x25afcbfb\n      eq\n      tag_3\n      jumpi\n      dup1\n      0x71e5ee5f\n      eq\n      tag_4\n      jumpi\n    tag_2:\n      0x00\n      dup1\n      revert\n        /* \"Library.sol\":1067:1302  function testArrayRemove() public{... */\n    tag_3:\n      tag_5\n      tag_6\n      jump\t// in\n    tag_5:\n      stop\n        /* \"Library.sol\":1041:1058  uint[] public arr */\n    tag_4:\n      tag_7\n      0x04\n      dup1\n      calldatasize\n      sub\n      dup2\n      add\n      swap1\n      tag_8\n      swap2\n      swap1\n      tag_9\n      jump\t// in\n    tag_8:\n      tag_10\n      jump\t// in\n    tag_7:\n      mload(0x40)\n      tag_11\n      swap2\n      swap1\n      tag_12\n      jump\t// in\n    tag_11:\n      mload(0x40)\n      dup1\n      swap2\n      sub\n      swap1\n      return\n        /* \"Library.sol\":1067:1302  function testArrayRemove() public{... */\n    tag_6:\n        /* \"Library.sol\":1116:1122  uint i */\n      0x00\n        /* \"Library.sol\":1111:1175  for (uint i= 0; i< 3; i++){... */\n    tag_14:\n        /* \"Library.sol\":1130:1131  3 */\n      0x03\n        /* \"Library.sol\":1127:1128  i */\n      dup2\n        /* \"Library.sol\":1127:1131  i< 3 */\n      lt\n        /* \"Library.sol\":1111:1175  for (uint i= 0; i< 3; i++){... */\n      iszero\n      tag_15\n      jumpi\n        /* \"Library.sol\":1150:1153  arr */\n      0x00\n        /* \"Library.sol\":1159:1160  i */\n      dup2\n        /* \"Library.sol\":1150:1161  arr.push(i) */\n      swap1\n      dup1\n      0x01\n      dup2\n      sload\n      add\n      dup1\n      dup3\n      sstore\n      dup1\n      swap2\n      pop\n      pop\n      0x01\n      swap1\n      sub\n      swap1\n      0x00\n      mstore\n      keccak256(0x00, 0x20)\n      add\n      0x00\n      swap1\n      swap2\n      swap1\n      swap2\n      swap1\n      swap2\n      pop\n      sstore\n        /* \"Library.sol\":1133:1136  i++ */\n      dup1\n      dup1\n      0x01\n      add\n      swap2\n      pop\n      pop\n        /* \"Library.sol\":1111:1175  for (uint i= 0; i< 3; i++){... */\n      jump(tag_14)\n    tag_15:\n      pop\n        /* \"Library.sol\":1185:1188  arr */\n      0x00\n        /* \"Library.sol\":1185:1195  arr.remove */\n      linkerSymbol(\"121731597317c16f29e21c91e7a18be97be5d89cef1e2c937a8e4db54d47b008\")\n      0x677ca2d8\n      swap1\n      swap2\n        /* \"Library.sol\":1196:1197  1 */\n      0x01\n        /* \"Library.sol\":1185:1198  arr.remove(1) */\n      mload(0x40)\n      dup4\n      0xffffffff\n      and\n      0xe0\n      shl\n      dup2\n      mstore\n      0x04\n      add\n      tag_18\n      swap3\n      swap2\n      swap1\n      tag_19\n      jump\t// in\n    tag_18:\n      0x00\n      mload(0x40)\n      dup1\n      dup4\n      sub\n      dup2\n      dup7\n      dup1\n      extcodesize\n      iszero\n      dup1\n      iszero\n      tag_20\n      jumpi\n      0x00\n      dup1\n      revert\n    tag_20:\n      pop\n      gas\n      delegatecall\n      iszero\n      dup1\n      iszero\n      tag_22\n      jumpi\n      returndatasize\n      0x00\n      dup1\n      returndatacopy\n      revert(0x00, returndatasize)\n    tag_22:\n      pop\n      pop\n      pop\n      pop\n        /* \"Library.sol\":1232:1233  2 */\n      0x02\n        /* \"Library.sol\":1218:1221  arr */\n      0x00\n        /* \"Library.sol\":1218:1228  arr.length */\n      dup1\n      sload\n      swap1\n      pop\n        /* \"Library.sol\":1218:1233  arr.length == 2 */\n      eq\n        /* \"Library.sol\":1211:1234  assert(arr.length == 2) */\n      tag_23\n      jumpi\n      tag_24\n      tag_25\n      jump\t// in\n    tag_24:\n    tag_23:\n        /* \"Library.sol\":1262:1263  0 */\n      0x00\n        /* \"Library.sol\":1252:1255  arr */\n      dup1\n        /* \"Library.sol\":1256:1257  0 */\n      0x00\n        /* \"Library.sol\":1252:1258  arr[0] */\n      dup2\n      sload\n      dup2\n      lt\n      tag_26\n      jumpi\n      tag_27\n      tag_28\n      jump\t// in\n    tag_27:\n    tag_26:\n      swap1\n      0x00\n      mstore\n      keccak256(0x00, 0x20)\n      add\n      sload\n        /* \"Library.sol\":1252:1263  arr[0] == 0 */\n      eq\n        /* \"Library.sol\":1245:1264  assert(arr[0] == 0) */\n      tag_30\n      jumpi\n      tag_31\n      tag_25\n      jump\t// in\n    tag_31:\n    tag_30:\n        /* \"Library.sol\":1292:1293  2 */\n      0x02\n        /* \"Library.sol\":1282:1285  arr */\n      0x00\n        /* \"Library.sol\":1286:1287  1 */\n      0x01\n        /* \"Library.sol\":1282:1288  arr[1] */\n      dup2\n      sload\n      dup2\n      lt\n      tag_32\n      jumpi\n      tag_33\n      tag_28\n      jump\t// in\n    tag_33:\n    tag_32:\n      swap1\n      0x00\n      mstore\n      keccak256(0x00, 0x20)\n      add\n      sload\n        /* \"Library.sol\":1282:1293  arr[1] == 2 */\n      eq\n        /* \"Library.sol\":1275:1294  assert(arr[1] == 2) */\n      tag_35\n      jumpi\n      tag_36\n      tag_25\n      jump\t// in\n    tag_36:\n    tag_35:\n        /* \"Library.sol\":1067:1302  function testArrayRemove() public{... */\n      jump\t// out\n        /* \"Library.sol\":1041:1058  uint[] public arr */\n    tag_10:\n      0x00\n      dup2\n      dup2\n      sload\n      dup2\n      lt\n      tag_37\n      jumpi\n      0x00\n      dup1\n      revert\n    tag_37:\n      swap1\n      0x00\n      mstore\n      keccak256(0x00, 0x20)\n      add\n      0x00\n      swap2\n      pop\n      swap1\n      pop\n      sload\n      dup2\n      jump\t// out\n        /* \"#utility.yul\":88:205   */\n    tag_40:\n        /* \"#utility.yul\":197:198   */\n      0x00\n        /* \"#utility.yul\":194:195   */\n      dup1\n        /* \"#utility.yul\":187:199   */\n      revert\n        /* \"#utility.yul\":334:411   */\n    tag_42:\n        /* \"#utility.yul\":371:378   */\n      0x00\n        /* \"#utility.yul\":400:405   */\n      dup2\n        /* \"#utility.yul\":389:405   */\n      swap1\n      pop\n        /* \"#utility.yul\":334:411   */\n      swap2\n      swap1\n      pop\n      jump\t// out\n        /* \"#utility.yul\":417:539   */\n    tag_43:\n        /* \"#utility.yul\":490:514   */\n      tag_57\n        /* \"#utility.yul\":508:513   */\n      dup2\n        /* \"#utility.yul\":490:514   */\n      tag_42\n      jump\t// in\n    tag_57:\n        /* \"#utility.yul\":483:488   */\n      dup2\n        /* \"#utility.yul\":480:515   */\n      eq\n        /* \"#utility.yul\":470:533   */\n      tag_58\n      jumpi\n        /* \"#utility.yul\":529:530   */\n      0x00\n        /* \"#utility.yul\":526:527   */\n      dup1\n        /* \"#utility.yul\":519:531   */\n      revert\n        /* \"#utility.yul\":470:533   */\n    tag_58:\n        /* \"#utility.yul\":417:539   */\n      pop\n      jump\t// out\n        /* \"#utility.yul\":545:684   */\n    tag_44:\n        /* \"#utility.yul\":591:596   */\n      0x00\n        /* \"#utility.yul\":629:635   */\n      dup2\n        /* \"#utility.yul\":616:636   */\n      calldataload\n        /* \"#utility.yul\":607:636   */\n      swap1\n      pop\n        /* \"#utility.yul\":645:678   */\n      tag_60\n        /* \"#utility.yul\":672:677   */\n      dup2\n        /* \"#utility.yul\":645:678   */\n      tag_43\n      jump\t// in\n    tag_60:\n        /* \"#utility.yul\":545:684   */\n      swap3\n      swap2\n      pop\n      pop\n      jump\t// out\n        /* \"#utility.yul\":690:1019   */\n    tag_9:\n        /* \"#utility.yul\":749:755   */\n      0x00\n        /* \"#utility.yul\":798:800   */\n      0x20\n        /* \"#utility.yul\":786:795   */\n      dup3\n        /* \"#utility.yul\":777:784   */\n      dup5\n        /* \"#utility.yul\":773:796   */\n      sub\n        /* \"#utility.yul\":769:801   */\n      slt\n        /* \"#utility.yul\":766:885   */\n      iszero\n      tag_62\n      jumpi\n        /* \"#utility.yul\":804:883   */\n      tag_63\n      tag_40\n      jump\t// in\n    tag_63:\n        /* \"#utility.yul\":766:885   */\n    tag_62:\n        /* \"#utility.yul\":924:925   */\n      0x00\n        /* \"#utility.yul\":949:1002   */\n      tag_64\n        /* \"#utility.yul\":994:1001   */\n      dup5\n        /* \"#utility.yul\":985:991   */\n      dup3\n        /* \"#utility.yul\":974:983   */\n      dup6\n        /* \"#utility.yul\":970:992   */\n      add\n        /* \"#utility.yul\":949:1002   */\n      tag_44\n      jump\t// in\n    tag_64:\n        /* \"#utility.yul\":939:1002   */\n      swap2\n      pop\n        /* \"#utility.yul\":895:1012   */\n      pop\n        /* \"#utility.yul\":690:1019   */\n      swap3\n      swap2\n      pop\n      pop\n      jump\t// out\n        /* \"#utility.yul\":1025:1143   */\n    tag_45:\n        /* \"#utility.yul\":1112:1136   */\n      tag_66\n        /* \"#utility.yul\":1130:1135   */\n      dup2\n        /* \"#utility.yul\":1112:1136   */\n      tag_42\n      jump\t// in\n    tag_66:\n        /* \"#utility.yul\":1107:1110   */\n      dup3\n        /* \"#utility.yul\":1100:1137   */\n      mstore\n        /* \"#utility.yul\":1025:1143   */\n      pop\n      pop\n      jump\t// out\n        /* \"#utility.yul\":1149:1371   */\n    tag_12:\n        /* \"#utility.yul\":1242:1246   */\n      0x00\n        /* \"#utility.yul\":1280:1282   */\n      0x20\n        /* \"#utility.yul\":1269:1278   */\n      dup3\n        /* \"#utility.yul\":1265:1283   */\n      add\n        /* \"#utility.yul\":1257:1283   */\n      swap1\n      pop\n        /* \"#utility.yul\":1293:1364   */\n      tag_68\n        /* \"#utility.yul\":1361:1362   */\n      0x00\n        /* \"#utility.yul\":1350:1359   */\n      dup4\n        /* \"#utility.yul\":1346:1363   */\n      add\n        /* \"#utility.yul\":1337:1343   */\n      dup5\n        /* \"#utility.yul\":1293:1364   */\n      tag_45\n      jump\t// in\n    tag_68:\n        /* \"#utility.yul\":1149:1371   */\n      swap3\n      swap2\n      pop\n      pop\n      jump\t// out\n        /* \"#utility.yul\":1377:1510   */\n    tag_46:\n        /* \"#utility.yul\":1498:1503   */\n      dup1\n        /* \"#utility.yul\":1493:1496   */\n      dup3\n        /* \"#utility.yul\":1486:1504   */\n      mstore\n        /* \"#utility.yul\":1377:1510   */\n      pop\n      pop\n      jump\t// out\n        /* \"#utility.yul\":1516:1601   */\n    tag_47:\n        /* \"#utility.yul\":1561:1568   */\n      0x00\n        /* \"#utility.yul\":1590:1595   */\n      dup2\n        /* \"#utility.yul\":1579:1595   */\n      swap1\n      pop\n        /* \"#utility.yul\":1516:1601   */\n      swap2\n      swap1\n      pop\n      jump\t// out\n        /* \"#utility.yul\":1607:1667   */\n    tag_48:\n        /* \"#utility.yul\":1635:1638   */\n      0x00\n        /* \"#utility.yul\":1656:1661   */\n      dup2\n        /* \"#utility.yul\":1649:1661   */\n      swap1\n      pop\n        /* \"#utility.yul\":1607:1667   */\n      swap2\n      swap1\n      pop\n      jump\t// out\n        /* \"#utility.yul\":1673:1831   */\n    tag_49:\n        /* \"#utility.yul\":1731:1740   */\n      0x00\n        /* \"#utility.yul\":1764:1825   */\n      tag_73\n        /* \"#utility.yul\":1782:1824   */\n      tag_74\n        /* \"#utility.yul\":1791:1823   */\n      tag_75\n        /* \"#utility.yul\":1817:1822   */\n      dup5\n        /* \"#utility.yul\":1791:1823   */\n      tag_47\n      jump\t// in\n    tag_75:\n        /* \"#utility.yul\":1782:1824   */\n      tag_48\n      jump\t// in\n    tag_74:\n        /* \"#utility.yul\":1764:1825   */\n      tag_42\n      jump\t// in\n    tag_73:\n        /* \"#utility.yul\":1751:1825   */\n      swap1\n      pop\n        /* \"#utility.yul\":1673:1831   */\n      swap2\n      swap1\n      pop\n      jump\t// out\n        /* \"#utility.yul\":1837:1992   */\n    tag_50:\n        /* \"#utility.yul\":1940:1985   */\n      tag_77\n        /* \"#utility.yul\":1979:1984   */\n      dup2\n        /* \"#utility.yul\":1940:1985   */\n      tag_49\n      jump\t// in\n    tag_77:\n        /* \"#utility.yul\":1935:1938   */\n      dup3\n        /* \"#utility.yul\":1928:1986   */\n      mstore\n        /* \"#utility.yul\":1837:1992   */\n      pop\n      pop\n      jump\t// out\n        /* \"#utility.yul\":1998:2422   */\n    tag_19:\n        /* \"#utility.yul\":2161:2165   */\n      0x00\n        /* \"#utility.yul\":2199:2201   */\n      0x40\n        /* \"#utility.yul\":2188:2197   */\n      dup3\n        /* \"#utility.yul\":2184:2202   */\n      add\n        /* \"#utility.yul\":2176:2202   */\n      swap1\n      pop\n        /* \"#utility.yul\":2212:2317   */\n      tag_79\n        /* \"#utility.yul\":2314:2315   */\n      0x00\n        /* \"#utility.yul\":2303:2312   */\n      dup4\n        /* \"#utility.yul\":2299:2316   */\n      add\n        /* \"#utility.yul\":2290:2296   */\n      dup6\n        /* \"#utility.yul\":2212:2317   */\n      tag_46\n      jump\t// in\n    tag_79:\n        /* \"#utility.yul\":2327:2415   */\n      tag_80\n        /* \"#utility.yul\":2411:2413   */\n      0x20\n        /* \"#utility.yul\":2400:2409   */\n      dup4\n        /* \"#utility.yul\":2396:2414   */\n      add\n        /* \"#utility.yul\":2387:2393   */\n      dup5\n        /* \"#utility.yul\":2327:2415   */\n      tag_50\n      jump\t// in\n    tag_80:\n        /* \"#utility.yul\":1998:2422   */\n      swap4\n      swap3\n      pop\n      pop\n      pop\n      jump\t// out\n        /* \"#utility.yul\":2428:2608   */\n    tag_25:\n        /* \"#utility.yul\":2476:2553   */\n      0x4e487b7100000000000000000000000000000000000000000000000000000000\n        /* \"#utility.yul\":2473:2474   */\n      0x00\n        /* \"#utility.yul\":2466:2554   */\n      mstore\n        /* \"#utility.yul\":2573:2577   */\n      0x01\n        /* \"#utility.yul\":2570:2571   */\n      0x04\n        /* \"#utility.yul\":2563:2578   */\n      mstore\n        /* \"#utility.yul\":2597:2601   */\n      0x24\n        /* \"#utility.yul\":2594:2595   */\n      0x00\n        /* \"#utility.yul\":2587:2602   */\n      revert\n        /* \"#utility.yul\":2614:2794   */\n    tag_28:\n        /* \"#utility.yul\":2662:2739   */\n      0x4e487b7100000000000000000000000000000000000000000000000000000000\n        /* \"#utility.yul\":2659:2660   */\n      0x00\n        /* \"#utility.yul\":2652:2740   */\n      mstore\n        /* \"#utility.yul\":2759:2763   */\n      0x32\n        /* \"#utility.yul\":2756:2757   */\n      0x04\n        /* \"#utility.yul\":2749:2764   */\n      mstore\n        /* \"#utility.yul\":2783:2787   */\n      0x24\n        /* \"#utility.yul\":2780:2781   */\n      0x00\n        /* \"#utility.yul\":2773:2788   */\n      revert\n\n    auxdata: 0xa264697066735822122093ac93bfd0044b0b98712f857c78047aa0f0047b3ce4cc36547c08fdce8e186364736f6c634300081a0033\n}\n",
				"bytecode": {
					"linkReferences": {
						"Library.sol": {
							"Array": [
								{
									"length": 20,
									"start": 207
								}
							]
						}
					},
					"object": "6080604052348015600e575f80fd5b506103308061001c5f395ff3fe608060405234801561000f575f80fd5b5060043610610034575f3560e01c806325afcbfb1461003857806371e5ee5f14610042575b5f80fd5b610040610072565b005b61005c600480360381019061005791906101dd565b610187565b6040516100699190610217565b60405180910390f35b5f5b60038110156100af575f81908060018154018082558091505060019003905f5260205f20015f90919091909150558080600101915050610074565b505f73__$121731597317c16f29e21c91e7a18be97b$__63677ca2d8909160016040518363ffffffff1660e01b81526004016100ec929190610279565b5f6040518083038186803b158015610102575f80fd5b505af4158015610114573d5f803e3d5ffd5b5050505060025f805490501461012d5761012c6102a0565b5b5f805f81548110610141576101406102cd565b5b905f5260205f20015414610158576101576102a0565b5b60025f60018154811061016e5761016d6102cd565b5b905f5260205f20015414610185576101846102a0565b5b565b5f8181548110610195575f80fd5b905f5260205f20015f915090505481565b5f80fd5b5f819050919050565b6101bc816101aa565b81146101c6575f80fd5b50565b5f813590506101d7816101b3565b92915050565b5f602082840312156101f2576101f16101a6565b5b5f6101ff848285016101c9565b91505092915050565b610211816101aa565b82525050565b5f60208201905061022a5f830184610208565b92915050565b8082525050565b5f819050919050565b5f819050919050565b5f61026361025e61025984610237565b610240565b6101aa565b9050919050565b61027381610249565b82525050565b5f60408201905061028c5f830185610230565b610299602083018461026a565b9392505050565b7f4e487b71000000000000000000000000000000000000000000000000000000005f52600160045260245ffd5b7f4e487b71000000000000000000000000000000000000000000000000000000005f52603260045260245ffdfea264697066735822122093ac93bfd0044b0b98712f857c78047aa0f0047b3ce4cc36547c08fdce8e186364736f6c634300081a0033",
					"opcodes": "PUSH1 0x80 PUSH1 0x40 MSTORE CALLVALUE DUP1 ISZERO PUSH1 0xE JUMPI PUSH0 DUP1 REVERT JUMPDEST POP PUSH2 0x330 DUP1 PUSH2 0x1C PUSH0 CODECOPY PUSH0 RETURN INVALID PUSH1 0x80 PUSH1 0x40 MSTORE CALLVALUE DUP1 ISZERO PUSH2 0xF JUMPI PUSH0 DUP1 REVERT JUMPDEST POP PUSH1 0x4 CALLDATASIZE LT PUSH2 0x34 JUMPI PUSH0 CALLDATALOAD PUSH1 0xE0 SHR DUP1 PUSH4 0x25AFCBFB EQ PUSH2 0x38 JUMPI DUP1 PUSH4 0x71E5EE5F EQ PUSH2 0x42 JUMPI JUMPDEST PUSH0 DUP1 REVERT JUMPDEST PUSH2 0x40 PUSH2 0x72 JUMP JUMPDEST STOP JUMPDEST PUSH2 0x5C PUSH1 0x4 DUP1 CALLDATASIZE SUB DUP2 ADD SWAP1 PUSH2 0x57 SWAP2 SWAP1 PUSH2 0x1DD JUMP JUMPDEST PUSH2 0x187 JUMP JUMPDEST PUSH1 0x40 MLOAD PUSH2 0x69 SWAP2 SWAP1 PUSH2 0x217 JUMP JUMPDEST PUSH1 0x40 MLOAD DUP1 SWAP2 SUB SWAP1 RETURN JUMPDEST PUSH0 JUMPDEST PUSH1 0x3 DUP2 LT ISZERO PUSH2 0xAF JUMPI PUSH0 DUP2 SWAP1 DUP1 PUSH1 0x1 DUP2 SLOAD ADD DUP1 DUP3 SSTORE DUP1 SWAP2 POP POP PUSH1 0x1 SWAP1 SUB SWAP1 PUSH0 MSTORE PUSH1 0x20 PUSH0 KECCAK256 ADD PUSH0 SWAP1 SWAP2 SWAP1 SWAP2 SWAP1 SWAP2 POP SSTORE DUP1 DUP1 PUSH1 0x1 ADD SWAP2 POP POP PUSH2 0x74 JUMP JUMPDEST POP PUSH0 PUSH20 0x0 PUSH4 0x677CA2D8 SWAP1 SWAP2 PUSH1 0x1 PUSH1 0x40 MLOAD DUP4 PUSH4 0xFFFFFFFF AND PUSH1 0xE0 SHL DUP2 MSTORE PUSH1 0x4 ADD PUSH2 0xEC SWAP3 SWAP2 SWAP1 PUSH2 0x279 JUMP JUMPDEST PUSH0 PUSH1 0x40 MLOAD DUP1 DUP4 SUB DUP2 DUP7 DUP1 EXTCODESIZE ISZERO DUP1 ISZERO PUSH2 0x102 JUMPI PUSH0 DUP1 REVERT JUMPDEST POP GAS DELEGATECALL ISZERO DUP1 ISZERO PUSH2 0x114 JUMPI RETURNDATASIZE PUSH0 DUP1 RETURNDATACOPY RETURNDATASIZE PUSH0 REVERT JUMPDEST POP POP POP POP PUSH1 0x2 PUSH0 DUP1 SLOAD SWAP1 POP EQ PUSH2 0x12D JUMPI PUSH2 0x12C PUSH2 0x2A0 JUMP JUMPDEST JUMPDEST PUSH0 DUP1 PUSH0 DUP2 SLOAD DUP2 LT PUSH2 0x141 JUMPI PUSH2 0x140 PUSH2 0x2CD JUMP JUMPDEST JUMPDEST SWAP1 PUSH0 MSTORE PUSH1 0x20 PUSH0 KECCAK256 ADD SLOAD EQ PUSH2 0x158 JUMPI PUSH2 0x157 PUSH2 0x2A0 JUMP JUMPDEST JUMPDEST PUSH1 0x2 PUSH0 PUSH1 0x1 DUP2 SLOAD DUP2 LT PUSH2 0x16E JUMPI PUSH2 0x16D PUSH2 0x2CD JUMP JUMPDEST JUMPDEST SWAP1 PUSH0 MSTORE PUSH1 0x20 PUSH0 KECCAK256 ADD SLOAD EQ PUSH2 0x185 JUMPI PUSH2 0x184 PUSH2 0x2A0 JUMP JUMPDEST JUMPDEST JUMP JUMPDEST PUSH0 DUP2 DUP2 SLOAD DUP2 LT PUSH2 0x195 JUMPI PUSH0 DUP1 REVERT JUMPDEST SWAP1 PUSH0 MSTORE PUSH1 0x20 PUSH0 KECCAK256 ADD PUSH0 SWAP2 POP SWAP1 POP SLOAD DUP2 JUMP JUMPDEST PUSH0 DUP1 REVERT JUMPDEST PUSH0 DUP2 SWAP1 POP SWAP2 SWAP1 POP JUMP JUMPDEST PUSH2 0x1BC DUP2 PUSH2 0x1AA JUMP JUMPDEST DUP2 EQ PUSH2 0x1C6 JUMPI PUSH0 DUP1 REVERT JUMPDEST POP JUMP JUMPDEST PUSH0 DUP2 CALLDATALOAD SWAP1 POP PUSH2 0x1D7 DUP2 PUSH2 0x1B3 JUMP JUMPDEST SWAP3 SWAP2 POP POP JUMP JUMPDEST PUSH0 PUSH1 0x20 DUP3 DUP5 SUB SLT ISZERO PUSH2 0x1F2 JUMPI PUSH2 0x1F1 PUSH2 0x1A6 JUMP JUMPDEST JUMPDEST PUSH0 PUSH2 0x1FF DUP5 DUP3 DUP6 ADD PUSH2 0x1C9 JUMP JUMPDEST SWAP2 POP POP SWAP3 SWAP2 POP POP JUMP JUMPDEST PUSH2 0x211 DUP2 PUSH2 0x1AA JUMP JUMPDEST DUP3 MSTORE POP POP JUMP JUMPDEST PUSH0 PUSH1 0x20 DUP3 ADD SWAP1 POP PUSH2 0x22A PUSH0 DUP4 ADD DUP5 PUSH2 0x208 JUMP JUMPDEST SWAP3 SWAP2 POP POP JUMP JUMPDEST DUP1 DUP3 MSTORE POP POP JUMP JUMPDEST PUSH0 DUP2 SWAP1 POP SWAP2 SWAP1 POP JUMP JUMPDEST PUSH0 DUP2 SWAP1 POP SWAP2 SWAP1 POP JUMP JUMPDEST PUSH0 PUSH2 0x263 PUSH2 0x25E PUSH2 0x259 DUP5 PUSH2 0x237 JUMP JUMPDEST PUSH2 0x240 JUMP JUMPDEST PUSH2 0x1AA JUMP JUMPDEST SWAP1 POP SWAP2 SWAP1 POP JUMP JUMPDEST PUSH2 0x273 DUP2 PUSH2 0x249 JUMP JUMPDEST DUP3 MSTORE POP POP JUMP JUMPDEST PUSH0 PUSH1 0x40 DUP3 ADD SWAP1 POP PUSH2 0x28C PUSH0 DUP4 ADD DUP6 PUSH2 0x230 JUMP JUMPDEST PUSH2 0x299 PUSH1 0x20 DUP4 ADD DUP5 PUSH2 0x26A JUMP JUMPDEST SWAP4 SWAP3 POP POP POP JUMP JUMPDEST PUSH32 0x4E487B7100000000000000000000000000000000000000000000000000000000 PUSH0 MSTORE PUSH1 0x1 PUSH1 0x4 MSTORE PUSH1 0x24 PUSH0 REVERT JUMPDEST PUSH32 0x4E487B7100000000000000000000000000000000000000000000000000000000 PUSH0 MSTORE PUSH1 0x32 PUSH1 0x4 MSTORE PUSH1 0x24 PUSH0 REVERT INVALID LOG2 PUSH5 0x6970667358 0x22 SLT KECCAK256 SWAP4 0xAC SWAP4 0xBF 0xD0 DIV 0x4B SIGNEXTEND SWAP9 PUSH18 0x2F857C78047AA0F0047B3CE4CC36547C08FD 0xCE DUP15 XOR PUSH4 0x64736F6C PUSH4 0x4300081A STOP CALLER "
				},
				"gasEstimates": {
					"creation": {
						"codeDepositCost": "163200",
						"executionCost": "206",
						"totalCost": "163406"
					},
					"external": {
						"arr(uint256)": "infinite",
						"testArrayRemove()": "infinite"
					}
				},
				"methodIdentifiers": {
					"arr(uint256)": "71e5ee5f",
					"testArrayRemove()": "25afcbfb"
				}
			},
			"storageLayout": {
				"storage": [
					{
						"astId": 111,
						"contract": "Library.sol:TestArray",
						"label": "arr",
						"offset": 0,
						"slot": "0",
						"type": "t_array(t_uint256)dyn_storage"
					}
				],
				"types": {
					"t_array(t_uint256)dyn_storage": {
						"base": "t_uint256",
						"encoding": "dynamic_array",
						"label": "uint256[]",
						"numberOfBytes": "32"
					},
					"t_uint256": {
						"encoding": "inplace",
						"label": "uint256",
						"numberOfBytes": "32"
					}
				}
			},
			"userdoc": {
				"kind": "user",
				"methods": {},
				"version": 1
			}
		}
	}
}