{
	"NFTCount.sol": {
		"NFTCount": {
			"abi": [
				{
					"inputs": [],
					"name": "addNFT",
					"outputs": [],
					"stateMutability": "nonpayable",
					"type": "function"
				},
				{
					"inputs": [],
					"name": "checkTotalNFT",
					"outputs": [
						{
							"internalType": "uint256",
							"name": "",
							"type": "uint256"
						}
					],
					"stateMutability": "view",
					"type": "function"
				},
				{
					"inputs": [],
					"name": "deleteNFT",
					"outputs": [],
					"stateMutability": "nonpayable",
					"type": "function"
				},
				{
					"inputs": [],
					"name": "numberOfNFT",
					"outputs": [
						{
							"internalType": "uint256",
							"name": "",
							"type": "uint256"
						}
					],
					"stateMutability": "view",
					"type": "function"
				}
			],
			"devdoc": {
				"kind": "dev",
				"methods": {},
				"version": 1
			},
			"evm": {
				"assembly": "    /* \"NFTCount.sol\":61:441  contract NFTCount {... */\n  mstore(0x40, 0x80)\n  callvalue\n  dup1\n  iszero\n  tag_1\n  jumpi\n  0x00\n  dup1\n  revert\ntag_1:\n  pop\n  dataSize(sub_0)\n  dup1\n  dataOffset(sub_0)\n  0x00\n  codecopy\n  0x00\n  return\nstop\n\nsub_0: assembly {\n        /* \"NFTCount.sol\":61:441  contract NFTCount {... */\n      mstore(0x40, 0x80)\n      callvalue\n      dup1\n      iszero\n      tag_1\n      jumpi\n      0x00\n      dup1\n      revert\n    tag_1:\n      pop\n      jumpi(tag_2, lt(calldatasize, 0x04))\n      shr(0xe0, calldataload(0x00))\n      dup1\n      0x3748a5c2\n      eq\n      tag_3\n      jumpi\n      dup1\n      0x3d82faf0\n      eq\n      tag_4\n      jumpi\n      dup1\n      0x8acc7b47\n      eq\n      tag_5\n      jumpi\n      dup1\n      0xe02b87bb\n      eq\n      tag_6\n      jumpi\n    tag_2:\n      0x00\n      dup1\n      revert\n        /* \"NFTCount.sol\":86:112  uint256 public numberOfNFT */\n    tag_3:\n      tag_7\n      tag_8\n      jump\t// in\n    tag_7:\n      mload(0x40)\n      tag_9\n      swap2\n      swap1\n      tag_10\n      jump\t// in\n    tag_9:\n      mload(0x40)\n      dup1\n      swap2\n      sub\n      swap1\n      return\n        /* \"NFTCount.sol\":152:241  function checkTotalNFT() public view returns(uint256){ ... */\n    tag_4:\n      tag_11\n      tag_12\n      jump\t// in\n    tag_11:\n      mload(0x40)\n      tag_13\n      swap2\n      swap1\n      tag_10\n      jump\t// in\n    tag_13:\n      mload(0x40)\n      dup1\n      swap2\n      sub\n      swap1\n      return\n        /* \"NFTCount.sol\":296:376  function addNFT() public {... */\n    tag_5:\n      tag_14\n      tag_15\n      jump\t// in\n    tag_14:\n      stop\n        /* \"NFTCount.sol\":382:438  function deleteNFT() public{... */\n    tag_6:\n      tag_16\n      tag_17\n      jump\t// in\n    tag_16:\n      stop\n        /* \"NFTCount.sol\":86:112  uint256 public numberOfNFT */\n    tag_8:\n      sload(0x00)\n      dup2\n      jump\t// out\n        /* \"NFTCount.sol\":152:241  function checkTotalNFT() public view returns(uint256){ ... */\n    tag_12:\n        /* \"NFTCount.sol\":197:204  uint256 */\n      0x00\n        /* \"NFTCount.sol\":221:232  numberOfNFT */\n      dup1\n      sload\n        /* \"NFTCount.sol\":214:232  return numberOfNFT */\n      swap1\n      pop\n        /* \"NFTCount.sol\":152:241  function checkTotalNFT() public view returns(uint256){ ... */\n      swap1\n      jump\t// out\n        /* \"NFTCount.sol\":296:376  function addNFT() public {... */\n    tag_15:\n        /* \"NFTCount.sol\":328:339  numberOfNFT */\n      0x00\n      dup1\n        /* \"NFTCount.sol\":328:342  numberOfNFT ++ */\n      dup2\n      sload\n      dup1\n      swap3\n      swap2\n      swap1\n      tag_20\n      swap1\n      tag_21\n      jump\t// in\n    tag_20:\n      swap2\n      swap1\n      pop\n      sstore\n      pop\n        /* \"NFTCount.sol\":296:376  function addNFT() public {... */\n      jump\t// out\n        /* \"NFTCount.sol\":382:438  function deleteNFT() public{... */\n    tag_17:\n        /* \"NFTCount.sol\":431:432  1 */\n      0x01\n        /* \"NFTCount.sol\":416:427  numberOfNFT */\n      0x00\n      dup1\n        /* \"NFTCount.sol\":416:432  numberOfNFT -= 1 */\n      dup3\n      dup3\n      sload\n      tag_23\n      swap2\n      swap1\n      tag_24\n      jump\t// in\n    tag_23:\n      swap3\n      pop\n      pop\n      dup2\n      swap1\n      sstore\n      pop\n        /* \"NFTCount.sol\":382:438  function deleteNFT() public{... */\n      jump\t// out\n        /* \"#utility.yul\":7:84   */\n    tag_25:\n        /* \"#utility.yul\":44:51   */\n      0x00\n        /* \"#utility.yul\":73:78   */\n      dup2\n        /* \"#utility.yul\":62:78   */\n      swap1\n      pop\n        /* \"#utility.yul\":7:84   */\n      swap2\n      swap1\n      pop\n      jump\t// out\n        /* \"#utility.yul\":90:208   */\n    tag_26:\n        /* \"#utility.yul\":177:201   */\n      tag_31\n        /* \"#utility.yul\":195:200   */\n      dup2\n        /* \"#utility.yul\":177:201   */\n      tag_25\n      jump\t// in\n    tag_31:\n        /* \"#utility.yul\":172:175   */\n      dup3\n        /* \"#utility.yul\":165:202   */\n      mstore\n        /* \"#utility.yul\":90:208   */\n      pop\n      pop\n      jump\t// out\n        /* \"#utility.yul\":214:436   */\n    tag_10:\n        /* \"#utility.yul\":307:311   */\n      0x00\n        /* \"#utility.yul\":345:347   */\n      0x20\n        /* \"#utility.yul\":334:343   */\n      dup3\n        /* \"#utility.yul\":330:348   */\n      add\n        /* \"#utility.yul\":322:348   */\n      swap1\n      pop\n        /* \"#utility.yul\":358:429   */\n      tag_33\n        /* \"#utility.yul\":426:427   */\n      0x00\n        /* \"#utility.yul\":415:424   */\n      dup4\n        /* \"#utility.yul\":411:428   */\n      add\n        /* \"#utility.yul\":402:408   */\n      dup5\n        /* \"#utility.yul\":358:429   */\n      tag_26\n      jump\t// in\n    tag_33:\n        /* \"#utility.yul\":214:436   */\n      swap3\n      swap2\n      pop\n      pop\n      jump\t// out\n        /* \"#utility.yul\":442:622   */\n    tag_27:\n        /* \"#utility.yul\":490:567   */\n      0x4e487b7100000000000000000000000000000000000000000000000000000000\n        /* \"#utility.yul\":487:488   */\n      0x00\n        /* \"#utility.yul\":480:568   */\n      mstore\n        /* \"#utility.yul\":587:591   */\n      0x11\n        /* \"#utility.yul\":584:585   */\n      0x04\n        /* \"#utility.yul\":577:592   */\n      mstore\n        /* \"#utility.yul\":611:615   */\n      0x24\n        /* \"#utility.yul\":608:609   */\n      0x00\n        /* \"#utility.yul\":601:616   */\n      revert\n        /* \"#utility.yul\":628:861   */\n    tag_21:\n        /* \"#utility.yul\":667:670   */\n      0x00\n        /* \"#utility.yul\":690:714   */\n      tag_36\n        /* \"#utility.yul\":708:713   */\n      dup3\n        /* \"#utility.yul\":690:714   */\n      tag_25\n      jump\t// in\n    tag_36:\n        /* \"#utility.yul\":681:714   */\n      swap2\n      pop\n        /* \"#utility.yul\":736:802   */\n      0xffffffffffffffffffffffffffffffffffffffffffffffffffffffffffffffff\n        /* \"#utility.yul\":729:734   */\n      dup3\n        /* \"#utility.yul\":726:803   */\n      sub\n        /* \"#utility.yul\":723:826   */\n      tag_37\n      jumpi\n        /* \"#utility.yul\":806:824   */\n      tag_38\n      tag_27\n      jump\t// in\n    tag_38:\n        /* \"#utility.yul\":723:826   */\n    tag_37:\n        /* \"#utility.yul\":853:854   */\n      0x01\n        /* \"#utility.yul\":846:851   */\n      dup3\n        /* \"#utility.yul\":842:855   */\n      add\n        /* \"#utility.yul\":835:855   */\n      swap1\n      pop\n        /* \"#utility.yul\":628:861   */\n      swap2\n      swap1\n      pop\n      jump\t// out\n        /* \"#utility.yul\":867:1061   */\n    tag_24:\n        /* \"#utility.yul\":907:911   */\n      0x00\n        /* \"#utility.yul\":927:947   */\n      tag_40\n        /* \"#utility.yul\":945:946   */\n      dup3\n        /* \"#utility.yul\":927:947   */\n      tag_25\n      jump\t// in\n    tag_40:\n        /* \"#utility.yul\":922:947   */\n      swap2\n      pop\n        /* \"#utility.yul\":961:981   */\n      tag_41\n        /* \"#utility.yul\":979:980   */\n      dup4\n        /* \"#utility.yul\":961:981   */\n      tag_25\n      jump\t// in\n    tag_41:\n        /* \"#utility.yul\":956:981   */\n      swap3\n      pop\n        /* \"#utility.yul\":1005:1006   */\n      dup3\n        /* \"#utility.yul\":1002:1003   */\n      dup3\n        /* \"#utility.yul\":998:1007   */\n      sub\n        /* \"#utility.yul\":990:1007   */\n      swap1\n      pop\n        /* \"#utility.yul\":1029:1030   */\n      dup2\n        /* \"#utility.yul\":1023:1027   */\n      dup2\n        /* \"#utility.yul\":1020:1031   */\n      gt\n        /* \"#utility.yul\":1017:1054   */\n      iszero\n      tag_42\n      jumpi\n        /* \"#utility.yul\":1034:1052   */\n      tag_43\n      tag_27\n      jump\t// in\n    tag_43:\n        /* \"#utility.yul\":1017:1054   */\n    tag_42:\n        /* \"#utility.yul\":867:1061   */\n      swap3\n      swap2\n      pop\n      pop\n      jump\t// out\n\n    auxdata: 0xa26469706673582212209dfe26f3cb12d6e214309f186e970cead7eb533385e73a1d6856d0b85ff8e10264736f6c634300081a0033\n}\n",
				"bytecode": {
					"linkReferences": {},
					"object": "6080604052348015600e575f80fd5b506101eb8061001c5f395ff3fe608060405234801561000f575f80fd5b506004361061004a575f3560e01c80633748a5c21461004e5780633d82faf01461006c5780638acc7b471461008a578063e02b87bb14610094575b5f80fd5b61005661009e565b60405161006391906100f5565b60405180910390f35b6100746100a3565b60405161008191906100f5565b60405180910390f35b6100926100ab565b005b61009c6100c3565b005b5f5481565b5f8054905090565b5f808154809291906100bc9061013b565b9190505550565b60015f808282546100d49190610182565b92505081905550565b5f819050919050565b6100ef816100dd565b82525050565b5f6020820190506101085f8301846100e6565b92915050565b7f4e487b71000000000000000000000000000000000000000000000000000000005f52601160045260245ffd5b5f610145826100dd565b91507fffffffffffffffffffffffffffffffffffffffffffffffffffffffffffffffff82036101775761017661010e565b5b600182019050919050565b5f61018c826100dd565b9150610197836100dd565b92508282039050818111156101af576101ae61010e565b5b9291505056fea26469706673582212209dfe26f3cb12d6e214309f186e970cead7eb533385e73a1d6856d0b85ff8e10264736f6c634300081a0033",
					"opcodes": "PUSH1 0x80 PUSH1 0x40 MSTORE CALLVALUE DUP1 ISZERO PUSH1 0xE JUMPI PUSH0 DUP1 REVERT JUMPDEST POP PUSH2 0x1EB DUP1 PUSH2 0x1C PUSH0 CODECOPY PUSH0 RETURN INVALID PUSH1 0x80 PUSH1 0x40 MSTORE CALLVALUE DUP1 ISZERO PUSH2 0xF JUMPI PUSH0 DUP1 REVERT JUMPDEST POP PUSH1 0x4 CALLDATASIZE LT PUSH2 0x4A JUMPI PUSH0 CALLDATALOAD PUSH1 0xE0 SHR DUP1 PUSH4 0x3748A5C2 EQ PUSH2 0x4E JUMPI DUP1 PUSH4 0x3D82FAF0 EQ PUSH2 0x6C JUMPI DUP1 PUSH4 0x8ACC7B47 EQ PUSH2 0x8A JUMPI DUP1 PUSH4 0xE02B87BB EQ PUSH2 0x94 JUMPI JUMPDEST PUSH0 DUP1 REVERT JUMPDEST PUSH2 0x56 PUSH2 0x9E JUMP JUMPDEST PUSH1 0x40 MLOAD PUSH2 0x63 SWAP2 SWAP1 PUSH2 0xF5 JUMP JUMPDEST PUSH1 0x40 MLOAD DUP1 SWAP2 SUB SWAP1 RETURN JUMPDEST PUSH2 0x74 PUSH2 0xA3 JUMP JUMPDEST PUSH1 0x40 MLOAD PUSH2 0x81 SWAP2 SWAP1 PUSH2 0xF5 JUMP JUMPDEST PUSH1 0x40 MLOAD DUP1 SWAP2 SUB SWAP1 RETURN JUMPDEST PUSH2 0x92 PUSH2 0xAB JUMP JUMPDEST STOP JUMPDEST PUSH2 0x9C PUSH2 0xC3 JUMP JUMPDEST STOP JUMPDEST PUSH0 SLOAD DUP2 JUMP JUMPDEST PUSH0 DUP1 SLOAD SWAP1 POP SWAP1 JUMP JUMPDEST PUSH0 DUP1 DUP2 SLOAD DUP1 SWAP3 SWAP2 SWAP1 PUSH2 0xBC SWAP1 PUSH2 0x13B JUMP JUMPDEST SWAP2 SWAP1 POP SSTORE POP JUMP JUMPDEST PUSH1 0x1 PUSH0 DUP1 DUP3 DUP3 SLOAD PUSH2 0xD4 SWAP2 SWAP1 PUSH2 0x182 JUMP JUMPDEST SWAP3 POP POP DUP2 SWAP1 SSTORE POP JUMP JUMPDEST PUSH0 DUP2 SWAP1 POP SWAP2 SWAP1 POP JUMP JUMPDEST PUSH2 0xEF DUP2 PUSH2 0xDD JUMP JUMPDEST DUP3 MSTORE POP POP JUMP JUMPDEST PUSH0 PUSH1 0x20 DUP3 ADD SWAP1 POP PUSH2 0x108 PUSH0 DUP4 ADD DUP5 PUSH2 0xE6 JUMP JUMPDEST SWAP3 SWAP2 POP POP JUMP JUMPDEST PUSH32 0x4E487B7100000000000000000000000000000000000000000000000000000000 PUSH0 MSTORE PUSH1 0x11 PUSH1 0x4 MSTORE PUSH1 0x24 PUSH0 REVERT JUMPDEST PUSH0 PUSH2 0x145 DUP3 PUSH2 0xDD JUMP JUMPDEST SWAP2 POP PUSH32 0xFFFFFFFFFFFFFFFFFFFFFFFFFFFFFFFFFFFFFFFFFFFFFFFFFFFFFFFFFFFFFFFF DUP3 SUB PUSH2 0x177 JUMPI PUSH2 0x176 PUSH2 0x10E JUMP JUMPDEST JUMPDEST PUSH1 0x1 DUP3 ADD SWAP1 POP SWAP2 SWAP1 POP JUMP JUMPDEST PUSH0 PUSH2 0x18C DUP3 PUSH2 0xDD JUMP JUMPDEST SWAP2 POP PUSH2 0x197 DUP4 PUSH2 0xDD JUMP JUMPDEST SWAP3 POP DUP3 DUP3 SUB SWAP1 POP DUP2 DUP2 GT ISZERO PUSH2 0x1AF JUMPI PUSH2 0x1AE PUSH2 0x10E JUMP JUMPDEST JUMPDEST SWAP3 SWAP2 POP POP JUMP INVALID LOG2 PUSH5 0x6970667358 0x22 SLT KECCAK256 SWAP14 INVALID 0x26 RETURN 0xCB SLT 0xD6 0xE2 EQ ADDRESS SWAP16 XOR PUSH15 0x970CEAD7EB533385E73A1D6856D0B8 PUSH0 0xF8 0xE1 MUL PUSH5 0x736F6C6343 STOP ADDMOD BYTE STOP CALLER "
				},
				"gasEstimates": {
					"creation": {
						"codeDepositCost": "98200",
						"executionCost": "145",
						"totalCost": "98345"
					},
					"external": {
						"addNFT()": "24519",
						"checkTotalNFT()": "2432",
						"deleteNFT()": "infinite",
						"numberOfNFT()": "2402"
					}
				},
				"methodIdentifiers": {
					"addNFT()": "8acc7b47",
					"checkTotalNFT()": "3d82faf0",
					"deleteNFT()": "e02b87bb",
					"numberOfNFT()": "3748a5c2"
				}
			},
			"storageLayout": {
				"storage": [
					{
						"astId": 3,
						"contract": "NFTCount.sol:NFTCount",
						"label": "numberOfNFT",
						"offset": 0,
						"slot": "0",
						"type": "t_uint256"
					}
				],
				"types": {
					"t_uint256": {
						"encoding": "inplace",
						"label": "uint256",
						"numberOfBytes": "32"
					}
				}
			},
			"userdoc": {
				"kind": "user",
				"methods": {},
				"version": 1
			}
		}
	}
}