{
	"view.sol": {
		"View": {
			"abi": [
				{
					"inputs": [],
					"name": "getResults",
					"outputs": [
						{
							"internalType": "uint256",
							"name": "",
							"type": "uint256"
						},
						{
							"internalType": "uint256",
							"name": "",
							"type": "uint256"
						}
					],
					"stateMutability": "view",
					"type": "function"
				},
				{
					"inputs": [],
					"name": "num1",
					"outputs": [
						{
							"internalType": "uint256",
							"name": "",
							"type": "uint256"
						}
					],
					"stateMutability": "view",
					"type": "function"
				},
				{
					"inputs": [],
					"name": "num2",
					"outputs": [
						{
							"internalType": "uint256",
							"name": "",
							"type": "uint256"
						}
					],
					"stateMutability": "view",
					"type": "function"
				}
			],
			"devdoc": {
				"kind": "dev",
				"methods": {},
				"version": 1
			},
			"evm": {
				"assembly": "    /* \"view.sol\":71:633  contract View... */\n  mstore(0x40, 0x80)\n    /* \"view.sol\":115:116  2 */\n  0x02\n    /* \"view.sol\":93:116  uint256 public num1 = 2 */\n  0x00\n  sstore\n    /* \"view.sol\":145:146  7 */\n  0x07\n    /* \"view.sol\":123:146  uint256 public num2 = 7 */\n  0x01\n  sstore\n    /* \"view.sol\":71:633  contract View... */\n  callvalue\n  dup1\n  iszero\n  tag_1\n  jumpi\n  0x00\n  dup1\n  revert\ntag_1:\n  pop\n  dataSize(sub_0)\n  dup1\n  dataOffset(sub_0)\n  0x00\n  codecopy\n  0x00\n  return\nstop\n\nsub_0: assembly {\n        /* \"view.sol\":71:633  contract View... */\n      mstore(0x40, 0x80)\n      callvalue\n      dup1\n      iszero\n      tag_1\n      jumpi\n      0x00\n      dup1\n      revert\n    tag_1:\n      pop\n      jumpi(tag_2, lt(calldatasize, 0x04))\n      shr(0xe0, calldataload(0x00))\n      dup1\n      0x15d4266c\n      eq\n      tag_3\n      jumpi\n      dup1\n      0x3b9eac4b\n      eq\n      tag_4\n      jumpi\n      dup1\n      0x4717f97c\n      eq\n      tag_5\n      jumpi\n    tag_2:\n      0x00\n      dup1\n      revert\n        /* \"view.sol\":123:146  uint256 public num2 = 7 */\n    tag_3:\n      tag_6\n      tag_7\n      jump\t// in\n    tag_6:\n      mload(0x40)\n      tag_8\n      swap2\n      swap1\n      tag_9\n      jump\t// in\n    tag_8:\n      mload(0x40)\n      dup1\n      swap2\n      sub\n      swap1\n      return\n        /* \"view.sol\":93:116  uint256 public num1 = 2 */\n    tag_4:\n      tag_10\n      tag_11\n      jump\t// in\n    tag_10:\n      mload(0x40)\n      tag_12\n      swap2\n      swap1\n      tag_9\n      jump\t// in\n    tag_12:\n      mload(0x40)\n      dup1\n      swap2\n      sub\n      swap1\n      return\n        /* \"view.sol\":315:622  function getResults() public view returns(uint256, uint256)... */\n    tag_5:\n      tag_13\n      tag_14\n      jump\t// in\n    tag_13:\n      mload(0x40)\n      tag_15\n      swap3\n      swap2\n      swap1\n      tag_16\n      jump\t// in\n    tag_15:\n      mload(0x40)\n      dup1\n      swap2\n      sub\n      swap1\n      return\n        /* \"view.sol\":123:146  uint256 public num2 = 7 */\n    tag_7:\n      sload(0x01)\n      dup2\n      jump\t// out\n        /* \"view.sol\":93:116  uint256 public num1 = 2 */\n    tag_11:\n      sload(0x00)\n      dup2\n      jump\t// out\n        /* \"view.sol\":315:622  function getResults() public view returns(uint256, uint256)... */\n    tag_14:\n        /* \"view.sol\":357:364  uint256 */\n      0x00\n        /* \"view.sol\":366:373  uint256 */\n      dup1\n        /* \"view.sol\":502:518  uint256  product */\n      0x00\n        /* \"view.sol\":528:532  num2 */\n      sload(0x01)\n        /* \"view.sol\":521:525  num1 */\n      sload(0x00)\n        /* \"view.sol\":521:532  num1 * num2 */\n      tag_18\n      swap2\n      swap1\n      tag_19\n      jump\t// in\n    tag_18:\n        /* \"view.sol\":502:532  uint256  product = num1 * num2 */\n      swap1\n      pop\n        /* \"view.sol\":541:554  uint256 total */\n      0x00\n        /* \"view.sol\":564:568  num2 */\n      sload(0x01)\n        /* \"view.sol\":557:561  num1 */\n      sload(0x00)\n        /* \"view.sol\":557:568  num1 + num2 */\n      tag_20\n      swap2\n      swap1\n      tag_21\n      jump\t// in\n    tag_20:\n        /* \"view.sol\":541:568  uint256 total = num1 + num2 */\n      swap1\n      pop\n        /* \"view.sol\":588:595  product */\n      dup2\n        /* \"view.sol\":597:602  total */\n      dup2\n        /* \"view.sol\":581:603  return(product, total) */\n      swap4\n      pop\n      swap4\n      pop\n      pop\n      pop\n        /* \"view.sol\":315:622  function getResults() public view returns(uint256, uint256)... */\n      swap1\n      swap2\n      jump\t// out\n        /* \"#utility.yul\":7:84   */\n    tag_22:\n        /* \"#utility.yul\":44:51   */\n      0x00\n        /* \"#utility.yul\":73:78   */\n      dup2\n        /* \"#utility.yul\":62:78   */\n      swap1\n      pop\n        /* \"#utility.yul\":7:84   */\n      swap2\n      swap1\n      pop\n      jump\t// out\n        /* \"#utility.yul\":90:208   */\n    tag_23:\n        /* \"#utility.yul\":177:201   */\n      tag_28\n        /* \"#utility.yul\":195:200   */\n      dup2\n        /* \"#utility.yul\":177:201   */\n      tag_22\n      jump\t// in\n    tag_28:\n        /* \"#utility.yul\":172:175   */\n      dup3\n        /* \"#utility.yul\":165:202   */\n      mstore\n        /* \"#utility.yul\":90:208   */\n      pop\n      pop\n      jump\t// out\n        /* \"#utility.yul\":214:436   */\n    tag_9:\n        /* \"#utility.yul\":307:311   */\n      0x00\n        /* \"#utility.yul\":345:347   */\n      0x20\n        /* \"#utility.yul\":334:343   */\n      dup3\n        /* \"#utility.yul\":330:348   */\n      add\n        /* \"#utility.yul\":322:348   */\n      swap1\n      pop\n        /* \"#utility.yul\":358:429   */\n      tag_30\n        /* \"#utility.yul\":426:427   */\n      0x00\n        /* \"#utility.yul\":415:424   */\n      dup4\n        /* \"#utility.yul\":411:428   */\n      add\n        /* \"#utility.yul\":402:408   */\n      dup5\n        /* \"#utility.yul\":358:429   */\n      tag_23\n      jump\t// in\n    tag_30:\n        /* \"#utility.yul\":214:436   */\n      swap3\n      swap2\n      pop\n      pop\n      jump\t// out\n        /* \"#utility.yul\":442:774   */\n    tag_16:\n        /* \"#utility.yul\":563:567   */\n      0x00\n        /* \"#utility.yul\":601:603   */\n      0x40\n        /* \"#utility.yul\":590:599   */\n      dup3\n        /* \"#utility.yul\":586:604   */\n      add\n        /* \"#utility.yul\":578:604   */\n      swap1\n      pop\n        /* \"#utility.yul\":614:685   */\n      tag_32\n        /* \"#utility.yul\":682:683   */\n      0x00\n        /* \"#utility.yul\":671:680   */\n      dup4\n        /* \"#utility.yul\":667:684   */\n      add\n        /* \"#utility.yul\":658:664   */\n      dup6\n        /* \"#utility.yul\":614:685   */\n      tag_23\n      jump\t// in\n    tag_32:\n        /* \"#utility.yul\":695:767   */\n      tag_33\n        /* \"#utility.yul\":763:765   */\n      0x20\n        /* \"#utility.yul\":752:761   */\n      dup4\n        /* \"#utility.yul\":748:766   */\n      add\n        /* \"#utility.yul\":739:745   */\n      dup5\n        /* \"#utility.yul\":695:767   */\n      tag_23\n      jump\t// in\n    tag_33:\n        /* \"#utility.yul\":442:774   */\n      swap4\n      swap3\n      pop\n      pop\n      pop\n      jump\t// out\n        /* \"#utility.yul\":780:960   */\n    tag_24:\n        /* \"#utility.yul\":828:905   */\n      0x4e487b7100000000000000000000000000000000000000000000000000000000\n        /* \"#utility.yul\":825:826   */\n      0x00\n        /* \"#utility.yul\":818:906   */\n      mstore\n        /* \"#utility.yul\":925:929   */\n      0x11\n        /* \"#utility.yul\":922:923   */\n      0x04\n        /* \"#utility.yul\":915:930   */\n      mstore\n        /* \"#utility.yul\":949:953   */\n      0x24\n        /* \"#utility.yul\":946:947   */\n      0x00\n        /* \"#utility.yul\":939:954   */\n      revert\n        /* \"#utility.yul\":966:1376   */\n    tag_19:\n        /* \"#utility.yul\":1006:1013   */\n      0x00\n        /* \"#utility.yul\":1029:1049   */\n      tag_36\n        /* \"#utility.yul\":1047:1048   */\n      dup3\n        /* \"#utility.yul\":1029:1049   */\n      tag_22\n      jump\t// in\n    tag_36:\n        /* \"#utility.yul\":1024:1049   */\n      swap2\n      pop\n        /* \"#utility.yul\":1063:1083   */\n      tag_37\n        /* \"#utility.yul\":1081:1082   */\n      dup4\n        /* \"#utility.yul\":1063:1083   */\n      tag_22\n      jump\t// in\n    tag_37:\n        /* \"#utility.yul\":1058:1083   */\n      swap3\n      pop\n        /* \"#utility.yul\":1118:1119   */\n      dup3\n        /* \"#utility.yul\":1115:1116   */\n      dup3\n        /* \"#utility.yul\":1111:1120   */\n      mul\n        /* \"#utility.yul\":1140:1170   */\n      tag_38\n        /* \"#utility.yul\":1158:1169   */\n      dup2\n        /* \"#utility.yul\":1140:1170   */\n      tag_22\n      jump\t// in\n    tag_38:\n        /* \"#utility.yul\":1129:1170   */\n      swap2\n      pop\n        /* \"#utility.yul\":1319:1320   */\n      dup3\n        /* \"#utility.yul\":1310:1317   */\n      dup3\n        /* \"#utility.yul\":1306:1321   */\n      div\n        /* \"#utility.yul\":1303:1304   */\n      dup5\n        /* \"#utility.yul\":1300:1322   */\n      eq\n        /* \"#utility.yul\":1280:1281   */\n      dup4\n        /* \"#utility.yul\":1273:1282   */\n      iszero\n        /* \"#utility.yul\":1253:1336   */\n      or\n        /* \"#utility.yul\":1230:1369   */\n      tag_39\n      jumpi\n        /* \"#utility.yul\":1349:1367   */\n      tag_40\n      tag_24\n      jump\t// in\n    tag_40:\n        /* \"#utility.yul\":1230:1369   */\n    tag_39:\n        /* \"#utility.yul\":1014:1376   */\n      pop\n        /* \"#utility.yul\":966:1376   */\n      swap3\n      swap2\n      pop\n      pop\n      jump\t// out\n        /* \"#utility.yul\":1382:1573   */\n    tag_21:\n        /* \"#utility.yul\":1422:1425   */\n      0x00\n        /* \"#utility.yul\":1441:1461   */\n      tag_42\n        /* \"#utility.yul\":1459:1460   */\n      dup3\n        /* \"#utility.yul\":1441:1461   */\n      tag_22\n      jump\t// in\n    tag_42:\n        /* \"#utility.yul\":1436:1461   */\n      swap2\n      pop\n        /* \"#utility.yul\":1475:1495   */\n      tag_43\n        /* \"#utility.yul\":1493:1494   */\n      dup4\n        /* \"#utility.yul\":1475:1495   */\n      tag_22\n      jump\t// in\n    tag_43:\n        /* \"#utility.yul\":1470:1495   */\n      swap3\n      pop\n        /* \"#utility.yul\":1518:1519   */\n      dup3\n        /* \"#utility.yul\":1515:1516   */\n      dup3\n        /* \"#utility.yul\":1511:1520   */\n      add\n        /* \"#utility.yul\":1504:1520   */\n      swap1\n      pop\n        /* \"#utility.yul\":1539:1542   */\n      dup1\n        /* \"#utility.yul\":1536:1537   */\n      dup3\n        /* \"#utility.yul\":1533:1543   */\n      gt\n        /* \"#utility.yul\":1530:1566   */\n      iszero\n      tag_44\n      jumpi\n        /* \"#utility.yul\":1546:1564   */\n      tag_45\n      tag_24\n      jump\t// in\n    tag_45:\n        /* \"#utility.yul\":1530:1566   */\n    tag_44:\n        /* \"#utility.yul\":1382:1573   */\n      swap3\n      swap2\n      pop\n      pop\n      jump\t// out\n\n    auxdata: 0xa26469706673582212208dbc0a3dab9c2fbafc63b49fdc466ab5f0d1b7b999e6d8f6d1b0a3e84ccfc78664736f6c634300081a0033\n}\n",
				"bytecode": {
					"linkReferences": {},
					"object": "608060405260025f5560076001553480156017575f80fd5b5061020a806100255f395ff3fe608060405234801561000f575f80fd5b506004361061003f575f3560e01c806315d4266c146100435780633b9eac4b146100615780634717f97c1461007f575b5f80fd5b61004b61009e565b60405161005891906100f3565b60405180910390f35b6100696100a4565b60405161007691906100f3565b60405180910390f35b6100876100a9565b60405161009592919061010c565b60405180910390f35b60015481565b5f5481565b5f805f6001545f546100bb9190610160565b90505f6001545f546100cd91906101a1565b905081819350935050509091565b5f819050919050565b6100ed816100db565b82525050565b5f6020820190506101065f8301846100e4565b92915050565b5f60408201905061011f5f8301856100e4565b61012c60208301846100e4565b9392505050565b7f4e487b71000000000000000000000000000000000000000000000000000000005f52601160045260245ffd5b5f61016a826100db565b9150610175836100db565b9250828202610183816100db565b9150828204841483151761019a57610199610133565b5b5092915050565b5f6101ab826100db565b91506101b6836100db565b92508282019050808211156101ce576101cd610133565b5b9291505056fea26469706673582212208dbc0a3dab9c2fbafc63b49fdc466ab5f0d1b7b999e6d8f6d1b0a3e84ccfc78664736f6c634300081a0033",
					"opcodes": "PUSH1 0x80 PUSH1 0x40 MSTORE PUSH1 0x2 PUSH0 SSTORE PUSH1 0x7 PUSH1 0x1 SSTORE CALLVALUE DUP1 ISZERO PUSH1 0x17 JUMPI PUSH0 DUP1 REVERT JUMPDEST POP PUSH2 0x20A DUP1 PUSH2 0x25 PUSH0 CODECOPY PUSH0 RETURN INVALID PUSH1 0x80 PUSH1 0x40 MSTORE CALLVALUE DUP1 ISZERO PUSH2 0xF JUMPI PUSH0 DUP1 REVERT JUMPDEST POP PUSH1 0x4 CALLDATASIZE LT PUSH2 0x3F JUMPI PUSH0 CALLDATALOAD PUSH1 0xE0 SHR DUP1 PUSH4 0x15D4266C EQ PUSH2 0x43 JUMPI DUP1 PUSH4 0x3B9EAC4B EQ PUSH2 0x61 JUMPI DUP1 PUSH4 0x4717F97C EQ PUSH2 0x7F JUMPI JUMPDEST PUSH0 DUP1 REVERT JUMPDEST PUSH2 0x4B PUSH2 0x9E JUMP JUMPDEST PUSH1 0x40 MLOAD PUSH2 0x58 SWAP2 SWAP1 PUSH2 0xF3 JUMP JUMPDEST PUSH1 0x40 MLOAD DUP1 SWAP2 SUB SWAP1 RETURN JUMPDEST PUSH2 0x69 PUSH2 0xA4 JUMP JUMPDEST PUSH1 0x40 MLOAD PUSH2 0x76 SWAP2 SWAP1 PUSH2 0xF3 JUMP JUMPDEST PUSH1 0x40 MLOAD DUP1 SWAP2 SUB SWAP1 RETURN JUMPDEST PUSH2 0x87 PUSH2 0xA9 JUMP JUMPDEST PUSH1 0x40 MLOAD PUSH2 0x95 SWAP3 SWAP2 SWAP1 PUSH2 0x10C JUMP JUMPDEST PUSH1 0x40 MLOAD DUP1 SWAP2 SUB SWAP1 RETURN JUMPDEST PUSH1 0x1 SLOAD DUP2 JUMP JUMPDEST PUSH0 SLOAD DUP2 JUMP JUMPDEST PUSH0 DUP1 PUSH0 PUSH1 0x1 SLOAD PUSH0 SLOAD PUSH2 0xBB SWAP2 SWAP1 PUSH2 0x160 JUMP JUMPDEST SWAP1 POP PUSH0 PUSH1 0x1 SLOAD PUSH0 SLOAD PUSH2 0xCD SWAP2 SWAP1 PUSH2 0x1A1 JUMP JUMPDEST SWAP1 POP DUP2 DUP2 SWAP4 POP SWAP4 POP POP POP SWAP1 SWAP2 JUMP JUMPDEST PUSH0 DUP2 SWAP1 POP SWAP2 SWAP1 POP JUMP JUMPDEST PUSH2 0xED DUP2 PUSH2 0xDB JUMP JUMPDEST DUP3 MSTORE POP POP JUMP JUMPDEST PUSH0 PUSH1 0x20 DUP3 ADD SWAP1 POP PUSH2 0x106 PUSH0 DUP4 ADD DUP5 PUSH2 0xE4 JUMP JUMPDEST SWAP3 SWAP2 POP POP JUMP JUMPDEST PUSH0 PUSH1 0x40 DUP3 ADD SWAP1 POP PUSH2 0x11F PUSH0 DUP4 ADD DUP6 PUSH2 0xE4 JUMP JUMPDEST PUSH2 0x12C PUSH1 0x20 DUP4 ADD DUP5 PUSH2 0xE4 JUMP JUMPDEST SWAP4 SWAP3 POP POP POP JUMP JUMPDEST PUSH32 0x4E487B7100000000000000000000000000000000000000000000000000000000 PUSH0 MSTORE PUSH1 0x11 PUSH1 0x4 MSTORE PUSH1 0x24 PUSH0 REVERT JUMPDEST PUSH0 PUSH2 0x16A DUP3 PUSH2 0xDB JUMP JUMPDEST SWAP2 POP PUSH2 0x175 DUP4 PUSH2 0xDB JUMP JUMPDEST SWAP3 POP DUP3 DUP3 MUL PUSH2 0x183 DUP2 PUSH2 0xDB JUMP JUMPDEST SWAP2 POP DUP3 DUP3 DIV DUP5 EQ DUP4 ISZERO OR PUSH2 0x19A JUMPI PUSH2 0x199 PUSH2 0x133 JUMP JUMPDEST JUMPDEST POP SWAP3 SWAP2 POP POP JUMP JUMPDEST PUSH0 PUSH2 0x1AB DUP3 PUSH2 0xDB JUMP JUMPDEST SWAP2 POP PUSH2 0x1B6 DUP4 PUSH2 0xDB JUMP JUMPDEST SWAP3 POP DUP3 DUP3 ADD SWAP1 POP DUP1 DUP3 GT ISZERO PUSH2 0x1CE JUMPI PUSH2 0x1CD PUSH2 0x133 JUMP JUMPDEST JUMPDEST SWAP3 SWAP2 POP POP JUMP INVALID LOG2 PUSH5 0x6970667358 0x22 SLT KECCAK256 DUP14 0xBC EXP RETURNDATASIZE 0xAB SWAP13 0x2F 0xBA 0xFC PUSH4 0xB49FDC46 PUSH11 0xB5F0D1B7B999E6D8F6D1B0 LOG3 0xE8 0x4C 0xCF 0xC7 DUP7 PUSH5 0x736F6C6343 STOP ADDMOD BYTE STOP CALLER "
				},
				"gasEstimates": {
					"creation": {
						"codeDepositCost": "104400",
						"executionCost": "44362",
						"totalCost": "148762"
					},
					"external": {
						"getResults()": "infinite",
						"num1()": "2424",
						"num2()": "2403"
					}
				},
				"methodIdentifiers": {
					"getResults()": "4717f97c",
					"num1()": "3b9eac4b",
					"num2()": "15d4266c"
				}
			},
			"storageLayout": {
				"storage": [
					{
						"astId": 4,
						"contract": "view.sol:View",
						"label": "num1",
						"offset": 0,
						"slot": "0",
						"type": "t_uint256"
					},
					{
						"astId": 7,
						"contract": "view.sol:View",
						"label": "num2",
						"offset": 0,
						"slot": "1",
						"type": "t_uint256"
					}
				],
				"types": {
					"t_uint256": {
						"encoding": "inplace",
						"label": "uint256",
						"numberOfBytes": "32"
					}
				}
			},
			"userdoc": {
				"kind": "user",
				"methods": {},
				"version": 1
			}
		}
	}
}